{
  "contracts/AnonymousVoter.sol": {
    "AnonymousVoter": {
      "abi": [
        {
          "inputs": [
            {
              "internalType": "address",
              "name": "_verifier",
              "type": "address"
            },
            {
              "internalType": "address",
              "name": "_treeManager",
              "type": "address"
            },
            {
              "internalType": "address",
              "name": "_proposalRegistry",
              "type": "address"
            }
          ],
          "stateMutability": "nonpayable",
          "type": "constructor"
        },
        {
          "anonymous": false,
          "inputs": [
            {
              "indexed": true,
              "internalType": "uint256",
              "name": "proposalId",
              "type": "uint256"
            },
            {
              "indexed": false,
              "internalType": "uint256",
              "name": "nullifierHash",
              "type": "uint256"
            }
          ],
          "name": "VoteRelayed",
          "type": "event"
        },
        {
          "inputs": [
            {
              "internalType": "uint256",
              "name": "proposalId",
              "type": "uint256"
            },
            {
              "internalType": "uint256",
              "name": "nullifierHash",
              "type": "uint256"
            },
            {
              "internalType": "bytes",
              "name": "encryptedVote",
              "type": "bytes"
            },
            {
              "internalType": "uint256[8]",
              "name": "proof",
              "type": "uint256[8]"
            },
            {
              "internalType": "uint256",
              "name": "merkleTreeDepth",
              "type": "uint256"
            }
          ],
          "name": "castVote",
          "outputs": [],
          "stateMutability": "nonpayable",
          "type": "function"
        },
        {
          "inputs": [
            {
              "internalType": "uint256",
              "name": "",
              "type": "uint256"
            },
            {
              "internalType": "uint256",
              "name": "",
              "type": "uint256"
            }
          ],
          "name": "nullifierHashes",
          "outputs": [
            {
              "internalType": "bool",
              "name": "",
              "type": "bool"
            }
          ],
          "stateMutability": "view",
          "type": "function"
        },
        {
          "inputs": [],
          "name": "proposalRegistry",
          "outputs": [
            {
              "internalType": "contract IProposalRegistry",
              "name": "",
              "type": "address"
            }
          ],
          "stateMutability": "view",
          "type": "function"
        },
        {
          "inputs": [],
          "name": "treeManager",
          "outputs": [
            {
              "internalType": "contract ITreeManager",
              "name": "",
              "type": "address"
            }
          ],
          "stateMutability": "view",
          "type": "function"
        },
        {
          "inputs": [],
          "name": "verifier",
          "outputs": [
            {
              "internalType": "contract ISemaphoreVerifier",
              "name": "",
              "type": "address"
            }
          ],
          "stateMutability": "view",
          "type": "function"
        }
      ],
      "evm": {
        "bytecode": {
          "linkReferences": {},
          "object": "60806040523480156200001157600080fd5b50604051620011fe380380620011fe83398181016040528101906200003791906200016c565b826000806101000a81548173ffffffffffffffffffffffffffffffffffffffff021916908373ffffffffffffffffffffffffffffffffffffffff16021790555081600160006101000a81548173ffffffffffffffffffffffffffffffffffffffff021916908373ffffffffffffffffffffffffffffffffffffffff16021790555080600260006101000a81548173ffffffffffffffffffffffffffffffffffffffff021916908373ffffffffffffffffffffffffffffffffffffffff160217905550505050620001c8565b600080fd5b600073ffffffffffffffffffffffffffffffffffffffff82169050919050565b6000620001348262000107565b9050919050565b620001468162000127565b81146200015257600080fd5b50565b60008151905062000166816200013b565b92915050565b60008060006060848603121562000188576200018762000102565b5b6000620001988682870162000155565b9350506020620001ab8682870162000155565b9250506040620001be8682870162000155565b9150509250925092565b61102680620001d86000396000f3fe608060405234801561001057600080fd5b50600436106100575760003560e01c80632b7ac3f31461005c5780636f9e73331461007a578063a7d6e9ce146100aa578063bc61e1bc146100c8578063d66b83c0146100e6575b600080fd5b610064610102565b60405161007191906107a3565b60405180910390f35b610094600480360381019061008f91906107fe565b610126565b6040516100a19190610859565b60405180910390f35b6100b2610155565b6040516100bf9190610895565b60405180910390f35b6100d061017b565b6040516100dd91906108d1565b60405180910390f35b61010060048036038101906100fb9190610973565b6101a1565b005b60008054906101000a900473ffffffffffffffffffffffffffffffffffffffff1681565b60036020528160005260406000206020528060005260406000206000915091509054906101000a900460ff1681565b600260009054906101000a900473ffffffffffffffffffffffffffffffffffffffff1681565b600160009054906101000a900473ffffffffffffffffffffffffffffffffffffffff1681565b600260009054906101000a900473ffffffffffffffffffffffffffffffffffffffff1673ffffffffffffffffffffffffffffffffffffffff1663164b3d2f876040518263ffffffff1660e01b81526004016101fc9190610a1e565b602060405180830381865afa158015610219573d6000803e3d6000fd5b505050506040513d601f19601f8201168201806040525081019061023d9190610a65565b61027c576040517f08c379a000000000000000000000000000000000000000000000000000000000815260040161027390610aef565b60405180910390fd5b60036000878152602001908152602001600020600086815260200190815260200160002060009054906101000a900460ff16156102ee576040517f08c379a00000000000000000000000000000000000000000000000000000000081526004016102e590610b5b565b60405180910390fd5b6000600160009054906101000a900473ffffffffffffffffffffffffffffffffffffffff1673ffffffffffffffffffffffffffffffffffffffff16639ea971906040518163ffffffff1660e01b8152600401602060405180830381865afa15801561035d573d6000803e3d6000fd5b505050506040513d601f19601f820116820180604052508101906103819190610b90565b905060008585604051610395929190610bfc565b604051809103902060001c9050600060405180608001604052808481526020018981526020016103c4846106ed565b81526020016103d28b6106ed565b815250905060008054906101000a900473ffffffffffffffffffffffffffffffffffffffff1673ffffffffffffffffffffffffffffffffffffffff1663a23f019960405180604001604052808860006008811061043257610431610c15565b5b60200201358152602001886001600881106104505761044f610c15565b5b6020020135815250604051806040016040528060405180604001604052808b60026008811061048257610481610c15565b5b602002013581526020018b6003600881106104a05761049f610c15565b5b6020020135815250815260200160405180604001604052808b6004600881106104cc576104cb610c15565b5b602002013581526020018b6005600881106104ea576104e9610c15565b5b602002013581525081525060405180604001604052808a60066008811061051457610513610c15565b5b602002013581526020018a60076008811061053257610531610c15565b5b602002013581525085896040518663ffffffff1660e01b815260040161055c959493929190610e71565b602060405180830381865afa158015610579573d6000803e3d6000fd5b505050506040513d601f19601f8201168201806040525081019061059d9190610a65565b6105dc576040517f08c379a00000000000000000000000000000000000000000000000000000000081526004016105d390610f13565b60405180910390fd5b6001600360008b815260200190815260200160002060008a815260200190815260200160002060006101000a81548160ff021916908315150217905550600260009054906101000a900473ffffffffffffffffffffffffffffffffffffffff1673ffffffffffffffffffffffffffffffffffffffff1663fa9c54108a89896040518463ffffffff1660e01b815260040161067893929190610f82565b600060405180830381600087803b15801561069257600080fd5b505af11580156106a6573d6000803e3d6000fd5b50505050887fb3ae0c0baee0279b3d01099e4f9e7a234e8bc23c38638e535ce560818a619c8a896040516106da9190610a1e565b60405180910390a2505050505050505050565b60006008826040516020016107029190610fd5565b6040516020818303038152906040528051906020012060001c901c9050919050565b600073ffffffffffffffffffffffffffffffffffffffff82169050919050565b6000819050919050565b600061076961076461075f84610724565b610744565b610724565b9050919050565b600061077b8261074e565b9050919050565b600061078d82610770565b9050919050565b61079d81610782565b82525050565b60006020820190506107b86000830184610794565b92915050565b600080fd5b600080fd5b6000819050919050565b6107db816107c8565b81146107e657600080fd5b50565b6000813590506107f8816107d2565b92915050565b60008060408385031215610815576108146107be565b5b6000610823858286016107e9565b9250506020610834858286016107e9565b9150509250929050565b60008115159050919050565b6108538161083e565b82525050565b600060208201905061086e600083018461084a565b92915050565b600061087f82610770565b9050919050565b61088f81610874565b82525050565b60006020820190506108aa6000830184610886565b92915050565b60006108bb82610770565b9050919050565b6108cb816108b0565b82525050565b60006020820190506108e660008301846108c2565b92915050565b600080fd5b600080fd5b600080fd5b60008083601f840112610911576109106108ec565b5b8235905067ffffffffffffffff81111561092e5761092d6108f1565b5b60208301915083600182028301111561094a576109496108f6565b5b9250929050565b60008190508260206008028201111561096d5761096c6108f6565b5b92915050565b6000806000806000806101808789031215610991576109906107be565b5b600061099f89828a016107e9565b96505060206109b089828a016107e9565b955050604087013567ffffffffffffffff8111156109d1576109d06107c3565b5b6109dd89828a016108fb565b945094505060606109f089828a01610951565b925050610160610a0289828a016107e9565b9150509295509295509295565b610a18816107c8565b82525050565b6000602082019050610a336000830184610a0f565b92915050565b610a428161083e565b8114610a4d57600080fd5b50565b600081519050610a5f81610a39565b92915050565b600060208284031215610a7b57610a7a6107be565b5b6000610a8984828501610a50565b91505092915050565b600082825260208201905092915050565b7f496e76616c6964206f7220696e6163746976652070726f706f73616c00000000600082015250565b6000610ad9601c83610a92565b9150610ae482610aa3565b602082019050919050565b60006020820190508181036000830152610b0881610acc565b9050919050565b7f50726f6f6620616c726561647920757365640000000000000000000000000000600082015250565b6000610b45601283610a92565b9150610b5082610b0f565b602082019050919050565b60006020820190508181036000830152610b7481610b38565b9050919050565b600081519050610b8a816107d2565b92915050565b600060208284031215610ba657610ba56107be565b5b6000610bb484828501610b7b565b91505092915050565b600081905092915050565b82818337600083830152505050565b6000610be38385610bbd565b9350610bf0838584610bc8565b82840190509392505050565b6000610c09828486610bd7565b91508190509392505050565b7f4e487b7100000000000000000000000000000000000000000000000000000000600052603260045260246000fd5b600060029050919050565b600081905092915050565b6000819050919050565b610c6d816107c8565b82525050565b6000610c7f8383610c64565b60208301905092915050565b6000602082019050919050565b610ca181610c44565b610cab8184610c4f565b9250610cb682610c5a565b8060005b83811015610ce7578151610cce8782610c73565b9650610cd983610c8b565b925050600181019050610cba565b505050505050565b600060029050919050565b600081905092915050565b6000819050919050565b600081905092915050565b610d2381610c44565b610d2d8184610d0f565b9250610d3882610c5a565b8060005b83811015610d69578151610d508782610c73565b9650610d5b83610c8b565b925050600181019050610d3c565b505050505050565b6000610d7d8383610d1a565b60408301905092915050565b6000602082019050919050565b610d9f81610cef565b610da98184610cfa565b9250610db482610d05565b8060005b83811015610de5578151610dcc8782610d71565b9650610dd783610d89565b925050600181019050610db8565b505050505050565b600060049050919050565b600081905092915050565b6000819050919050565b6000602082019050919050565b610e2381610ded565b610e2d8184610df8565b9250610e3882610e03565b8060005b83811015610e69578151610e508782610c73565b9650610e5b83610e0d565b925050600181019050610e3c565b505050505050565b60006101a082019050610e876000830188610c98565b610e946040830187610d96565b610ea160c0830186610c98565b610eaf610100830185610e1a565b610ebd610180830184610a0f565b9695505050505050565b7f496e76616c6964205a4b2050726f6f6600000000000000000000000000000000600082015250565b6000610efd601083610a92565b9150610f0882610ec7565b602082019050919050565b60006020820190508181036000830152610f2c81610ef0565b9050919050565b600082825260208201905092915050565b6000601f19601f8301169050919050565b6000610f618385610f33565b9350610f6e838584610bc8565b610f7783610f44565b840190509392505050565b6000604082019050610f976000830186610a0f565b8181036020830152610faa818486610f55565b9050949350505050565b6000819050919050565b610fcf610fca826107c8565b610fb4565b82525050565b6000610fe18284610fbe565b6020820191508190509291505056fea264697066735822122018e305cac9952201d20f2fc38be19a2092089d7736f3e2a00e1d753b07048dab64736f6c63430008180033",
          "opcodes": "PUSH1 0x80 PUSH1 0x40 MSTORE CALLVALUE DUP1 ISZERO PUSH3 0x11 JUMPI PUSH1 0x0 DUP1 REVERT JUMPDEST POP PUSH1 0x40 MLOAD PUSH3 0x11FE CODESIZE SUB DUP1 PUSH3 0x11FE DUP4 CODECOPY DUP2 DUP2 ADD PUSH1 0x40 MSTORE DUP2 ADD SWAP1 PUSH3 0x37 SWAP2 SWAP1 PUSH3 0x16C JUMP JUMPDEST DUP3 PUSH1 0x0 DUP1 PUSH2 0x100 EXP DUP2 SLOAD DUP2 PUSH20 0xFFFFFFFFFFFFFFFFFFFFFFFFFFFFFFFFFFFFFFFF MUL NOT AND SWAP1 DUP4 PUSH20 0xFFFFFFFFFFFFFFFFFFFFFFFFFFFFFFFFFFFFFFFF AND MUL OR SWAP1 SSTORE POP DUP2 PUSH1 0x1 PUSH1 0x0 PUSH2 0x100 EXP DUP2 SLOAD DUP2 PUSH20 0xFFFFFFFFFFFFFFFFFFFFFFFFFFFFFFFFFFFFFFFF MUL NOT AND SWAP1 DUP4 PUSH20 0xFFFFFFFFFFFFFFFFFFFFFFFFFFFFFFFFFFFFFFFF AND MUL OR SWAP1 SSTORE POP DUP1 PUSH1 0x2 PUSH1 0x0 PUSH2 0x100 EXP DUP2 SLOAD DUP2 PUSH20 0xFFFFFFFFFFFFFFFFFFFFFFFFFFFFFFFFFFFFFFFF MUL NOT AND SWAP1 DUP4 PUSH20 0xFFFFFFFFFFFFFFFFFFFFFFFFFFFFFFFFFFFFFFFF AND MUL OR SWAP1 SSTORE POP POP POP POP PUSH3 0x1C8 JUMP JUMPDEST PUSH1 0x0 DUP1 REVERT JUMPDEST PUSH1 0x0 PUSH20 0xFFFFFFFFFFFFFFFFFFFFFFFFFFFFFFFFFFFFFFFF DUP3 AND SWAP1 POP SWAP2 SWAP1 POP JUMP JUMPDEST PUSH1 0x0 PUSH3 0x134 DUP3 PUSH3 0x107 JUMP JUMPDEST SWAP1 POP SWAP2 SWAP1 POP JUMP JUMPDEST PUSH3 0x146 DUP2 PUSH3 0x127 JUMP JUMPDEST DUP2 EQ PUSH3 0x152 JUMPI PUSH1 0x0 DUP1 REVERT JUMPDEST POP JUMP JUMPDEST PUSH1 0x0 DUP2 MLOAD SWAP1 POP PUSH3 0x166 DUP2 PUSH3 0x13B JUMP JUMPDEST SWAP3 SWAP2 POP POP JUMP JUMPDEST PUSH1 0x0 DUP1 PUSH1 0x0 PUSH1 0x60 DUP5 DUP7 SUB SLT ISZERO PUSH3 0x188 JUMPI PUSH3 0x187 PUSH3 0x102 JUMP JUMPDEST JUMPDEST PUSH1 0x0 PUSH3 0x198 DUP7 DUP3 DUP8 ADD PUSH3 0x155 JUMP JUMPDEST SWAP4 POP POP PUSH1 0x20 PUSH3 0x1AB DUP7 DUP3 DUP8 ADD PUSH3 0x155 JUMP JUMPDEST SWAP3 POP POP PUSH1 0x40 PUSH3 0x1BE DUP7 DUP3 DUP8 ADD PUSH3 0x155 JUMP JUMPDEST SWAP2 POP POP SWAP3 POP SWAP3 POP SWAP3 JUMP JUMPDEST PUSH2 0x1026 DUP1 PUSH3 0x1D8 PUSH1 0x0 CODECOPY PUSH1 0x0 RETURN INVALID PUSH1 0x80 PUSH1 0x40 MSTORE CALLVALUE DUP1 ISZERO PUSH2 0x10 JUMPI PUSH1 0x0 DUP1 REVERT JUMPDEST POP PUSH1 0x4 CALLDATASIZE LT PUSH2 0x57 JUMPI PUSH1 0x0 CALLDATALOAD PUSH1 0xE0 SHR DUP1 PUSH4 0x2B7AC3F3 EQ PUSH2 0x5C JUMPI DUP1 PUSH4 0x6F9E7333 EQ PUSH2 0x7A JUMPI DUP1 PUSH4 0xA7D6E9CE EQ PUSH2 0xAA JUMPI DUP1 PUSH4 0xBC61E1BC EQ PUSH2 0xC8 JUMPI DUP1 PUSH4 0xD66B83C0 EQ PUSH2 0xE6 JUMPI JUMPDEST PUSH1 0x0 DUP1 REVERT JUMPDEST PUSH2 0x64 PUSH2 0x102 JUMP JUMPDEST PUSH1 0x40 MLOAD PUSH2 0x71 SWAP2 SWAP1 PUSH2 0x7A3 JUMP JUMPDEST PUSH1 0x40 MLOAD DUP1 SWAP2 SUB SWAP1 RETURN JUMPDEST PUSH2 0x94 PUSH1 0x4 DUP1 CALLDATASIZE SUB DUP2 ADD SWAP1 PUSH2 0x8F SWAP2 SWAP1 PUSH2 0x7FE JUMP JUMPDEST PUSH2 0x126 JUMP JUMPDEST PUSH1 0x40 MLOAD PUSH2 0xA1 SWAP2 SWAP1 PUSH2 0x859 JUMP JUMPDEST PUSH1 0x40 MLOAD DUP1 SWAP2 SUB SWAP1 RETURN JUMPDEST PUSH2 0xB2 PUSH2 0x155 JUMP JUMPDEST PUSH1 0x40 MLOAD PUSH2 0xBF SWAP2 SWAP1 PUSH2 0x895 JUMP JUMPDEST PUSH1 0x40 MLOAD DUP1 SWAP2 SUB SWAP1 RETURN JUMPDEST PUSH2 0xD0 PUSH2 0x17B JUMP JUMPDEST PUSH1 0x40 MLOAD PUSH2 0xDD SWAP2 SWAP1 PUSH2 0x8D1 JUMP JUMPDEST PUSH1 0x40 MLOAD DUP1 SWAP2 SUB SWAP1 RETURN JUMPDEST PUSH2 0x100 PUSH1 0x4 DUP1 CALLDATASIZE SUB DUP2 ADD SWAP1 PUSH2 0xFB SWAP2 SWAP1 PUSH2 0x973 JUMP JUMPDEST PUSH2 0x1A1 JUMP JUMPDEST STOP JUMPDEST PUSH1 0x0 DUP1 SLOAD SWAP1 PUSH2 0x100 EXP SWAP1 DIV PUSH20 0xFFFFFFFFFFFFFFFFFFFFFFFFFFFFFFFFFFFFFFFF AND DUP2 JUMP JUMPDEST PUSH1 0x3 PUSH1 0x20 MSTORE DUP2 PUSH1 0x0 MSTORE PUSH1 0x40 PUSH1 0x0 KECCAK256 PUSH1 0x20 MSTORE DUP1 PUSH1 0x0 MSTORE PUSH1 0x40 PUSH1 0x0 KECCAK256 PUSH1 0x0 SWAP2 POP SWAP2 POP SWAP1 SLOAD SWAP1 PUSH2 0x100 EXP SWAP1 DIV PUSH1 0xFF AND DUP2 JUMP JUMPDEST PUSH1 0x2 PUSH1 0x0 SWAP1 SLOAD SWAP1 PUSH2 0x100 EXP SWAP1 DIV PUSH20 0xFFFFFFFFFFFFFFFFFFFFFFFFFFFFFFFFFFFFFFFF AND DUP2 JUMP JUMPDEST PUSH1 0x1 PUSH1 0x0 SWAP1 SLOAD SWAP1 PUSH2 0x100 EXP SWAP1 DIV PUSH20 0xFFFFFFFFFFFFFFFFFFFFFFFFFFFFFFFFFFFFFFFF AND DUP2 JUMP JUMPDEST PUSH1 0x2 PUSH1 0x0 SWAP1 SLOAD SWAP1 PUSH2 0x100 EXP SWAP1 DIV PUSH20 0xFFFFFFFFFFFFFFFFFFFFFFFFFFFFFFFFFFFFFFFF AND PUSH20 0xFFFFFFFFFFFFFFFFFFFFFFFFFFFFFFFFFFFFFFFF AND PUSH4 0x164B3D2F DUP8 PUSH1 0x40 MLOAD DUP3 PUSH4 0xFFFFFFFF AND PUSH1 0xE0 SHL DUP2 MSTORE PUSH1 0x4 ADD PUSH2 0x1FC SWAP2 SWAP1 PUSH2 0xA1E JUMP JUMPDEST PUSH1 0x20 PUSH1 0x40 MLOAD DUP1 DUP4 SUB DUP2 DUP7 GAS STATICCALL ISZERO DUP1 ISZERO PUSH2 0x219 JUMPI RETURNDATASIZE PUSH1 0x0 DUP1 RETURNDATACOPY RETURNDATASIZE PUSH1 0x0 REVERT JUMPDEST POP POP POP POP PUSH1 0x40 MLOAD RETURNDATASIZE PUSH1 0x1F NOT PUSH1 0x1F DUP3 ADD AND DUP3 ADD DUP1 PUSH1 0x40 MSTORE POP DUP2 ADD SWAP1 PUSH2 0x23D SWAP2 SWAP1 PUSH2 0xA65 JUMP JUMPDEST PUSH2 0x27C JUMPI PUSH1 0x40 MLOAD PUSH32 0x8C379A000000000000000000000000000000000000000000000000000000000 DUP2 MSTORE PUSH1 0x4 ADD PUSH2 0x273 SWAP1 PUSH2 0xAEF JUMP JUMPDEST PUSH1 0x40 MLOAD DUP1 SWAP2 SUB SWAP1 REVERT JUMPDEST PUSH1 0x3 PUSH1 0x0 DUP8 DUP2 MSTORE PUSH1 0x20 ADD SWAP1 DUP2 MSTORE PUSH1 0x20 ADD PUSH1 0x0 KECCAK256 PUSH1 0x0 DUP7 DUP2 MSTORE PUSH1 0x20 ADD SWAP1 DUP2 MSTORE PUSH1 0x20 ADD PUSH1 0x0 KECCAK256 PUSH1 0x0 SWAP1 SLOAD SWAP1 PUSH2 0x100 EXP SWAP1 DIV PUSH1 0xFF AND ISZERO PUSH2 0x2EE JUMPI PUSH1 0x40 MLOAD PUSH32 0x8C379A000000000000000000000000000000000000000000000000000000000 DUP2 MSTORE PUSH1 0x4 ADD PUSH2 0x2E5 SWAP1 PUSH2 0xB5B JUMP JUMPDEST PUSH1 0x40 MLOAD DUP1 SWAP2 SUB SWAP1 REVERT JUMPDEST PUSH1 0x0 PUSH1 0x1 PUSH1 0x0 SWAP1 SLOAD SWAP1 PUSH2 0x100 EXP SWAP1 DIV PUSH20 0xFFFFFFFFFFFFFFFFFFFFFFFFFFFFFFFFFFFFFFFF AND PUSH20 0xFFFFFFFFFFFFFFFFFFFFFFFFFFFFFFFFFFFFFFFF AND PUSH4 0x9EA97190 PUSH1 0x40 MLOAD DUP2 PUSH4 0xFFFFFFFF AND PUSH1 0xE0 SHL DUP2 MSTORE PUSH1 0x4 ADD PUSH1 0x20 PUSH1 0x40 MLOAD DUP1 DUP4 SUB DUP2 DUP7 GAS STATICCALL ISZERO DUP1 ISZERO PUSH2 0x35D JUMPI RETURNDATASIZE PUSH1 0x0 DUP1 RETURNDATACOPY RETURNDATASIZE PUSH1 0x0 REVERT JUMPDEST POP POP POP POP PUSH1 0x40 MLOAD RETURNDATASIZE PUSH1 0x1F NOT PUSH1 0x1F DUP3 ADD AND DUP3 ADD DUP1 PUSH1 0x40 MSTORE POP DUP2 ADD SWAP1 PUSH2 0x381 SWAP2 SWAP1 PUSH2 0xB90 JUMP JUMPDEST SWAP1 POP PUSH1 0x0 DUP6 DUP6 PUSH1 0x40 MLOAD PUSH2 0x395 SWAP3 SWAP2 SWAP1 PUSH2 0xBFC JUMP JUMPDEST PUSH1 0x40 MLOAD DUP1 SWAP2 SUB SWAP1 KECCAK256 PUSH1 0x0 SHR SWAP1 POP PUSH1 0x0 PUSH1 0x40 MLOAD DUP1 PUSH1 0x80 ADD PUSH1 0x40 MSTORE DUP1 DUP5 DUP2 MSTORE PUSH1 0x20 ADD DUP10 DUP2 MSTORE PUSH1 0x20 ADD PUSH2 0x3C4 DUP5 PUSH2 0x6ED JUMP JUMPDEST DUP2 MSTORE PUSH1 0x20 ADD PUSH2 0x3D2 DUP12 PUSH2 0x6ED JUMP JUMPDEST DUP2 MSTORE POP SWAP1 POP PUSH1 0x0 DUP1 SLOAD SWAP1 PUSH2 0x100 EXP SWAP1 DIV PUSH20 0xFFFFFFFFFFFFFFFFFFFFFFFFFFFFFFFFFFFFFFFF AND PUSH20 0xFFFFFFFFFFFFFFFFFFFFFFFFFFFFFFFFFFFFFFFF AND PUSH4 0xA23F0199 PUSH1 0x40 MLOAD DUP1 PUSH1 0x40 ADD PUSH1 0x40 MSTORE DUP1 DUP9 PUSH1 0x0 PUSH1 0x8 DUP2 LT PUSH2 0x432 JUMPI PUSH2 0x431 PUSH2 0xC15 JUMP JUMPDEST JUMPDEST PUSH1 0x20 MUL ADD CALLDATALOAD DUP2 MSTORE PUSH1 0x20 ADD DUP9 PUSH1 0x1 PUSH1 0x8 DUP2 LT PUSH2 0x450 JUMPI PUSH2 0x44F PUSH2 0xC15 JUMP JUMPDEST JUMPDEST PUSH1 0x20 MUL ADD CALLDATALOAD DUP2 MSTORE POP PUSH1 0x40 MLOAD DUP1 PUSH1 0x40 ADD PUSH1 0x40 MSTORE DUP1 PUSH1 0x40 MLOAD DUP1 PUSH1 0x40 ADD PUSH1 0x40 MSTORE DUP1 DUP12 PUSH1 0x2 PUSH1 0x8 DUP2 LT PUSH2 0x482 JUMPI PUSH2 0x481 PUSH2 0xC15 JUMP JUMPDEST JUMPDEST PUSH1 0x20 MUL ADD CALLDATALOAD DUP2 MSTORE PUSH1 0x20 ADD DUP12 PUSH1 0x3 PUSH1 0x8 DUP2 LT PUSH2 0x4A0 JUMPI PUSH2 0x49F PUSH2 0xC15 JUMP JUMPDEST JUMPDEST PUSH1 0x20 MUL ADD CALLDATALOAD DUP2 MSTORE POP DUP2 MSTORE PUSH1 0x20 ADD PUSH1 0x40 MLOAD DUP1 PUSH1 0x40 ADD PUSH1 0x40 MSTORE DUP1 DUP12 PUSH1 0x4 PUSH1 0x8 DUP2 LT PUSH2 0x4CC JUMPI PUSH2 0x4CB PUSH2 0xC15 JUMP JUMPDEST JUMPDEST PUSH1 0x20 MUL ADD CALLDATALOAD DUP2 MSTORE PUSH1 0x20 ADD DUP12 PUSH1 0x5 PUSH1 0x8 DUP2 LT PUSH2 0x4EA JUMPI PUSH2 0x4E9 PUSH2 0xC15 JUMP JUMPDEST JUMPDEST PUSH1 0x20 MUL ADD CALLDATALOAD DUP2 MSTORE POP DUP2 MSTORE POP PUSH1 0x40 MLOAD DUP1 PUSH1 0x40 ADD PUSH1 0x40 MSTORE DUP1 DUP11 PUSH1 0x6 PUSH1 0x8 DUP2 LT PUSH2 0x514 JUMPI PUSH2 0x513 PUSH2 0xC15 JUMP JUMPDEST JUMPDEST PUSH1 0x20 MUL ADD CALLDATALOAD DUP2 MSTORE PUSH1 0x20 ADD DUP11 PUSH1 0x7 PUSH1 0x8 DUP2 LT PUSH2 0x532 JUMPI PUSH2 0x531 PUSH2 0xC15 JUMP JUMPDEST JUMPDEST PUSH1 0x20 MUL ADD CALLDATALOAD DUP2 MSTORE POP DUP6 DUP10 PUSH1 0x40 MLOAD DUP7 PUSH4 0xFFFFFFFF AND PUSH1 0xE0 SHL DUP2 MSTORE PUSH1 0x4 ADD PUSH2 0x55C SWAP6 SWAP5 SWAP4 SWAP3 SWAP2 SWAP1 PUSH2 0xE71 JUMP JUMPDEST PUSH1 0x20 PUSH1 0x40 MLOAD DUP1 DUP4 SUB DUP2 DUP7 GAS STATICCALL ISZERO DUP1 ISZERO PUSH2 0x579 JUMPI RETURNDATASIZE PUSH1 0x0 DUP1 RETURNDATACOPY RETURNDATASIZE PUSH1 0x0 REVERT JUMPDEST POP POP POP POP PUSH1 0x40 MLOAD RETURNDATASIZE PUSH1 0x1F NOT PUSH1 0x1F DUP3 ADD AND DUP3 ADD DUP1 PUSH1 0x40 MSTORE POP DUP2 ADD SWAP1 PUSH2 0x59D SWAP2 SWAP1 PUSH2 0xA65 JUMP JUMPDEST PUSH2 0x5DC JUMPI PUSH1 0x40 MLOAD PUSH32 0x8C379A000000000000000000000000000000000000000000000000000000000 DUP2 MSTORE PUSH1 0x4 ADD PUSH2 0x5D3 SWAP1 PUSH2 0xF13 JUMP JUMPDEST PUSH1 0x40 MLOAD DUP1 SWAP2 SUB SWAP1 REVERT JUMPDEST PUSH1 0x1 PUSH1 0x3 PUSH1 0x0 DUP12 DUP2 MSTORE PUSH1 0x20 ADD SWAP1 DUP2 MSTORE PUSH1 0x20 ADD PUSH1 0x0 KECCAK256 PUSH1 0x0 DUP11 DUP2 MSTORE PUSH1 0x20 ADD SWAP1 DUP2 MSTORE PUSH1 0x20 ADD PUSH1 0x0 KECCAK256 PUSH1 0x0 PUSH2 0x100 EXP DUP2 SLOAD DUP2 PUSH1 0xFF MUL NOT AND SWAP1 DUP4 ISZERO ISZERO MUL OR SWAP1 SSTORE POP PUSH1 0x2 PUSH1 0x0 SWAP1 SLOAD SWAP1 PUSH2 0x100 EXP SWAP1 DIV PUSH20 0xFFFFFFFFFFFFFFFFFFFFFFFFFFFFFFFFFFFFFFFF AND PUSH20 0xFFFFFFFFFFFFFFFFFFFFFFFFFFFFFFFFFFFFFFFF AND PUSH4 0xFA9C5410 DUP11 DUP10 DUP10 PUSH1 0x40 MLOAD DUP5 PUSH4 0xFFFFFFFF AND PUSH1 0xE0 SHL DUP2 MSTORE PUSH1 0x4 ADD PUSH2 0x678 SWAP4 SWAP3 SWAP2 SWAP1 PUSH2 0xF82 JUMP JUMPDEST PUSH1 0x0 PUSH1 0x40 MLOAD DUP1 DUP4 SUB DUP2 PUSH1 0x0 DUP8 DUP1 EXTCODESIZE ISZERO DUP1 ISZERO PUSH2 0x692 JUMPI PUSH1 0x0 DUP1 REVERT JUMPDEST POP GAS CALL ISZERO DUP1 ISZERO PUSH2 0x6A6 JUMPI RETURNDATASIZE PUSH1 0x0 DUP1 RETURNDATACOPY RETURNDATASIZE PUSH1 0x0 REVERT JUMPDEST POP POP POP POP DUP9 PUSH32 0xB3AE0C0BAEE0279B3D01099E4F9E7A234E8BC23C38638E535CE560818A619C8A DUP10 PUSH1 0x40 MLOAD PUSH2 0x6DA SWAP2 SWAP1 PUSH2 0xA1E JUMP JUMPDEST PUSH1 0x40 MLOAD DUP1 SWAP2 SUB SWAP1 LOG2 POP POP POP POP POP POP POP POP POP JUMP JUMPDEST PUSH1 0x0 PUSH1 0x8 DUP3 PUSH1 0x40 MLOAD PUSH1 0x20 ADD PUSH2 0x702 SWAP2 SWAP1 PUSH2 0xFD5 JUMP JUMPDEST PUSH1 0x40 MLOAD PUSH1 0x20 DUP2 DUP4 SUB SUB DUP2 MSTORE SWAP1 PUSH1 0x40 MSTORE DUP1 MLOAD SWAP1 PUSH1 0x20 ADD KECCAK256 PUSH1 0x0 SHR SWAP1 SHR SWAP1 POP SWAP2 SWAP1 POP JUMP JUMPDEST PUSH1 0x0 PUSH20 0xFFFFFFFFFFFFFFFFFFFFFFFFFFFFFFFFFFFFFFFF DUP3 AND SWAP1 POP SWAP2 SWAP1 POP JUMP JUMPDEST PUSH1 0x0 DUP2 SWAP1 POP SWAP2 SWAP1 POP JUMP JUMPDEST PUSH1 0x0 PUSH2 0x769 PUSH2 0x764 PUSH2 0x75F DUP5 PUSH2 0x724 JUMP JUMPDEST PUSH2 0x744 JUMP JUMPDEST PUSH2 0x724 JUMP JUMPDEST SWAP1 POP SWAP2 SWAP1 POP JUMP JUMPDEST PUSH1 0x0 PUSH2 0x77B DUP3 PUSH2 0x74E JUMP JUMPDEST SWAP1 POP SWAP2 SWAP1 POP JUMP JUMPDEST PUSH1 0x0 PUSH2 0x78D DUP3 PUSH2 0x770 JUMP JUMPDEST SWAP1 POP SWAP2 SWAP1 POP JUMP JUMPDEST PUSH2 0x79D DUP2 PUSH2 0x782 JUMP JUMPDEST DUP3 MSTORE POP POP JUMP JUMPDEST PUSH1 0x0 PUSH1 0x20 DUP3 ADD SWAP1 POP PUSH2 0x7B8 PUSH1 0x0 DUP4 ADD DUP5 PUSH2 0x794 JUMP JUMPDEST SWAP3 SWAP2 POP POP JUMP JUMPDEST PUSH1 0x0 DUP1 REVERT JUMPDEST PUSH1 0x0 DUP1 REVERT JUMPDEST PUSH1 0x0 DUP2 SWAP1 POP SWAP2 SWAP1 POP JUMP JUMPDEST PUSH2 0x7DB DUP2 PUSH2 0x7C8 JUMP JUMPDEST DUP2 EQ PUSH2 0x7E6 JUMPI PUSH1 0x0 DUP1 REVERT JUMPDEST POP JUMP JUMPDEST PUSH1 0x0 DUP2 CALLDATALOAD SWAP1 POP PUSH2 0x7F8 DUP2 PUSH2 0x7D2 JUMP JUMPDEST SWAP3 SWAP2 POP POP JUMP JUMPDEST PUSH1 0x0 DUP1 PUSH1 0x40 DUP4 DUP6 SUB SLT ISZERO PUSH2 0x815 JUMPI PUSH2 0x814 PUSH2 0x7BE JUMP JUMPDEST JUMPDEST PUSH1 0x0 PUSH2 0x823 DUP6 DUP3 DUP7 ADD PUSH2 0x7E9 JUMP JUMPDEST SWAP3 POP POP PUSH1 0x20 PUSH2 0x834 DUP6 DUP3 DUP7 ADD PUSH2 0x7E9 JUMP JUMPDEST SWAP2 POP POP SWAP3 POP SWAP3 SWAP1 POP JUMP JUMPDEST PUSH1 0x0 DUP2 ISZERO ISZERO SWAP1 POP SWAP2 SWAP1 POP JUMP JUMPDEST PUSH2 0x853 DUP2 PUSH2 0x83E JUMP JUMPDEST DUP3 MSTORE POP POP JUMP JUMPDEST PUSH1 0x0 PUSH1 0x20 DUP3 ADD SWAP1 POP PUSH2 0x86E PUSH1 0x0 DUP4 ADD DUP5 PUSH2 0x84A JUMP JUMPDEST SWAP3 SWAP2 POP POP JUMP JUMPDEST PUSH1 0x0 PUSH2 0x87F DUP3 PUSH2 0x770 JUMP JUMPDEST SWAP1 POP SWAP2 SWAP1 POP JUMP JUMPDEST PUSH2 0x88F DUP2 PUSH2 0x874 JUMP JUMPDEST DUP3 MSTORE POP POP JUMP JUMPDEST PUSH1 0x0 PUSH1 0x20 DUP3 ADD SWAP1 POP PUSH2 0x8AA PUSH1 0x0 DUP4 ADD DUP5 PUSH2 0x886 JUMP JUMPDEST SWAP3 SWAP2 POP POP JUMP JUMPDEST PUSH1 0x0 PUSH2 0x8BB DUP3 PUSH2 0x770 JUMP JUMPDEST SWAP1 POP SWAP2 SWAP1 POP JUMP JUMPDEST PUSH2 0x8CB DUP2 PUSH2 0x8B0 JUMP JUMPDEST DUP3 MSTORE POP POP JUMP JUMPDEST PUSH1 0x0 PUSH1 0x20 DUP3 ADD SWAP1 POP PUSH2 0x8E6 PUSH1 0x0 DUP4 ADD DUP5 PUSH2 0x8C2 JUMP JUMPDEST SWAP3 SWAP2 POP POP JUMP JUMPDEST PUSH1 0x0 DUP1 REVERT JUMPDEST PUSH1 0x0 DUP1 REVERT JUMPDEST PUSH1 0x0 DUP1 REVERT JUMPDEST PUSH1 0x0 DUP1 DUP4 PUSH1 0x1F DUP5 ADD SLT PUSH2 0x911 JUMPI PUSH2 0x910 PUSH2 0x8EC JUMP JUMPDEST JUMPDEST DUP3 CALLDATALOAD SWAP1 POP PUSH8 0xFFFFFFFFFFFFFFFF DUP2 GT ISZERO PUSH2 0x92E JUMPI PUSH2 0x92D PUSH2 0x8F1 JUMP JUMPDEST JUMPDEST PUSH1 0x20 DUP4 ADD SWAP2 POP DUP4 PUSH1 0x1 DUP3 MUL DUP4 ADD GT ISZERO PUSH2 0x94A JUMPI PUSH2 0x949 PUSH2 0x8F6 JUMP JUMPDEST JUMPDEST SWAP3 POP SWAP3 SWAP1 POP JUMP JUMPDEST PUSH1 0x0 DUP2 SWAP1 POP DUP3 PUSH1 0x20 PUSH1 0x8 MUL DUP3 ADD GT ISZERO PUSH2 0x96D JUMPI PUSH2 0x96C PUSH2 0x8F6 JUMP JUMPDEST JUMPDEST SWAP3 SWAP2 POP POP JUMP JUMPDEST PUSH1 0x0 DUP1 PUSH1 0x0 DUP1 PUSH1 0x0 DUP1 PUSH2 0x180 DUP8 DUP10 SUB SLT ISZERO PUSH2 0x991 JUMPI PUSH2 0x990 PUSH2 0x7BE JUMP JUMPDEST JUMPDEST PUSH1 0x0 PUSH2 0x99F DUP10 DUP3 DUP11 ADD PUSH2 0x7E9 JUMP JUMPDEST SWAP7 POP POP PUSH1 0x20 PUSH2 0x9B0 DUP10 DUP3 DUP11 ADD PUSH2 0x7E9 JUMP JUMPDEST SWAP6 POP POP PUSH1 0x40 DUP8 ADD CALLDATALOAD PUSH8 0xFFFFFFFFFFFFFFFF DUP2 GT ISZERO PUSH2 0x9D1 JUMPI PUSH2 0x9D0 PUSH2 0x7C3 JUMP JUMPDEST JUMPDEST PUSH2 0x9DD DUP10 DUP3 DUP11 ADD PUSH2 0x8FB JUMP JUMPDEST SWAP5 POP SWAP5 POP POP PUSH1 0x60 PUSH2 0x9F0 DUP10 DUP3 DUP11 ADD PUSH2 0x951 JUMP JUMPDEST SWAP3 POP POP PUSH2 0x160 PUSH2 0xA02 DUP10 DUP3 DUP11 ADD PUSH2 0x7E9 JUMP JUMPDEST SWAP2 POP POP SWAP3 SWAP6 POP SWAP3 SWAP6 POP SWAP3 SWAP6 JUMP JUMPDEST PUSH2 0xA18 DUP2 PUSH2 0x7C8 JUMP JUMPDEST DUP3 MSTORE POP POP JUMP JUMPDEST PUSH1 0x0 PUSH1 0x20 DUP3 ADD SWAP1 POP PUSH2 0xA33 PUSH1 0x0 DUP4 ADD DUP5 PUSH2 0xA0F JUMP JUMPDEST SWAP3 SWAP2 POP POP JUMP JUMPDEST PUSH2 0xA42 DUP2 PUSH2 0x83E JUMP JUMPDEST DUP2 EQ PUSH2 0xA4D JUMPI PUSH1 0x0 DUP1 REVERT JUMPDEST POP JUMP JUMPDEST PUSH1 0x0 DUP2 MLOAD SWAP1 POP PUSH2 0xA5F DUP2 PUSH2 0xA39 JUMP JUMPDEST SWAP3 SWAP2 POP POP JUMP JUMPDEST PUSH1 0x0 PUSH1 0x20 DUP3 DUP5 SUB SLT ISZERO PUSH2 0xA7B JUMPI PUSH2 0xA7A PUSH2 0x7BE JUMP JUMPDEST JUMPDEST PUSH1 0x0 PUSH2 0xA89 DUP5 DUP3 DUP6 ADD PUSH2 0xA50 JUMP JUMPDEST SWAP2 POP POP SWAP3 SWAP2 POP POP JUMP JUMPDEST PUSH1 0x0 DUP3 DUP3 MSTORE PUSH1 0x20 DUP3 ADD SWAP1 POP SWAP3 SWAP2 POP POP JUMP JUMPDEST PUSH32 0x496E76616C6964206F7220696E6163746976652070726F706F73616C00000000 PUSH1 0x0 DUP3 ADD MSTORE POP JUMP JUMPDEST PUSH1 0x0 PUSH2 0xAD9 PUSH1 0x1C DUP4 PUSH2 0xA92 JUMP JUMPDEST SWAP2 POP PUSH2 0xAE4 DUP3 PUSH2 0xAA3 JUMP JUMPDEST PUSH1 0x20 DUP3 ADD SWAP1 POP SWAP2 SWAP1 POP JUMP JUMPDEST PUSH1 0x0 PUSH1 0x20 DUP3 ADD SWAP1 POP DUP2 DUP2 SUB PUSH1 0x0 DUP4 ADD MSTORE PUSH2 0xB08 DUP2 PUSH2 0xACC JUMP JUMPDEST SWAP1 POP SWAP2 SWAP1 POP JUMP JUMPDEST PUSH32 0x50726F6F6620616C726561647920757365640000000000000000000000000000 PUSH1 0x0 DUP3 ADD MSTORE POP JUMP JUMPDEST PUSH1 0x0 PUSH2 0xB45 PUSH1 0x12 DUP4 PUSH2 0xA92 JUMP JUMPDEST SWAP2 POP PUSH2 0xB50 DUP3 PUSH2 0xB0F JUMP JUMPDEST PUSH1 0x20 DUP3 ADD SWAP1 POP SWAP2 SWAP1 POP JUMP JUMPDEST PUSH1 0x0 PUSH1 0x20 DUP3 ADD SWAP1 POP DUP2 DUP2 SUB PUSH1 0x0 DUP4 ADD MSTORE PUSH2 0xB74 DUP2 PUSH2 0xB38 JUMP JUMPDEST SWAP1 POP SWAP2 SWAP1 POP JUMP JUMPDEST PUSH1 0x0 DUP2 MLOAD SWAP1 POP PUSH2 0xB8A DUP2 PUSH2 0x7D2 JUMP JUMPDEST SWAP3 SWAP2 POP POP JUMP JUMPDEST PUSH1 0x0 PUSH1 0x20 DUP3 DUP5 SUB SLT ISZERO PUSH2 0xBA6 JUMPI PUSH2 0xBA5 PUSH2 0x7BE JUMP JUMPDEST JUMPDEST PUSH1 0x0 PUSH2 0xBB4 DUP5 DUP3 DUP6 ADD PUSH2 0xB7B JUMP JUMPDEST SWAP2 POP POP SWAP3 SWAP2 POP POP JUMP JUMPDEST PUSH1 0x0 DUP2 SWAP1 POP SWAP3 SWAP2 POP POP JUMP JUMPDEST DUP3 DUP2 DUP4 CALLDATACOPY PUSH1 0x0 DUP4 DUP4 ADD MSTORE POP POP POP JUMP JUMPDEST PUSH1 0x0 PUSH2 0xBE3 DUP4 DUP6 PUSH2 0xBBD JUMP JUMPDEST SWAP4 POP PUSH2 0xBF0 DUP4 DUP6 DUP5 PUSH2 0xBC8 JUMP JUMPDEST DUP3 DUP5 ADD SWAP1 POP SWAP4 SWAP3 POP POP POP JUMP JUMPDEST PUSH1 0x0 PUSH2 0xC09 DUP3 DUP5 DUP7 PUSH2 0xBD7 JUMP JUMPDEST SWAP2 POP DUP2 SWAP1 POP SWAP4 SWAP3 POP POP POP JUMP JUMPDEST PUSH32 0x4E487B7100000000000000000000000000000000000000000000000000000000 PUSH1 0x0 MSTORE PUSH1 0x32 PUSH1 0x4 MSTORE PUSH1 0x24 PUSH1 0x0 REVERT JUMPDEST PUSH1 0x0 PUSH1 0x2 SWAP1 POP SWAP2 SWAP1 POP JUMP JUMPDEST PUSH1 0x0 DUP2 SWAP1 POP SWAP3 SWAP2 POP POP JUMP JUMPDEST PUSH1 0x0 DUP2 SWAP1 POP SWAP2 SWAP1 POP JUMP JUMPDEST PUSH2 0xC6D DUP2 PUSH2 0x7C8 JUMP JUMPDEST DUP3 MSTORE POP POP JUMP JUMPDEST PUSH1 0x0 PUSH2 0xC7F DUP4 DUP4 PUSH2 0xC64 JUMP JUMPDEST PUSH1 0x20 DUP4 ADD SWAP1 POP SWAP3 SWAP2 POP POP JUMP JUMPDEST PUSH1 0x0 PUSH1 0x20 DUP3 ADD SWAP1 POP SWAP2 SWAP1 POP JUMP JUMPDEST PUSH2 0xCA1 DUP2 PUSH2 0xC44 JUMP JUMPDEST PUSH2 0xCAB DUP2 DUP5 PUSH2 0xC4F JUMP JUMPDEST SWAP3 POP PUSH2 0xCB6 DUP3 PUSH2 0xC5A JUMP JUMPDEST DUP1 PUSH1 0x0 JUMPDEST DUP4 DUP2 LT ISZERO PUSH2 0xCE7 JUMPI DUP2 MLOAD PUSH2 0xCCE DUP8 DUP3 PUSH2 0xC73 JUMP JUMPDEST SWAP7 POP PUSH2 0xCD9 DUP4 PUSH2 0xC8B JUMP JUMPDEST SWAP3 POP POP PUSH1 0x1 DUP2 ADD SWAP1 POP PUSH2 0xCBA JUMP JUMPDEST POP POP POP POP POP POP JUMP JUMPDEST PUSH1 0x0 PUSH1 0x2 SWAP1 POP SWAP2 SWAP1 POP JUMP JUMPDEST PUSH1 0x0 DUP2 SWAP1 POP SWAP3 SWAP2 POP POP JUMP JUMPDEST PUSH1 0x0 DUP2 SWAP1 POP SWAP2 SWAP1 POP JUMP JUMPDEST PUSH1 0x0 DUP2 SWAP1 POP SWAP3 SWAP2 POP POP JUMP JUMPDEST PUSH2 0xD23 DUP2 PUSH2 0xC44 JUMP JUMPDEST PUSH2 0xD2D DUP2 DUP5 PUSH2 0xD0F JUMP JUMPDEST SWAP3 POP PUSH2 0xD38 DUP3 PUSH2 0xC5A JUMP JUMPDEST DUP1 PUSH1 0x0 JUMPDEST DUP4 DUP2 LT ISZERO PUSH2 0xD69 JUMPI DUP2 MLOAD PUSH2 0xD50 DUP8 DUP3 PUSH2 0xC73 JUMP JUMPDEST SWAP7 POP PUSH2 0xD5B DUP4 PUSH2 0xC8B JUMP JUMPDEST SWAP3 POP POP PUSH1 0x1 DUP2 ADD SWAP1 POP PUSH2 0xD3C JUMP JUMPDEST POP POP POP POP POP POP JUMP JUMPDEST PUSH1 0x0 PUSH2 0xD7D DUP4 DUP4 PUSH2 0xD1A JUMP JUMPDEST PUSH1 0x40 DUP4 ADD SWAP1 POP SWAP3 SWAP2 POP POP JUMP JUMPDEST PUSH1 0x0 PUSH1 0x20 DUP3 ADD SWAP1 POP SWAP2 SWAP1 POP JUMP JUMPDEST PUSH2 0xD9F DUP2 PUSH2 0xCEF JUMP JUMPDEST PUSH2 0xDA9 DUP2 DUP5 PUSH2 0xCFA JUMP JUMPDEST SWAP3 POP PUSH2 0xDB4 DUP3 PUSH2 0xD05 JUMP JUMPDEST DUP1 PUSH1 0x0 JUMPDEST DUP4 DUP2 LT ISZERO PUSH2 0xDE5 JUMPI DUP2 MLOAD PUSH2 0xDCC DUP8 DUP3 PUSH2 0xD71 JUMP JUMPDEST SWAP7 POP PUSH2 0xDD7 DUP4 PUSH2 0xD89 JUMP JUMPDEST SWAP3 POP POP PUSH1 0x1 DUP2 ADD SWAP1 POP PUSH2 0xDB8 JUMP JUMPDEST POP POP POP POP POP POP JUMP JUMPDEST PUSH1 0x0 PUSH1 0x4 SWAP1 POP SWAP2 SWAP1 POP JUMP JUMPDEST PUSH1 0x0 DUP2 SWAP1 POP SWAP3 SWAP2 POP POP JUMP JUMPDEST PUSH1 0x0 DUP2 SWAP1 POP SWAP2 SWAP1 POP JUMP JUMPDEST PUSH1 0x0 PUSH1 0x20 DUP3 ADD SWAP1 POP SWAP2 SWAP1 POP JUMP JUMPDEST PUSH2 0xE23 DUP2 PUSH2 0xDED JUMP JUMPDEST PUSH2 0xE2D DUP2 DUP5 PUSH2 0xDF8 JUMP JUMPDEST SWAP3 POP PUSH2 0xE38 DUP3 PUSH2 0xE03 JUMP JUMPDEST DUP1 PUSH1 0x0 JUMPDEST DUP4 DUP2 LT ISZERO PUSH2 0xE69 JUMPI DUP2 MLOAD PUSH2 0xE50 DUP8 DUP3 PUSH2 0xC73 JUMP JUMPDEST SWAP7 POP PUSH2 0xE5B DUP4 PUSH2 0xE0D JUMP JUMPDEST SWAP3 POP POP PUSH1 0x1 DUP2 ADD SWAP1 POP PUSH2 0xE3C JUMP JUMPDEST POP POP POP POP POP POP JUMP JUMPDEST PUSH1 0x0 PUSH2 0x1A0 DUP3 ADD SWAP1 POP PUSH2 0xE87 PUSH1 0x0 DUP4 ADD DUP9 PUSH2 0xC98 JUMP JUMPDEST PUSH2 0xE94 PUSH1 0x40 DUP4 ADD DUP8 PUSH2 0xD96 JUMP JUMPDEST PUSH2 0xEA1 PUSH1 0xC0 DUP4 ADD DUP7 PUSH2 0xC98 JUMP JUMPDEST PUSH2 0xEAF PUSH2 0x100 DUP4 ADD DUP6 PUSH2 0xE1A JUMP JUMPDEST PUSH2 0xEBD PUSH2 0x180 DUP4 ADD DUP5 PUSH2 0xA0F JUMP JUMPDEST SWAP7 SWAP6 POP POP POP POP POP POP JUMP JUMPDEST PUSH32 0x496E76616C6964205A4B2050726F6F6600000000000000000000000000000000 PUSH1 0x0 DUP3 ADD MSTORE POP JUMP JUMPDEST PUSH1 0x0 PUSH2 0xEFD PUSH1 0x10 DUP4 PUSH2 0xA92 JUMP JUMPDEST SWAP2 POP PUSH2 0xF08 DUP3 PUSH2 0xEC7 JUMP JUMPDEST PUSH1 0x20 DUP3 ADD SWAP1 POP SWAP2 SWAP1 POP JUMP JUMPDEST PUSH1 0x0 PUSH1 0x20 DUP3 ADD SWAP1 POP DUP2 DUP2 SUB PUSH1 0x0 DUP4 ADD MSTORE PUSH2 0xF2C DUP2 PUSH2 0xEF0 JUMP JUMPDEST SWAP1 POP SWAP2 SWAP1 POP JUMP JUMPDEST PUSH1 0x0 DUP3 DUP3 MSTORE PUSH1 0x20 DUP3 ADD SWAP1 POP SWAP3 SWAP2 POP POP JUMP JUMPDEST PUSH1 0x0 PUSH1 0x1F NOT PUSH1 0x1F DUP4 ADD AND SWAP1 POP SWAP2 SWAP1 POP JUMP JUMPDEST PUSH1 0x0 PUSH2 0xF61 DUP4 DUP6 PUSH2 0xF33 JUMP JUMPDEST SWAP4 POP PUSH2 0xF6E DUP4 DUP6 DUP5 PUSH2 0xBC8 JUMP JUMPDEST PUSH2 0xF77 DUP4 PUSH2 0xF44 JUMP JUMPDEST DUP5 ADD SWAP1 POP SWAP4 SWAP3 POP POP POP JUMP JUMPDEST PUSH1 0x0 PUSH1 0x40 DUP3 ADD SWAP1 POP PUSH2 0xF97 PUSH1 0x0 DUP4 ADD DUP7 PUSH2 0xA0F JUMP JUMPDEST DUP2 DUP2 SUB PUSH1 0x20 DUP4 ADD MSTORE PUSH2 0xFAA DUP2 DUP5 DUP7 PUSH2 0xF55 JUMP JUMPDEST SWAP1 POP SWAP5 SWAP4 POP POP POP POP JUMP JUMPDEST PUSH1 0x0 DUP2 SWAP1 POP SWAP2 SWAP1 POP JUMP JUMPDEST PUSH2 0xFCF PUSH2 0xFCA DUP3 PUSH2 0x7C8 JUMP JUMPDEST PUSH2 0xFB4 JUMP JUMPDEST DUP3 MSTORE POP POP JUMP JUMPDEST PUSH1 0x0 PUSH2 0xFE1 DUP3 DUP5 PUSH2 0xFBE JUMP JUMPDEST PUSH1 0x20 DUP3 ADD SWAP2 POP DUP2 SWAP1 POP SWAP3 SWAP2 POP POP JUMP INVALID LOG2 PUSH5 0x6970667358 0x22 SLT KECCAK256 XOR 0xE3 SDIV 0xCA 0xC9 SWAP6 0x22 ADD 0xD2 0xF 0x2F 0xC3 DUP12 0xE1 SWAP11 KECCAK256 SWAP3 ADDMOD SWAP14 PUSH24 0x36F3E2A00E1D753B07048DAB64736F6C6343000818003300 "
        },
        "methodIdentifiers": {
          "castVote(uint256,uint256,bytes,uint256[8],uint256)": "d66b83c0",
          "nullifierHashes(uint256,uint256)": "6f9e7333",
          "proposalRegistry()": "a7d6e9ce",
          "treeManager()": "bc61e1bc",
          "verifier()": "2b7ac3f3"
        }
      }
    }
  }
}