{
  "contracts/AnonymousVoter.sol": {
    "AnonymousVoter": {
      "abi": [
        {
          "inputs": [
            {
              "internalType": "address",
              "name": "_verifier",
              "type": "address"
            },
            {
              "internalType": "address",
              "name": "_treeManager",
              "type": "address"
            },
            {
              "internalType": "address",
              "name": "_proposalRegistry",
              "type": "address"
            }
          ],
          "stateMutability": "nonpayable",
          "type": "constructor"
        },
        {
          "anonymous": false,
          "inputs": [
            {
              "indexed": true,
              "internalType": "uint256",
              "name": "proposalId",
              "type": "uint256"
            },
            {
              "indexed": false,
              "internalType": "bool",
              "name": "support",
              "type": "bool"
            }
          ],
          "name": "VoteCast",
          "type": "event"
        },
        {
          "inputs": [
            {
              "internalType": "bool",
              "name": "support",
              "type": "bool"
            },
            {
              "internalType": "uint256",
              "name": "proposalId",
              "type": "uint256"
            },
            {
              "internalType": "uint256",
              "name": "nullifierHash",
              "type": "uint256"
            },
            {
              "internalType": "uint256[8]",
              "name": "proof",
              "type": "uint256[8]"
            },
            {
              "internalType": "uint256",
              "name": "merkleTreeDepth",
              "type": "uint256"
            }
          ],
          "name": "castVote",
          "outputs": [],
          "stateMutability": "nonpayable",
          "type": "function"
        },
        {
          "inputs": [
            {
              "internalType": "uint256",
              "name": "",
              "type": "uint256"
            }
          ],
          "name": "nullifierHashes",
          "outputs": [
            {
              "internalType": "bool",
              "name": "",
              "type": "bool"
            }
          ],
          "stateMutability": "view",
          "type": "function"
        },
        {
          "inputs": [],
          "name": "proposalRegistry",
          "outputs": [
            {
              "internalType": "contract IProposalRegistry",
              "name": "",
              "type": "address"
            }
          ],
          "stateMutability": "view",
          "type": "function"
        },
        {
          "inputs": [],
          "name": "treeManager",
          "outputs": [
            {
              "internalType": "contract ITreeManager",
              "name": "",
              "type": "address"
            }
          ],
          "stateMutability": "view",
          "type": "function"
        },
        {
          "inputs": [],
          "name": "verifier",
          "outputs": [
            {
              "internalType": "contract ISemaphoreVerifier",
              "name": "",
              "type": "address"
            }
          ],
          "stateMutability": "view",
          "type": "function"
        }
      ],
      "evm": {
        "bytecode": {
          "linkReferences": {},
          "object": "60806040523480156200001157600080fd5b50604051620010403803806200104083398181016040528101906200003791906200016c565b826000806101000a81548173ffffffffffffffffffffffffffffffffffffffff021916908373ffffffffffffffffffffffffffffffffffffffff16021790555081600160006101000a81548173ffffffffffffffffffffffffffffffffffffffff021916908373ffffffffffffffffffffffffffffffffffffffff16021790555080600260006101000a81548173ffffffffffffffffffffffffffffffffffffffff021916908373ffffffffffffffffffffffffffffffffffffffff160217905550505050620001c8565b600080fd5b600073ffffffffffffffffffffffffffffffffffffffff82169050919050565b6000620001348262000107565b9050919050565b620001468162000127565b81146200015257600080fd5b50565b60008151905062000166816200013b565b92915050565b60008060006060848603121562000188576200018762000102565b5b6000620001988682870162000155565b9350506020620001ab8682870162000155565b9250506040620001be8682870162000155565b9150509250925092565b610e6880620001d86000396000f3fe608060405234801561001057600080fd5b50600436106100575760003560e01c80631f79a1e91461005c5780632b7ac3f31461008c578063a7d6e9ce146100aa578063bc61e1bc146100c8578063c3d7be91146100e6575b600080fd5b610076600480360381019061007191906106a2565b610102565b60405161008391906106ea565b60405180910390f35b610094610122565b6040516100a19190610784565b60405180910390f35b6100b2610146565b6040516100bf91906107c0565b60405180910390f35b6100d061016c565b6040516100dd91906107fc565b60405180910390f35b61010060048036038101906100fb919061086a565b610192565b005b60036020528060005260406000206000915054906101000a900460ff1681565b60008054906101000a900473ffffffffffffffffffffffffffffffffffffffff1681565b600260009054906101000a900473ffffffffffffffffffffffffffffffffffffffff1681565b600160009054906101000a900473ffffffffffffffffffffffffffffffffffffffff1681565b6003600084815260200190815260200160002060009054906101000a900460ff16156101f3576040517f08c379a00000000000000000000000000000000000000000000000000000000081526004016101ea90610990565b60405180910390fd5b6000600160009054906101000a900473ffffffffffffffffffffffffffffffffffffffff1673ffffffffffffffffffffffffffffffffffffffff16639ea971906040518163ffffffff1660e01b8152600401602060405180830381865afa158015610262573d6000803e3d6000fd5b505050506040513d601f19601f8201168201806040525081019061028691906109c5565b9050600081116102cb576040517f08c379a00000000000000000000000000000000000000000000000000000000081526004016102c290610a3e565b60405180910390fd5b6000866102d95760006102dc565b60015b60ff1690506000869050600060405180604001604052808760006008811061030757610306610a5e565b5b602002013581526020018760016008811061032557610324610a5e565b5b602002013581525090506000604051806040016040528060405180604001604052808a60026008811061035b5761035a610a5e565b5b602002013581526020018a60036008811061037957610378610a5e565b5b6020020135815250815260200160405180604001604052808a6004600881106103a5576103a4610a5e565b5b602002013581526020018a6005600881106103c3576103c2610a5e565b5b6020020135815250815250905060006040518060400160405280896006600881106103f1576103f0610a5e565b5b602002013581526020018960076008811061040f5761040e610a5e565b5b60200201358152509050600060405180608001604052808881526020018b815260200161043b88610630565b815260200161044987610630565b815250905060008054906101000a900473ffffffffffffffffffffffffffffffffffffffff1673ffffffffffffffffffffffffffffffffffffffff1663a23f0199858585858d6040518663ffffffff1660e01b81526004016104af959493929190610cc9565b602060405180830381865afa1580156104cc573d6000803e3d6000fd5b505050506040513d601f19601f820116820180604052508101906104f09190610d34565b61052f576040517f08c379a000000000000000000000000000000000000000000000000000000000815260040161052690610dad565b60405180910390fd5b6001600360008c815260200190815260200160002060006101000a81548160ff021916908315150217905550600260009054906101000a900473ffffffffffffffffffffffffffffffffffffffff1673ffffffffffffffffffffffffffffffffffffffff16639d874ea58c8e6040518363ffffffff1660e01b81526004016105b8929190610dcd565b600060405180830381600087803b1580156105d257600080fd5b505af11580156105e6573d6000803e3d6000fd5b505050508a7fa569f04ac50c7dc602af46da32d6b4bb55adafc0bc482968f959264ea5edde968d60405161061a91906106ea565b60405180910390a2505050505050505050505050565b60006008826040516020016106459190610e17565b6040516020818303038152906040528051906020012060001c901c9050919050565b600080fd5b6000819050919050565b61067f8161066c565b811461068a57600080fd5b50565b60008135905061069c81610676565b92915050565b6000602082840312156106b8576106b7610667565b5b60006106c68482850161068d565b91505092915050565b60008115159050919050565b6106e4816106cf565b82525050565b60006020820190506106ff60008301846106db565b92915050565b600073ffffffffffffffffffffffffffffffffffffffff82169050919050565b6000819050919050565b600061074a61074561074084610705565b610725565b610705565b9050919050565b600061075c8261072f565b9050919050565b600061076e82610751565b9050919050565b61077e81610763565b82525050565b60006020820190506107996000830184610775565b92915050565b60006107aa82610751565b9050919050565b6107ba8161079f565b82525050565b60006020820190506107d560008301846107b1565b92915050565b60006107e682610751565b9050919050565b6107f6816107db565b82525050565b600060208201905061081160008301846107ed565b92915050565b610820816106cf565b811461082b57600080fd5b50565b60008135905061083d81610817565b92915050565b600080fd5b60008190508260206008028201111561086457610863610843565b5b92915050565b6000806000806000610180868803121561088757610886610667565b5b60006108958882890161082e565b95505060206108a68882890161068d565b94505060406108b78882890161068d565b93505060606108c888828901610848565b9250506101606108da8882890161068d565b9150509295509295909350565b600082825260208201905092915050565b7f5a65726f2d4b6e6f776c656467652050726f6f6620757365643a20596f75206860008201527f61766520616c726561647920766f746564206f6e20746869732070726f706f7360208201527f616c2e0000000000000000000000000000000000000000000000000000000000604082015250565b600061097a6043836108e7565b9150610985826108f8565b606082019050919050565b600060208201905081810360008301526109a98161096d565b9050919050565b6000815190506109bf81610676565b92915050565b6000602082840312156109db576109da610667565b5b60006109e9848285016109b0565b91505092915050565b7f4d65726b6c65207472656520697320656d707479000000000000000000000000600082015250565b6000610a286014836108e7565b9150610a33826109f2565b602082019050919050565b60006020820190508181036000830152610a5781610a1b565b9050919050565b7f4e487b7100000000000000000000000000000000000000000000000000000000600052603260045260246000fd5b600060029050919050565b600081905092915050565b6000819050919050565b610ab68161066c565b82525050565b6000610ac88383610aad565b60208301905092915050565b6000602082019050919050565b610aea81610a8d565b610af48184610a98565b9250610aff82610aa3565b8060005b83811015610b30578151610b178782610abc565b9650610b2283610ad4565b925050600181019050610b03565b505050505050565b600060029050919050565b600081905092915050565b6000819050919050565b600081905092915050565b610b6c81610a8d565b610b768184610b58565b9250610b8182610aa3565b8060005b83811015610bb2578151610b998782610abc565b9650610ba483610ad4565b925050600181019050610b85565b505050505050565b6000610bc68383610b63565b60408301905092915050565b6000602082019050919050565b610be881610b38565b610bf28184610b43565b9250610bfd82610b4e565b8060005b83811015610c2e578151610c158782610bba565b9650610c2083610bd2565b925050600181019050610c01565b505050505050565b600060049050919050565b600081905092915050565b6000819050919050565b6000602082019050919050565b610c6c81610c36565b610c768184610c41565b9250610c8182610c4c565b8060005b83811015610cb2578151610c998782610abc565b9650610ca483610c56565b925050600181019050610c85565b505050505050565b610cc38161066c565b82525050565b60006101a082019050610cdf6000830188610ae1565b610cec6040830187610bdf565b610cf960c0830186610ae1565b610d07610100830185610c63565b610d15610180830184610cba565b9695505050505050565b600081519050610d2e81610817565b92915050565b600060208284031215610d4a57610d49610667565b5b6000610d5884828501610d1f565b91505092915050565b7f496e76616c6964205a65726f2d4b6e6f776c656467652050726f6f6600000000600082015250565b6000610d97601c836108e7565b9150610da282610d61565b602082019050919050565b60006020820190508181036000830152610dc681610d8a565b9050919050565b6000604082019050610de26000830185610cba565b610def60208301846106db565b9392505050565b6000819050919050565b610e11610e0c8261066c565b610df6565b82525050565b6000610e238284610e00565b6020820191508190509291505056fea26469706673582212200ce9812785e921bd8da4c9e79c094e66c5f2ecdc288c5a6db6c779ed863e27d964736f6c63430008180033",
          "opcodes": "PUSH1 0x80 PUSH1 0x40 MSTORE CALLVALUE DUP1 ISZERO PUSH3 0x11 JUMPI PUSH1 0x0 DUP1 REVERT JUMPDEST POP PUSH1 0x40 MLOAD PUSH3 0x1040 CODESIZE SUB DUP1 PUSH3 0x1040 DUP4 CODECOPY DUP2 DUP2 ADD PUSH1 0x40 MSTORE DUP2 ADD SWAP1 PUSH3 0x37 SWAP2 SWAP1 PUSH3 0x16C JUMP JUMPDEST DUP3 PUSH1 0x0 DUP1 PUSH2 0x100 EXP DUP2 SLOAD DUP2 PUSH20 0xFFFFFFFFFFFFFFFFFFFFFFFFFFFFFFFFFFFFFFFF MUL NOT AND SWAP1 DUP4 PUSH20 0xFFFFFFFFFFFFFFFFFFFFFFFFFFFFFFFFFFFFFFFF AND MUL OR SWAP1 SSTORE POP DUP2 PUSH1 0x1 PUSH1 0x0 PUSH2 0x100 EXP DUP2 SLOAD DUP2 PUSH20 0xFFFFFFFFFFFFFFFFFFFFFFFFFFFFFFFFFFFFFFFF MUL NOT AND SWAP1 DUP4 PUSH20 0xFFFFFFFFFFFFFFFFFFFFFFFFFFFFFFFFFFFFFFFF AND MUL OR SWAP1 SSTORE POP DUP1 PUSH1 0x2 PUSH1 0x0 PUSH2 0x100 EXP DUP2 SLOAD DUP2 PUSH20 0xFFFFFFFFFFFFFFFFFFFFFFFFFFFFFFFFFFFFFFFF MUL NOT AND SWAP1 DUP4 PUSH20 0xFFFFFFFFFFFFFFFFFFFFFFFFFFFFFFFFFFFFFFFF AND MUL OR SWAP1 SSTORE POP POP POP POP PUSH3 0x1C8 JUMP JUMPDEST PUSH1 0x0 DUP1 REVERT JUMPDEST PUSH1 0x0 PUSH20 0xFFFFFFFFFFFFFFFFFFFFFFFFFFFFFFFFFFFFFFFF DUP3 AND SWAP1 POP SWAP2 SWAP1 POP JUMP JUMPDEST PUSH1 0x0 PUSH3 0x134 DUP3 PUSH3 0x107 JUMP JUMPDEST SWAP1 POP SWAP2 SWAP1 POP JUMP JUMPDEST PUSH3 0x146 DUP2 PUSH3 0x127 JUMP JUMPDEST DUP2 EQ PUSH3 0x152 JUMPI PUSH1 0x0 DUP1 REVERT JUMPDEST POP JUMP JUMPDEST PUSH1 0x0 DUP2 MLOAD SWAP1 POP PUSH3 0x166 DUP2 PUSH3 0x13B JUMP JUMPDEST SWAP3 SWAP2 POP POP JUMP JUMPDEST PUSH1 0x0 DUP1 PUSH1 0x0 PUSH1 0x60 DUP5 DUP7 SUB SLT ISZERO PUSH3 0x188 JUMPI PUSH3 0x187 PUSH3 0x102 JUMP JUMPDEST JUMPDEST PUSH1 0x0 PUSH3 0x198 DUP7 DUP3 DUP8 ADD PUSH3 0x155 JUMP JUMPDEST SWAP4 POP POP PUSH1 0x20 PUSH3 0x1AB DUP7 DUP3 DUP8 ADD PUSH3 0x155 JUMP JUMPDEST SWAP3 POP POP PUSH1 0x40 PUSH3 0x1BE DUP7 DUP3 DUP8 ADD PUSH3 0x155 JUMP JUMPDEST SWAP2 POP POP SWAP3 POP SWAP3 POP SWAP3 JUMP JUMPDEST PUSH2 0xE68 DUP1 PUSH3 0x1D8 PUSH1 0x0 CODECOPY PUSH1 0x0 RETURN INVALID PUSH1 0x80 PUSH1 0x40 MSTORE CALLVALUE DUP1 ISZERO PUSH2 0x10 JUMPI PUSH1 0x0 DUP1 REVERT JUMPDEST POP PUSH1 0x4 CALLDATASIZE LT PUSH2 0x57 JUMPI PUSH1 0x0 CALLDATALOAD PUSH1 0xE0 SHR DUP1 PUSH4 0x1F79A1E9 EQ PUSH2 0x5C JUMPI DUP1 PUSH4 0x2B7AC3F3 EQ PUSH2 0x8C JUMPI DUP1 PUSH4 0xA7D6E9CE EQ PUSH2 0xAA JUMPI DUP1 PUSH4 0xBC61E1BC EQ PUSH2 0xC8 JUMPI DUP1 PUSH4 0xC3D7BE91 EQ PUSH2 0xE6 JUMPI JUMPDEST PUSH1 0x0 DUP1 REVERT JUMPDEST PUSH2 0x76 PUSH1 0x4 DUP1 CALLDATASIZE SUB DUP2 ADD SWAP1 PUSH2 0x71 SWAP2 SWAP1 PUSH2 0x6A2 JUMP JUMPDEST PUSH2 0x102 JUMP JUMPDEST PUSH1 0x40 MLOAD PUSH2 0x83 SWAP2 SWAP1 PUSH2 0x6EA JUMP JUMPDEST PUSH1 0x40 MLOAD DUP1 SWAP2 SUB SWAP1 RETURN JUMPDEST PUSH2 0x94 PUSH2 0x122 JUMP JUMPDEST PUSH1 0x40 MLOAD PUSH2 0xA1 SWAP2 SWAP1 PUSH2 0x784 JUMP JUMPDEST PUSH1 0x40 MLOAD DUP1 SWAP2 SUB SWAP1 RETURN JUMPDEST PUSH2 0xB2 PUSH2 0x146 JUMP JUMPDEST PUSH1 0x40 MLOAD PUSH2 0xBF SWAP2 SWAP1 PUSH2 0x7C0 JUMP JUMPDEST PUSH1 0x40 MLOAD DUP1 SWAP2 SUB SWAP1 RETURN JUMPDEST PUSH2 0xD0 PUSH2 0x16C JUMP JUMPDEST PUSH1 0x40 MLOAD PUSH2 0xDD SWAP2 SWAP1 PUSH2 0x7FC JUMP JUMPDEST PUSH1 0x40 MLOAD DUP1 SWAP2 SUB SWAP1 RETURN JUMPDEST PUSH2 0x100 PUSH1 0x4 DUP1 CALLDATASIZE SUB DUP2 ADD SWAP1 PUSH2 0xFB SWAP2 SWAP1 PUSH2 0x86A JUMP JUMPDEST PUSH2 0x192 JUMP JUMPDEST STOP JUMPDEST PUSH1 0x3 PUSH1 0x20 MSTORE DUP1 PUSH1 0x0 MSTORE PUSH1 0x40 PUSH1 0x0 KECCAK256 PUSH1 0x0 SWAP2 POP SLOAD SWAP1 PUSH2 0x100 EXP SWAP1 DIV PUSH1 0xFF AND DUP2 JUMP JUMPDEST PUSH1 0x0 DUP1 SLOAD SWAP1 PUSH2 0x100 EXP SWAP1 DIV PUSH20 0xFFFFFFFFFFFFFFFFFFFFFFFFFFFFFFFFFFFFFFFF AND DUP2 JUMP JUMPDEST PUSH1 0x2 PUSH1 0x0 SWAP1 SLOAD SWAP1 PUSH2 0x100 EXP SWAP1 DIV PUSH20 0xFFFFFFFFFFFFFFFFFFFFFFFFFFFFFFFFFFFFFFFF AND DUP2 JUMP JUMPDEST PUSH1 0x1 PUSH1 0x0 SWAP1 SLOAD SWAP1 PUSH2 0x100 EXP SWAP1 DIV PUSH20 0xFFFFFFFFFFFFFFFFFFFFFFFFFFFFFFFFFFFFFFFF AND DUP2 JUMP JUMPDEST PUSH1 0x3 PUSH1 0x0 DUP5 DUP2 MSTORE PUSH1 0x20 ADD SWAP1 DUP2 MSTORE PUSH1 0x20 ADD PUSH1 0x0 KECCAK256 PUSH1 0x0 SWAP1 SLOAD SWAP1 PUSH2 0x100 EXP SWAP1 DIV PUSH1 0xFF AND ISZERO PUSH2 0x1F3 JUMPI PUSH1 0x40 MLOAD PUSH32 0x8C379A000000000000000000000000000000000000000000000000000000000 DUP2 MSTORE PUSH1 0x4 ADD PUSH2 0x1EA SWAP1 PUSH2 0x990 JUMP JUMPDEST PUSH1 0x40 MLOAD DUP1 SWAP2 SUB SWAP1 REVERT JUMPDEST PUSH1 0x0 PUSH1 0x1 PUSH1 0x0 SWAP1 SLOAD SWAP1 PUSH2 0x100 EXP SWAP1 DIV PUSH20 0xFFFFFFFFFFFFFFFFFFFFFFFFFFFFFFFFFFFFFFFF AND PUSH20 0xFFFFFFFFFFFFFFFFFFFFFFFFFFFFFFFFFFFFFFFF AND PUSH4 0x9EA97190 PUSH1 0x40 MLOAD DUP2 PUSH4 0xFFFFFFFF AND PUSH1 0xE0 SHL DUP2 MSTORE PUSH1 0x4 ADD PUSH1 0x20 PUSH1 0x40 MLOAD DUP1 DUP4 SUB DUP2 DUP7 GAS STATICCALL ISZERO DUP1 ISZERO PUSH2 0x262 JUMPI RETURNDATASIZE PUSH1 0x0 DUP1 RETURNDATACOPY RETURNDATASIZE PUSH1 0x0 REVERT JUMPDEST POP POP POP POP PUSH1 0x40 MLOAD RETURNDATASIZE PUSH1 0x1F NOT PUSH1 0x1F DUP3 ADD AND DUP3 ADD DUP1 PUSH1 0x40 MSTORE POP DUP2 ADD SWAP1 PUSH2 0x286 SWAP2 SWAP1 PUSH2 0x9C5 JUMP JUMPDEST SWAP1 POP PUSH1 0x0 DUP2 GT PUSH2 0x2CB JUMPI PUSH1 0x40 MLOAD PUSH32 0x8C379A000000000000000000000000000000000000000000000000000000000 DUP2 MSTORE PUSH1 0x4 ADD PUSH2 0x2C2 SWAP1 PUSH2 0xA3E JUMP JUMPDEST PUSH1 0x40 MLOAD DUP1 SWAP2 SUB SWAP1 REVERT JUMPDEST PUSH1 0x0 DUP7 PUSH2 0x2D9 JUMPI PUSH1 0x0 PUSH2 0x2DC JUMP JUMPDEST PUSH1 0x1 JUMPDEST PUSH1 0xFF AND SWAP1 POP PUSH1 0x0 DUP7 SWAP1 POP PUSH1 0x0 PUSH1 0x40 MLOAD DUP1 PUSH1 0x40 ADD PUSH1 0x40 MSTORE DUP1 DUP8 PUSH1 0x0 PUSH1 0x8 DUP2 LT PUSH2 0x307 JUMPI PUSH2 0x306 PUSH2 0xA5E JUMP JUMPDEST JUMPDEST PUSH1 0x20 MUL ADD CALLDATALOAD DUP2 MSTORE PUSH1 0x20 ADD DUP8 PUSH1 0x1 PUSH1 0x8 DUP2 LT PUSH2 0x325 JUMPI PUSH2 0x324 PUSH2 0xA5E JUMP JUMPDEST JUMPDEST PUSH1 0x20 MUL ADD CALLDATALOAD DUP2 MSTORE POP SWAP1 POP PUSH1 0x0 PUSH1 0x40 MLOAD DUP1 PUSH1 0x40 ADD PUSH1 0x40 MSTORE DUP1 PUSH1 0x40 MLOAD DUP1 PUSH1 0x40 ADD PUSH1 0x40 MSTORE DUP1 DUP11 PUSH1 0x2 PUSH1 0x8 DUP2 LT PUSH2 0x35B JUMPI PUSH2 0x35A PUSH2 0xA5E JUMP JUMPDEST JUMPDEST PUSH1 0x20 MUL ADD CALLDATALOAD DUP2 MSTORE PUSH1 0x20 ADD DUP11 PUSH1 0x3 PUSH1 0x8 DUP2 LT PUSH2 0x379 JUMPI PUSH2 0x378 PUSH2 0xA5E JUMP JUMPDEST JUMPDEST PUSH1 0x20 MUL ADD CALLDATALOAD DUP2 MSTORE POP DUP2 MSTORE PUSH1 0x20 ADD PUSH1 0x40 MLOAD DUP1 PUSH1 0x40 ADD PUSH1 0x40 MSTORE DUP1 DUP11 PUSH1 0x4 PUSH1 0x8 DUP2 LT PUSH2 0x3A5 JUMPI PUSH2 0x3A4 PUSH2 0xA5E JUMP JUMPDEST JUMPDEST PUSH1 0x20 MUL ADD CALLDATALOAD DUP2 MSTORE PUSH1 0x20 ADD DUP11 PUSH1 0x5 PUSH1 0x8 DUP2 LT PUSH2 0x3C3 JUMPI PUSH2 0x3C2 PUSH2 0xA5E JUMP JUMPDEST JUMPDEST PUSH1 0x20 MUL ADD CALLDATALOAD DUP2 MSTORE POP DUP2 MSTORE POP SWAP1 POP PUSH1 0x0 PUSH1 0x40 MLOAD DUP1 PUSH1 0x40 ADD PUSH1 0x40 MSTORE DUP1 DUP10 PUSH1 0x6 PUSH1 0x8 DUP2 LT PUSH2 0x3F1 JUMPI PUSH2 0x3F0 PUSH2 0xA5E JUMP JUMPDEST JUMPDEST PUSH1 0x20 MUL ADD CALLDATALOAD DUP2 MSTORE PUSH1 0x20 ADD DUP10 PUSH1 0x7 PUSH1 0x8 DUP2 LT PUSH2 0x40F JUMPI PUSH2 0x40E PUSH2 0xA5E JUMP JUMPDEST JUMPDEST PUSH1 0x20 MUL ADD CALLDATALOAD DUP2 MSTORE POP SWAP1 POP PUSH1 0x0 PUSH1 0x40 MLOAD DUP1 PUSH1 0x80 ADD PUSH1 0x40 MSTORE DUP1 DUP9 DUP2 MSTORE PUSH1 0x20 ADD DUP12 DUP2 MSTORE PUSH1 0x20 ADD PUSH2 0x43B DUP9 PUSH2 0x630 JUMP JUMPDEST DUP2 MSTORE PUSH1 0x20 ADD PUSH2 0x449 DUP8 PUSH2 0x630 JUMP JUMPDEST DUP2 MSTORE POP SWAP1 POP PUSH1 0x0 DUP1 SLOAD SWAP1 PUSH2 0x100 EXP SWAP1 DIV PUSH20 0xFFFFFFFFFFFFFFFFFFFFFFFFFFFFFFFFFFFFFFFF AND PUSH20 0xFFFFFFFFFFFFFFFFFFFFFFFFFFFFFFFFFFFFFFFF AND PUSH4 0xA23F0199 DUP6 DUP6 DUP6 DUP6 DUP14 PUSH1 0x40 MLOAD DUP7 PUSH4 0xFFFFFFFF AND PUSH1 0xE0 SHL DUP2 MSTORE PUSH1 0x4 ADD PUSH2 0x4AF SWAP6 SWAP5 SWAP4 SWAP3 SWAP2 SWAP1 PUSH2 0xCC9 JUMP JUMPDEST PUSH1 0x20 PUSH1 0x40 MLOAD DUP1 DUP4 SUB DUP2 DUP7 GAS STATICCALL ISZERO DUP1 ISZERO PUSH2 0x4CC JUMPI RETURNDATASIZE PUSH1 0x0 DUP1 RETURNDATACOPY RETURNDATASIZE PUSH1 0x0 REVERT JUMPDEST POP POP POP POP PUSH1 0x40 MLOAD RETURNDATASIZE PUSH1 0x1F NOT PUSH1 0x1F DUP3 ADD AND DUP3 ADD DUP1 PUSH1 0x40 MSTORE POP DUP2 ADD SWAP1 PUSH2 0x4F0 SWAP2 SWAP1 PUSH2 0xD34 JUMP JUMPDEST PUSH2 0x52F JUMPI PUSH1 0x40 MLOAD PUSH32 0x8C379A000000000000000000000000000000000000000000000000000000000 DUP2 MSTORE PUSH1 0x4 ADD PUSH2 0x526 SWAP1 PUSH2 0xDAD JUMP JUMPDEST PUSH1 0x40 MLOAD DUP1 SWAP2 SUB SWAP1 REVERT JUMPDEST PUSH1 0x1 PUSH1 0x3 PUSH1 0x0 DUP13 DUP2 MSTORE PUSH1 0x20 ADD SWAP1 DUP2 MSTORE PUSH1 0x20 ADD PUSH1 0x0 KECCAK256 PUSH1 0x0 PUSH2 0x100 EXP DUP2 SLOAD DUP2 PUSH1 0xFF MUL NOT AND SWAP1 DUP4 ISZERO ISZERO MUL OR SWAP1 SSTORE POP PUSH1 0x2 PUSH1 0x0 SWAP1 SLOAD SWAP1 PUSH2 0x100 EXP SWAP1 DIV PUSH20 0xFFFFFFFFFFFFFFFFFFFFFFFFFFFFFFFFFFFFFFFF AND PUSH20 0xFFFFFFFFFFFFFFFFFFFFFFFFFFFFFFFFFFFFFFFF AND PUSH4 0x9D874EA5 DUP13 DUP15 PUSH1 0x40 MLOAD DUP4 PUSH4 0xFFFFFFFF AND PUSH1 0xE0 SHL DUP2 MSTORE PUSH1 0x4 ADD PUSH2 0x5B8 SWAP3 SWAP2 SWAP1 PUSH2 0xDCD JUMP JUMPDEST PUSH1 0x0 PUSH1 0x40 MLOAD DUP1 DUP4 SUB DUP2 PUSH1 0x0 DUP8 DUP1 EXTCODESIZE ISZERO DUP1 ISZERO PUSH2 0x5D2 JUMPI PUSH1 0x0 DUP1 REVERT JUMPDEST POP GAS CALL ISZERO DUP1 ISZERO PUSH2 0x5E6 JUMPI RETURNDATASIZE PUSH1 0x0 DUP1 RETURNDATACOPY RETURNDATASIZE PUSH1 0x0 REVERT JUMPDEST POP POP POP POP DUP11 PUSH32 0xA569F04AC50C7DC602AF46DA32D6B4BB55ADAFC0BC482968F959264EA5EDDE96 DUP14 PUSH1 0x40 MLOAD PUSH2 0x61A SWAP2 SWAP1 PUSH2 0x6EA JUMP JUMPDEST PUSH1 0x40 MLOAD DUP1 SWAP2 SUB SWAP1 LOG2 POP POP POP POP POP POP POP POP POP POP POP POP JUMP JUMPDEST PUSH1 0x0 PUSH1 0x8 DUP3 PUSH1 0x40 MLOAD PUSH1 0x20 ADD PUSH2 0x645 SWAP2 SWAP1 PUSH2 0xE17 JUMP JUMPDEST PUSH1 0x40 MLOAD PUSH1 0x20 DUP2 DUP4 SUB SUB DUP2 MSTORE SWAP1 PUSH1 0x40 MSTORE DUP1 MLOAD SWAP1 PUSH1 0x20 ADD KECCAK256 PUSH1 0x0 SHR SWAP1 SHR SWAP1 POP SWAP2 SWAP1 POP JUMP JUMPDEST PUSH1 0x0 DUP1 REVERT JUMPDEST PUSH1 0x0 DUP2 SWAP1 POP SWAP2 SWAP1 POP JUMP JUMPDEST PUSH2 0x67F DUP2 PUSH2 0x66C JUMP JUMPDEST DUP2 EQ PUSH2 0x68A JUMPI PUSH1 0x0 DUP1 REVERT JUMPDEST POP JUMP JUMPDEST PUSH1 0x0 DUP2 CALLDATALOAD SWAP1 POP PUSH2 0x69C DUP2 PUSH2 0x676 JUMP JUMPDEST SWAP3 SWAP2 POP POP JUMP JUMPDEST PUSH1 0x0 PUSH1 0x20 DUP3 DUP5 SUB SLT ISZERO PUSH2 0x6B8 JUMPI PUSH2 0x6B7 PUSH2 0x667 JUMP JUMPDEST JUMPDEST PUSH1 0x0 PUSH2 0x6C6 DUP5 DUP3 DUP6 ADD PUSH2 0x68D JUMP JUMPDEST SWAP2 POP POP SWAP3 SWAP2 POP POP JUMP JUMPDEST PUSH1 0x0 DUP2 ISZERO ISZERO SWAP1 POP SWAP2 SWAP1 POP JUMP JUMPDEST PUSH2 0x6E4 DUP2 PUSH2 0x6CF JUMP JUMPDEST DUP3 MSTORE POP POP JUMP JUMPDEST PUSH1 0x0 PUSH1 0x20 DUP3 ADD SWAP1 POP PUSH2 0x6FF PUSH1 0x0 DUP4 ADD DUP5 PUSH2 0x6DB JUMP JUMPDEST SWAP3 SWAP2 POP POP JUMP JUMPDEST PUSH1 0x0 PUSH20 0xFFFFFFFFFFFFFFFFFFFFFFFFFFFFFFFFFFFFFFFF DUP3 AND SWAP1 POP SWAP2 SWAP1 POP JUMP JUMPDEST PUSH1 0x0 DUP2 SWAP1 POP SWAP2 SWAP1 POP JUMP JUMPDEST PUSH1 0x0 PUSH2 0x74A PUSH2 0x745 PUSH2 0x740 DUP5 PUSH2 0x705 JUMP JUMPDEST PUSH2 0x725 JUMP JUMPDEST PUSH2 0x705 JUMP JUMPDEST SWAP1 POP SWAP2 SWAP1 POP JUMP JUMPDEST PUSH1 0x0 PUSH2 0x75C DUP3 PUSH2 0x72F JUMP JUMPDEST SWAP1 POP SWAP2 SWAP1 POP JUMP JUMPDEST PUSH1 0x0 PUSH2 0x76E DUP3 PUSH2 0x751 JUMP JUMPDEST SWAP1 POP SWAP2 SWAP1 POP JUMP JUMPDEST PUSH2 0x77E DUP2 PUSH2 0x763 JUMP JUMPDEST DUP3 MSTORE POP POP JUMP JUMPDEST PUSH1 0x0 PUSH1 0x20 DUP3 ADD SWAP1 POP PUSH2 0x799 PUSH1 0x0 DUP4 ADD DUP5 PUSH2 0x775 JUMP JUMPDEST SWAP3 SWAP2 POP POP JUMP JUMPDEST PUSH1 0x0 PUSH2 0x7AA DUP3 PUSH2 0x751 JUMP JUMPDEST SWAP1 POP SWAP2 SWAP1 POP JUMP JUMPDEST PUSH2 0x7BA DUP2 PUSH2 0x79F JUMP JUMPDEST DUP3 MSTORE POP POP JUMP JUMPDEST PUSH1 0x0 PUSH1 0x20 DUP3 ADD SWAP1 POP PUSH2 0x7D5 PUSH1 0x0 DUP4 ADD DUP5 PUSH2 0x7B1 JUMP JUMPDEST SWAP3 SWAP2 POP POP JUMP JUMPDEST PUSH1 0x0 PUSH2 0x7E6 DUP3 PUSH2 0x751 JUMP JUMPDEST SWAP1 POP SWAP2 SWAP1 POP JUMP JUMPDEST PUSH2 0x7F6 DUP2 PUSH2 0x7DB JUMP JUMPDEST DUP3 MSTORE POP POP JUMP JUMPDEST PUSH1 0x0 PUSH1 0x20 DUP3 ADD SWAP1 POP PUSH2 0x811 PUSH1 0x0 DUP4 ADD DUP5 PUSH2 0x7ED JUMP JUMPDEST SWAP3 SWAP2 POP POP JUMP JUMPDEST PUSH2 0x820 DUP2 PUSH2 0x6CF JUMP JUMPDEST DUP2 EQ PUSH2 0x82B JUMPI PUSH1 0x0 DUP1 REVERT JUMPDEST POP JUMP JUMPDEST PUSH1 0x0 DUP2 CALLDATALOAD SWAP1 POP PUSH2 0x83D DUP2 PUSH2 0x817 JUMP JUMPDEST SWAP3 SWAP2 POP POP JUMP JUMPDEST PUSH1 0x0 DUP1 REVERT JUMPDEST PUSH1 0x0 DUP2 SWAP1 POP DUP3 PUSH1 0x20 PUSH1 0x8 MUL DUP3 ADD GT ISZERO PUSH2 0x864 JUMPI PUSH2 0x863 PUSH2 0x843 JUMP JUMPDEST JUMPDEST SWAP3 SWAP2 POP POP JUMP JUMPDEST PUSH1 0x0 DUP1 PUSH1 0x0 DUP1 PUSH1 0x0 PUSH2 0x180 DUP7 DUP9 SUB SLT ISZERO PUSH2 0x887 JUMPI PUSH2 0x886 PUSH2 0x667 JUMP JUMPDEST JUMPDEST PUSH1 0x0 PUSH2 0x895 DUP9 DUP3 DUP10 ADD PUSH2 0x82E JUMP JUMPDEST SWAP6 POP POP PUSH1 0x20 PUSH2 0x8A6 DUP9 DUP3 DUP10 ADD PUSH2 0x68D JUMP JUMPDEST SWAP5 POP POP PUSH1 0x40 PUSH2 0x8B7 DUP9 DUP3 DUP10 ADD PUSH2 0x68D JUMP JUMPDEST SWAP4 POP POP PUSH1 0x60 PUSH2 0x8C8 DUP9 DUP3 DUP10 ADD PUSH2 0x848 JUMP JUMPDEST SWAP3 POP POP PUSH2 0x160 PUSH2 0x8DA DUP9 DUP3 DUP10 ADD PUSH2 0x68D JUMP JUMPDEST SWAP2 POP POP SWAP3 SWAP6 POP SWAP3 SWAP6 SWAP1 SWAP4 POP JUMP JUMPDEST PUSH1 0x0 DUP3 DUP3 MSTORE PUSH1 0x20 DUP3 ADD SWAP1 POP SWAP3 SWAP2 POP POP JUMP JUMPDEST PUSH32 0x5A65726F2D4B6E6F776C656467652050726F6F6620757365643A20596F752068 PUSH1 0x0 DUP3 ADD MSTORE PUSH32 0x61766520616C726561647920766F746564206F6E20746869732070726F706F73 PUSH1 0x20 DUP3 ADD MSTORE PUSH32 0x616C2E0000000000000000000000000000000000000000000000000000000000 PUSH1 0x40 DUP3 ADD MSTORE POP JUMP JUMPDEST PUSH1 0x0 PUSH2 0x97A PUSH1 0x43 DUP4 PUSH2 0x8E7 JUMP JUMPDEST SWAP2 POP PUSH2 0x985 DUP3 PUSH2 0x8F8 JUMP JUMPDEST PUSH1 0x60 DUP3 ADD SWAP1 POP SWAP2 SWAP1 POP JUMP JUMPDEST PUSH1 0x0 PUSH1 0x20 DUP3 ADD SWAP1 POP DUP2 DUP2 SUB PUSH1 0x0 DUP4 ADD MSTORE PUSH2 0x9A9 DUP2 PUSH2 0x96D JUMP JUMPDEST SWAP1 POP SWAP2 SWAP1 POP JUMP JUMPDEST PUSH1 0x0 DUP2 MLOAD SWAP1 POP PUSH2 0x9BF DUP2 PUSH2 0x676 JUMP JUMPDEST SWAP3 SWAP2 POP POP JUMP JUMPDEST PUSH1 0x0 PUSH1 0x20 DUP3 DUP5 SUB SLT ISZERO PUSH2 0x9DB JUMPI PUSH2 0x9DA PUSH2 0x667 JUMP JUMPDEST JUMPDEST PUSH1 0x0 PUSH2 0x9E9 DUP5 DUP3 DUP6 ADD PUSH2 0x9B0 JUMP JUMPDEST SWAP2 POP POP SWAP3 SWAP2 POP POP JUMP JUMPDEST PUSH32 0x4D65726B6C65207472656520697320656D707479000000000000000000000000 PUSH1 0x0 DUP3 ADD MSTORE POP JUMP JUMPDEST PUSH1 0x0 PUSH2 0xA28 PUSH1 0x14 DUP4 PUSH2 0x8E7 JUMP JUMPDEST SWAP2 POP PUSH2 0xA33 DUP3 PUSH2 0x9F2 JUMP JUMPDEST PUSH1 0x20 DUP3 ADD SWAP1 POP SWAP2 SWAP1 POP JUMP JUMPDEST PUSH1 0x0 PUSH1 0x20 DUP3 ADD SWAP1 POP DUP2 DUP2 SUB PUSH1 0x0 DUP4 ADD MSTORE PUSH2 0xA57 DUP2 PUSH2 0xA1B JUMP JUMPDEST SWAP1 POP SWAP2 SWAP1 POP JUMP JUMPDEST PUSH32 0x4E487B7100000000000000000000000000000000000000000000000000000000 PUSH1 0x0 MSTORE PUSH1 0x32 PUSH1 0x4 MSTORE PUSH1 0x24 PUSH1 0x0 REVERT JUMPDEST PUSH1 0x0 PUSH1 0x2 SWAP1 POP SWAP2 SWAP1 POP JUMP JUMPDEST PUSH1 0x0 DUP2 SWAP1 POP SWAP3 SWAP2 POP POP JUMP JUMPDEST PUSH1 0x0 DUP2 SWAP1 POP SWAP2 SWAP1 POP JUMP JUMPDEST PUSH2 0xAB6 DUP2 PUSH2 0x66C JUMP JUMPDEST DUP3 MSTORE POP POP JUMP JUMPDEST PUSH1 0x0 PUSH2 0xAC8 DUP4 DUP4 PUSH2 0xAAD JUMP JUMPDEST PUSH1 0x20 DUP4 ADD SWAP1 POP SWAP3 SWAP2 POP POP JUMP JUMPDEST PUSH1 0x0 PUSH1 0x20 DUP3 ADD SWAP1 POP SWAP2 SWAP1 POP JUMP JUMPDEST PUSH2 0xAEA DUP2 PUSH2 0xA8D JUMP JUMPDEST PUSH2 0xAF4 DUP2 DUP5 PUSH2 0xA98 JUMP JUMPDEST SWAP3 POP PUSH2 0xAFF DUP3 PUSH2 0xAA3 JUMP JUMPDEST DUP1 PUSH1 0x0 JUMPDEST DUP4 DUP2 LT ISZERO PUSH2 0xB30 JUMPI DUP2 MLOAD PUSH2 0xB17 DUP8 DUP3 PUSH2 0xABC JUMP JUMPDEST SWAP7 POP PUSH2 0xB22 DUP4 PUSH2 0xAD4 JUMP JUMPDEST SWAP3 POP POP PUSH1 0x1 DUP2 ADD SWAP1 POP PUSH2 0xB03 JUMP JUMPDEST POP POP POP POP POP POP JUMP JUMPDEST PUSH1 0x0 PUSH1 0x2 SWAP1 POP SWAP2 SWAP1 POP JUMP JUMPDEST PUSH1 0x0 DUP2 SWAP1 POP SWAP3 SWAP2 POP POP JUMP JUMPDEST PUSH1 0x0 DUP2 SWAP1 POP SWAP2 SWAP1 POP JUMP JUMPDEST PUSH1 0x0 DUP2 SWAP1 POP SWAP3 SWAP2 POP POP JUMP JUMPDEST PUSH2 0xB6C DUP2 PUSH2 0xA8D JUMP JUMPDEST PUSH2 0xB76 DUP2 DUP5 PUSH2 0xB58 JUMP JUMPDEST SWAP3 POP PUSH2 0xB81 DUP3 PUSH2 0xAA3 JUMP JUMPDEST DUP1 PUSH1 0x0 JUMPDEST DUP4 DUP2 LT ISZERO PUSH2 0xBB2 JUMPI DUP2 MLOAD PUSH2 0xB99 DUP8 DUP3 PUSH2 0xABC JUMP JUMPDEST SWAP7 POP PUSH2 0xBA4 DUP4 PUSH2 0xAD4 JUMP JUMPDEST SWAP3 POP POP PUSH1 0x1 DUP2 ADD SWAP1 POP PUSH2 0xB85 JUMP JUMPDEST POP POP POP POP POP POP JUMP JUMPDEST PUSH1 0x0 PUSH2 0xBC6 DUP4 DUP4 PUSH2 0xB63 JUMP JUMPDEST PUSH1 0x40 DUP4 ADD SWAP1 POP SWAP3 SWAP2 POP POP JUMP JUMPDEST PUSH1 0x0 PUSH1 0x20 DUP3 ADD SWAP1 POP SWAP2 SWAP1 POP JUMP JUMPDEST PUSH2 0xBE8 DUP2 PUSH2 0xB38 JUMP JUMPDEST PUSH2 0xBF2 DUP2 DUP5 PUSH2 0xB43 JUMP JUMPDEST SWAP3 POP PUSH2 0xBFD DUP3 PUSH2 0xB4E JUMP JUMPDEST DUP1 PUSH1 0x0 JUMPDEST DUP4 DUP2 LT ISZERO PUSH2 0xC2E JUMPI DUP2 MLOAD PUSH2 0xC15 DUP8 DUP3 PUSH2 0xBBA JUMP JUMPDEST SWAP7 POP PUSH2 0xC20 DUP4 PUSH2 0xBD2 JUMP JUMPDEST SWAP3 POP POP PUSH1 0x1 DUP2 ADD SWAP1 POP PUSH2 0xC01 JUMP JUMPDEST POP POP POP POP POP POP JUMP JUMPDEST PUSH1 0x0 PUSH1 0x4 SWAP1 POP SWAP2 SWAP1 POP JUMP JUMPDEST PUSH1 0x0 DUP2 SWAP1 POP SWAP3 SWAP2 POP POP JUMP JUMPDEST PUSH1 0x0 DUP2 SWAP1 POP SWAP2 SWAP1 POP JUMP JUMPDEST PUSH1 0x0 PUSH1 0x20 DUP3 ADD SWAP1 POP SWAP2 SWAP1 POP JUMP JUMPDEST PUSH2 0xC6C DUP2 PUSH2 0xC36 JUMP JUMPDEST PUSH2 0xC76 DUP2 DUP5 PUSH2 0xC41 JUMP JUMPDEST SWAP3 POP PUSH2 0xC81 DUP3 PUSH2 0xC4C JUMP JUMPDEST DUP1 PUSH1 0x0 JUMPDEST DUP4 DUP2 LT ISZERO PUSH2 0xCB2 JUMPI DUP2 MLOAD PUSH2 0xC99 DUP8 DUP3 PUSH2 0xABC JUMP JUMPDEST SWAP7 POP PUSH2 0xCA4 DUP4 PUSH2 0xC56 JUMP JUMPDEST SWAP3 POP POP PUSH1 0x1 DUP2 ADD SWAP1 POP PUSH2 0xC85 JUMP JUMPDEST POP POP POP POP POP POP JUMP JUMPDEST PUSH2 0xCC3 DUP2 PUSH2 0x66C JUMP JUMPDEST DUP3 MSTORE POP POP JUMP JUMPDEST PUSH1 0x0 PUSH2 0x1A0 DUP3 ADD SWAP1 POP PUSH2 0xCDF PUSH1 0x0 DUP4 ADD DUP9 PUSH2 0xAE1 JUMP JUMPDEST PUSH2 0xCEC PUSH1 0x40 DUP4 ADD DUP8 PUSH2 0xBDF JUMP JUMPDEST PUSH2 0xCF9 PUSH1 0xC0 DUP4 ADD DUP7 PUSH2 0xAE1 JUMP JUMPDEST PUSH2 0xD07 PUSH2 0x100 DUP4 ADD DUP6 PUSH2 0xC63 JUMP JUMPDEST PUSH2 0xD15 PUSH2 0x180 DUP4 ADD DUP5 PUSH2 0xCBA JUMP JUMPDEST SWAP7 SWAP6 POP POP POP POP POP POP JUMP JUMPDEST PUSH1 0x0 DUP2 MLOAD SWAP1 POP PUSH2 0xD2E DUP2 PUSH2 0x817 JUMP JUMPDEST SWAP3 SWAP2 POP POP JUMP JUMPDEST PUSH1 0x0 PUSH1 0x20 DUP3 DUP5 SUB SLT ISZERO PUSH2 0xD4A JUMPI PUSH2 0xD49 PUSH2 0x667 JUMP JUMPDEST JUMPDEST PUSH1 0x0 PUSH2 0xD58 DUP5 DUP3 DUP6 ADD PUSH2 0xD1F JUMP JUMPDEST SWAP2 POP POP SWAP3 SWAP2 POP POP JUMP JUMPDEST PUSH32 0x496E76616C6964205A65726F2D4B6E6F776C656467652050726F6F6600000000 PUSH1 0x0 DUP3 ADD MSTORE POP JUMP JUMPDEST PUSH1 0x0 PUSH2 0xD97 PUSH1 0x1C DUP4 PUSH2 0x8E7 JUMP JUMPDEST SWAP2 POP PUSH2 0xDA2 DUP3 PUSH2 0xD61 JUMP JUMPDEST PUSH1 0x20 DUP3 ADD SWAP1 POP SWAP2 SWAP1 POP JUMP JUMPDEST PUSH1 0x0 PUSH1 0x20 DUP3 ADD SWAP1 POP DUP2 DUP2 SUB PUSH1 0x0 DUP4 ADD MSTORE PUSH2 0xDC6 DUP2 PUSH2 0xD8A JUMP JUMPDEST SWAP1 POP SWAP2 SWAP1 POP JUMP JUMPDEST PUSH1 0x0 PUSH1 0x40 DUP3 ADD SWAP1 POP PUSH2 0xDE2 PUSH1 0x0 DUP4 ADD DUP6 PUSH2 0xCBA JUMP JUMPDEST PUSH2 0xDEF PUSH1 0x20 DUP4 ADD DUP5 PUSH2 0x6DB JUMP JUMPDEST SWAP4 SWAP3 POP POP POP JUMP JUMPDEST PUSH1 0x0 DUP2 SWAP1 POP SWAP2 SWAP1 POP JUMP JUMPDEST PUSH2 0xE11 PUSH2 0xE0C DUP3 PUSH2 0x66C JUMP JUMPDEST PUSH2 0xDF6 JUMP JUMPDEST DUP3 MSTORE POP POP JUMP JUMPDEST PUSH1 0x0 PUSH2 0xE23 DUP3 DUP5 PUSH2 0xE00 JUMP JUMPDEST PUSH1 0x20 DUP3 ADD SWAP2 POP DUP2 SWAP1 POP SWAP3 SWAP2 POP POP JUMP INVALID LOG2 PUSH5 0x6970667358 0x22 SLT KECCAK256 0xC 0xE9 DUP2 0x27 DUP6 0xE9 0x21 0xBD DUP14 LOG4 0xC9 0xE7 SWAP13 MULMOD 0x4E PUSH7 0xC5F2ECDC288C5A PUSH14 0xB6C779ED863E27D964736F6C6343 STOP ADDMOD XOR STOP CALLER "
        },
        "methodIdentifiers": {
          "castVote(bool,uint256,uint256,uint256[8],uint256)": "c3d7be91",
          "nullifierHashes(uint256)": "1f79a1e9",
          "proposalRegistry()": "a7d6e9ce",
          "treeManager()": "bc61e1bc",
          "verifier()": "2b7ac3f3"
        }
      }
    }
  }
}