{
  "@semaphore-protocol/contracts/base/SemaphoreVerifier.sol": {
    "SemaphoreVerifier": {
      "abi": [
        {
          "inputs": [],
          "stateMutability": "nonpayable",
          "type": "constructor"
        },
        {
          "inputs": [
            {
              "internalType": "uint256",
              "name": "actual",
              "type": "uint256"
            },
            {
              "internalType": "uint256",
              "name": "expected",
              "type": "uint256"
            }
          ],
          "name": "Semaphore__VKPtBytesMaxDepthInvariantViolated",
          "type": "error"
        },
        {
          "inputs": [
            {
              "internalType": "uint256[2]",
              "name": "_pA",
              "type": "uint256[2]"
            },
            {
              "internalType": "uint256[2][2]",
              "name": "_pB",
              "type": "uint256[2][2]"
            },
            {
              "internalType": "uint256[2]",
              "name": "_pC",
              "type": "uint256[2]"
            },
            {
              "internalType": "uint256[4]",
              "name": "_pubSignals",
              "type": "uint256[4]"
            },
            {
              "internalType": "uint256",
              "name": "merkleTreeDepth",
              "type": "uint256"
            }
          ],
          "name": "verifyProof",
          "outputs": [
            {
              "internalType": "bool",
              "name": "",
              "type": "bool"
            }
          ],
          "stateMutability": "view",
          "type": "function"
        }
      ],
      "evm": {
        "bytecode": {
          "linkReferences": {},
          "object": "60806040523480156200001157600080fd5b506200002460206200002a60201b60201c565b62000197565b60006020600e8360ff166200004091906200010e565b6200004c91906200010e565b90508060405180613820016040528061380081526020016200412661380091395114620000d157604051806138200160405280613800815260200162004126613800913951816040517fbd6021b5000000000000000000000000000000000000000000000000000000008152600401620000c89291906200016a565b60405180910390fd5b5050565b6000819050919050565b7f4e487b7100000000000000000000000000000000000000000000000000000000600052601160045260246000fd5b60006200011b82620000d5565b91506200012883620000d5565b92508282026200013881620000d5565b91508282048414831517620001525762000151620000df565b5b5092915050565b6200016481620000d5565b82525050565b600060408201905062000181600083018562000159565b62000190602083018462000159565b9392505050565b613f7f80620001a76000396000f3fe608060405234801561001057600080fd5b506004361061002b5760003560e01c8063a23f019914610030575b600080fd5b61004a600480360381019061004591906105bc565b610060565b6040516100579190610655565b60405180910390f35b60008061006c83610463565b90506103ff565b7f30644e72e131a029b85045b68181585d2833e84879b9709143e1f593f000000181106100a4576000805260206000f35b50565b60006040518381528460208201528560408201526040816060836007611f40fa9150816100d8576000805260206000f35b8251604082015260208301516060820152604083608083600660c8fa915081610105576000805260206000f35b505050505050565b600060808601600087016080890151815260a08901516020820152610140600088013560e08b015160c08c0151846100a7565b61015a60208801356101208b01516101008c0151846100a7565b61017460408801356101608b01516101408c0151846100a7565b61018e60608801356101a08b01516101808c0151846100a7565b833582527f30644e72e131a029b85045b68181585d97816a916871ca8d3c208c16d87cfd4760208501357f30644e72e131a029b85045b68181585d97816a916871ca8d3c208c16d87cfd4703066020830152843560408301526020850135606083015260408501356080830152606085013560a08301527f245229d9b076b3c0e8a4d70bde8c1cccffa08a9fae7557b165b3b0dbd653e2c760c08301527f253ec85988dbb84e46e94b5efa3373b47a000b4ac6c86b2d4b798d274a18230260e08301527f07090a82e8fabbd39299be24705b92cf208ee8b3487f6f2b39ff27978a29a1db6101008301527f2424bcc1f60a5472685fd50705b2809626e170120acaf441e133a2bd5e61d2446101208301527f0ae1135cffdaf227c5dc266740607aa930bc3bd92ddc2b135086d9da2dfd3e2a6101408301527f2b86859fd3d55c9d150fb3f0aeba798826493dd73d357ab0f9fdaced9fc81829610160830152600088015161018083015260206000018801516101a08301527f198e9393920d483a7260bfb731fb5d25f1aa493335a9e71297e485b7aef312c26101c08301527f1800deef121f1e76426a00665e5c4479674322d4f75edadd46debd5cd992f6ed6101e08301527f090689d0585ff075ec9e99ad690c3395bc4b313370b38ef355acdadcd122975b6102008301527f12c85ea5db8c6deb4aab71808dcb408fe3d1e7690c43d37b4ce6cc0166fa7daa61022083015285356102408301526020860135610260830152885161028083015260208901516102a083015260408901516102c083015260608901516102e08301526020826103008460086203aeb5fa8251811693505050509695505050505050565b60405161038081016040526104176000860135610073565b6104246020860135610073565b6104316040860135610073565b61043e6060860135610073565b61044b6080860135610073565b610459828287898b8d61010d565b8060005260206000f35b61046b6104f3565b6000604051806138200160405280613800815260200161074a6138009139905060006020600e60018661049e919061069f565b6104a891906106d3565b6104b291906106d3565b60206104be9190610715565b905060005b600e8110156104eb5760208102820183015160208202850181815250508060010190506104c3565b505050919050565b604051806101c00160405280600e90602082028036833780820191505090505090565b600080fd5b600080fd5b60008190508260206002028201111561053c5761053b61051b565b5b92915050565b60008190508260406002028201111561055e5761055d61051b565b5b92915050565b6000819050826020600402820111156105805761057f61051b565b5b92915050565b6000819050919050565b61059981610586565b81146105a457600080fd5b50565b6000813590506105b681610590565b92915050565b60008060008060006101a086880312156105d9576105d8610516565b5b60006105e788828901610520565b95505060406105f888828901610542565b94505060c061060988828901610520565b93505061010061061b88828901610564565b92505061018061062d888289016105a7565b9150509295509295909350565b60008115159050919050565b61064f8161063a565b82525050565b600060208201905061066a6000830184610646565b92915050565b7f4e487b7100000000000000000000000000000000000000000000000000000000600052601160045260246000fd5b60006106aa82610586565b91506106b583610586565b92508282039050818111156106cd576106cc610670565b5b92915050565b60006106de82610586565b91506106e983610586565b92508282026106f781610586565b9150828204841483151761070e5761070d610670565b5b5092915050565b600061072082610586565b915061072b83610586565b925082820190508082111561074357610742610670565b5b9291505056fe15fd0f19bff5521edae5f6d895f4730c241ccc3d415eef6c9485d21914188c1d2446d537b3dbf1feba740b7657dc394b17e890cc1db8c77a1df7ddbf00c956cc0e8e971b94bc8945665a5a61d013e62406abdad7c304284ab3981bb120ddf2212bc9b3a8075e8affb419233bae1329c8b5a36dd5849d426b61896d79e5ace3692fad2a9783fc2ba49001eacd3a33e34c302753636d3c46357636dae6c8b2024b19c6002888dcd3e33699c10634a806d2aae224c3d7e59cec5a9b8719b066d2640c3bc3c927533404b7618b19082e24eb2ca334e7bf9dceb958bd3551e9fe7f57270e9bcc58594f6192a2b99d2846f622de39b5937b2a7323cc45e25fcb2093d01e7d1a66aaffd026340c02261fd998650c044a8b0c7fd711e04213a1cd2cd3512424444f3b3621df8c36b258f3554a9c5e2a21a5331717c8aba346c7ac63c97616e036c1a88f983c82227849b01847266a1175919ac332c27799549ce18d36ee0b0ca3b0483c8e42c91944242fc36b40ca910518f9d85a25be8e4a7ef43663ad110cf5e0d819a05a811f7a0c166628530ba6f6d353e8e6a433c064d6fadf060c19bce756e115841dd94ff44541d5ad78130187d67f3c560c2a590bd09376570909257a78bf2bdbaec4a20392ebaef666111a0013e0d145e3b8538bf21c631b78054754fba6cbe53da1b0e9c8e6694c94e5c5784962cd792416d2e2a69c666d201afd103f745dc8bd51a5433a7ac8419f1dedaafbcadd19048e9009d4c6241613245cd94a309bfb79ae8f5255803fc1fbdb80bb78ac6d5f68dd031a464a87ebf414faebe5560369ec0b8807a88ecfa006f7f9795caf1bfcfe261555534cf4e78d0c962615261ca9c1f65cd755e00bc013abf1533a12e81b80b32fc41b0d1fa86d2792793df783c78305175c60e000c53fd96ee07ceb78e470a6c64a1b477c55342096d8bc28b6870f36fc685e6509823ed594339011cb6dde0e8f8d7cc1cc582e109542c42e7879d5f2509059905ece1bd8860e7c820343aa1b30461df91eae951eea6862ae37a2a4392c5801737849adb507f0a3137699241517a3f1ebbb3a48093d3e06748b6704617f4cffeeab1a9c5b788923f7fe09a498749dd9ac9f32532e5f917fa4593965b59fbd36e7644390ba01391b8379a4a204c1c29fd1d17cde2a0dccfc2e6d40de5187062a63a944a907d0d7bb6eb30533a3454057778ed3af1b8f89159c77020c893f3cb7a2a4cc3085dafdab413391192963d2d6f8a71b7d241b04a42762b5922f9e96652279d739459c63ba99921d36047868be961392e41f9a885deeb4ea645ceddc1b496d41a8b765b09c9fa5dd267644335f50b788270903ca28b792a69f59d7499ed7e261840c1e20951bf0036cd34057859ea07c980cf286f5af05fa35173dcabd94e3c7fb591b74607d58c397469cf09759e89b561a465001f19b05dc38a491b248c97ec7920c03da29e69d805df6dae9ad29c6b80ed2c6a0818f6e04bd3aa8e1a17b0d67c6815feeb8bfe9b3a575bde437ab71141cb929c4998d91a32baae52fc164831ff6bd12474cd8c91189b69f1e8cdb71640c5be902277c48337d1db6b1fb81c89e8689cb10b7ee6af8b9fc5975a730f6eb2dd837a46f2ba2ee8ea9442a9eebd87ed57f594f044c7860b39595eae6ce4d0e119bc8b722e52ff60236302b2e6f4a139f15e63aa0641ae765f3e71c32fb759d25214f618153620b583fbd2abc2eef9a26789f3b5296e90551877a37d362dc95013c611347b3d133ed9045be2c36f8689a0120c4078d12d8cd28c006bc61dda22f0a9559eca7cc75db51c369b05e74c952d5a8ae39b06ed01c8698f4d74d58dc0fee282026bc113cc251580beab7bfbddf2209056fce08c4e356b1a06f1bc94414393956732c8d80c3f60ae0a275b3968c22c40e9054b3ad662671f4326f208e1ce66ceaedec3b13ac33cf1dacc63e7e68e3e7fdee08e91a54075cc0758a805a1abc1b6362a1a276f723f806d4a51d3b7ab592ac8f39e198cb5efcceaf0e48c123f70ead154fd51f42a3de0ac2b61621f01a8b0899f46d2d9da1a8d620b88e9828358bc8e9b03c31481e07909d86cc8386494aa0c6b1fddb6e83911200d2d5bf21309d93ca7e97b55d43c9396f92716ff1ad99b73dc929c566de6c6c721bd04808666e4182c159d4cfd305e1f6f5cfe4ce9243ab5388c2a5a0ab74b600e4bd5e28cfb007611bda022f417d399841a00e543b14076672113b21e9bdf4942eb3fc1281dff49430dbc9d0748814312f5356a1024539516ae19e8b6eb6379421cc83243dc2b640abc1728422276ba4ad24cab39fc7d1ef6cf3d82fe82c9f89efaa7b005cff4d9542e3250c36bf32561e274f8fa928dd3a8d11f4f76c36a4cdeb5e6420b886f89543b54f0403091d51cd88895fbd55aea86d19db8b89cfd55255f8030c0aa8002fb14fb9b4feda737c210d4289d62a014e4bdbf708ad21b53ef62d9625e79b70d1ee02eb3f6c25bfaa7b9a4e1566b0fa70c6c0ca072191897838a36027218c7dc6af590ab65620d6f31dd4cbdf1eb86058151118bbdb80b8d96d0d80053653ac15a867afa2931d75116318a810d5512d871b71f4654c86acabde8c911c48420d5581f37e60b15a6dfe652b9ce46e2de3414d252b18df5b1b8df2a81821fbada5ab40ee0640b13756b26a7fcfeb5f81de884fbb889f3ccba3fd64cce70d6670f5a24582a747e1d1ae1e0e8da63d7d202210d96dd5078fa58eccd43e361fe26476a17c1dda8d2d1b630ccd263ecd5644529afc3e2973f6961ff3f8712627464f05a8ebb85e8e465599614ced7bec41fcda74ec9f51ae39c392672bc7242ab9a6d1c669a478ceb584e3bc6e1635e3202ec53cbb6f3cc42bbfd7659607c00dd63e17922e2e955c38d47347fd269336d27cb9b9c7a3218c3808507bbc994d19593a3350d5604598530c93362e2836f90f7daa675f73b40bc04d67b0625e3d1682034112be41166846a800dec3f04dc45f7878bd2c5493e443f44efc5c08af0828e223ee37c2d4dfa133c8df747c3ddd415da67e911f2f5cb609a58df64bd0127bfd549e5e8dcf4b22291715f2ad5668cd6c711c2a39c3ffebe93243df40b00dc2c61595d602f4f7b03af6a919263956b5943cb3f5f890bde70de7336233871eecc3f4d0cf71749bb70475ee20a3d479719fcb7c7bea429059f6c1d18dd57e2d94c63811c0f21889beeecc4d7797f0fa87f0cd40fb84ac72f5537942b5bd7a07573806d926b6e92313c06ba464ac035746e0dc96b3d40db4020f72dbbf715306fdd2c03d7f271f2969d465c7e86763751e29fa622a2715694c534b5e171b2519546a1616aca8f207e875ebf37977f96c1dfa32ddf16d7eaded9047ab15142f1953bcaad2e145cb2a759cdd65eb7cf493b281b71b0faa6010e30a38b51275192fdb1ef3113503a9db688b32a0b79f3a8125d7967b3962373fb886332a135f7706d774b685f236c190a046ec7fc6147a84260794c543230c4d3f90cc091d0e602cb5b76f44713c49cc24cb3e1715ba081787296b94dbe25ab57742ebf6553df405159d91bd6a0a9c639b0cc27cc39dae457f45225c4bb554264af8e229a52524115001b9e8d8b1463cd86a016c3610f87fc2a10f63bdfcc00cfa99353a4c1a52125537cf6072615205c38045b8ad31d155bdd8acf80c7dc627a7506e642a177c2e83916c6303325ed9513361098830271102ac5dbf285e2645915eeda77a56931ce67dd1edcaac1b03358eb6b2ad3780bd1cd201b91d4bb2e603e01279351fd126e90bd7b6f903b9e517a0f77a7e4048033cb873b1da8cf190080e75cd1dfd6b1cf426585573250eb3432a5e80fc194c307c58c814ac37bde84125a5aef222a710fe5c50f8fe71b1fb44251e5dcc90bd0d64844451329dcb49e241585406ef8b0c273841cf7228666b689b24a7022bc402815f77f71b43c1862f64853b6a47ca1255c43af69be48744c759de67f363030b809ea5be5de707545d1f29dbfcd272110b2f7ac7d7b3f94893762fca13700b74cec691bc57d216ba04e992bd0dc9470652c5b2ba7b972dd68bf8c271556b57ad4521c067a072d75ee09268562cea9d1e6db4b3e0185f2add0d49d60e16168c2f3ea91e2cb05678f2c9d9abe232b3400a96b6eed42e7041c98baa152253971225378ac4cd9589c80cea28c06b5706782650ef83382c54ccfabafaec8096c519ab5670c7d4dea2535c64db2b7dfcb5531664dbfaf0f45d6ce2782683f87e6c9e9b7176f08511ac1663869adf9337eef0212ae8907761700bdea4b480f20f788dd08ca4126dcf4ea462e890f3026344760e50a74cf13a9f5c3eac33a38c6f9e8d3c2638bee309a4180afd6097c52766e41377037809e690222f9afca6e1ee39ba95846bbe912379a938f6ffcb493f5cbc094a2af179f583a4155dc7f2b191c036df4330c0eb75e1e70d2487431bb4b51f2b1bc223925afd7f4f7cdd038d39183e1364d1665dcb17cfc2e30da2edbda339019a6052e1c5cf66ec396956467e791a97506bb3291d1a149d863d9cc25d660d1f709b744826f4ce03d2ae0eb2a86613bc33b2bbed5e9ac6198f7e8df1afa8b210cee567471a2b01cfa286f3095713ffe5855c06f17158e33e9ebfdc1c792a88239ea34b3e8a5d1d26599fcf453537fb16a91f9520317a01c7de1bb5a768d72509b3a1bb0c0be55876c4b91957b7e86412654bf272b7b9c52f2217e9713c7dcc2cea70065cb1bf0b68c86a3592a5134384be8b10de004c31233b783577694dc613aa1864f9d5017a46cb107be441f821a85315b79f39968d6407f343a2c619980005f278bae49a9a15a54132c50388e69f4211ceddee99195f07736b502fadee0302a786d79c25a2be297edd39eaee413dc553146ff7d83bbbb8bc71447b66052eaf36a4dae40401cfa571b55ad8b5fbced37e67860085bc6afc5412d809ce8a166d04b67debdf8e674bd6074bf67031d3b4c558647dc4a3c5443eba23086683232f97fa7f391323e066175feb3572aed60c343c3e3c11ed309c00ffa29cdd3708f1791a609f8714b38f03cfeeb1a149adf524a946a397191b0986869458bb8a20e9ad3d16db1563e84154a169db5e81d0117d4914800772d4bf624317e32b3617a525ede8962fdfd05af9ba5ef109bd2f5de02524454aa25c696b7c6fb0757d0d71a275a14cfaa4f987cf2d2552add13d13fc7141c544a0ab457103e4b2d5021ff842cd59778fb6c75d197511f3158ecac8fafd21db5fa652725be434580ff921095e6eefdda8f7648172826e435e08a93109b1f040d88ec1b01ce3e2dfa59202746d05612699c335d4031f388561fa2c6b3a4c224df74140c58c5dd7391459182427fdf7ec0b8c5a7003e3ae6c19d8da47804a75d62ba4a1f8ce1835d7eb660dcfad648630a6037241a73af244b1612eb375d852712a10182e1339d176471f24611b2e7aad1a1fba1f1eb3193a87a0261e98dbe77fb30944edc6ef5726acda2df51df9c66f51695783648873bc167bc8199afdcf98a6a39dfc14933634cc2500ba85a4d757b2bb24f2686c8fc2b20d23f68ecc5bbd889d70db8222f9c94eeb2a615fc377bd707e1d297df70f60076d184ea30144439d2a02827ccc4b74d6d5083ff5f9b4474040e1db95e7dd4ac08bc49f0df5e04b1601e531087a66e1a9a0300192ff2b9358b371328362eab85f10b3b256562986b0222f90fde6285b20312b9b6d2f72c215474b76c58be1bc8113aed21efc4bfeb76d432fadd1a143ae551afc92793b1e3c7bc0fff4d51b34c751d6fd4f0b684fd36a5eb31f2e7d59bd0827a4788df73ad8b0a3db6dd0366131faff0cf443fdbe689b1811275524fe4f5b26e306f7f4400a8b466a46f73b1bb30628e8f53ae183179a89ea09bcab1abe8c1903a292e81db108e9af23cd1c7249087803195ef86af9d7aef43f671bbe28d505c92b5167e06202018a4b1c482dde448604793a2b6d734c3a59f599b457794f109890a7f2fcb50131c7e510faf117da23344b6e50403670b103e8b1b0fea27f1fb6977c76473f7a1d148b69a5526768ac7032ce91f0e138973b3e4d30745fdf22846c8fc4704252020b4a141726ef713f5eda605ded818ee69d101490d5a8b6079b1bc515838f1ad835d87623adef3b1673ca9735ab72d8fc938e206a524e5820d47a675b313cd4b857527f3e6ddd2b5646e5fd9f206aad5bcfaae6cb0958e6064e79c61f6d53a00688e7f217a0c8579ba3daf9d4df5dec16f013a124413f152383c6f75c1a392e6e1375277f1130c2274d8668773addb783207cf58cf4c0b60f693e2f20b43eac0691b48a00fadf42143af8e21b080d41d1e71c8a02142da7264fba8810c9e1c00b512aab1d355bd7ccab52089768376d8a925cf1c3f927a101c6986291edd61bf9888d6bbc0d0f802bbc4186a811b8107fcf306a557f0af626cdd05df967801d477b1c344754c15f7a30b0bd75bb98985a0c2fff9ec80c060c5e61cdfabe2eb8188f70cac4d7b7cdeed9b964792d7dfb6fc0b228a7270e542a586a34c5b50461b05614cbf3ce228c130522513793ec263f9afa96e23f4e5a25ccf30168e9ef4fd1cb902c95ca8d67a13580dd07994094b221708f8c7d6797107dfa97fd9047fae9cf80f48b206884949b324e4ab03212f3298c48189876961cff7a1fcb4f40c410ceb353cb8ab907a0f6b2821dbf82766ec762967ba2394420b8533e0ab744d5db86e30a3e73a80bf621a2b5d8555b0fc416389d5cf532650c9d9b203b72e7887fbc30ac7978146860ea4aa1ff0d96dca2c65666304cacbb1b84d4afa11231f3a4a3c62a0029a39f5ea31d907a92070494990427e7ca6f8814107581ede64e20dce54fffbc6443cec3ca1cb0054c5142187cd21bcb166b7916737e84151e0282876e43177c3830524e3b6ac2eab243a067de3319f8d0b8b42037cd61979b667fb80288588d2b095f0c4c34312d7c75a074beda537909cfa104afc04e3f13c2d80fcfa1aa6e946499406ce541ca84527b75dd29881c09e6a120a42ab93cae3bb2a7ac65c4952fcafa2b58f3d3c3b292246e292dc1d10ead442294e0ac633d4e59ac74082946c67653dfd3b17220d05953f214328d778d6256019e150e3d992f5175dd609d7b7468a978428a5bbf291b77f900d1c682cba1bf2c04f3db93c0870db5a439e9ff0f2ac65d19edda31f6bf64e9f827516b3f68e72e6c4ce5c33d2f1d00d4c7c691e5d39dfea1c0eb590de777e5fe64365545646f01879179e76aed29e2392a6df0ac85ea6a285e0d3a1112e8593c23c3e33df5a2086975bbb71f10a74a76f43bcb0035481860c6478f23fe914df449b50e56c4922c6feb5c47ad32b1054c98e31df1659881f884939536961bedeff8cfbb6e12820549855c647dcdf03d05c6a490d5541098d6d83bae7da0112a822e0abcece25020f9c4e3fcfa0d305a923e4fb0d9ef583cb141debfeb931c909ef1d4fdf6eac905a3b3663e889c49eb5920e769bbfe9f9dfc905554300bb2b4285c6a5889b2741f9e528d112bd8a059eaa510cbd9a7458598d27775bcf6d851a0d359ebb81dec15608ad6b67162915e05d6af1ba4b32eb4693f775ffc0a66485c3e5617dd37e01bd2e26efa4fb0a842e03142af573fa9c16623542451b3e4e0af1970cd7e2b0a2b417cad2430c3018499a10488fedf9e5399ce6cf93819469c802bed6386d7b9230d363d8bacdd978d08dfbc44f1c3bbd3b2bc1e2aabc5c3759db87f8f895eab2f83002ed31eaca2531766a09552eb1667a9419192ca335b08d93693e5584abc0feccdb53345bdae7349c42b119570c762f1f5497eaf898e4ba2d378d9d8d20d18d01d38cb6ac78d93961c1ecbfaadd4b0cf999b972ce4900cee9faacdf8298a1f31cefa55f5f930d149b63b7a33e385a688aa8a4ff3ff8d88e501dd7466b4751a02607dc91fd27ebb066b51f8dca8d64dec062d3f8ea6a3e2859d139c17e9f225bce5f60cf5c72fe58b511983c067ecab88071786feb4f6cf83e1b5ac35878e199ea7d2467ea66b53853f7ba20a91bb44a4a5f621404375051cbac31997a3661641e4ce35beb44e3d00fd9b7a3bd47e118fcb21c62281b148dfe4097c147e11227cf6075dbc7987ebce58711ed50e2b6a94c1478db414a834345cb2b5c21cb5252bdf93e4bc24d639e1ebd80550001fa9aa1e7d6abcba326c2b2feade8fd8d9073103523d7b0ce327314d3474aa6b77824a75862d0cbaa5af6e1d2cead16b9f050f7090cc1ece4b5217a0419fe3066d81ea2e19dc6c5410c770740c168750662a4801a2483187073a17cd04890165ff19b24180cc8ed16870cfe0f2ccd8218324e27258b0e61cf13892a8b7abb13e0cc19faff40bbdd680a389f4918f63d9e20f03cbd30fb82d7807479517b4e29b3da4950b96a023a331e52c721c66f5e2292bb6d910684eb13c86f172f66f59a093f8a002333c8767bd594ceb63e9c6a2c41f32b4847858f72bc734df639c032604ae71ff65afbbdcf42acc7ec195f3a39c2a0f1adf6230de3995bce023cdfc6af1e85d9121f84de4a34b9c7fc4ff920c7617fa977e81dac861e637d8d9e4636487afa55618f35f7455af8321f8d6d50d6e09f9221e154ad381a5b58d1c8771be1f47f3aae8a9769151cd84c1434fabcb9b0ea204dbfbd3e404128c8252d607169ef5305bb12a59e44ac4be9147055a6f200d2547a25e17e027bda4423048f3c6c595d6f83124767da34e0e4b96c26f5c940cbd5f2d0cea7678b80aeed4b0de78259c86a2c207dc0f28fcbe22a1252e5d3c1a9b6c59c30e6d1e3c5efae27acc27e9b7bd23af3dd7963a0aa8361b4df2f2430cc761b549af62069ba3e0fa7ce6c75c9f6defed91e8f3314c4b1ed7a5e0c83c30264e78dcb1adb0d7503f80507ed4bf90271624d70dfca454d1990a2f75598828d55e9071501cbb4ae790279f996622466c1c9f131d667e8baf7bdbd5d9a45511ff42ce9d42c89d7687d469625b18c59b883833298af76480817907af2294a704645153c868372f37d106c5c4bfba4e2f73309d53390894a6b2338810da3f0d103e33717f00caddc108323574de85c6887720561ad0c9946bc510bd3954ad4d264461fb0d2dea03b815969e1b2bbeb995d30f774fa49411323d20ea4f4f1652161a104ad60c9b35ef38783a9f951bd969e107846affc11754708b694168ab9922ae691abdea5ac8f12f90a1a147b5ac63088f4c3de32e81d38e79a93612d9f91286d17dc13dcabf49975e2a37743d997ebc56d11b71c2e430890eb9fb7c7d3b1411153db07129358c9ebfd849d1a12de7ff39ec458b616a3e6885bee7114f7a0a98b996681afa7f3a7ea25fc6d9f2b48af7c5d8c8db0d55892bb64461752f932838a60cc9aa8717f4308e6074996b7b71f077a1fd9d8353af5c086aebed16b70ca941047448572c947a8308b479f74524a74c384d926e4be36e8068bc635df610b06f989dfd1d445b6c4bbc386c1915d9c6775df42fd040826a8a95deb11561234bc8dba2ee31ad5b1dddb6946dbf1f2d9a2f7d71bbb45d94d7f9ff47afe93603b28511d097183cceb1250dd00dd4501789b25bb547cfe66eed09bec1871c592d06d2e4acc30f60e54c1bec9442b8aa70137c37b798d2dd8dbeeea514f7907b08037905d11e86a5a9d3b03cbe3094e9468d3fb3c1a20738c08877269a69147e1f79d21604dcfb2ca75a44e38aa87cf8f3f56f639c8501d336f2e72a8748669520898e9f4eab7b0f918e10b9fc35a024f4d0578c0e46463cbf360606fa47ade409b99372d699342f4c7e3c807a133ee3be1c92422cf2f0e5492136e815061041142ad77d8e80c9a778bc04e8a62e550908c55974693603d8670bf9205553bf7f22f3a31aa3f9f3c040048df27710a8e485049abfabb71b51cbbd87126e83cf2403459743b0ca82a0801415ea160bad9d326888db19ea8b86bbcfacb48ac3c4120491b8939d07f0074c444ee02f79917f5ded067d7e0529b0437b71fe6355170e2bcf73774c5976acfbc99b1116384b11930bca6187dac5e662bb9250487f0845244615cb6c1b8f74aad86d9f900ceff74ee731a9dffebc26096a1e6a772680f723a077e52b600cefbef77eb273ea0d5d2d7b18099b4832772b56c6e822df0794227f9d7399bc220483caa969a8892901b894de900a1a20da29328343ce7cea1a1679302001981320168e8d8e921756f2ec22d21fd130d719eceaae1b19354bae118d5af95d648cf620249c405d77c7743089d9d262e29860cab3c292def4ffe42284c84a005818061688fe45ff37d6fa24b4f99587fc5e9a1208b3edf4d060d00cfc0f918b739604150598b74b981255a70d772a67f23f51c34212958b45a0352537c964c421601b62787e6eb7307b99a9d6eefd0286f927fb25f22e7e9eaf951e30310e4606c228e2f5c3df3eea02457bb4777af8546fb61bb1434221d998840f5caab9c8ada0b5a094dd9129eea5421c1320ae7a666b56c960be0dd4c1eddc1dd1def16e2a0ffc68a449be9d160b00ca35599e7ad7cd1afdae000cbc76dea82ae0eb79a34fa9a3c73bd9f1eca8731aea913ca7d138958a32c09c1c521df6a228ff689e68fdc639c190119604c98a1845806a317af901568ec8dc47593915f11bd5a5860f93500e39351520da5f095ec6557f54e0d5628fe9cf1a20d52c426c021f0968bcefd07ac634d7e6e02d45eb6afa85d28b307f5d2e3f2cd6d744fb441c0c5c153df6045c88bdc5d09dfc813cf8546d7344c70d194fcfd29f92f4b6961ca6c68abb475da1475efc1300855db5fd7374a5b92b4f90f49952a05aaf92ca2bda409f3445270ea3a6d128b46a5cd5cb245b5339a66fdf814f2b83f4c123d305a71c398107a0314772fcd210e0c1d3ea35d99444a378e1213a9e10e6768daf11fdba29cb4c24bb0e770eb1d4e5c23d9a51a3cc86c7d41b35312fc5c943f96505f0e7da79e615a61755ed4526892b42ce1e80b5b027537bf53f0b536d4bbc0b1eb2f81535a276e50897a2baf3bbfd981468b91fccfbec6cec8bdc988f00235015d6ce1db45302f8e286e96e26e4f64ef5534ab8a55a9ffe215f896d7ae7bffd1315122998316a3bb389bfa1146d940d7e2718edb570f12cdcc57377f8ca2378023f10e9f89b3f0a2c44497c8a7b705786220397dce0083335027a9ce9839f60234a05bd730e143866824a0e9b7672adaa64b679dfdd86c8e54fb2df83438c202d23c1a987db7a304a2d504e5c4573592c119fcda1ccfe5a07d5643c4a9c0633029b04e14de53677bf90dc7badde802e588fdca2b9081ba20f4712e662c12adb263f5e4fd893704c5f229914cd8f37bdc3f9409e617507850604f2f59d390fe621c9780ceccc597c37b49b8742654a6d34f71cb32d1555e72c06004d06f6f5b2011c1683c09a02f63b38549eb958115f326fdc2bf0aa81247acfb1cc8554493f26430030fb83d387a990d785f38ef4669b2fc53ff8ebc2537009c8648232996f1247fe42d335f9252cf1f570316ae986b553044b0c81e635f764ab9915e112941386af604cbb138efe8dda480060758e274bdf502d2bcf9b5210e31798b08adc06adec496d6a730820969cfbf60ab07a2a8f7cfcfcf2020d4cac60d127fefafe06c39f25af1748848c37d1eabbd6a84a9a735afce06a5922e8a80af1bfc7eb5f213dbb816f4ac87aa15aef8541b1abe3fb4d11d8b0b082989a0fff41ad9bdb2c1e41cbe348a7f3d5e2408d19b26817183d1f6d3b51f27a915274efd9598ff18a1568510b7bb366f4387eea8fd2b20fdd95fb6a612958b5c25262c32ab3eed75c08521336bddf41556b79cee9b90b0c1cb4d36245c25a7f8b248567fb4248313d2d0893b893b14eaf3aed6820ae987b88da0cba5dad3c5b267c9012405514767b01540a25e982ae7e1c98d06b14cc56241ab9b09543440957bfbeb9c384a74b651744fc2b7ca4e19a45031fc838edb3805964d6533a4a5583ac57d9a9f6e6da651230a42b5aa82168743e9817923ea3ebd1d3a55ef1bd91a89eacc55663a026401673e455967762f96f57b413424631198e09e7bb1bb06844068fe44f307a8d59061d9c5b1f377adc54722ccaf3601332ebc07660fec4d89b5c8213031f0aa8b72e92f89b6bd8472ef679fa5d617805180e6e0605423cac37fc15f281939770a72d3c9778d5cb3ab0bfe4b296e2ed90ed19619b8b353c1043b40e03b568a049a417276cb455cc5d461db37b0b4f6b34f1bb429a76968726205617095e1d39b92d09dae1c6d2e4114c5439c81baa28594cc0ab76e7f32c25c4f780c9e9d6e46a5a0a23d3bedfe1b14bff3eec36492bb9329f56ddbf7f5e1f122838e96dcfe98c4613a1149cf273a308c777146d7f4be2160aac12980d97661fad18cf682b7c5e242b74aaa132494d280ca444d5d2a99cd2bd426ff82d443e2b44b8441733bd450d29b8403a3843d4a77b6c70539d8965e57af369d6f32feab13450f3fa985aed18142569f4ef08c2a1947dcb6e99b5ac52cdd5876c50f02bd6afd62fc810a755110f47bd52a43c690f658374e9f7c2bc4285c641c7116a4ccd2c94f684cbeb7f2a17a29f16b646ebe94c4b2e2c4bc375cd7b002111dd55c4d212e9360cec88c18810416d05ee2eed34165a50f6648eb3e10f77247f711398a14fc77bd5711fc0fa046641ee77bf1c3c58b848252da5a88038a20ab22b0723c37de4753f40a110b404c68b3d094b4cc491c55531f7ba1bbae0b554816f0c8bc3099061c83099f6fe0e3661a824f5e440eaf439395c1047754ec3e22f44a0f81d73a4dae283cbdf1a0f7226bcc9aed34857296ce6dd82b82f1d086ac24d3b9e51ec3c767a89e0e0d10fdee6a4513d6ec8f9e2d416c8b87b0c1deaf66702ef14b11f42f9754ae688c220151e7e27c0331111bf9346db0f4a36d000ac49d03c561a45e23383a0b61d2717cf331edb43a227be4cc3ae2dd0999e07593a95e62cb170d4e11787ca9032a411b76e488a5eb5703a63e3c43341cd111141c3353d6c634422e63a8ee3a948e62aaa17be5319a2c4b81597c87a78dd744742127d8f4c942e30a6884a7c40c05a1ceb38f341d5107f31308f3985d72707ee4cc450aeb79b3122d18ab3a811ca3226dbf8986be11183f7bd4bcfc17db4b68fe9a92cc4921fe17aa0352f5778718601a871c9a11ac0eac37adf26c0e380d9e4d4d4c1441bcd52438332f3ec1bce2c1dbda7ce884258ecbf26f6e40029d770ebbe895ac8ce51007d38939c48cf3ed307109ce5258042b89a7e1969e498b5039080ea3912e326b5ed2cb2c484f1c8732aad746945530cbb6595e6f4038d89e1e0c0f978532ec02e5e12bc9115174a6901576cfa7df9b87f6b6685eaebb7ab84d90e036f352b9a3f32edc2d8fad897f60a7ed0f5907aa3135577a8bd38c02250ce339b3e500000a8c0bc4dbcb58fae3e14b8a5528c397ee0565c1d305c4679583c7a2273a4263fd7c0e4c0c3cd1593d70f1645829fddd22d3b28fe608eba622b2dd67dc8282192da3762413ba678ab7f0908dffa0610ac0133c5f7bdfe3469934c78bcb4177d2c1fc618bbac6c2ede6a05c83ee4f9ca0f735c449b31ebaf60e184880a7ce6053dbe5c6abf673b02bc2213ecf7b788d4fab17371a424493bb49447855cfb413af131de52bd75a50b706d0602afc4587fbcbe9da6daf807c3efc632bb8fbc8a3ccadaf73b827542745fa828bd99e6ae097936294db584bb7eefa8dd7b63144064f7114041a88e69d6e9c6053751ef135a8f6549527e22bfc0580a02a7dd72e9eb6b6a6e73b3f6ec2690251c32a5e4b55b022f9cc73fd585424afedcd1ffbf7e46d2a8e3a86b52a937a6291abff8ffde1de3add8b76c0a6f372e2b921d601c5f3128e5851706eb60ae7b28152769798bc48f6622fdc54ec7efbe576bc6b263ade79359db0db98ee57d465d202fc4613d2f1988d409fce47fb6bf1adba6a9e18b97aae41f82dad5632fdb9f1c9d65765d702a6d24efe251836e629ffc2881d0c218e89cc6467cacec7b1cf70b0cb3219a1c4f34ef384b4b972c7b045c4b931fd84b41ad619836b6d30b00cd2d79b8879e27e7000430adcd96d6f7c67fcf386a473752668e64c09b2f8010a30475cfbf8a76a0346f7df43a3eba83f47f139060103130b1a484e7814623d85413be6b6d4ca7746460f0466a5068d54dc9378ec2e46cda7d08deb8a254260e2701edcd7cedeaae1c11de85b2fd1e5dab42fa36e547682937ff684364921b513f1f570a240fd09cbc6fdd1ffb9183668427b376483f723438dee5cc5a6eb961a12eadf23a07b9fefd2e17ee0d74db1ef80caa7745b9c9f7685fec9b02e5ebb13b2f668953cf91fefe0b441ff07a2f2938f468bc7efd380bef43a030e5fdc41a71118eac608ef4b794efe03a23dd034f13156c02f2762e6e8772b11c7dcf8ddff32b942a6404366c746c10e3065f1f7932e240446c85c3f8ee5aab85b7727506fb03f113eb05dac7306c758fb6565545232934cfe1a99a5fc63945a4b6d1a652d02a6d353d3bafac324754fe1a00d57e7f020dbea17231f87d83307bf940e6d6761e7913c116465bfcf367aa331571c24cced6a4992e39ea9c482fc5638362597119111380fafd9f08783dd2497d64685aabb25f5acb60204fd378e0fb0e6da0da22b45e152cd7c40740eefe2d3fec07ea31872401ecbdb762cace9e92e7cbe34e1192d39b9a603bba160da80fda0469b41c2255ac4d0a46402a2844225ffd25392f46658280ce7b17e40eefb529673a2b3d8f6e25757e9a445e44c7a7149bece401de74823933559559239322e9363220d322cea2ddba2f6d5610fe883885986d15c53cfddb0f8bccedaee3a4492f2ac1be55d6f0b2f1e7af5f4caff10177904f2ba1a14949b45d15d45e07b4b3c206ed751f86b5f37d70a24a4d8a7dc389aaf71839769f1f11e18063e3bc10c490bc546d8b35242a93ec4d6b61cacee4f1d4b01800f7c3137ebc9ac731f7b4d6375c01a874f29000c1b3f4727b65c77a2d51051bfcdece5c62826292caa2da6ec16b9974d2eb7fd3c2c20d1863db12ef1440be09c696e6067fa41ad890ee8388c0290186e494cbc202e7667d19b56353cece99092b1d93eed7d26456f285906aa196059ebbbc157fbde72b8acab6be8efce28d2fafe0589f5c826f419b1ec3ac176a42c52360e7b3edf90cd4c77c915e47ef06282d48bd742d9e20a5b8dc88aba0744a9124930cc1cc7d692decc7f0ee8a86d506f42f74816d65e974086055ade94ff76a6fe5d14bd64a069b89b867989d12c815b575413874cb060adc4fbde9da6215b08bd3c72b9f817bd4e227b818f70235225265caca14dccb262c43230defa44d79efbf96195b8852817b9c2a1a0cee7b065a720651f4d30a03b23445d588a657ec81881b38a6ca7c96ae7d30a228eda72f8f278929640191de8b4c95a163f7b35d9fc5f38dd11499e2f3f0484fee4d4e2e67e80ed738c79c531bb034d0e3f7703ae1cd93d0334f8cce0e6fd7bbeeb9cd1a4ba16824f4df329914baf49fe4ae2e518d85cd88bc2a4d7511486305611aa901d1333f199a38fc9c772c5b6dde72d9d9ef90dbe2a7ff20cb9685c2b30ef80c066995da220811544bd79b867d6a45c5f9d5f81246ee7bd867bae77ce1f1a5fd1347a12ac6258ea35211b6ba1a86831915843d88896e58f458f0d5765917c35e035fed90d06219d345c5ec7d3a0ae95883cede928acb380f8ef8b4b6859ef9652abcbb767e6e79b2dd22e5978eed3edd65fc15f583b875d14e2dc2f2a0d8543c2991e9e9d1214bf2bc8020c1c18d861b8fb8829af660a7dfd350321256775ca613561a0b30e623640fa05d8a5f9540530ec9270d46c5f6607690c93e6e82655d295a4d3659bd1a055dd3f4bb626752a2d06759cdbbcd1bc79b83086649d106e50ff647b8fb279b8ec301487a755b63b15410d9583977381e2060e794dde87459217e540739dd851a21e60d671a6dba94845f42487c32ec098a9c4c0c198198431b389bd1a4d6c9f88d6fbb6beb8c25a7f86151da3048fb29ce506076f3b7339701f60ddbcde529f2adcdebd2bf02940c1a9a378e0488c29a0ac38a17a9118bc5165cea4c3361c2b7edc485fb90f788d1b4ecf249b38701ce1ef0472003d9dba70bcbbc1e5599b61380fae8aa7c48f7dc2c543713ffc9a72a801e1a77f9f37c810cf8a31e0bb5eb4cdb46f2fc5fca97133ad03ab9cf53883b270a01260c7c534a0e20cd40e05e747fb3bdc07b3cfc50b3ceac18f059ef4f65565f447208335fb828df7cb07583a984136302cd3baf3b3d9f9177ef97f584b0daab7f0493d2577326d35e5c2e4f1092a1339918cbdbfcb5b1dda82c318103401d4a9e8fc321815909daf60bcb32e37020e105d8b9bc3aa31900cd3459046ab97eb228675846b691268db848b42be0e8d96f73d79c16df5175b29d4c3e0351a24ee103d2cfe7c2831e4edc4d7bb561c29aafc6662191bcae8aebd4d5113e331b9b537f4fa85989052d3c39a939554f2b9e6230e96a78c24be4d942154f765e6d4af53a8c4db9407a188b721b564daf9ebf33a146bccea52cbbcdcbfb50740e921f91f7e5672e5e7c2e59d3453f983dff90e45f917cd74501a646319fd22c952f3152b077d56558401f0bf595db464070ab32553b095f4421524c20568df7ac803a3d299b3dab568d0b68d795eb7b68b11c333b381a2838bd9398fe371f08d48f2ded24e60e02654f18b33a4cd6eeb86b9fafe856f33753ca1cc6756dc4f843e03039dfde879a76b715e0ee169afa10d37a8062aece61391764ffc6d4dc6ddcb56f35880bb13c705625c616a97b05678348ce1d52718bb1d8521cff5a3d2ce5b37f7c190dc478622826a0882f49d8c0fd3be124ef75a7a107778ff66b5be2b66c0b64c2084809ede3070dbc7e5de51ff90466ae52b47a293b4cff6f0cb064b6dde4e00650a68b154129426faa9a237e4bf88eb59b094786cf49a96fdc54cf6c819e1b67e2b0d687070f1bd148d0b2faf46659e6db194bfdd5d037aea060737952bc30026f8547737d1d861f4c7a0c0e5c99cd91e2869215dbde6c4fffe1ad1d8744f257aba5b503cb004ace6be69932572926930019040107ca38207eca80735d5de083cd596395ee154d83576e1821b8ecb4f1931ad7721cce29bc17fc237974322e248ada7c23f92fe852eba0f03f71cdfc34e6193561d3423087aaac643a9edfe25fa2d7f3263c0ada5d6553e357275b59357fc2213e1faf714a22eee3d5d3d502838fcde32e542e73f204baf6916a3af968db423019f558a87c104c514bd8f164d03d3deba7e81d29d896aae409cad919a995cc8717b7a078c623bd3af80c056dc1716d04353903644e9c312415bd756683697eb1ba4fea32c710d0f0129ae756984b52611993255a0912167ac123d1a2c9b10380a309d7f3b067b628e9da5085d98b90b0cd852d54cf1e2971b4c37d511fbd55ca08e2b56ee7fb91386192555f1757dde458601ce287c5e5b611ff5fb58751b3eb8335a8b5cde2fd2873522cea0e9bf6f5c5560ca0091a58ee20042ac02237bf01843886e4439d859a785362913c0cead1e4691f47e5ac7ec132d0c7136a9487fb0c6cf292b07e5515eb2ae942d4aaef2dfc7f29b08f57557514cdeac066d9eea594a5c5388e8f1064dcf19fe4be16d57b0d410f27f0132545e917cc90595e93c252a720b8d24b70bcfa0de03a6d3f5d50ef840404810250839299f6b794c6e9f00432b60d7ca2dc6d754029cfac5b964f09aa0aca49db30da75f002bfb2ee498ac70a5b0f98245a1c2ee6da8c0dd3c59c020730231cd053a7783a3ab43400f056f622b99507f09e1e16377e2d02c0c39faae9164f1b6eb4908f591b45bc4d4385a161cf46bc1b287369a5eecdfcfd140b62e0188576c886eecbe7191a7406798f0fb4bfa0c7182c135ef595ef570294f7aec71396e7b28ab67accf1c37de37ebc942bed502f53651a61fc62a1dcfc29d1ce5e11aa2dd7e1659029917e203cc816abc533dca943664bfe41e3d298abf64dc30d0bd1ec3ca032b7d27b8bf71a2e76ccd0c4a313642b6aad073167b8b133ce76790a7414fcd29c4f31df7e37573a174b7c889dd737f94b684a8b25d8972355897802e3d9093c471054ebfe17ab81c9b7c3ba9691693fe99c34802330498b1ed8fd2602a9d7085929301c5121009e4b9187a06c767ef9aceab2202d20926e03c1ef01e3862f91f2e868c1e148e0f7dc7297989c352cd6e56879888e7e21c0948f5229075542292ff5d8f4d6bf02b27e289f82bc3934ec7bcf5d4ce5d7aa9dbf2f5f11ea16238aa5d188eba8553b6ea4af29ca37201f1b9c9bf7ba44f78264aadabd0504068c9c7063a776872824e1ab4b34178621279772ca089c5ba6d7d4c0d4f5097cd8eccb72c01dc41c17197a0f4216ca4a0d3a476df762e4b3d4f87c8ff9262ce6d1e2f8c9185bd860b2b021b44db3713b420599d990195f8fe82dfaca2fc9305bc541a04645fb6f733b27d7950a233599ced31ad97e8d3297094dba4abd6f295be8a9589ac33d6f04a426390f6e6cd70aec289a6d1ef3264c887280ad42a8103c52bb2708e2a6917efb3fd9145bd1729c2c9fa67f01aba05ab47c56441cdf0816a0b76cabc81cc9f6bae4de63668f12ae669284b5aeca54be6780354b726e0a7bff238cb5cb4c216fcf0f507f40d3679c0acbaef83dd4b5b0db2a9e52c3a6048f17c79c4a7abafdff1d3f955b5da5e0816d44f817b705f484c771f1bac29428973b30874c1236177adc709f0a6b2d32745835162f5ed9ce69f36f156031e40b2e26c32addc2ceb297648d3fc271a548b9bf788bff4b2023cab820c4a4ee8f201bbb92dcd070b78863668016c24160c2c053dadb24001af4042a1e5124603307507505dd11a39d879137103f9972ad0f6d79ea24cc16610e1c9dd1984cda871f891703a5676db0633371eca0abacf30d3f4313fc807fbd98d613bef1b3854b16cbd386e41f6c4a173a1312f68148cbb308289a209c213fa51dbc31874fe1ee1e5c8047a5c0c014f7000ea5d3ca333306adef5755efff735059bc055bed75d71fbb39800b056717d62e76315c4d3e05185e7ee2ece00adefba77bd5b1f4d7bb23fde2d94ad2036e9a94304bc121f6c1845a1327d89a6f55bb9ca81eb91e07cd0f43871c3ac1f1e37bd2755613ed7b3a3ec11a3eb8fff749ab22f92446f62f85152339e3e373c4e4ad9b657f5e665676790ca0bf8e005767aedd4269d107d4f11e6b4bc7a2e4217c1c3cc2e298e450d010fd622c47e2cd7880e64b2e6b2e6fdf28958ca1ae65967871544bd1afd71c06b4b39318d5a076091a1266627ad1b40f0ceb66234377758d63f8c56e66c0af644ead06b4e987bde957467e75938f14040e31fe264d2cc1f55a3fce3ce86a68196d2a06336102c14d0cc892fc871d6f4219b29228092e58a02047d8debf48ba1442ea38aceb82605e8bfa7460c49af4960e0528ae6d904bb6c6379fef10cb1d1bc6e867054acf978041ce99becefb219322efa15c26a14170452119318cb1073b15b978fd05c40a5001560edf21df4aac2aeea52c33986c164976c52dfb73b8524b9e12650cc2e6614eb1efd1d3134f5825ca08820ba2a38dcd2561640ae9935ef47b5da8a801641a7066f7dbc52ff3651d8489971cf0f77a525cae847acd5056502177b00ca5b72b3f0fb32e0bb85bb816d389fa12477aa6c862499500c516228cd9ae7c652c3f61f641b6590b80067116569eaf77c8ec57e85b52ee30cd6212133a17ca3a4e87bcfd7507598616214d0e2b188f173ee86cce1a411c0d2ff80e1ead326474358dbf412f8e540c01aa91173f752e069ecc268a7427e0935db3acd27fb7bc097e2b2c58d5a6acdd1fb4c10ef703b9687c4c6f9deddc9c9d3ef5ba1d9a87529d0a7387bc569c6c642913c425fa7538cb83e2a689d5caeac55b325d3597547ef6c8dc122a2a6d000c344eec023e56786b482a73477d0fd36701f0eddd08298e43913144c3f7b879d09887612efec260abd0d45688e61558f0288cbddd8b5774e48466f164d5e522b544131414d6f2fe1a75dc3f898674bca43b786b3eebb0e2ac53ea6336d2d0496f23399c133eef87007a5128b3f86d3ff94bdd1a0143b28d4b72e7b02b2022147764b03a20a11d5fb29aa2ab37f2917d0b42ef10170b5f8614bc6e4decda4186dfafba37a264697066735822122019a6ae9a0b28f95627c39cdd9a4c92025593b59460a2ee904bafa6bdeb29593164736f6c6343000818003315fd0f19bff5521edae5f6d895f4730c241ccc3d415eef6c9485d21914188c1d2446d537b3dbf1feba740b7657dc394b17e890cc1db8c77a1df7ddbf00c956cc0e8e971b94bc8945665a5a61d013e62406abdad7c304284ab3981bb120ddf2212bc9b3a8075e8affb419233bae1329c8b5a36dd5849d426b61896d79e5ace3692fad2a9783fc2ba49001eacd3a33e34c302753636d3c46357636dae6c8b2024b19c6002888dcd3e33699c10634a806d2aae224c3d7e59cec5a9b8719b066d2640c3bc3c927533404b7618b19082e24eb2ca334e7bf9dceb958bd3551e9fe7f57270e9bcc58594f6192a2b99d2846f622de39b5937b2a7323cc45e25fcb2093d01e7d1a66aaffd026340c02261fd998650c044a8b0c7fd711e04213a1cd2cd3512424444f3b3621df8c36b258f3554a9c5e2a21a5331717c8aba346c7ac63c97616e036c1a88f983c82227849b01847266a1175919ac332c27799549ce18d36ee0b0ca3b0483c8e42c91944242fc36b40ca910518f9d85a25be8e4a7ef43663ad110cf5e0d819a05a811f7a0c166628530ba6f6d353e8e6a433c064d6fadf060c19bce756e115841dd94ff44541d5ad78130187d67f3c560c2a590bd09376570909257a78bf2bdbaec4a20392ebaef666111a0013e0d145e3b8538bf21c631b78054754fba6cbe53da1b0e9c8e6694c94e5c5784962cd792416d2e2a69c666d201afd103f745dc8bd51a5433a7ac8419f1dedaafbcadd19048e9009d4c6241613245cd94a309bfb79ae8f5255803fc1fbdb80bb78ac6d5f68dd031a464a87ebf414faebe5560369ec0b8807a88ecfa006f7f9795caf1bfcfe261555534cf4e78d0c962615261ca9c1f65cd755e00bc013abf1533a12e81b80b32fc41b0d1fa86d2792793df783c78305175c60e000c53fd96ee07ceb78e470a6c64a1b477c55342096d8bc28b6870f36fc685e6509823ed594339011cb6dde0e8f8d7cc1cc582e109542c42e7879d5f2509059905ece1bd8860e7c820343aa1b30461df91eae951eea6862ae37a2a4392c5801737849adb507f0a3137699241517a3f1ebbb3a48093d3e06748b6704617f4cffeeab1a9c5b788923f7fe09a498749dd9ac9f32532e5f917fa4593965b59fbd36e7644390ba01391b8379a4a204c1c29fd1d17cde2a0dccfc2e6d40de5187062a63a944a907d0d7bb6eb30533a3454057778ed3af1b8f89159c77020c893f3cb7a2a4cc3085dafdab413391192963d2d6f8a71b7d241b04a42762b5922f9e96652279d739459c63ba99921d36047868be961392e41f9a885deeb4ea645ceddc1b496d41a8b765b09c9fa5dd267644335f50b788270903ca28b792a69f59d7499ed7e261840c1e20951bf0036cd34057859ea07c980cf286f5af05fa35173dcabd94e3c7fb591b74607d58c397469cf09759e89b561a465001f19b05dc38a491b248c97ec7920c03da29e69d805df6dae9ad29c6b80ed2c6a0818f6e04bd3aa8e1a17b0d67c6815feeb8bfe9b3a575bde437ab71141cb929c4998d91a32baae52fc164831ff6bd12474cd8c91189b69f1e8cdb71640c5be902277c48337d1db6b1fb81c89e8689cb10b7ee6af8b9fc5975a730f6eb2dd837a46f2ba2ee8ea9442a9eebd87ed57f594f044c7860b39595eae6ce4d0e119bc8b722e52ff60236302b2e6f4a139f15e63aa0641ae765f3e71c32fb759d25214f618153620b583fbd2abc2eef9a26789f3b5296e90551877a37d362dc95013c611347b3d133ed9045be2c36f8689a0120c4078d12d8cd28c006bc61dda22f0a9559eca7cc75db51c369b05e74c952d5a8ae39b06ed01c8698f4d74d58dc0fee282026bc113cc251580beab7bfbddf2209056fce08c4e356b1a06f1bc94414393956732c8d80c3f60ae0a275b3968c22c40e9054b3ad662671f4326f208e1ce66ceaedec3b13ac33cf1dacc63e7e68e3e7fdee08e91a54075cc0758a805a1abc1b6362a1a276f723f806d4a51d3b7ab592ac8f39e198cb5efcceaf0e48c123f70ead154fd51f42a3de0ac2b61621f01a8b0899f46d2d9da1a8d620b88e9828358bc8e9b03c31481e07909d86cc8386494aa0c6b1fddb6e83911200d2d5bf21309d93ca7e97b55d43c9396f92716ff1ad99b73dc929c566de6c6c721bd04808666e4182c159d4cfd305e1f6f5cfe4ce9243ab5388c2a5a0ab74b600e4bd5e28cfb007611bda022f417d399841a00e543b14076672113b21e9bdf4942eb3fc1281dff49430dbc9d0748814312f5356a1024539516ae19e8b6eb6379421cc83243dc2b640abc1728422276ba4ad24cab39fc7d1ef6cf3d82fe82c9f89efaa7b005cff4d9542e3250c36bf32561e274f8fa928dd3a8d11f4f76c36a4cdeb5e6420b886f89543b54f0403091d51cd88895fbd55aea86d19db8b89cfd55255f8030c0aa8002fb14fb9b4feda737c210d4289d62a014e4bdbf708ad21b53ef62d9625e79b70d1ee02eb3f6c25bfaa7b9a4e1566b0fa70c6c0ca072191897838a36027218c7dc6af590ab65620d6f31dd4cbdf1eb86058151118bbdb80b8d96d0d80053653ac15a867afa2931d75116318a810d5512d871b71f4654c86acabde8c911c48420d5581f37e60b15a6dfe652b9ce46e2de3414d252b18df5b1b8df2a81821fbada5ab40ee0640b13756b26a7fcfeb5f81de884fbb889f3ccba3fd64cce70d6670f5a24582a747e1d1ae1e0e8da63d7d202210d96dd5078fa58eccd43e361fe26476a17c1dda8d2d1b630ccd263ecd5644529afc3e2973f6961ff3f8712627464f05a8ebb85e8e465599614ced7bec41fcda74ec9f51ae39c392672bc7242ab9a6d1c669a478ceb584e3bc6e1635e3202ec53cbb6f3cc42bbfd7659607c00dd63e17922e2e955c38d47347fd269336d27cb9b9c7a3218c3808507bbc994d19593a3350d5604598530c93362e2836f90f7daa675f73b40bc04d67b0625e3d1682034112be41166846a800dec3f04dc45f7878bd2c5493e443f44efc5c08af0828e223ee37c2d4dfa133c8df747c3ddd415da67e911f2f5cb609a58df64bd0127bfd549e5e8dcf4b22291715f2ad5668cd6c711c2a39c3ffebe93243df40b00dc2c61595d602f4f7b03af6a919263956b5943cb3f5f890bde70de7336233871eecc3f4d0cf71749bb70475ee20a3d479719fcb7c7bea429059f6c1d18dd57e2d94c63811c0f21889beeecc4d7797f0fa87f0cd40fb84ac72f5537942b5bd7a07573806d926b6e92313c06ba464ac035746e0dc96b3d40db4020f72dbbf715306fdd2c03d7f271f2969d465c7e86763751e29fa622a2715694c534b5e171b2519546a1616aca8f207e875ebf37977f96c1dfa32ddf16d7eaded9047ab15142f1953bcaad2e145cb2a759cdd65eb7cf493b281b71b0faa6010e30a38b51275192fdb1ef3113503a9db688b32a0b79f3a8125d7967b3962373fb886332a135f7706d774b685f236c190a046ec7fc6147a84260794c543230c4d3f90cc091d0e602cb5b76f44713c49cc24cb3e1715ba081787296b94dbe25ab57742ebf6553df405159d91bd6a0a9c639b0cc27cc39dae457f45225c4bb554264af8e229a52524115001b9e8d8b1463cd86a016c3610f87fc2a10f63bdfcc00cfa99353a4c1a52125537cf6072615205c38045b8ad31d155bdd8acf80c7dc627a7506e642a177c2e83916c6303325ed9513361098830271102ac5dbf285e2645915eeda77a56931ce67dd1edcaac1b03358eb6b2ad3780bd1cd201b91d4bb2e603e01279351fd126e90bd7b6f903b9e517a0f77a7e4048033cb873b1da8cf190080e75cd1dfd6b1cf426585573250eb3432a5e80fc194c307c58c814ac37bde84125a5aef222a710fe5c50f8fe71b1fb44251e5dcc90bd0d64844451329dcb49e241585406ef8b0c273841cf7228666b689b24a7022bc402815f77f71b43c1862f64853b6a47ca1255c43af69be48744c759de67f363030b809ea5be5de707545d1f29dbfcd272110b2f7ac7d7b3f94893762fca13700b74cec691bc57d216ba04e992bd0dc9470652c5b2ba7b972dd68bf8c271556b57ad4521c067a072d75ee09268562cea9d1e6db4b3e0185f2add0d49d60e16168c2f3ea91e2cb05678f2c9d9abe232b3400a96b6eed42e7041c98baa152253971225378ac4cd9589c80cea28c06b5706782650ef83382c54ccfabafaec8096c519ab5670c7d4dea2535c64db2b7dfcb5531664dbfaf0f45d6ce2782683f87e6c9e9b7176f08511ac1663869adf9337eef0212ae8907761700bdea4b480f20f788dd08ca4126dcf4ea462e890f3026344760e50a74cf13a9f5c3eac33a38c6f9e8d3c2638bee309a4180afd6097c52766e41377037809e690222f9afca6e1ee39ba95846bbe912379a938f6ffcb493f5cbc094a2af179f583a4155dc7f2b191c036df4330c0eb75e1e70d2487431bb4b51f2b1bc223925afd7f4f7cdd038d39183e1364d1665dcb17cfc2e30da2edbda339019a6052e1c5cf66ec396956467e791a97506bb3291d1a149d863d9cc25d660d1f709b744826f4ce03d2ae0eb2a86613bc33b2bbed5e9ac6198f7e8df1afa8b210cee567471a2b01cfa286f3095713ffe5855c06f17158e33e9ebfdc1c792a88239ea34b3e8a5d1d26599fcf453537fb16a91f9520317a01c7de1bb5a768d72509b3a1bb0c0be55876c4b91957b7e86412654bf272b7b9c52f2217e9713c7dcc2cea70065cb1bf0b68c86a3592a5134384be8b10de004c31233b783577694dc613aa1864f9d5017a46cb107be441f821a85315b79f39968d6407f343a2c619980005f278bae49a9a15a54132c50388e69f4211ceddee99195f07736b502fadee0302a786d79c25a2be297edd39eaee413dc553146ff7d83bbbb8bc71447b66052eaf36a4dae40401cfa571b55ad8b5fbced37e67860085bc6afc5412d809ce8a166d04b67debdf8e674bd6074bf67031d3b4c558647dc4a3c5443eba23086683232f97fa7f391323e066175feb3572aed60c343c3e3c11ed309c00ffa29cdd3708f1791a609f8714b38f03cfeeb1a149adf524a946a397191b0986869458bb8a20e9ad3d16db1563e84154a169db5e81d0117d4914800772d4bf624317e32b3617a525ede8962fdfd05af9ba5ef109bd2f5de02524454aa25c696b7c6fb0757d0d71a275a14cfaa4f987cf2d2552add13d13fc7141c544a0ab457103e4b2d5021ff842cd59778fb6c75d197511f3158ecac8fafd21db5fa652725be434580ff921095e6eefdda8f7648172826e435e08a93109b1f040d88ec1b01ce3e2dfa59202746d05612699c335d4031f388561fa2c6b3a4c224df74140c58c5dd7391459182427fdf7ec0b8c5a7003e3ae6c19d8da47804a75d62ba4a1f8ce1835d7eb660dcfad648630a6037241a73af244b1612eb375d852712a10182e1339d176471f24611b2e7aad1a1fba1f1eb3193a87a0261e98dbe77fb30944edc6ef5726acda2df51df9c66f51695783648873bc167bc8199afdcf98a6a39dfc14933634cc2500ba85a4d757b2bb24f2686c8fc2b20d23f68ecc5bbd889d70db8222f9c94eeb2a615fc377bd707e1d297df70f60076d184ea30144439d2a02827ccc4b74d6d5083ff5f9b4474040e1db95e7dd4ac08bc49f0df5e04b1601e531087a66e1a9a0300192ff2b9358b371328362eab85f10b3b256562986b0222f90fde6285b20312b9b6d2f72c215474b76c58be1bc8113aed21efc4bfeb76d432fadd1a143ae551afc92793b1e3c7bc0fff4d51b34c751d6fd4f0b684fd36a5eb31f2e7d59bd0827a4788df73ad8b0a3db6dd0366131faff0cf443fdbe689b1811275524fe4f5b26e306f7f4400a8b466a46f73b1bb30628e8f53ae183179a89ea09bcab1abe8c1903a292e81db108e9af23cd1c7249087803195ef86af9d7aef43f671bbe28d505c92b5167e06202018a4b1c482dde448604793a2b6d734c3a59f599b457794f109890a7f2fcb50131c7e510faf117da23344b6e50403670b103e8b1b0fea27f1fb6977c76473f7a1d148b69a5526768ac7032ce91f0e138973b3e4d30745fdf22846c8fc4704252020b4a141726ef713f5eda605ded818ee69d101490d5a8b6079b1bc515838f1ad835d87623adef3b1673ca9735ab72d8fc938e206a524e5820d47a675b313cd4b857527f3e6ddd2b5646e5fd9f206aad5bcfaae6cb0958e6064e79c61f6d53a00688e7f217a0c8579ba3daf9d4df5dec16f013a124413f152383c6f75c1a392e6e1375277f1130c2274d8668773addb783207cf58cf4c0b60f693e2f20b43eac0691b48a00fadf42143af8e21b080d41d1e71c8a02142da7264fba8810c9e1c00b512aab1d355bd7ccab52089768376d8a925cf1c3f927a101c6986291edd61bf9888d6bbc0d0f802bbc4186a811b8107fcf306a557f0af626cdd05df967801d477b1c344754c15f7a30b0bd75bb98985a0c2fff9ec80c060c5e61cdfabe2eb8188f70cac4d7b7cdeed9b964792d7dfb6fc0b228a7270e542a586a34c5b50461b05614cbf3ce228c130522513793ec263f9afa96e23f4e5a25ccf30168e9ef4fd1cb902c95ca8d67a13580dd07994094b221708f8c7d6797107dfa97fd9047fae9cf80f48b206884949b324e4ab03212f3298c48189876961cff7a1fcb4f40c410ceb353cb8ab907a0f6b2821dbf82766ec762967ba2394420b8533e0ab744d5db86e30a3e73a80bf621a2b5d8555b0fc416389d5cf532650c9d9b203b72e7887fbc30ac7978146860ea4aa1ff0d96dca2c65666304cacbb1b84d4afa11231f3a4a3c62a0029a39f5ea31d907a92070494990427e7ca6f8814107581ede64e20dce54fffbc6443cec3ca1cb0054c5142187cd21bcb166b7916737e84151e0282876e43177c3830524e3b6ac2eab243a067de3319f8d0b8b42037cd61979b667fb80288588d2b095f0c4c34312d7c75a074beda537909cfa104afc04e3f13c2d80fcfa1aa6e946499406ce541ca84527b75dd29881c09e6a120a42ab93cae3bb2a7ac65c4952fcafa2b58f3d3c3b292246e292dc1d10ead442294e0ac633d4e59ac74082946c67653dfd3b17220d05953f214328d778d6256019e150e3d992f5175dd609d7b7468a978428a5bbf291b77f900d1c682cba1bf2c04f3db93c0870db5a439e9ff0f2ac65d19edda31f6bf64e9f827516b3f68e72e6c4ce5c33d2f1d00d4c7c691e5d39dfea1c0eb590de777e5fe64365545646f01879179e76aed29e2392a6df0ac85ea6a285e0d3a1112e8593c23c3e33df5a2086975bbb71f10a74a76f43bcb0035481860c6478f23fe914df449b50e56c4922c6feb5c47ad32b1054c98e31df1659881f884939536961bedeff8cfbb6e12820549855c647dcdf03d05c6a490d5541098d6d83bae7da0112a822e0abcece25020f9c4e3fcfa0d305a923e4fb0d9ef583cb141debfeb931c909ef1d4fdf6eac905a3b3663e889c49eb5920e769bbfe9f9dfc905554300bb2b4285c6a5889b2741f9e528d112bd8a059eaa510cbd9a7458598d27775bcf6d851a0d359ebb81dec15608ad6b67162915e05d6af1ba4b32eb4693f775ffc0a66485c3e5617dd37e01bd2e26efa4fb0a842e03142af573fa9c16623542451b3e4e0af1970cd7e2b0a2b417cad2430c3018499a10488fedf9e5399ce6cf93819469c802bed6386d7b9230d363d8bacdd978d08dfbc44f1c3bbd3b2bc1e2aabc5c3759db87f8f895eab2f83002ed31eaca2531766a09552eb1667a9419192ca335b08d93693e5584abc0feccdb53345bdae7349c42b119570c762f1f5497eaf898e4ba2d378d9d8d20d18d01d38cb6ac78d93961c1ecbfaadd4b0cf999b972ce4900cee9faacdf8298a1f31cefa55f5f930d149b63b7a33e385a688aa8a4ff3ff8d88e501dd7466b4751a02607dc91fd27ebb066b51f8dca8d64dec062d3f8ea6a3e2859d139c17e9f225bce5f60cf5c72fe58b511983c067ecab88071786feb4f6cf83e1b5ac35878e199ea7d2467ea66b53853f7ba20a91bb44a4a5f621404375051cbac31997a3661641e4ce35beb44e3d00fd9b7a3bd47e118fcb21c62281b148dfe4097c147e11227cf6075dbc7987ebce58711ed50e2b6a94c1478db414a834345cb2b5c21cb5252bdf93e4bc24d639e1ebd80550001fa9aa1e7d6abcba326c2b2feade8fd8d9073103523d7b0ce327314d3474aa6b77824a75862d0cbaa5af6e1d2cead16b9f050f7090cc1ece4b5217a0419fe3066d81ea2e19dc6c5410c770740c168750662a4801a2483187073a17cd04890165ff19b24180cc8ed16870cfe0f2ccd8218324e27258b0e61cf13892a8b7abb13e0cc19faff40bbdd680a389f4918f63d9e20f03cbd30fb82d7807479517b4e29b3da4950b96a023a331e52c721c66f5e2292bb6d910684eb13c86f172f66f59a093f8a002333c8767bd594ceb63e9c6a2c41f32b4847858f72bc734df639c032604ae71ff65afbbdcf42acc7ec195f3a39c2a0f1adf6230de3995bce023cdfc6af1e85d9121f84de4a34b9c7fc4ff920c7617fa977e81dac861e637d8d9e4636487afa55618f35f7455af8321f8d6d50d6e09f9221e154ad381a5b58d1c8771be1f47f3aae8a9769151cd84c1434fabcb9b0ea204dbfbd3e404128c8252d607169ef5305bb12a59e44ac4be9147055a6f200d2547a25e17e027bda4423048f3c6c595d6f83124767da34e0e4b96c26f5c940cbd5f2d0cea7678b80aeed4b0de78259c86a2c207dc0f28fcbe22a1252e5d3c1a9b6c59c30e6d1e3c5efae27acc27e9b7bd23af3dd7963a0aa8361b4df2f2430cc761b549af62069ba3e0fa7ce6c75c9f6defed91e8f3314c4b1ed7a5e0c83c30264e78dcb1adb0d7503f80507ed4bf90271624d70dfca454d1990a2f75598828d55e9071501cbb4ae790279f996622466c1c9f131d667e8baf7bdbd5d9a45511ff42ce9d42c89d7687d469625b18c59b883833298af76480817907af2294a704645153c868372f37d106c5c4bfba4e2f73309d53390894a6b2338810da3f0d103e33717f00caddc108323574de85c6887720561ad0c9946bc510bd3954ad4d264461fb0d2dea03b815969e1b2bbeb995d30f774fa49411323d20ea4f4f1652161a104ad60c9b35ef38783a9f951bd969e107846affc11754708b694168ab9922ae691abdea5ac8f12f90a1a147b5ac63088f4c3de32e81d38e79a93612d9f91286d17dc13dcabf49975e2a37743d997ebc56d11b71c2e430890eb9fb7c7d3b1411153db07129358c9ebfd849d1a12de7ff39ec458b616a3e6885bee7114f7a0a98b996681afa7f3a7ea25fc6d9f2b48af7c5d8c8db0d55892bb64461752f932838a60cc9aa8717f4308e6074996b7b71f077a1fd9d8353af5c086aebed16b70ca941047448572c947a8308b479f74524a74c384d926e4be36e8068bc635df610b06f989dfd1d445b6c4bbc386c1915d9c6775df42fd040826a8a95deb11561234bc8dba2ee31ad5b1dddb6946dbf1f2d9a2f7d71bbb45d94d7f9ff47afe93603b28511d097183cceb1250dd00dd4501789b25bb547cfe66eed09bec1871c592d06d2e4acc30f60e54c1bec9442b8aa70137c37b798d2dd8dbeeea514f7907b08037905d11e86a5a9d3b03cbe3094e9468d3fb3c1a20738c08877269a69147e1f79d21604dcfb2ca75a44e38aa87cf8f3f56f639c8501d336f2e72a8748669520898e9f4eab7b0f918e10b9fc35a024f4d0578c0e46463cbf360606fa47ade409b99372d699342f4c7e3c807a133ee3be1c92422cf2f0e5492136e815061041142ad77d8e80c9a778bc04e8a62e550908c55974693603d8670bf9205553bf7f22f3a31aa3f9f3c040048df27710a8e485049abfabb71b51cbbd87126e83cf2403459743b0ca82a0801415ea160bad9d326888db19ea8b86bbcfacb48ac3c4120491b8939d07f0074c444ee02f79917f5ded067d7e0529b0437b71fe6355170e2bcf73774c5976acfbc99b1116384b11930bca6187dac5e662bb9250487f0845244615cb6c1b8f74aad86d9f900ceff74ee731a9dffebc26096a1e6a772680f723a077e52b600cefbef77eb273ea0d5d2d7b18099b4832772b56c6e822df0794227f9d7399bc220483caa969a8892901b894de900a1a20da29328343ce7cea1a1679302001981320168e8d8e921756f2ec22d21fd130d719eceaae1b19354bae118d5af95d648cf620249c405d77c7743089d9d262e29860cab3c292def4ffe42284c84a005818061688fe45ff37d6fa24b4f99587fc5e9a1208b3edf4d060d00cfc0f918b739604150598b74b981255a70d772a67f23f51c34212958b45a0352537c964c421601b62787e6eb7307b99a9d6eefd0286f927fb25f22e7e9eaf951e30310e4606c228e2f5c3df3eea02457bb4777af8546fb61bb1434221d998840f5caab9c8ada0b5a094dd9129eea5421c1320ae7a666b56c960be0dd4c1eddc1dd1def16e2a0ffc68a449be9d160b00ca35599e7ad7cd1afdae000cbc76dea82ae0eb79a34fa9a3c73bd9f1eca8731aea913ca7d138958a32c09c1c521df6a228ff689e68fdc639c190119604c98a1845806a317af901568ec8dc47593915f11bd5a5860f93500e39351520da5f095ec6557f54e0d5628fe9cf1a20d52c426c021f0968bcefd07ac634d7e6e02d45eb6afa85d28b307f5d2e3f2cd6d744fb441c0c5c153df6045c88bdc5d09dfc813cf8546d7344c70d194fcfd29f92f4b6961ca6c68abb475da1475efc1300855db5fd7374a5b92b4f90f49952a05aaf92ca2bda409f3445270ea3a6d128b46a5cd5cb245b5339a66fdf814f2b83f4c123d305a71c398107a0314772fcd210e0c1d3ea35d99444a378e1213a9e10e6768daf11fdba29cb4c24bb0e770eb1d4e5c23d9a51a3cc86c7d41b35312fc5c943f96505f0e7da79e615a61755ed4526892b42ce1e80b5b027537bf53f0b536d4bbc0b1eb2f81535a276e50897a2baf3bbfd981468b91fccfbec6cec8bdc988f00235015d6ce1db45302f8e286e96e26e4f64ef5534ab8a55a9ffe215f896d7ae7bffd1315122998316a3bb389bfa1146d940d7e2718edb570f12cdcc57377f8ca2378023f10e9f89b3f0a2c44497c8a7b705786220397dce0083335027a9ce9839f60234a05bd730e143866824a0e9b7672adaa64b679dfdd86c8e54fb2df83438c202d23c1a987db7a304a2d504e5c4573592c119fcda1ccfe5a07d5643c4a9c0633029b04e14de53677bf90dc7badde802e588fdca2b9081ba20f4712e662c12adb263f5e4fd893704c5f229914cd8f37bdc3f9409e617507850604f2f59d390fe621c9780ceccc597c37b49b8742654a6d34f71cb32d1555e72c06004d06f6f5b2011c1683c09a02f63b38549eb958115f326fdc2bf0aa81247acfb1cc8554493f26430030fb83d387a990d785f38ef4669b2fc53ff8ebc2537009c8648232996f1247fe42d335f9252cf1f570316ae986b553044b0c81e635f764ab9915e112941386af604cbb138efe8dda480060758e274bdf502d2bcf9b5210e31798b08adc06adec496d6a730820969cfbf60ab07a2a8f7cfcfcf2020d4cac60d127fefafe06c39f25af1748848c37d1eabbd6a84a9a735afce06a5922e8a80af1bfc7eb5f213dbb816f4ac87aa15aef8541b1abe3fb4d11d8b0b082989a0fff41ad9bdb2c1e41cbe348a7f3d5e2408d19b26817183d1f6d3b51f27a915274efd9598ff18a1568510b7bb366f4387eea8fd2b20fdd95fb6a612958b5c25262c32ab3eed75c08521336bddf41556b79cee9b90b0c1cb4d36245c25a7f8b248567fb4248313d2d0893b893b14eaf3aed6820ae987b88da0cba5dad3c5b267c9012405514767b01540a25e982ae7e1c98d06b14cc56241ab9b09543440957bfbeb9c384a74b651744fc2b7ca4e19a45031fc838edb3805964d6533a4a5583ac57d9a9f6e6da651230a42b5aa82168743e9817923ea3ebd1d3a55ef1bd91a89eacc55663a026401673e455967762f96f57b413424631198e09e7bb1bb06844068fe44f307a8d59061d9c5b1f377adc54722ccaf3601332ebc07660fec4d89b5c8213031f0aa8b72e92f89b6bd8472ef679fa5d617805180e6e0605423cac37fc15f281939770a72d3c9778d5cb3ab0bfe4b296e2ed90ed19619b8b353c1043b40e03b568a049a417276cb455cc5d461db37b0b4f6b34f1bb429a76968726205617095e1d39b92d09dae1c6d2e4114c5439c81baa28594cc0ab76e7f32c25c4f780c9e9d6e46a5a0a23d3bedfe1b14bff3eec36492bb9329f56ddbf7f5e1f122838e96dcfe98c4613a1149cf273a308c777146d7f4be2160aac12980d97661fad18cf682b7c5e242b74aaa132494d280ca444d5d2a99cd2bd426ff82d443e2b44b8441733bd450d29b8403a3843d4a77b6c70539d8965e57af369d6f32feab13450f3fa985aed18142569f4ef08c2a1947dcb6e99b5ac52cdd5876c50f02bd6afd62fc810a755110f47bd52a43c690f658374e9f7c2bc4285c641c7116a4ccd2c94f684cbeb7f2a17a29f16b646ebe94c4b2e2c4bc375cd7b002111dd55c4d212e9360cec88c18810416d05ee2eed34165a50f6648eb3e10f77247f711398a14fc77bd5711fc0fa046641ee77bf1c3c58b848252da5a88038a20ab22b0723c37de4753f40a110b404c68b3d094b4cc491c55531f7ba1bbae0b554816f0c8bc3099061c83099f6fe0e3661a824f5e440eaf439395c1047754ec3e22f44a0f81d73a4dae283cbdf1a0f7226bcc9aed34857296ce6dd82b82f1d086ac24d3b9e51ec3c767a89e0e0d10fdee6a4513d6ec8f9e2d416c8b87b0c1deaf66702ef14b11f42f9754ae688c220151e7e27c0331111bf9346db0f4a36d000ac49d03c561a45e23383a0b61d2717cf331edb43a227be4cc3ae2dd0999e07593a95e62cb170d4e11787ca9032a411b76e488a5eb5703a63e3c43341cd111141c3353d6c634422e63a8ee3a948e62aaa17be5319a2c4b81597c87a78dd744742127d8f4c942e30a6884a7c40c05a1ceb38f341d5107f31308f3985d72707ee4cc450aeb79b3122d18ab3a811ca3226dbf8986be11183f7bd4bcfc17db4b68fe9a92cc4921fe17aa0352f5778718601a871c9a11ac0eac37adf26c0e380d9e4d4d4c1441bcd52438332f3ec1bce2c1dbda7ce884258ecbf26f6e40029d770ebbe895ac8ce51007d38939c48cf3ed307109ce5258042b89a7e1969e498b5039080ea3912e326b5ed2cb2c484f1c8732aad746945530cbb6595e6f4038d89e1e0c0f978532ec02e5e12bc9115174a6901576cfa7df9b87f6b6685eaebb7ab84d90e036f352b9a3f32edc2d8fad897f60a7ed0f5907aa3135577a8bd38c02250ce339b3e500000a8c0bc4dbcb58fae3e14b8a5528c397ee0565c1d305c4679583c7a2273a4263fd7c0e4c0c3cd1593d70f1645829fddd22d3b28fe608eba622b2dd67dc8282192da3762413ba678ab7f0908dffa0610ac0133c5f7bdfe3469934c78bcb4177d2c1fc618bbac6c2ede6a05c83ee4f9ca0f735c449b31ebaf60e184880a7ce6053dbe5c6abf673b02bc2213ecf7b788d4fab17371a424493bb49447855cfb413af131de52bd75a50b706d0602afc4587fbcbe9da6daf807c3efc632bb8fbc8a3ccadaf73b827542745fa828bd99e6ae097936294db584bb7eefa8dd7b63144064f7114041a88e69d6e9c6053751ef135a8f6549527e22bfc0580a02a7dd72e9eb6b6a6e73b3f6ec2690251c32a5e4b55b022f9cc73fd585424afedcd1ffbf7e46d2a8e3a86b52a937a6291abff8ffde1de3add8b76c0a6f372e2b921d601c5f3128e5851706eb60ae7b28152769798bc48f6622fdc54ec7efbe576bc6b263ade79359db0db98ee57d465d202fc4613d2f1988d409fce47fb6bf1adba6a9e18b97aae41f82dad5632fdb9f1c9d65765d702a6d24efe251836e629ffc2881d0c218e89cc6467cacec7b1cf70b0cb3219a1c4f34ef384b4b972c7b045c4b931fd84b41ad619836b6d30b00cd2d79b8879e27e7000430adcd96d6f7c67fcf386a473752668e64c09b2f8010a30475cfbf8a76a0346f7df43a3eba83f47f139060103130b1a484e7814623d85413be6b6d4ca7746460f0466a5068d54dc9378ec2e46cda7d08deb8a254260e2701edcd7cedeaae1c11de85b2fd1e5dab42fa36e547682937ff684364921b513f1f570a240fd09cbc6fdd1ffb9183668427b376483f723438dee5cc5a6eb961a12eadf23a07b9fefd2e17ee0d74db1ef80caa7745b9c9f7685fec9b02e5ebb13b2f668953cf91fefe0b441ff07a2f2938f468bc7efd380bef43a030e5fdc41a71118eac608ef4b794efe03a23dd034f13156c02f2762e6e8772b11c7dcf8ddff32b942a6404366c746c10e3065f1f7932e240446c85c3f8ee5aab85b7727506fb03f113eb05dac7306c758fb6565545232934cfe1a99a5fc63945a4b6d1a652d02a6d353d3bafac324754fe1a00d57e7f020dbea17231f87d83307bf940e6d6761e7913c116465bfcf367aa331571c24cced6a4992e39ea9c482fc5638362597119111380fafd9f08783dd2497d64685aabb25f5acb60204fd378e0fb0e6da0da22b45e152cd7c40740eefe2d3fec07ea31872401ecbdb762cace9e92e7cbe34e1192d39b9a603bba160da80fda0469b41c2255ac4d0a46402a2844225ffd25392f46658280ce7b17e40eefb529673a2b3d8f6e25757e9a445e44c7a7149bece401de74823933559559239322e9363220d322cea2ddba2f6d5610fe883885986d15c53cfddb0f8bccedaee3a4492f2ac1be55d6f0b2f1e7af5f4caff10177904f2ba1a14949b45d15d45e07b4b3c206ed751f86b5f37d70a24a4d8a7dc389aaf71839769f1f11e18063e3bc10c490bc546d8b35242a93ec4d6b61cacee4f1d4b01800f7c3137ebc9ac731f7b4d6375c01a874f29000c1b3f4727b65c77a2d51051bfcdece5c62826292caa2da6ec16b9974d2eb7fd3c2c20d1863db12ef1440be09c696e6067fa41ad890ee8388c0290186e494cbc202e7667d19b56353cece99092b1d93eed7d26456f285906aa196059ebbbc157fbde72b8acab6be8efce28d2fafe0589f5c826f419b1ec3ac176a42c52360e7b3edf90cd4c77c915e47ef06282d48bd742d9e20a5b8dc88aba0744a9124930cc1cc7d692decc7f0ee8a86d506f42f74816d65e974086055ade94ff76a6fe5d14bd64a069b89b867989d12c815b575413874cb060adc4fbde9da6215b08bd3c72b9f817bd4e227b818f70235225265caca14dccb262c43230defa44d79efbf96195b8852817b9c2a1a0cee7b065a720651f4d30a03b23445d588a657ec81881b38a6ca7c96ae7d30a228eda72f8f278929640191de8b4c95a163f7b35d9fc5f38dd11499e2f3f0484fee4d4e2e67e80ed738c79c531bb034d0e3f7703ae1cd93d0334f8cce0e6fd7bbeeb9cd1a4ba16824f4df329914baf49fe4ae2e518d85cd88bc2a4d7511486305611aa901d1333f199a38fc9c772c5b6dde72d9d9ef90dbe2a7ff20cb9685c2b30ef80c066995da220811544bd79b867d6a45c5f9d5f81246ee7bd867bae77ce1f1a5fd1347a12ac6258ea35211b6ba1a86831915843d88896e58f458f0d5765917c35e035fed90d06219d345c5ec7d3a0ae95883cede928acb380f8ef8b4b6859ef9652abcbb767e6e79b2dd22e5978eed3edd65fc15f583b875d14e2dc2f2a0d8543c2991e9e9d1214bf2bc8020c1c18d861b8fb8829af660a7dfd350321256775ca613561a0b30e623640fa05d8a5f9540530ec9270d46c5f6607690c93e6e82655d295a4d3659bd1a055dd3f4bb626752a2d06759cdbbcd1bc79b83086649d106e50ff647b8fb279b8ec301487a755b63b15410d9583977381e2060e794dde87459217e540739dd851a21e60d671a6dba94845f42487c32ec098a9c4c0c198198431b389bd1a4d6c9f88d6fbb6beb8c25a7f86151da3048fb29ce506076f3b7339701f60ddbcde529f2adcdebd2bf02940c1a9a378e0488c29a0ac38a17a9118bc5165cea4c3361c2b7edc485fb90f788d1b4ecf249b38701ce1ef0472003d9dba70bcbbc1e5599b61380fae8aa7c48f7dc2c543713ffc9a72a801e1a77f9f37c810cf8a31e0bb5eb4cdb46f2fc5fca97133ad03ab9cf53883b270a01260c7c534a0e20cd40e05e747fb3bdc07b3cfc50b3ceac18f059ef4f65565f447208335fb828df7cb07583a984136302cd3baf3b3d9f9177ef97f584b0daab7f0493d2577326d35e5c2e4f1092a1339918cbdbfcb5b1dda82c318103401d4a9e8fc321815909daf60bcb32e37020e105d8b9bc3aa31900cd3459046ab97eb228675846b691268db848b42be0e8d96f73d79c16df5175b29d4c3e0351a24ee103d2cfe7c2831e4edc4d7bb561c29aafc6662191bcae8aebd4d5113e331b9b537f4fa85989052d3c39a939554f2b9e6230e96a78c24be4d942154f765e6d4af53a8c4db9407a188b721b564daf9ebf33a146bccea52cbbcdcbfb50740e921f91f7e5672e5e7c2e59d3453f983dff90e45f917cd74501a646319fd22c952f3152b077d56558401f0bf595db464070ab32553b095f4421524c20568df7ac803a3d299b3dab568d0b68d795eb7b68b11c333b381a2838bd9398fe371f08d48f2ded24e60e02654f18b33a4cd6eeb86b9fafe856f33753ca1cc6756dc4f843e03039dfde879a76b715e0ee169afa10d37a8062aece61391764ffc6d4dc6ddcb56f35880bb13c705625c616a97b05678348ce1d52718bb1d8521cff5a3d2ce5b37f7c190dc478622826a0882f49d8c0fd3be124ef75a7a107778ff66b5be2b66c0b64c2084809ede3070dbc7e5de51ff90466ae52b47a293b4cff6f0cb064b6dde4e00650a68b154129426faa9a237e4bf88eb59b094786cf49a96fdc54cf6c819e1b67e2b0d687070f1bd148d0b2faf46659e6db194bfdd5d037aea060737952bc30026f8547737d1d861f4c7a0c0e5c99cd91e2869215dbde6c4fffe1ad1d8744f257aba5b503cb004ace6be69932572926930019040107ca38207eca80735d5de083cd596395ee154d83576e1821b8ecb4f1931ad7721cce29bc17fc237974322e248ada7c23f92fe852eba0f03f71cdfc34e6193561d3423087aaac643a9edfe25fa2d7f3263c0ada5d6553e357275b59357fc2213e1faf714a22eee3d5d3d502838fcde32e542e73f204baf6916a3af968db423019f558a87c104c514bd8f164d03d3deba7e81d29d896aae409cad919a995cc8717b7a078c623bd3af80c056dc1716d04353903644e9c312415bd756683697eb1ba4fea32c710d0f0129ae756984b52611993255a0912167ac123d1a2c9b10380a309d7f3b067b628e9da5085d98b90b0cd852d54cf1e2971b4c37d511fbd55ca08e2b56ee7fb91386192555f1757dde458601ce287c5e5b611ff5fb58751b3eb8335a8b5cde2fd2873522cea0e9bf6f5c5560ca0091a58ee20042ac02237bf01843886e4439d859a785362913c0cead1e4691f47e5ac7ec132d0c7136a9487fb0c6cf292b07e5515eb2ae942d4aaef2dfc7f29b08f57557514cdeac066d9eea594a5c5388e8f1064dcf19fe4be16d57b0d410f27f0132545e917cc90595e93c252a720b8d24b70bcfa0de03a6d3f5d50ef840404810250839299f6b794c6e9f00432b60d7ca2dc6d754029cfac5b964f09aa0aca49db30da75f002bfb2ee498ac70a5b0f98245a1c2ee6da8c0dd3c59c020730231cd053a7783a3ab43400f056f622b99507f09e1e16377e2d02c0c39faae9164f1b6eb4908f591b45bc4d4385a161cf46bc1b287369a5eecdfcfd140b62e0188576c886eecbe7191a7406798f0fb4bfa0c7182c135ef595ef570294f7aec71396e7b28ab67accf1c37de37ebc942bed502f53651a61fc62a1dcfc29d1ce5e11aa2dd7e1659029917e203cc816abc533dca943664bfe41e3d298abf64dc30d0bd1ec3ca032b7d27b8bf71a2e76ccd0c4a313642b6aad073167b8b133ce76790a7414fcd29c4f31df7e37573a174b7c889dd737f94b684a8b25d8972355897802e3d9093c471054ebfe17ab81c9b7c3ba9691693fe99c34802330498b1ed8fd2602a9d7085929301c5121009e4b9187a06c767ef9aceab2202d20926e03c1ef01e3862f91f2e868c1e148e0f7dc7297989c352cd6e56879888e7e21c0948f5229075542292ff5d8f4d6bf02b27e289f82bc3934ec7bcf5d4ce5d7aa9dbf2f5f11ea16238aa5d188eba8553b6ea4af29ca37201f1b9c9bf7ba44f78264aadabd0504068c9c7063a776872824e1ab4b34178621279772ca089c5ba6d7d4c0d4f5097cd8eccb72c01dc41c17197a0f4216ca4a0d3a476df762e4b3d4f87c8ff9262ce6d1e2f8c9185bd860b2b021b44db3713b420599d990195f8fe82dfaca2fc9305bc541a04645fb6f733b27d7950a233599ced31ad97e8d3297094dba4abd6f295be8a9589ac33d6f04a426390f6e6cd70aec289a6d1ef3264c887280ad42a8103c52bb2708e2a6917efb3fd9145bd1729c2c9fa67f01aba05ab47c56441cdf0816a0b76cabc81cc9f6bae4de63668f12ae669284b5aeca54be6780354b726e0a7bff238cb5cb4c216fcf0f507f40d3679c0acbaef83dd4b5b0db2a9e52c3a6048f17c79c4a7abafdff1d3f955b5da5e0816d44f817b705f484c771f1bac29428973b30874c1236177adc709f0a6b2d32745835162f5ed9ce69f36f156031e40b2e26c32addc2ceb297648d3fc271a548b9bf788bff4b2023cab820c4a4ee8f201bbb92dcd070b78863668016c24160c2c053dadb24001af4042a1e5124603307507505dd11a39d879137103f9972ad0f6d79ea24cc16610e1c9dd1984cda871f891703a5676db0633371eca0abacf30d3f4313fc807fbd98d613bef1b3854b16cbd386e41f6c4a173a1312f68148cbb308289a209c213fa51dbc31874fe1ee1e5c8047a5c0c014f7000ea5d3ca333306adef5755efff735059bc055bed75d71fbb39800b056717d62e76315c4d3e05185e7ee2ece00adefba77bd5b1f4d7bb23fde2d94ad2036e9a94304bc121f6c1845a1327d89a6f55bb9ca81eb91e07cd0f43871c3ac1f1e37bd2755613ed7b3a3ec11a3eb8fff749ab22f92446f62f85152339e3e373c4e4ad9b657f5e665676790ca0bf8e005767aedd4269d107d4f11e6b4bc7a2e4217c1c3cc2e298e450d010fd622c47e2cd7880e64b2e6b2e6fdf28958ca1ae65967871544bd1afd71c06b4b39318d5a076091a1266627ad1b40f0ceb66234377758d63f8c56e66c0af644ead06b4e987bde957467e75938f14040e31fe264d2cc1f55a3fce3ce86a68196d2a06336102c14d0cc892fc871d6f4219b29228092e58a02047d8debf48ba1442ea38aceb82605e8bfa7460c49af4960e0528ae6d904bb6c6379fef10cb1d1bc6e867054acf978041ce99becefb219322efa15c26a14170452119318cb1073b15b978fd05c40a5001560edf21df4aac2aeea52c33986c164976c52dfb73b8524b9e12650cc2e6614eb1efd1d3134f5825ca08820ba2a38dcd2561640ae9935ef47b5da8a801641a7066f7dbc52ff3651d8489971cf0f77a525cae847acd5056502177b00ca5b72b3f0fb32e0bb85bb816d389fa12477aa6c862499500c516228cd9ae7c652c3f61f641b6590b80067116569eaf77c8ec57e85b52ee30cd6212133a17ca3a4e87bcfd7507598616214d0e2b188f173ee86cce1a411c0d2ff80e1ead326474358dbf412f8e540c01aa91173f752e069ecc268a7427e0935db3acd27fb7bc097e2b2c58d5a6acdd1fb4c10ef703b9687c4c6f9deddc9c9d3ef5ba1d9a87529d0a7387bc569c6c642913c425fa7538cb83e2a689d5caeac55b325d3597547ef6c8dc122a2a6d000c344eec023e56786b482a73477d0fd36701f0eddd08298e43913144c3f7b879d09887612efec260abd0d45688e61558f0288cbddd8b5774e48466f164d5e522b544131414d6f2fe1a75dc3f898674bca43b786b3eebb0e2ac53ea6336d2d0496f23399c133eef87007a5128b3f86d3ff94bdd1a0143b28d4b72e7b02b2022147764b03a20a11d5fb29aa2ab37f2917d0b42ef10170b5f8614bc6e4decda4186dfafba37",
          "opcodes": "PUSH1 0x80 PUSH1 0x40 MSTORE CALLVALUE DUP1 ISZERO PUSH3 0x11 JUMPI PUSH1 0x0 DUP1 REVERT JUMPDEST POP PUSH3 0x24 PUSH1 0x20 PUSH3 0x2A PUSH1 0x20 SHL PUSH1 0x20 SHR JUMP JUMPDEST PUSH3 0x197 JUMP JUMPDEST PUSH1 0x0 PUSH1 0x20 PUSH1 0xE DUP4 PUSH1 0xFF AND PUSH3 0x40 SWAP2 SWAP1 PUSH3 0x10E JUMP JUMPDEST PUSH3 0x4C SWAP2 SWAP1 PUSH3 0x10E JUMP JUMPDEST SWAP1 POP DUP1 PUSH1 0x40 MLOAD DUP1 PUSH2 0x3820 ADD PUSH1 0x40 MSTORE DUP1 PUSH2 0x3800 DUP2 MSTORE PUSH1 0x20 ADD PUSH3 0x4126 PUSH2 0x3800 SWAP2 CODECOPY MLOAD EQ PUSH3 0xD1 JUMPI PUSH1 0x40 MLOAD DUP1 PUSH2 0x3820 ADD PUSH1 0x40 MSTORE DUP1 PUSH2 0x3800 DUP2 MSTORE PUSH1 0x20 ADD PUSH3 0x4126 PUSH2 0x3800 SWAP2 CODECOPY MLOAD DUP2 PUSH1 0x40 MLOAD PUSH32 0xBD6021B500000000000000000000000000000000000000000000000000000000 DUP2 MSTORE PUSH1 0x4 ADD PUSH3 0xC8 SWAP3 SWAP2 SWAP1 PUSH3 0x16A JUMP JUMPDEST PUSH1 0x40 MLOAD DUP1 SWAP2 SUB SWAP1 REVERT JUMPDEST POP POP JUMP JUMPDEST PUSH1 0x0 DUP2 SWAP1 POP SWAP2 SWAP1 POP JUMP JUMPDEST PUSH32 0x4E487B7100000000000000000000000000000000000000000000000000000000 PUSH1 0x0 MSTORE PUSH1 0x11 PUSH1 0x4 MSTORE PUSH1 0x24 PUSH1 0x0 REVERT JUMPDEST PUSH1 0x0 PUSH3 0x11B DUP3 PUSH3 0xD5 JUMP JUMPDEST SWAP2 POP PUSH3 0x128 DUP4 PUSH3 0xD5 JUMP JUMPDEST SWAP3 POP DUP3 DUP3 MUL PUSH3 0x138 DUP2 PUSH3 0xD5 JUMP JUMPDEST SWAP2 POP DUP3 DUP3 DIV DUP5 EQ DUP4 ISZERO OR PUSH3 0x152 JUMPI PUSH3 0x151 PUSH3 0xDF JUMP JUMPDEST JUMPDEST POP SWAP3 SWAP2 POP POP JUMP JUMPDEST PUSH3 0x164 DUP2 PUSH3 0xD5 JUMP JUMPDEST DUP3 MSTORE POP POP JUMP JUMPDEST PUSH1 0x0 PUSH1 0x40 DUP3 ADD SWAP1 POP PUSH3 0x181 PUSH1 0x0 DUP4 ADD DUP6 PUSH3 0x159 JUMP JUMPDEST PUSH3 0x190 PUSH1 0x20 DUP4 ADD DUP5 PUSH3 0x159 JUMP JUMPDEST SWAP4 SWAP3 POP POP POP JUMP JUMPDEST PUSH2 0x3F7F DUP1 PUSH3 0x1A7 PUSH1 0x0 CODECOPY PUSH1 0x0 RETURN INVALID PUSH1 0x80 PUSH1 0x40 MSTORE CALLVALUE DUP1 ISZERO PUSH2 0x10 JUMPI PUSH1 0x0 DUP1 REVERT JUMPDEST POP PUSH1 0x4 CALLDATASIZE LT PUSH2 0x2B JUMPI PUSH1 0x0 CALLDATALOAD PUSH1 0xE0 SHR DUP1 PUSH4 0xA23F0199 EQ PUSH2 0x30 JUMPI JUMPDEST PUSH1 0x0 DUP1 REVERT JUMPDEST PUSH2 0x4A PUSH1 0x4 DUP1 CALLDATASIZE SUB DUP2 ADD SWAP1 PUSH2 0x45 SWAP2 SWAP1 PUSH2 0x5BC JUMP JUMPDEST PUSH2 0x60 JUMP JUMPDEST PUSH1 0x40 MLOAD PUSH2 0x57 SWAP2 SWAP1 PUSH2 0x655 JUMP JUMPDEST PUSH1 0x40 MLOAD DUP1 SWAP2 SUB SWAP1 RETURN JUMPDEST PUSH1 0x0 DUP1 PUSH2 0x6C DUP4 PUSH2 0x463 JUMP JUMPDEST SWAP1 POP PUSH2 0x3FF JUMP JUMPDEST PUSH32 0x30644E72E131A029B85045B68181585D2833E84879B9709143E1F593F0000001 DUP2 LT PUSH2 0xA4 JUMPI PUSH1 0x0 DUP1 MSTORE PUSH1 0x20 PUSH1 0x0 RETURN JUMPDEST POP JUMP JUMPDEST PUSH1 0x0 PUSH1 0x40 MLOAD DUP4 DUP2 MSTORE DUP5 PUSH1 0x20 DUP3 ADD MSTORE DUP6 PUSH1 0x40 DUP3 ADD MSTORE PUSH1 0x40 DUP2 PUSH1 0x60 DUP4 PUSH1 0x7 PUSH2 0x1F40 STATICCALL SWAP2 POP DUP2 PUSH2 0xD8 JUMPI PUSH1 0x0 DUP1 MSTORE PUSH1 0x20 PUSH1 0x0 RETURN JUMPDEST DUP3 MLOAD PUSH1 0x40 DUP3 ADD MSTORE PUSH1 0x20 DUP4 ADD MLOAD PUSH1 0x60 DUP3 ADD MSTORE PUSH1 0x40 DUP4 PUSH1 0x80 DUP4 PUSH1 0x6 PUSH1 0xC8 STATICCALL SWAP2 POP DUP2 PUSH2 0x105 JUMPI PUSH1 0x0 DUP1 MSTORE PUSH1 0x20 PUSH1 0x0 RETURN JUMPDEST POP POP POP POP POP POP JUMP JUMPDEST PUSH1 0x0 PUSH1 0x80 DUP7 ADD PUSH1 0x0 DUP8 ADD PUSH1 0x80 DUP10 ADD MLOAD DUP2 MSTORE PUSH1 0xA0 DUP10 ADD MLOAD PUSH1 0x20 DUP3 ADD MSTORE PUSH2 0x140 PUSH1 0x0 DUP9 ADD CALLDATALOAD PUSH1 0xE0 DUP12 ADD MLOAD PUSH1 0xC0 DUP13 ADD MLOAD DUP5 PUSH2 0xA7 JUMP JUMPDEST PUSH2 0x15A PUSH1 0x20 DUP9 ADD CALLDATALOAD PUSH2 0x120 DUP12 ADD MLOAD PUSH2 0x100 DUP13 ADD MLOAD DUP5 PUSH2 0xA7 JUMP JUMPDEST PUSH2 0x174 PUSH1 0x40 DUP9 ADD CALLDATALOAD PUSH2 0x160 DUP12 ADD MLOAD PUSH2 0x140 DUP13 ADD MLOAD DUP5 PUSH2 0xA7 JUMP JUMPDEST PUSH2 0x18E PUSH1 0x60 DUP9 ADD CALLDATALOAD PUSH2 0x1A0 DUP12 ADD MLOAD PUSH2 0x180 DUP13 ADD MLOAD DUP5 PUSH2 0xA7 JUMP JUMPDEST DUP4 CALLDATALOAD DUP3 MSTORE PUSH32 0x30644E72E131A029B85045B68181585D97816A916871CA8D3C208C16D87CFD47 PUSH1 0x20 DUP6 ADD CALLDATALOAD PUSH32 0x30644E72E131A029B85045B68181585D97816A916871CA8D3C208C16D87CFD47 SUB MOD PUSH1 0x20 DUP4 ADD MSTORE DUP5 CALLDATALOAD PUSH1 0x40 DUP4 ADD MSTORE PUSH1 0x20 DUP6 ADD CALLDATALOAD PUSH1 0x60 DUP4 ADD MSTORE PUSH1 0x40 DUP6 ADD CALLDATALOAD PUSH1 0x80 DUP4 ADD MSTORE PUSH1 0x60 DUP6 ADD CALLDATALOAD PUSH1 0xA0 DUP4 ADD MSTORE PUSH32 0x245229D9B076B3C0E8A4D70BDE8C1CCCFFA08A9FAE7557B165B3B0DBD653E2C7 PUSH1 0xC0 DUP4 ADD MSTORE PUSH32 0x253EC85988DBB84E46E94B5EFA3373B47A000B4AC6C86B2D4B798D274A182302 PUSH1 0xE0 DUP4 ADD MSTORE PUSH32 0x7090A82E8FABBD39299BE24705B92CF208EE8B3487F6F2B39FF27978A29A1DB PUSH2 0x100 DUP4 ADD MSTORE PUSH32 0x2424BCC1F60A5472685FD50705B2809626E170120ACAF441E133A2BD5E61D244 PUSH2 0x120 DUP4 ADD MSTORE PUSH32 0xAE1135CFFDAF227C5DC266740607AA930BC3BD92DDC2B135086D9DA2DFD3E2A PUSH2 0x140 DUP4 ADD MSTORE PUSH32 0x2B86859FD3D55C9D150FB3F0AEBA798826493DD73D357AB0F9FDACED9FC81829 PUSH2 0x160 DUP4 ADD MSTORE PUSH1 0x0 DUP9 ADD MLOAD PUSH2 0x180 DUP4 ADD MSTORE PUSH1 0x20 PUSH1 0x0 ADD DUP9 ADD MLOAD PUSH2 0x1A0 DUP4 ADD MSTORE PUSH32 0x198E9393920D483A7260BFB731FB5D25F1AA493335A9E71297E485B7AEF312C2 PUSH2 0x1C0 DUP4 ADD MSTORE PUSH32 0x1800DEEF121F1E76426A00665E5C4479674322D4F75EDADD46DEBD5CD992F6ED PUSH2 0x1E0 DUP4 ADD MSTORE PUSH32 0x90689D0585FF075EC9E99AD690C3395BC4B313370B38EF355ACDADCD122975B PUSH2 0x200 DUP4 ADD MSTORE PUSH32 0x12C85EA5DB8C6DEB4AAB71808DCB408FE3D1E7690C43D37B4CE6CC0166FA7DAA PUSH2 0x220 DUP4 ADD MSTORE DUP6 CALLDATALOAD PUSH2 0x240 DUP4 ADD MSTORE PUSH1 0x20 DUP7 ADD CALLDATALOAD PUSH2 0x260 DUP4 ADD MSTORE DUP9 MLOAD PUSH2 0x280 DUP4 ADD MSTORE PUSH1 0x20 DUP10 ADD MLOAD PUSH2 0x2A0 DUP4 ADD MSTORE PUSH1 0x40 DUP10 ADD MLOAD PUSH2 0x2C0 DUP4 ADD MSTORE PUSH1 0x60 DUP10 ADD MLOAD PUSH2 0x2E0 DUP4 ADD MSTORE PUSH1 0x20 DUP3 PUSH2 0x300 DUP5 PUSH1 0x8 PUSH3 0x3AEB5 STATICCALL DUP3 MLOAD DUP2 AND SWAP4 POP POP POP POP SWAP7 SWAP6 POP POP POP POP POP POP JUMP JUMPDEST PUSH1 0x40 MLOAD PUSH2 0x380 DUP2 ADD PUSH1 0x40 MSTORE PUSH2 0x417 PUSH1 0x0 DUP7 ADD CALLDATALOAD PUSH2 0x73 JUMP JUMPDEST PUSH2 0x424 PUSH1 0x20 DUP7 ADD CALLDATALOAD PUSH2 0x73 JUMP JUMPDEST PUSH2 0x431 PUSH1 0x40 DUP7 ADD CALLDATALOAD PUSH2 0x73 JUMP JUMPDEST PUSH2 0x43E PUSH1 0x60 DUP7 ADD CALLDATALOAD PUSH2 0x73 JUMP JUMPDEST PUSH2 0x44B PUSH1 0x80 DUP7 ADD CALLDATALOAD PUSH2 0x73 JUMP JUMPDEST PUSH2 0x459 DUP3 DUP3 DUP8 DUP10 DUP12 DUP14 PUSH2 0x10D JUMP JUMPDEST DUP1 PUSH1 0x0 MSTORE PUSH1 0x20 PUSH1 0x0 RETURN JUMPDEST PUSH2 0x46B PUSH2 0x4F3 JUMP JUMPDEST PUSH1 0x0 PUSH1 0x40 MLOAD DUP1 PUSH2 0x3820 ADD PUSH1 0x40 MSTORE DUP1 PUSH2 0x3800 DUP2 MSTORE PUSH1 0x20 ADD PUSH2 0x74A PUSH2 0x3800 SWAP2 CODECOPY SWAP1 POP PUSH1 0x0 PUSH1 0x20 PUSH1 0xE PUSH1 0x1 DUP7 PUSH2 0x49E SWAP2 SWAP1 PUSH2 0x69F JUMP JUMPDEST PUSH2 0x4A8 SWAP2 SWAP1 PUSH2 0x6D3 JUMP JUMPDEST PUSH2 0x4B2 SWAP2 SWAP1 PUSH2 0x6D3 JUMP JUMPDEST PUSH1 0x20 PUSH2 0x4BE SWAP2 SWAP1 PUSH2 0x715 JUMP JUMPDEST SWAP1 POP PUSH1 0x0 JUMPDEST PUSH1 0xE DUP2 LT ISZERO PUSH2 0x4EB JUMPI PUSH1 0x20 DUP2 MUL DUP3 ADD DUP4 ADD MLOAD PUSH1 0x20 DUP3 MUL DUP6 ADD DUP2 DUP2 MSTORE POP POP DUP1 PUSH1 0x1 ADD SWAP1 POP PUSH2 0x4C3 JUMP JUMPDEST POP POP POP SWAP2 SWAP1 POP JUMP JUMPDEST PUSH1 0x40 MLOAD DUP1 PUSH2 0x1C0 ADD PUSH1 0x40 MSTORE DUP1 PUSH1 0xE SWAP1 PUSH1 0x20 DUP3 MUL DUP1 CALLDATASIZE DUP4 CALLDATACOPY DUP1 DUP3 ADD SWAP2 POP POP SWAP1 POP POP SWAP1 JUMP JUMPDEST PUSH1 0x0 DUP1 REVERT JUMPDEST PUSH1 0x0 DUP1 REVERT JUMPDEST PUSH1 0x0 DUP2 SWAP1 POP DUP3 PUSH1 0x20 PUSH1 0x2 MUL DUP3 ADD GT ISZERO PUSH2 0x53C JUMPI PUSH2 0x53B PUSH2 0x51B JUMP JUMPDEST JUMPDEST SWAP3 SWAP2 POP POP JUMP JUMPDEST PUSH1 0x0 DUP2 SWAP1 POP DUP3 PUSH1 0x40 PUSH1 0x2 MUL DUP3 ADD GT ISZERO PUSH2 0x55E JUMPI PUSH2 0x55D PUSH2 0x51B JUMP JUMPDEST JUMPDEST SWAP3 SWAP2 POP POP JUMP JUMPDEST PUSH1 0x0 DUP2 SWAP1 POP DUP3 PUSH1 0x20 PUSH1 0x4 MUL DUP3 ADD GT ISZERO PUSH2 0x580 JUMPI PUSH2 0x57F PUSH2 0x51B JUMP JUMPDEST JUMPDEST SWAP3 SWAP2 POP POP JUMP JUMPDEST PUSH1 0x0 DUP2 SWAP1 POP SWAP2 SWAP1 POP JUMP JUMPDEST PUSH2 0x599 DUP2 PUSH2 0x586 JUMP JUMPDEST DUP2 EQ PUSH2 0x5A4 JUMPI PUSH1 0x0 DUP1 REVERT JUMPDEST POP JUMP JUMPDEST PUSH1 0x0 DUP2 CALLDATALOAD SWAP1 POP PUSH2 0x5B6 DUP2 PUSH2 0x590 JUMP JUMPDEST SWAP3 SWAP2 POP POP JUMP JUMPDEST PUSH1 0x0 DUP1 PUSH1 0x0 DUP1 PUSH1 0x0 PUSH2 0x1A0 DUP7 DUP9 SUB SLT ISZERO PUSH2 0x5D9 JUMPI PUSH2 0x5D8 PUSH2 0x516 JUMP JUMPDEST JUMPDEST PUSH1 0x0 PUSH2 0x5E7 DUP9 DUP3 DUP10 ADD PUSH2 0x520 JUMP JUMPDEST SWAP6 POP POP PUSH1 0x40 PUSH2 0x5F8 DUP9 DUP3 DUP10 ADD PUSH2 0x542 JUMP JUMPDEST SWAP5 POP POP PUSH1 0xC0 PUSH2 0x609 DUP9 DUP3 DUP10 ADD PUSH2 0x520 JUMP JUMPDEST SWAP4 POP POP PUSH2 0x100 PUSH2 0x61B DUP9 DUP3 DUP10 ADD PUSH2 0x564 JUMP JUMPDEST SWAP3 POP POP PUSH2 0x180 PUSH2 0x62D DUP9 DUP3 DUP10 ADD PUSH2 0x5A7 JUMP JUMPDEST SWAP2 POP POP SWAP3 SWAP6 POP SWAP3 SWAP6 SWAP1 SWAP4 POP JUMP JUMPDEST PUSH1 0x0 DUP2 ISZERO ISZERO SWAP1 POP SWAP2 SWAP1 POP JUMP JUMPDEST PUSH2 0x64F DUP2 PUSH2 0x63A JUMP JUMPDEST DUP3 MSTORE POP POP JUMP JUMPDEST PUSH1 0x0 PUSH1 0x20 DUP3 ADD SWAP1 POP PUSH2 0x66A PUSH1 0x0 DUP4 ADD DUP5 PUSH2 0x646 JUMP JUMPDEST SWAP3 SWAP2 POP POP JUMP JUMPDEST PUSH32 0x4E487B7100000000000000000000000000000000000000000000000000000000 PUSH1 0x0 MSTORE PUSH1 0x11 PUSH1 0x4 MSTORE PUSH1 0x24 PUSH1 0x0 REVERT JUMPDEST PUSH1 0x0 PUSH2 0x6AA DUP3 PUSH2 0x586 JUMP JUMPDEST SWAP2 POP PUSH2 0x6B5 DUP4 PUSH2 0x586 JUMP JUMPDEST SWAP3 POP DUP3 DUP3 SUB SWAP1 POP DUP2 DUP2 GT ISZERO PUSH2 0x6CD JUMPI PUSH2 0x6CC PUSH2 0x670 JUMP JUMPDEST JUMPDEST SWAP3 SWAP2 POP POP JUMP JUMPDEST PUSH1 0x0 PUSH2 0x6DE DUP3 PUSH2 0x586 JUMP JUMPDEST SWAP2 POP PUSH2 0x6E9 DUP4 PUSH2 0x586 JUMP JUMPDEST SWAP3 POP DUP3 DUP3 MUL PUSH2 0x6F7 DUP2 PUSH2 0x586 JUMP JUMPDEST SWAP2 POP DUP3 DUP3 DIV DUP5 EQ DUP4 ISZERO OR PUSH2 0x70E JUMPI PUSH2 0x70D PUSH2 0x670 JUMP JUMPDEST JUMPDEST POP SWAP3 SWAP2 POP POP JUMP JUMPDEST PUSH1 0x0 PUSH2 0x720 DUP3 PUSH2 0x586 JUMP JUMPDEST SWAP2 POP PUSH2 0x72B DUP4 PUSH2 0x586 JUMP JUMPDEST SWAP3 POP DUP3 DUP3 ADD SWAP1 POP DUP1 DUP3 GT ISZERO PUSH2 0x743 JUMPI PUSH2 0x742 PUSH2 0x670 JUMP JUMPDEST JUMPDEST SWAP3 SWAP2 POP POP JUMP INVALID ISZERO REVERT 0xF NOT 0xBF CREATE2 MSTORE 0x1E 0xDA 0xE5 0xF6 0xD8 SWAP6 DELEGATECALL PUSH20 0xC241CCC3D415EEF6C9485D21914188C1D2446D5 CALLDATACOPY 0xB3 0xDB CALL INVALID 0xBA PUSH21 0xB7657DC394B17E890CC1DB8C77A1DF7DDBF00C956 0xCC 0xE DUP15 SWAP8 SHL SWAP5 0xBC DUP10 GASLIMIT PUSH7 0x5A5A61D013E624 MOD 0xAB 0xDA 0xD7 0xC3 DIV 0x28 BLOBBASEFEE 0xB3 SWAP9 SHL 0xB1 KECCAK256 0xDD CALLCODE 0x21 0x2B 0xC9 0xB3 0xA8 SMOD MCOPY DUP11 SELFDESTRUCT 0xB4 NOT 0x23 EXTCODESIZE 0xAE SGT 0x29 0xC8 0xB5 LOG3 PUSH14 0xD5849D426B61896D79E5ACE3692F 0xAD 0x2A SWAP8 DUP4 0xFC 0x2B LOG4 SWAP1 ADD 0xEA 0xCD GASPRICE CALLER 0xE3 0x4C ADDRESS 0x27 MSTORE8 PUSH4 0x6D3C4635 PUSH23 0x36DAE6C8B2024B19C6002888DCD3E33699C10634A806D2 0xAA 0xE2 0x24 0xC3 0xD7 0xE5 SWAP13 0xEC GAS SWAP12 DUP8 NOT 0xB0 PUSH7 0xD2640C3BC3C927 MSTORE8 CALLVALUE DIV 0xB7 PUSH2 0x8B19 ADDMOD 0x2E 0x24 0xEB 0x2C LOG3 CALLVALUE 0xE7 0xBF SWAP14 0xCE 0xB9 PC 0xBD CALLDATALOAD MLOAD 0xE9 INVALID PUSH32 0x57270E9BCC58594F6192A2B99D2846F622DE39B5937B2A7323CC45E25FCB2093 0xD0 0x1E PUSH30 0x1A66AAFFD026340C02261FD998650C044A8B0C7FD711E04213A1CD2CD351 0x24 0x24 PREVRANDAO 0x4F EXTCODESIZE CALLDATASIZE 0x21 0xDF DUP13 CALLDATASIZE 0xB2 PC RETURN SSTORE BLOBBASEFEE SWAP13 MCOPY 0x2A 0x21 0xA5 CALLER OR OR 0xC8 0xAB LOG3 CHAINID 0xC7 0xAC PUSH4 0xC97616E0 CALLDATASIZE 0xC1 0xA8 DUP16 SWAP9 EXTCODECOPY DUP3 0x22 PUSH25 0x49B01847266A1175919AC332C27799549CE18D36EE0B0CA3B0 BASEFEE EXTCODECOPY DUP15 TIMESTAMP 0xC9 NOT PREVRANDAO 0x24 0x2F 0xC3 PUSH12 0x40CA910518F9D85A25BE8E4A PUSH31 0xF43663AD110CF5E0D819A05A811F7A0C166628530BA6F6D353E8E6A433C064 0xD6 STATICCALL 0xDF MOD 0xC NOT 0xBC 0xE7 JUMP 0xE1 ISZERO DUP5 SAR 0xD9 0x4F DELEGATECALL GASLIMIT COINBASE 0xD5 0xAD PUSH25 0x130187D67F3C560C2A590BD09376570909257A78BF2BDBAEC4 LOG2 SUB SWAP3 0xEB 0xAE 0xF6 PUSH7 0x111A0013E0D145 0xE3 0xB8 MSTORE8 DUP12 CALLCODE SHR PUSH4 0x1B780547 SLOAD 0xFB 0xA6 0xCB 0xE5 RETURNDATASIZE LOG1 0xB0 0xE9 0xC8 0xE6 PUSH10 0x4C94E5C5784962CD7924 AND 0xD2 0xE2 0xA6 SWAP13 PUSH7 0x6D201AFD103F74 TSTORE 0xC8 0xBD MLOAD 0xA5 NUMBER GASPRICE PUSH27 0xC8419F1DEDAAFBCADD19048E9009D4C6241613245CD94A309BFB79 0xAE DUP16 MSTORE SSTORE DUP1 EXTCODEHASH 0xC1 0xFB 0xDB DUP1 0xBB PUSH25 0xAC6D5F68DD031A464A87EBF414FAEBE5560369EC0B8807A88E 0xCF LOG0 MOD 0xF7 0xF9 PUSH26 0x5CAF1BFCFE261555534CF4E78D0C962615261CA9C1F65CD755E0 SIGNEXTEND 0xC0 SGT 0xAB CALL MSTORE8 GASPRICE SLT 0xE8 SHL DUP1 0xB3 0x2F 0xC4 SHL 0xD 0x1F 0xA8 PUSH14 0x2792793DF783C78305175C60E000 0xC5 EXTCODEHASH 0xD9 PUSH15 0xE07CEB78E470A6C64A1B477C553420 SWAP7 0xD8 0xBC 0x28 0xB6 DUP8 0xF CALLDATASIZE 0xFC PUSH9 0x5E6509823ED5943390 GT 0xCB PUSH14 0xDE0E8F8D7CC1CC582E109542C42E PUSH25 0x79D5F2509059905ECE1BD8860E7C820343AA1B30461DF91EAE SWAP6 0x1E 0xEA PUSH9 0x62AE37A2A4392C5801 PUSH20 0x7849ADB507F0A3137699241517A3F1EBBB3A4809 RETURNDATASIZE RETURNDATACOPY MOD PUSH21 0x8B6704617F4CFFEEAB1A9C5B788923F7FE09A49874 SWAP14 0xD9 0xAC SWAP16 ORIGIN MSTORE8 0x2E PUSH0 SWAP2 PUSH32 0xA4593965B59FBD36E7644390BA01391B8379A4A204C1C29FD1D17CDE2A0DCCFC 0x2E PUSH14 0x40DE5187062A63A944A907D0D7BB PUSH15 0xB30533A3454057778ED3AF1B8F8915 SWAP13 PUSH24 0x20C893F3CB7A2A4CC3085DAFDAB413391192963D2D6F8A7 SHL PUSH30 0x241B04A42762B5922F9E96652279D739459C63BA99921D36047868BE9613 SWAP3 0xE4 0x1F SWAP11 DUP9 TSTORE 0xEE 0xB4 0xEA PUSH5 0x5CEDDC1B49 PUSH14 0x41A8B765B09C9FA5DD267644335F POP 0xB7 DUP9 0x27 MULMOD SUB 0xCA 0x28 0xB7 SWAP3 0xA6 SWAP16 MSIZE 0xD7 BLOBHASH SWAP15 0xD7 0xE2 PUSH2 0x840C 0x1E KECCAK256 SWAP6 SHL CREATE SUB PUSH13 0xD34057859EA07C980CF286F5AF SDIV STATICCALL CALLDATALOAD OR RETURNDATASIZE 0xCA 0xBD SWAP5 0xE3 0xC7 0xFB MSIZE SHL PUSH21 0x607D58C397469CF09759E89B561A465001F19B05DC CODESIZE LOG4 SWAP2 0xB2 BASEFEE 0xC9 PUSH31 0xC7920C03DA29E69D805DF6DAE9AD29C6B80ED2C6A0818F6E04BD3AA8E1A17B 0xD PUSH8 0xC6815FEEB8BFE9B3 0xA5 PUSH22 0xBDE437AB71141CB929C4998D91A32BAAE52FC164831F 0xF6 0xBD SLT SELFBALANCE 0x4C 0xD8 0xC9 GT DUP10 0xB6 SWAP16 0x1E DUP13 0xDB PUSH18 0x640C5BE902277C48337D1DB6B1FB81C89E86 DUP10 0xCB LT 0xB7 0xEE PUSH11 0xF8B9FC5975A730F6EB2DD8 CALLDATACOPY LOG4 PUSH16 0x2BA2EE8EA9442A9EEBD87ED57F594F04 0x4C PUSH25 0x60B39595EAE6CE4D0E119BC8B722E52FF60236302B2E6F4A13 SWAP16 ISZERO 0xE6 GASPRICE LOG0 PUSH5 0x1AE765F3E7 SHR ORIGIN 0xFB PUSH22 0x9D25214F618153620B583FBD2ABC2EEF9A26789F3B52 SWAP7 0xE9 SDIV MLOAD DUP8 PUSH27 0x37D362DC95013C611347B3D133ED9045BE2C36F8689A0120C4078D SLT 0xD8 0xCD 0x28 0xC0 MOD 0xBC PUSH2 0xDDA2 0x2F EXP SWAP6 MSIZE 0xEC 0xA7 0xCC PUSH22 0xDB51C369B05E74C952D5A8AE39B06ED01C8698F4D74D PC 0xDC 0xF 0xEE 0x28 KECCAK256 0x26 0xBC GT EXTCODECOPY 0xC2 MLOAD PC SIGNEXTEND 0xEA 0xB7 0xBF 0xBD 0xDF 0x22 MULMOD SDIV PUSH16 0xCE08C4E356B1A06F1BC9441439395673 0x2C DUP14 DUP1 0xC3 0xF6 EXP 0xE0 LOG2 PUSH22 0xB3968C22C40E9054B3AD662671F4326F208E1CE66CEA 0xED 0xEC EXTCODESIZE SGT 0xAC CALLER 0xCF SAR 0xAC 0xC6 RETURNDATACOPY PUSH31 0x68E3E7FDEE08E91A54075CC0758A805A1ABC1B6362A1A276F723F806D4A51D EXTCODESIZE PUSH27 0xB592AC8F39E198CB5EFCCEAF0E48C123F70EAD154FD51F42A3DE0A 0xC2 0xB6 AND 0x21 CREATE BYTE DUP12 ADDMOD SWAP10 DELEGATECALL PUSH14 0x2D9DA1A8D620B88E9828358BC8E9 0xB0 EXTCODECOPY BALANCE BASEFEE 0x1E SMOD SWAP1 SWAP14 DUP7 0xCC DUP4 DUP7 BLOBHASH BLOBBASEFEE LOG0 0xC6 0xB1 REVERT 0xDB PUSH15 0x83911200D2D5BF21309D93CA7E97B5 TSTORE NUMBER 0xC9 CODECOPY PUSH16 0x92716FF1AD99B73DC929C566DE6C6C72 SHL 0xD0 BASEFEE ADDMOD PUSH7 0x6E4182C159D4CF 0xD3 SDIV 0xE1 0xF6 CREATE2 0xCF 0xE4 0xCE SWAP3 NUMBER 0xAB MSTORE8 DUP9 0xC2 0xA5 LOG0 0xAB PUSH21 0xB600E4BD5E28CFB007611BDA022F417D399841A00E SLOAD EXTCODESIZE EQ SMOD PUSH7 0x72113B21E9BDF4 SWAP5 0x2E 0xB3 0xFC SLT DUP2 0xDF DELEGATECALL SWAP5 ADDRESS 0xDB 0xC9 0xD0 PUSH21 0x8814312F5356A1024539516AE19E8B6EB6379421CC DUP4 0x24 RETURNDATASIZE 0xC2 0xB6 BLOCKHASH 0xAB 0xC1 PUSH19 0x8422276BA4AD24CAB39FC7D1EF6CF3D82FE82C SWAP16 DUP10 0xEF 0xAA PUSH28 0x5CFF4D9542E3250C36BF32561E274F8FA928DD3A8D11F4F76C36A4 0xCD 0xEB MCOPY PUSH5 0x20B886F895 NUMBER 0xB5 0x4F DIV SUB MULMOD SAR MLOAD 0xCD DUP9 DUP10 PUSH0 0xBD SSTORE 0xAE 0xA8 PUSH14 0x19DB8B89CFD55255F8030C0AA800 0x2F 0xB1 0x4F 0xB9 0xB4 INVALID 0xDA PUSH20 0x7C210D4289D62A014E4BDBF708AD21B53EF62D96 0x25 0xE7 SWAP12 PUSH17 0xD1EE02EB3F6C25BFAA7B9A4E1566B0FA70 0xC6 0xC0 0xCA SMOD 0x21 SWAP2 DUP10 PUSH25 0x38A36027218C7DC6AF590AB65620D6F31DD4CBDF1EB8605815 GT XOR 0xBB 0xDB DUP1 0xB8 0xD9 PUSH14 0xD80053653AC15A867AFA2931D75 GT PUSH4 0x18A810D5 MLOAD 0x2D DUP8 SHL PUSH18 0xF4654C86ACABDE8C911C48420D5581F37E60 0xB1 GAS PUSH14 0xFE652B9CE46E2DE3414D252B18DF JUMPDEST SHL DUP14 CALLCODE 0xA8 XOR 0x21 0xFB 0xAD 0xA5 0xAB BLOCKHASH 0xEE MOD BLOCKHASH 0xB1 CALLDATACOPY JUMP 0xB2 PUSH11 0x7FCFEB5F81DE884FBB889F EXTCODECOPY 0xCB LOG3 REVERT PUSH5 0xCCE70D6670 CREATE2 LOG2 GASLIMIT DUP3 0xA7 SELFBALANCE 0xE1 0xD1 0xAE 0x1E 0xE DUP14 0xA6 RETURNDATASIZE PUSH30 0x202210D96DD5078FA58ECCD43E361FE26476A17C1DDA8D2D1B630CCD263E 0xCD JUMP PREVRANDAO MSTORE SWAP11 0xFC RETURNDATACOPY 0x29 PUSH20 0xF6961FF3F8712627464F05A8EBB85E8E46559961 0x4C 0xED PUSH28 0xEC41FCDA74EC9F51AE39C392672BC7242AB9A6D1C669A478CEB584E3 0xBC PUSH15 0x1635E3202EC53CBB6F3CC42BBFD765 SWAP7 SMOD 0xC0 0xD 0xD6 RETURNDATACOPY OR SWAP3 0x2E 0x2E SWAP6 TLOAD CODESIZE 0xD4 PUSH20 0x47FD269336D27CB9B9C7A3218C3808507BBC994D NOT MSIZE GASPRICE CALLER POP 0xD5 PUSH1 0x45 SWAP9 MSTORE8 0xC SWAP4 CALLDATASIZE 0x2E 0x28 CALLDATASIZE 0xF9 0xF PUSH30 0xAA675F73B40BC04D67B0625E3D1682034112BE41166846A800DEC3F04DC4 PUSH0 PUSH25 0x78BD2C5493E443F44EFC5C08AF0828E223EE37C2D4DFA133C8 0xDF PUSH21 0x7C3DDD415DA67E911F2F5CB609A58DF64BD0127BFD SLOAD SWAP15 MCOPY DUP14 0xCF 0x4B 0x22 0x29 OR ISZERO CALLCODE 0xAD JUMP PUSH9 0xCD6C711C2A39C3FFEB 0xE9 ORIGIN NUMBER 0xDF BLOCKHASH 0xB0 0xD 0xC2 0xC6 ISZERO SWAP6 0xD6 MUL DELEGATECALL 0xF7 0xB0 GASPRICE 0xF6 0xA9 NOT 0x26 CODECOPY JUMP 0xB5 SWAP5 EXTCODECOPY 0xB3 CREATE2 0xF8 SWAP1 0xBD 0xE7 0xD 0xE7 CALLER PUSH3 0x33871E 0xEC 0xC3 DELEGATECALL 0xD0 0xCF PUSH18 0x749BB70475EE20A3D479719FCB7C7BEA4290 MSIZE 0xF6 0xC1 0xD1 DUP14 0xD5 PUSH31 0x2D94C63811C0F21889BEEECC4D7797F0FA87F0CD40FB84AC72F5537942B5BD PUSH27 0x7573806D926B6E92313C06BA464AC035746E0DC96B3D40DB4020F PUSH19 0xDBBF715306FDD2C03D7F271F2969D465C7E867 PUSH4 0x751E29FA PUSH3 0x2A2715 PUSH10 0x4C534B5E171B2519546A AND AND 0xAC 0xA8 CALLCODE SMOD 0xE8 PUSH22 0xEBF37977F96C1DFA32DDF16D7EADED9047AB15142F19 MSTORE8 0xBC 0xAA 0xD2 0xE1 GASLIMIT 0xCB 0x2A PUSH22 0x9CDD65EB7CF493B281B71B0FAA6010E30A38B5127519 0x2F 0xDB 0x1E RETURN GT CALLDATALOAD SUB 0xA9 0xDB PUSH9 0x8B32A0B79F3A8125D7 SWAP7 PUSH28 0x3962373FB886332A135F7706D774B685F236C190A046EC7FC6147A84 0x26 SMOD SWAP5 0xC5 NUMBER 0x23 0xC 0x4D EXTCODEHASH SWAP1 0xCC MULMOD SAR 0xE PUSH1 0x2C 0xB5 0xB7 PUSH16 0x44713C49CC24CB3E1715BA081787296B SWAP5 0xDB 0xE2 GAS 0xB5 PUSH24 0x42EBF6553DF405159D91BD6A0A9C639B0CC27CC39DAE457F GASLIMIT 0x22 TLOAD 0x4B 0xB5 SLOAD 0x26 BLOBBASEFEE 0xF8 0xE2 0x29 0xA5 0x25 0x24 GT POP ADD 0xB9 0xE8 0xD8 0xB1 CHAINID EXTCODECOPY 0xD8 PUSH11 0x16C3610F87FC2A10F63BD 0xFC 0xC0 0xC STATICCALL SWAP10 CALLDATALOAD GASPRICE 0x4C BYTE MSTORE SLT SSTORE CALLDATACOPY 0xCF PUSH1 0x72 PUSH2 0x5205 0xC3 DUP1 GASLIMIT 0xB8 0xAD BALANCE 0xD1 SSTORE 0xBD 0xD8 0xAC 0xF8 0xC PUSH30 0xC627A7506E642A177C2E83916C6303325ED9513361098830271102AC5DBF 0x28 MCOPY 0x26 GASLIMIT SWAP2 MCOPY 0xED 0xA7 PUSH27 0x56931CE67DD1EDCAAC1B03358EB6B2AD3780BD1CD201B91D4BB2E6 SUB 0xE0 SLT PUSH26 0x351FD126E90BD7B6F903B9E517A0F77A7E4048033CB873B1DA8C CALL SWAP1 ADDMOD 0xE PUSH22 0xCD1DFD6B1CF426585573250EB3432A5E80FC194C307C PC 0xC8 EQ 0xAC CALLDATACOPY 0xBD 0xE8 COINBASE 0x25 0xA5 0xAE CALLCODE 0x22 0xA7 LT INVALID TLOAD POP 0xF8 INVALID PUSH18 0xB1FB44251E5DCC90BD0D64844451329DCB49 0xE2 COINBASE PC SLOAD MOD 0xEF DUP12 0xC 0x27 CODESIZE COINBASE 0xCF PUSH19 0x28666B689B24A7022BC402815F77F71B43C186 0x2F PUSH5 0x853B6A47CA SLT SSTORE 0xC4 GASPRICE 0xF6 SWAP12 0xE4 DUP8 PREVRANDAO 0xC7 MSIZE 0xDE PUSH8 0xF363030B809EA5BE TSTORE 0xE7 SMOD SLOAD TSTORE 0x1F 0x29 0xDB 0xFC 0xD2 PUSH19 0x110B2F7AC7D7B3F94893762FCA13700B74CEC6 SWAP2 0xBC JUMPI 0xD2 AND 0xBA DIV 0xE9 SWAP3 0xBD 0xD 0xC9 SELFBALANCE MOD MSTORE 0xC5 0xB2 0xBA PUSH28 0x972DD68BF8C271556B57AD4521C067A072D75EE09268562CEA9D1E6D 0xB4 0xB3 0xE0 XOR PUSH0 0x2A 0xDD 0xD BLOBHASH 0xD6 0xE AND AND DUP13 0x2F RETURNDATACOPY 0xA9 0x1E 0x2C 0xB0 JUMP PUSH25 0xF2C9D9ABE232B3400A96B6EED42E7041C98BAA152253971225 CALLDATACOPY DUP11 0xC4 0xCD SWAP6 DUP10 0xC8 0xC 0xEA 0x28 0xC0 PUSH12 0x5706782650EF83382C54CCFA 0xBA STATICCALL 0xEC DUP1 SWAP7 0xC5 NOT 0xAB JUMP PUSH17 0xC7D4DEA2535C64DB2B7DFCB5531664DBFA CREATE DELEGATECALL TSTORE PUSH13 0xE2782683F87E6C9E9B7176F085 GT 0xAC AND PUSH4 0x869ADF93 CALLDATACOPY 0xEE CREATE 0x21 0x2A 0xE8 SWAP1 PUSH24 0x61700BDEA4B480F20F788DD08CA4126DCF4EA462E890F302 PUSH4 0x44760E50 0xA7 0x4C CALL GASPRICE SWAP16 TLOAD RETURNDATACOPY 0xAC CALLER LOG3 DUP13 PUSH16 0x9E8D3C2638BEE309A4180AFD6097C527 PUSH7 0xE41377037809E6 SWAP1 0x22 0x2F SWAP11 0xFC 0xA6 0xE1 0xEE CODECOPY 0xBA SWAP6 DUP5 PUSH12 0xBE912379A938F6FFCB493F5C 0xBC MULMOD BLOBBASEFEE 0x2A CALL PUSH26 0xF583A4155DC7F2B191C036DF4330C0EB75E1E70D2487431BB4B5 0x1F 0x2B SHL 0xC2 0x23 SWAP3 GAS REVERT PUSH32 0x4F7CDD038D39183E1364D1665DCB17CFC2E30DA2EDBDA339019A6052E1C5CF66 0xEC CODECOPY PUSH10 0x56467E791A97506BB329 SAR BYTE EQ SWAP14 DUP7 RETURNDATASIZE SWAP13 0xC2 TSTORE PUSH7 0xD1F709B744826 DELEGATECALL 0xCE SUB 0xD2 0xAE 0xE 0xB2 0xA8 PUSH7 0x13BC33B2BBED5E SWAP11 0xC6 NOT DUP16 PUSH31 0x8DF1AFA8B210CEE567471A2B01CFA286F3095713FFE5855C06F17158E33E9E 0xBF 0xDC SHR PUSH26 0x2A88239EA34B3E8A5D1D26599FCF453537FB16A91F9520317A01 0xC7 0xDE SHL 0xB5 0xA7 PUSH9 0xD72509B3A1BB0C0BE5 PC PUSH23 0xC4B91957B7E86412654BF272B7B9C52F2217E9713C7DCC 0x2C 0xEA PUSH17 0x65CB1BF0B68C86A3592A5134384BE8B10 0xDE STOP 0x4C BALANCE 0x23 EXTCODESIZE PUSH25 0x3577694DC613AA1864F9D5017A46CB107BE441F821A85315B7 SWAP16 CODECOPY SWAP7 DUP14 PUSH5 0x7F343A2C6 NOT SWAP9 STOP SDIV CALLCODE PUSH25 0xBAE49A9A15A54132C50388E69F4211CEDDEE99195F07736B50 0x2F 0xAD 0xEE SUB MUL 0xA7 DUP7 0xD7 SWAP13 0x25 LOG2 0xBE 0x29 PUSH31 0xDD39EAEE413DC553146FF7D83BBBB8BC71447B66052EAF36A4DAE40401CFA5 PUSH18 0xB55AD8B5FBCED37E67860085BC6AFC5412D8 MULMOD 0xCE DUP11 AND PUSH14 0x4B67DEBDF8E674BD6074BF67031 0xD3 0xB4 0xC5 PC PUSH5 0x7DC4A3C544 RETURNDATACOPY 0xBA 0x23 ADDMOD PUSH7 0x83232F97FA7F39 SGT 0x23 0xE0 PUSH7 0x175FEB3572AED6 0xC CALLVALUE EXTCODECOPY RETURNDATACOPY EXTCODECOPY GT 0xED ADDRESS SWAP13 STOP SELFDESTRUCT LOG2 SWAP13 0xDD CALLDATACOPY ADDMOD CALL PUSH26 0x1A609F8714B38F03CFEEB1A149ADF524A946A397191B09868694 PC 0xBB DUP11 KECCAK256 0xE9 0xAD RETURNDATASIZE AND 0xDB ISZERO PUSH4 0xE84154A1 PUSH10 0xDB5E81D0117D49148007 PUSH19 0xD4BF624317E32B3617A525EDE8962FDFD05AF9 0xBA MCOPY CALL MULMOD 0xBD 0x2F TSTORE 0xE0 0x25 0x24 GASLIMIT BLOBBASEFEE LOG2 TLOAD PUSH10 0x6B7C6FB0757D0D71A275 LOG1 0x4C STATICCALL LOG4 0xF9 DUP8 0xCF 0x2D 0x25 MSTORE 0xAD 0xD1 RETURNDATASIZE SGT 0xFC PUSH18 0x41C544A0AB457103E4B2D5021FF842CD5977 DUP16 0xB6 0xC7 TSTORE NOT PUSH22 0x11F3158ECAC8FAFD21DB5FA652725BE434580FF92109 MCOPY PUSH15 0xEFDDA8F7648172826E435E08A93109 0xB1 CREATE BLOCKHASH 0xD8 DUP15 0xC1 0xB0 SHR 0xE3 0xE2 0xDF 0xA5 SWAP3 MUL PUSH21 0x6D05612699C335D4031F388561FA2C6B3A4C224DF7 COINBASE BLOCKHASH 0xC5 DUP13 TSTORE 0xD7 CODECOPY EQ MSIZE XOR 0x24 0x27 REVERT 0xF7 0xEC SIGNEXTEND DUP13 GAS PUSH17 0x3E3AE6C19D8DA47804A75D62BA4A1F8CE XOR CALLDATALOAD 0xD7 0xEB PUSH7 0xDCFAD648630A6 SUB PUSH19 0x41A73AF244B1612EB375D852712A10182E1339 0xD1 PUSH23 0x471F24611B2E7AAD1A1FBA1F1EB3193A87A0261E98DBE7 PUSH32 0xB30944EDC6EF5726ACDA2DF51DF9C66F51695783648873BC167BC8199AFDCF98 0xA6 LOG3 SWAP14 0xFC EQ SWAP4 CALLDATASIZE CALLVALUE 0xCC 0x25 STOP 0xBA DUP6 LOG4 0xD7 JUMPI 0xB2 0xBB 0x24 CALLCODE PUSH9 0x6C8FC2B20D23F68ECC JUMPDEST 0xBD DUP9 SWAP14 PUSH17 0xDB8222F9C94EEB2A615FC377BD707E1D29 PUSH30 0xF70F60076D184EA30144439D2A02827CCC4B74D6D5083FF5F9B4474040E1 0xDB SWAP6 0xE7 0xDD BLOBBASEFEE 0xC0 DUP12 0xC4 SWAP16 0xD CREATE2 0xE0 0x4B AND ADD 0xE5 BALANCE ADDMOD PUSH27 0x66E1A9A0300192FF2B9358B371328362EAB85F10B3B256562986B0 0x22 0x2F SWAP1 REVERT 0xE6 0x28 JUMPDEST KECCAK256 BALANCE 0x2B SWAP12 PUSH14 0x2F72C215474B76C58BE1BC8113AE 0xD2 0x1E 0xFC 0x4B INVALID 0xB7 PUSH14 0x432FADD1A143AE551AFC92793B1E EXTCODECOPY PUSH28 0xC0FFF4D51B34C751D6FD4F0B684FD36A5EB31F2E7D59BD0827A4788D 0xF7 GASPRICE 0xD8 0xB0 LOG3 0xDB PUSH14 0xD0366131FAFF0CF443FDBE689B18 GT 0x27 SSTORE 0x24 INVALID 0x4F JUMPDEST 0x26 0xE3 MOD 0xF7 DELEGATECALL BLOCKHASH EXP DUP12 CHAINID PUSH11 0x46F73B1BB30628E8F53AE1 DUP4 OR SWAP11 DUP10 0xEA MULMOD 0xBC 0xAB BYTE 0xBE DUP13 NOT SUB LOG2 SWAP3 0xE8 SAR 0xB1 ADDMOD 0xE9 0xAF 0x23 0xCD SHR PUSH19 0x49087803195EF86AF9D7AEF43F671BBE28D505 0xC9 0x2B MLOAD PUSH8 0xE06202018A4B1C48 0x2D 0xDE PREVRANDAO DUP7 DIV PUSH26 0x3A2B6D734C3A59F599B457794F109890A7F2FCB50131C7E510FA CALL OR 0xDA 0x23 CALLVALUE 0x4B PUSH15 0x50403670B103E8B1B0FEA27F1FB697 PUSH29 0x76473F7A1D148B69A5526768AC7032CE91F0E138973B3E4D30745FDF22 DUP5 PUSH13 0x8FC4704252020B4A141726EF71 EXTCODEHASH MCOPY 0xDA PUSH1 0x5D 0xED DUP2 DUP15 0xE6 SWAP14 LT EQ SWAP1 0xD5 0xA8 0xB6 SMOD SWAP12 SHL 0xC5 ISZERO DUP4 DUP16 BYTE 0xD8 CALLDATALOAD 0xD8 PUSH23 0x23ADEF3B1673CA9735AB72D8FC938E206A524E5820D47A PUSH8 0x5B313CD4B857527F RETURNDATACOPY PUSH14 0xDD2B5646E5FD9F206AAD5BCFAAE6 0xCB MULMOD PC 0xE6 MOD 0x4E PUSH26 0xC61F6D53A00688E7F217A0C8579BA3DAF9D4DF5DEC16F013A124 COINBASE EXTCODEHASH ISZERO 0x23 DUP4 0xC6 0xF7 TLOAD BYTE CODECOPY 0x2E PUSH15 0x1375277F1130C2274D8668773ADDB7 DUP4 KECCAK256 PUSH29 0xF58CF4C0B60F693E2F20B43EAC0691B48A00FADF42143AF8E21B080D41 0xD1 0xE7 SHR DUP11 MUL EQ 0x2D 0xA7 0x26 0x4F 0xBA DUP9 LT 0xC9 0xE1 0xC0 SIGNEXTEND MLOAD 0x2A 0xAB SAR CALLDATALOAD JUMPDEST 0xD7 0xCC 0xAB MSTORE ADDMOD SWAP8 PUSH9 0x376D8A925CF1C3F927 LOG1 ADD 0xC6 SWAP9 PUSH3 0x91EDD6 SHL 0xF9 DUP9 DUP14 PUSH12 0xBC0D0F802BBC4186A811B810 PUSH32 0xCF306A557F0AF626CDD05DF967801D477B1C344754C15F7A30B0BD75BB98985A 0xC 0x2F SELFDESTRUCT SWAP15 0xC8 0xC MOD 0xC MCOPY PUSH2 0xCDFA 0xBE 0x2E 0xB8 XOR DUP16 PUSH17 0xCAC4D7B7CDEED9B964792D7DFB6FC0B228 0xA7 0x27 0xE SLOAD 0x2A PC PUSH11 0x34C5B50461B05614CBF3CE 0x22 DUP13 SGT SDIV 0x22 MLOAD CALLDATACOPY SWAP4 0xEC 0x26 EXTCODEHASH SWAP11 STATICCALL SWAP7 0xE2 EXTCODEHASH 0x4E GAS 0x25 0xCC RETURN ADD PUSH9 0xE9EF4FD1CB902C95CA DUP14 PUSH8 0xA13580DD07994094 0xB2 0x21 PUSH17 0x8F8C7D6797107DFA97FD9047FAE9CF80F4 DUP12 KECCAK256 PUSH9 0x84949B324E4AB03212 RETURN 0x29 DUP13 BASEFEE XOR SWAP9 PUSH23 0x961CFF7A1FCB4F40C410CEB353CB8AB907A0F6B2821DBF DUP3 PUSH23 0x6EC762967BA2394420B8533E0AB744D5DB86E30A3E73A8 SIGNEXTEND 0xF6 0x21 LOG2 0xB5 0xD8 SSTORE JUMPDEST 0xF 0xC4 AND CODESIZE SWAP14 TLOAD CREATE2 ORIGIN PUSH6 0xC9D9B203B72 0xE7 DUP9 PUSH32 0xBC30AC7978146860EA4AA1FF0D96DCA2C65666304CACBB1B84D4AFA11231F3A4 LOG3 0xC6 0x2A STOP 0x29 LOG3 SWAP16 MCOPY LOG3 SAR SWAP1 PUSH27 0x92070494990427E7CA6F8814107581EDE64E20DCE54FFFBC6443CE 0xC3 0xCA SHR 0xB0 SDIV 0x4C MLOAD TIMESTAMP XOR PUSH29 0xD21BCB166B7916737E84151E0282876E43177C3830524E3B6AC2EAB243 LOG0 PUSH8 0xDE3319F8D0B8B420 CALLDATACOPY 0xCD PUSH2 0x979B PUSH7 0x7FB80288588D2B MULMOD PUSH0 0xC 0x4C CALLVALUE BALANCE 0x2D PUSH29 0x75A074BEDA537909CFA104AFC04E3F13C2D80FCFA1AA6E946499406CE5 COINBASE 0xCA DUP5 MSTORE PUSH28 0x75DD29881C09E6A120A42AB93CAE3BB2A7AC65C4952FCAFA2B58F3D3 0xC3 0xB2 SWAP3 0x24 PUSH15 0x292DC1D10EAD442294E0AC633D4E59 0xAC PUSH21 0x82946C67653DFD3B17220D05953F214328D778D62 JUMP ADD SWAP15 ISZERO 0xE RETURNDATASIZE SWAP10 0x2F MLOAD PUSH22 0xDD609D7B7468A978428A5BBF291B77F900D1C682CBA1 0xBF 0x2C DIV RETURN 0xDB SWAP4 0xC0 DUP8 0xD 0xB5 LOG4 CODECOPY 0xE9 SELFDESTRUCT 0xF 0x2A 0xC6 TSTORE NOT 0xED 0xDA BALANCE 0xF6 0xBF PUSH5 0xE9F827516B EXTCODEHASH PUSH9 0xE72E6C4CE5C33D2F1D STOP 0xD4 0xC7 0xC6 SWAP2 0xE5 0xD3 SWAP14 INVALID LOG1 0xC0 0xEB MSIZE 0xD 0xE7 PUSH24 0xE5FE64365545646F01879179E76AED29E2392A6DF0AC85EA PUSH11 0x285E0D3A1112E8593C23C3 0xE3 RETURNDATASIZE CREATE2 LOG2 ADDMOD PUSH10 0x75BBB71F10A74A76F43B 0xCB STOP CALLDATALOAD BASEFEE XOR PUSH1 0xC6 SELFBALANCE DUP16 0x23 INVALID SWAP2 0x4D DELEGATECALL BLOBHASH 0xB5 0xE JUMP 0xC4 SWAP3 0x2C PUSH16 0xEB5C47AD32B1054C98E31DF1659881F8 DUP5 SWAP4 SWAP6 CALLDATASIZE SWAP7 SHL 0xED 0xEF 0xF8 0xCF 0xBB PUSH15 0x12820549855C647DCDF03D05C6A490 0xD5 SLOAD LT SWAP9 0xD6 0xD8 EXTCODESIZE 0xAE PUSH30 0xA0112A822E0ABCECE25020F9C4E3FCFA0D305A923E4FB0D9EF583CB141DE 0xBF 0xEB SWAP4 SHR SWAP1 SWAP15 CALL 0xD4 REVERT 0xF6 0xEA 0xC9 SDIV LOG3 0xB3 PUSH7 0x3E889C49EB5920 0xE7 PUSH10 0xBBFE9F9DFC905554300B 0xB2 0xB4 0x28 TLOAD PUSH11 0x5889B2741F9E528D112BD8 LOG0 MSIZE 0xEA 0xA5 LT 0xCB 0xD9 0xA7 GASLIMIT DUP6 SWAP9 0xD2 PUSH24 0x75BCF6D851A0D359EBB81DEC15608AD6B67162915E05D6AF SHL LOG4 0xB3 0x2E 0xB4 PUSH10 0x3F775FFC0A66485C3E56 OR 0xDD CALLDATACOPY 0xE0 SHL 0xD2 0xE2 PUSH15 0xFA4FB0A842E03142AF573FA9C16623 SLOAD 0x24 MLOAD 0xB3 0xE4 0xE0 0xAF NOT PUSH17 0xCD7E2B0A2B417CAD2430C3018499A10488 INVALID 0xDF SWAP15 MSTORE8 SWAP10 0xCE PUSH13 0xF93819469C802BED6386D7B923 0xD CALLDATASIZE RETURNDATASIZE DUP12 0xAC 0xDD SWAP8 DUP14 ADDMOD 0xDF 0xBC PREVRANDAO CALL 0xC3 0xBB 0xD3 0xB2 0xBC 0x1E 0x2A 0xAB 0xC5 0xC3 PUSH22 0x9DB87F8F895EAB2F83002ED31EACA2531766A09552EB AND PUSH8 0xA9419192CA335B08 0xD9 CALLDATASIZE SWAP4 0xE5 PC BLOBBASEFEE 0xBC 0xF 0xEC 0xCD 0xB5 CALLER GASLIMIT 0xBD 0xAE PUSH20 0x49C42B119570C762F1F5497EAF898E4BA2D378D9 0xD8 0xD2 0xD XOR 0xD0 SAR CODESIZE 0xCB PUSH11 0xC78D93961C1ECBFAADD4B0 0xCF SWAP10 SWAP12 SWAP8 0x2C 0xE4 SWAP1 0xC 0xEE SWAP16 0xAA 0xCD 0xF8 0x29 DUP11 0x1F BALANCE 0xCE STATICCALL SSTORE CREATE2 0xF9 ADDRESS 0xD1 BLOBHASH 0xB6 EXTCODESIZE PUSH27 0x33E385A688AA8A4FF3FF8D88E501DD7466B4751A02607DC91FD27E 0xBB MOD PUSH12 0x51F8DCA8D64DEC062D3F8EA6 LOG3 0xE2 DUP6 SWAP14 SGT SWAP13 OR 0xE9 CALLCODE 0x25 0xBC 0xE5 0xF6 0xC CREATE2 0xC7 0x2F 0xE5 DUP12 MLOAD NOT DUP4 0xC0 PUSH8 0xECAB88071786FEB4 0xF6 0xCF DUP4 0xE1 0xB5 0xAC CALLDATALOAD DUP8 DUP15 NOT SWAP15 0xA7 0xD2 CHAINID PUSH31 0xA66B53853F7BA20A91BB44A4A5F621404375051CBAC31997A3661641E4CE35 0xBE 0xB4 0x4E RETURNDATASIZE STOP REVERT SWAP12 PUSH27 0x3BD47E118FCB21C62281B148DFE4097C147E11227CF6075DBC7987 0xEB 0xCE PC PUSH18 0x1ED50E2B6A94C1478DB414A834345CB2B5C2 SHR 0xB5 0x25 0x2B 0xDF SWAP4 0xE4 0xBC 0x24 0xD6 CODECOPY 0xE1 0xEB 0xD8 SDIV POP STOP 0x1F 0xA9 0xAA 0x1E PUSH30 0x6ABCBA326C2B2FEADE8FD8D9073103523D7B0CE327314D3474AA6B77824A PUSH22 0x862D0CBAA5AF6E1D2CEAD16B9F050F7090CC1ECE4B52 OR LOG0 COINBASE SWAP16 0xE3 MOD PUSH14 0x81EA2E19DC6C5410C770740C1687 POP PUSH7 0x2A4801A2483187 SMOD GASPRICE OR 0xCD DIV DUP10 ADD PUSH6 0xFF19B24180CC DUP15 0xD1 PUSH9 0x70CFE0F2CCD8218324 0xE2 PUSH19 0x58B0E61CF13892A8B7ABB13E0CC19FAFF40BBD 0xD6 DUP1 LOG3 DUP10 DELEGATECALL SWAP2 DUP16 PUSH4 0xD9E20F03 0xCB 0xD3 0xF 0xB8 0x2D PUSH25 0x7479517B4E29B3DA4950B96A023A331E52C721C66F5E2292B 0xB6 0xD9 LT PUSH9 0x4EB13C86F172F66F59 LOG0 SWAP4 0xF8 LOG0 MUL CALLER EXTCODECOPY DUP8 PUSH8 0xBD594CEB63E9C6A2 0xC4 0x1F ORIGIN 0xB4 DUP5 PUSH25 0x58F72BC734DF639C032604AE71FF65AFBBDCF42ACC7EC195F3 LOG3 SWAP13 0x2A 0xF BYTE 0xDF PUSH3 0x30DE39 SWAP6 0xBC 0xE0 0x23 0xCD 0xFC PUSH11 0xF1E85D9121F84DE4A34B9C PUSH32 0xC4FF920C7617FA977E81DAC861E637D8D9E4636487AFA55618F35F7455AF8321 0xF8 0xD6 0xD5 0xD PUSH15 0x9F9221E154AD381A5B58D1C8771BE 0x1F SELFBALANCE RETURN 0xAA 0xE8 0xA9 PUSH23 0x9151CD84C1434FABCB9B0EA204DBFBD3E404128C8252D6 SMOD AND SWAP15 CREATE2 ADDRESS JUMPDEST 0xB1 0x2A MSIZE 0xE4 BLOBBASEFEE 0xC4 0xBE SWAP2 SELFBALANCE SDIV GAS PUSH16 0x200D2547A25E17E027BDA4423048F3C6 0xC5 SWAP6 0xD6 0xF8 BALANCE 0x24 PUSH23 0x7DA34E0E4B96C26F5C940CBD5F2D0CEA7678B80AEED4B0 0xDE PUSH25 0x259C86A2C207DC0F28FCBE22A1252E5D3C1A9B6C59C30E6D1E EXTCODECOPY MCOPY STATICCALL 0xE2 PUSH27 0xCC27E9B7BD23AF3DD7963A0AA8361B4DF2F2430CC761B549AF6206 SWAP12 LOG3 0xE0 STATICCALL PUSH29 0xE6C75C9F6DEFED91E8F3314C4B1ED7A5E0C83C30264E78DCB1ADB0D750 EXTCODEHASH DUP1 POP PUSH31 0xD4BF90271624D70DFCA454D1990A2F75598828D55E9071501CBB4AE790279F SWAP10 PUSH7 0x22466C1C9F131D PUSH7 0x7E8BAF7BDBD5D9 LOG4 SSTORE GT SELFDESTRUCT TIMESTAMP 0xCE SWAP14 TIMESTAMP 0xC8 SWAP14 PUSH23 0x87D469625B18C59B883833298AF76480817907AF2294A7 DIV PUSH5 0x5153C86837 0x2F CALLDATACOPY 0xD1 MOD 0xC5 0xC4 0xBF 0xBA 0x4E 0x2F PUSH20 0x309D53390894A6B2338810DA3F0D103E33717F00 0xCA 0xDD 0xC1 ADDMOD ORIGIN CALLDATALOAD PUSH21 0xDE85C6887720561AD0C9946BC510BD3954AD4D2644 PUSH2 0xFB0D 0x2D 0xEA SUB 0xB8 ISZERO SWAP7 SWAP15 SHL 0x2B 0xBE 0xB9 SWAP6 0xD3 0xF PUSH24 0x4FA49411323D20EA4F4F1652161A104AD60C9B35EF38783A SWAP16 SWAP6 SHL 0xD9 PUSH10 0xE107846AFFC11754708B PUSH10 0x4168AB9922AE691ABDEA GAS 0xC8 CALL 0x2F SWAP1 LOG1 LOG1 SELFBALANCE 0xB5 0xAC PUSH4 0x88F4C3D 0xE3 0x2E DUP2 0xD3 DUP15 PUSH26 0xA93612D9F91286D17DC13DCABF49975E2A37743D997EBC56D11B PUSH18 0xC2E430890EB9FB7C7D3B1411153DB0712935 DUP13 SWAP15 0xBF 0xD8 BLOBHASH 0xD1 LOG1 0x2D 0xE7 SELFDESTRUCT CODECOPY 0xEC GASLIMIT DUP12 PUSH2 0x6A3E PUSH9 0x85BEE7114F7A0A98B9 SWAP7 PUSH9 0x1AFA7F3A7EA25FC6D9 CALLCODE 0xB4 DUP11 0xF7 0xC5 0xD8 0xC8 0xDB 0xD SSTORE DUP10 0x2B 0xB6 PREVRANDAO PUSH2 0x752F SWAP4 0x28 CODESIZE 0xA6 0xC 0xC9 0xAA DUP8 OR DELEGATECALL ADDRESS DUP15 PUSH1 0x74 SWAP10 PUSH12 0x7B71F077A1FD9D8353AF5C08 PUSH11 0xEBED16B70CA94104744857 0x2C SWAP5 PUSH27 0x8308B479F74524A74C384D926E4BE36E8068BC635DF610B06F989D REVERT SAR PREVRANDAO JUMPDEST PUSH13 0x4BBC386C1915D9C6775DF42FD0 BLOCKHASH DUP3 PUSH11 0x8A95DEB11561234BC8DBA2 0xEE BALANCE 0xAD JUMPDEST SAR 0xDD 0xB6 SWAP5 PUSH14 0xBF1F2D9A2F7D71BBB45D94D7F9FF SELFBALANCE 0xAF 0xE9 CALLDATASIZE SUB 0xB2 DUP6 GT 0xD0 SWAP8 XOR EXTCODECOPY 0xCE 0xB1 0x25 0xD 0xD0 0xD 0xD4 POP OR DUP10 0xB2 JUMPDEST 0xB5 SELFBALANCE 0xCF 0xE6 PUSH15 0xED09BEC1871C592D06D2E4ACC30F60 0xE5 0x4C SHL 0xEC SWAP5 TIMESTAMP 0xB8 0xAA PUSH17 0x137C37B798D2DD8DBEEEA514F7907B0803 PUSH26 0x5D11E86A5A9D3B03CBE3094E9468D3FB3C1A20738C08877269A PUSH10 0x147E1F79D21604DCFB2C 0xA7 GAS PREVRANDAO 0xE3 DUP11 0xA8 PUSH29 0xF8F3F56F639C8501D336F2E72A8748669520898E9F4EAB7B0F918E10B9 0xFC CALLDATALOAD LOG0 0x24 DELEGATECALL 0xD0 JUMPI DUP13 0xE CHAINID CHAINID EXTCODECOPY 0xBF CALLDATASIZE MOD MOD STATICCALL SELFBALANCE 0xAD 0xE4 MULMOD 0xB9 SWAP4 PUSH19 0xD699342F4C7E3C807A133EE3BE1C92422CF2F0 0xE5 BLOBHASH 0x21 CALLDATASIZE 0xE8 ISZERO MOD LT COINBASE EQ 0x2A 0xD7 PUSH30 0x8E80C9A778BC04E8A62E550908C55974693603D8670BF9205553BF7F22F3 LOG3 BYTE LOG3 0xF9 RETURN 0xC0 BLOCKHASH DIV DUP14 CALLCODE PUSH24 0x10A8E485049ABFABB71B51CBBD87126E83CF2403459743B0 0xCA DUP3 LOG0 DUP1 EQ ISZERO 0xEA AND SIGNEXTEND 0xAD SWAP14 ORIGIN PUSH9 0x88DB19EA8B86BBCFAC 0xB4 DUP11 0xC3 0xC4 SLT DIV SWAP2 0xB8 SWAP4 SWAP14 SMOD CREATE SMOD 0x4C PREVRANDAO 0x4E 0xE0 0x2F PUSH26 0x917F5DED067D7E0529B0437B71FE6355170E2BCF73774C5976AC 0xFB 0xC9 SWAP12 GT AND CODESIZE 0x4B GT SWAP4 SIGNEXTEND 0xCA PUSH2 0x87DA 0xC5 0xE6 PUSH3 0xBB9250 BASEFEE PUSH32 0x845244615CB6C1B8F74AAD86D9F900CEFF74EE731A9DFFEBC26096A1E6A7726 DUP1 0xF7 0x23 LOG0 PUSH24 0xE52B600CEFBEF77EB273EA0D5D2D7B18099B4832772B56C6 0xE8 0x22 0xDF SMOD SWAP5 0x22 PUSH32 0x9D7399BC220483CAA969A8892901B894DE900A1A20DA29328343CE7CEA1A1679 ADDRESS KECCAK256 ADD SWAP9 SGT KECCAK256 AND DUP15 DUP14 DUP15 SWAP3 OR JUMP CALLCODE 0xEC 0x22 0xD2 0x1F 0xD1 ADDRESS 0xD7 NOT 0xEC 0xEA 0xAE SHL NOT CALLDATALOAD 0x4B 0xAE GT DUP14 GAS 0xF9 TSTORE PUSH5 0x8CF620249C BLOCKHASH TSTORE PUSH24 0xC7743089D9D262E29860CAB3C292DEF4FFE42284C84A0058 XOR MOD AND DUP9 INVALID GASLIMIT SELFDESTRUCT CALLDATACOPY 0xD6 STATICCALL 0x24 0xB4 0xF9 SWAP6 DUP8 0xFC MCOPY SWAP11 SLT ADDMOD 0xB3 0xED DELEGATECALL 0xD0 PUSH1 0xD0 0xC 0xFC 0xF SWAP2 DUP12 PUSH20 0x9604150598B74B981255A70D772A67F23F51C342 SLT SWAP6 DUP12 GASLIMIT LOG0 CALLDATALOAD 0x25 CALLDATACOPY 0xC9 PUSH5 0xC421601B62 PUSH25 0x7E6EB7307B99A9D6EEFD0286F927FB25F22E7E9EAF951E3031 0xE CHAINID MOD 0xC2 0x28 0xE2 CREATE2 0xC3 0xDF RETURNDATACOPY 0xEA MUL GASLIMIT PUSH28 0xB4777AF8546FB61BB1434221D998840F5CAAB9C8ADA0B5A094DD9129 0xEE 0xA5 TIMESTAMP SHR SGT KECCAK256 0xAE PUSH27 0x666B56C960BE0DD4C1EDDC1DD1DEF16E2A0FFC68A449BE9D160B00 0xCA CALLDATALOAD MSIZE SWAP15 PUSH27 0xD7CD1AFDAE000CBC76DEA82AE0EB79A34FA9A3C73BD9F1ECA8731A 0xEA SWAP2 EXTCODECOPY 0xA7 0xD1 CODESIZE SWAP6 DUP11 ORIGIN 0xC0 SWAP13 SHR MSTORE SAR 0xF6 LOG2 0x28 SELFDESTRUCT PUSH9 0x9E68FDC639C1901196 DIV 0xC9 DUP11 XOR GASLIMIT DUP1 PUSH11 0x317AF901568EC8DC475939 ISZERO CALL SHL 0xD5 0xA5 DUP7 0xF SWAP4 POP 0xE CODECOPY CALLDATALOAD ISZERO KECCAK256 0xDA PUSH0 MULMOD MCOPY 0xC6 SSTORE PUSH32 0x54E0D5628FE9CF1A20D52C426C021F0968BCEFD07AC634D7E6E02D45EB6AFA85 0xD2 DUP12 ADDRESS PUSH32 0x5D2E3F2CD6D744FB441C0C5C153DF6045C88BDC5D09DFC813CF8546D7344C70D NOT 0x4F 0xCF 0xD2 SWAP16 SWAP3 DELEGATECALL 0xB6 SWAP7 SHR 0xA6 0xC6 DUP11 0xBB SELFBALANCE TSTORE LOG1 SELFBALANCE MCOPY 0xFC SGT STOP DUP6 TSTORE 0xB5 REVERT PUSH20 0x74A5B92B4F90F49952A05AAF92CA2BDA409F3445 0x27 0xE LOG3 0xA6 0xD1 0x28 0xB4 PUSH11 0x5CD5CB245B5339A66FDF81 0x4F 0x2B DUP4 DELEGATECALL 0xC1 0x23 0xD3 SDIV 0xA7 SHR CODECOPY DUP2 SMOD LOG0 BALANCE SELFBALANCE PUSH19 0xFCD210E0C1D3EA35D99444A378E1213A9E10E6 PUSH23 0x8DAF11FDBA29CB4C24BB0E770EB1D4E5C23D9A51A3CC86 0xC7 0xD4 SHL CALLDATALOAD BALANCE 0x2F 0xC5 0xC9 NUMBER 0xF9 PUSH6 0x5F0E7DA79E6 ISZERO 0xA6 OR SSTORE 0xED GASLIMIT 0x26 DUP10 0x2B TIMESTAMP 0xCE 0x1E DUP1 0xB5 0xB0 0x27 MSTORE8 PUSH28 0xF53F0B536D4BBC0B1EB2F81535A276E50897A2BAF3BBFD981468B91F 0xCC 0xFB 0xEC PUSH13 0xEC8BDC988F00235015D6CE1DB4 MSTORE8 MUL 0xF8 0xE2 DUP7 0xE9 PUSH15 0x26E4F64EF5534AB8A55A9FFE215F89 PUSH14 0x7AE7BFFD1315122998316A3BB389 0xBF LOG1 EQ PUSH14 0x940D7E2718EDB570F12CDCC57377 0xF8 0xCA 0x23 PUSH25 0x23F10E9F89B3F0A2C44497C8A7B705786220397DCE0083335 MUL PUSH27 0x9CE9839F60234A05BD730E143866824A0E9B7672ADAA64B679DFDD DUP7 0xC8 0xE5 0x4F 0xB2 0xDF DUP4 NUMBER DUP13 KECCAK256 0x2D 0x23 0xC1 0xA9 DUP8 0xDB PUSH27 0x304A2D504E5C4573592C119FCDA1CCFE5A07D5643C4A9C0633029B DIV 0xE1 0x4D 0xE5 CALLDATASIZE PUSH24 0xBF90DC7BADDE802E588FDCA2B9081BA20F4712E662C12ADB 0x26 EXTCODEHASH MCOPY 0x4F 0xD8 SWAP4 PUSH17 0x4C5F229914CD8F37BDC3F9409E61750785 MOD DIV CALLCODE CREATE2 SWAP14 CODECOPY 0xF 0xE6 0x21 0xC9 PUSH25 0xCECCC597C37B49B8742654A6D34F71CB32D1555E72C06004D MOD 0xF6 CREATE2 0xB2 ADD SHR AND DUP4 0xC0 SWAP11 MUL 0xF6 EXTCODESIZE CODESIZE SLOAD SWAP15 0xB9 PC GT PUSH0 ORIGIN PUSH16 0xDC2BF0AA81247ACFB1CC8554493F2643 STOP ADDRESS 0xFB DUP4 0xD3 DUP8 0xA9 SWAP1 0xD7 DUP6 RETURN DUP15 DELEGATECALL PUSH7 0x9B2FC53FF8EBC2 MSTORE8 PUSH17 0x9C8648232996F1247FE42D335F9252CF1 CREATE2 PUSH17 0x316AE986B553044B0C81E635F764AB9915 0xE1 SLT SWAP5 SGT DUP7 0xAF PUSH1 0x4C 0xBB SGT DUP15 INVALID DUP14 0xDA BASEFEE STOP PUSH1 0x75 DUP15 0x27 0x4B 0xDF POP 0x2D 0x2B 0xCF SWAP12 MSTORE LT 0xE3 OR SWAP9 0xB0 DUP11 0xDC MOD 0xAD 0xEC BLOBHASH PUSH14 0x6A730820969CFBF60AB07A2A8F7C 0xFC 0xFC CALLCODE MUL 0xD 0x4C 0xAC PUSH1 0xD1 0x27 INVALID STATICCALL INVALID MOD 0xC3 SWAP16 0x25 0xAF OR BASEFEE DUP5 DUP13 CALLDATACOPY 0xD1 0xEA 0xBB 0xD6 0xA8 BLOBBASEFEE SWAP11 PUSH20 0x5AFCE06A5922E8A80AF1BFC7EB5F213DBB816F4A 0xC8 PUSH27 0xA15AEF8541B1ABE3FB4D11D8B0B082989A0FFF41AD9BDB2C1E41CB 0xE3 BASEFEE 0xA7 RETURN 0xD5 0xE2 BLOCKHASH DUP14 NOT 0xB2 PUSH9 0x17183D1F6D3B51F27A SWAP2 MSTORE PUSH21 0xEFD9598FF18A1568510B7BB366F4387EEA8FD2B20F 0xDD SWAP6 0xFB PUSH11 0x612958B5C25262C32AB3EE 0xD7 TLOAD ADDMOD MSTORE SGT CALLDATASIZE 0xBD 0xDF COINBASE SSTORE PUSH12 0x79CEE9B90B0C1CB4D36245C2 GAS PUSH32 0x8B248567FB4248313D2D0893B893B14EAF3AED6820AE987B88DA0CBA5DAD3C5B 0x26 PUSH29 0x9012405514767B01540A25E982AE7E1C98D06B14CC56241AB9B0954344 MULMOD JUMPI 0xBF 0xBE 0xB9 0xC3 DUP5 0xA7 0x4B PUSH6 0x1744FC2B7CA4 0xE1 SWAP11 GASLIMIT SUB 0x1F 0xC8 CODESIZE 0xED 0xB3 DUP1 MSIZE PUSH5 0xD6533A4A55 DUP4 0xAC JUMPI 0xD9 0xA9 0xF6 0xE6 0xDA PUSH6 0x1230A42B5AA8 0x21 PUSH9 0x743E9817923EA3EBD1 0xD3 0xA5 MCOPY CALL 0xBD SWAP2 0xA8 SWAP15 0xAC 0xC5 JUMP PUSH4 0xA0264016 PUSH20 0xE455967762F96F57B413424631198E09E7BB1BB0 PUSH9 0x44068FE44F307A8D59 MOD SAR SWAP13 JUMPDEST 0x1F CALLDATACOPY PUSH27 0xDC54722CCAF3601332EBC07660FEC4D89B5C8213031F0AA8B72E92 0xF8 SWAP12 PUSH12 0xD8472EF679FA5D617805180E PUSH15 0x605423CAC37FC15F281939770A72D EXTCODECOPY SWAP8 PUSH25 0xD5CB3AB0BFE4B296E2ED90ED19619B8B353C1043B40E03B568 LOG0 BLOBHASH LOG4 OR 0x27 PUSH13 0xB455CC5D461DB37B0B4F6B34F1 0xBB TIMESTAMP SWAP11 PUSH23 0x968726205617095E1D39B92D09DAE1C6D2E4114C5439C8 SHL 0xAA 0x28 MSIZE 0x4C 0xC0 0xAB PUSH23 0xE7F32C25C4F780C9E9D6E46A5A0A23D3BEDFE1B14BFF3E 0xEC CALLDATASIZE BLOBHASH 0x2B 0xB9 ORIGIN SWAP16 JUMP 0xDD 0xBF PUSH32 0x5E1F122838E96DCFE98C4613A1149CF273A308C777146D7F4BE2160AAC12980D SWAP8 PUSH7 0x1FAD18CF682B7C MCOPY 0x24 0x2B PUSH21 0xAAA132494D280CA444D5D2A99CD2BD426FF82D443E 0x2B PREVRANDAO 0xB8 PREVRANDAO OR CALLER 0xBD GASLIMIT 0xD 0x29 0xB8 BLOCKHASH GASPRICE CODESIZE NUMBER 0xD4 0xA7 PUSH28 0x6C70539D8965E57AF369D6F32FEAB13450F3FA985AED18142569F4EF ADDMOD 0xC2 LOG1 SWAP5 PUSH30 0xCB6E99B5AC52CDD5876C50F02BD6AFD62FC810A755110F47BD52A43C690F PUSH6 0x8374E9F7C2BC TIMESTAMP DUP6 0xC6 COINBASE 0xC7 GT PUSH11 0x4CCD2C94F684CBEB7F2A17 LOG2 SWAP16 AND 0xB6 CHAINID 0xEB 0xE9 0x4C 0x4B 0x2E 0x2C 0x4B 0xC3 PUSH22 0xCD7B002111DD55C4D212E9360CEC88C18810416D05EE 0x2E 0xED CALLVALUE AND GAS POP 0xF6 PUSH5 0x8EB3E10F77 0x24 PUSH32 0x711398A14FC77BD5711FC0FA046641EE77BF1C3C58B848252DA5A88038A20AB2 0x2B SMOD 0x23 0xC3 PUSH30 0xE4753F40A110B404C68B3D094B4CC491C55531F7BA1BBAE0B554816F0C8B 0xC3 MULMOD SWAP1 PUSH2 0xC830 SWAP10 0xF6 INVALID 0xE CALLDATASIZE PUSH2 0xA824 CREATE2 0xE4 BLOCKHASH 0xEA DELEGATECALL CODECOPY CODECOPY TLOAD LT SELFBALANCE PUSH22 0x4EC3E22F44A0F81D73A4DAE283CBDF1A0F7226BCC9AE 0xD3 BASEFEE JUMPI 0x29 PUSH13 0xE6DD82B82F1D086AC24D3B9E51 0xEC EXTCODECOPY PUSH23 0x7A89E0E0D10FDEE6A4513D6EC8F9E2D416C8B87B0C1DEA 0xF6 PUSH8 0x2EF14B11F42F975 BLOBBASEFEE 0xE6 DUP9 0xC2 KECCAK256 ISZERO 0x1E PUSH31 0x27C0331111BF9346DB0F4A36D000AC49D03C561A45E23383A0B61D2717CF33 0x1E 0xDB NUMBER LOG2 0x27 0xBE 0x4C 0xC3 0xAE 0x2D 0xD0 SWAP10 SWAP15 SMOD MSIZE GASPRICE SWAP6 0xE6 0x2C 0xB1 PUSH17 0xD4E11787CA9032A411B76E488A5EB5703A PUSH4 0xE3C43341 0xCD GT GT COINBASE 0xC3 CALLDATALOAD RETURNDATASIZE PUSH13 0x634422E63A8EE3A948E62AAA17 0xBE MSTORE8 NOT LOG2 0xC4 0xB8 ISZERO SWAP8 0xC8 PUSH27 0x78DD744742127D8F4C942E30A6884A7C40C05A1CEB38F341D5107F BALANCE ADDRESS DUP16 CODECOPY DUP6 0xD7 0x27 SMOD 0xEE 0x4C 0xC4 POP 0xAE 0xB7 SWAP12 BALANCE 0x22 0xD1 DUP11 0xB3 0xA8 GT 0xCA ORIGIN 0x26 0xDB 0xF8 SWAP9 PUSH12 0xE11183F7BD4BCFC17DB4B68F 0xE9 0xA9 0x2C 0xC4 SWAP3 0x1F 0xE1 PUSH27 0xA0352F5778718601A871C9A11AC0EAC37ADF26C0E380D9E4D4D4C1 PREVRANDAO SHL 0xCD MSTORE NUMBER DUP4 ORIGIN RETURN 0xEC SHL 0xCE 0x2C SAR 0xBD 0xA7 0xCE DUP9 TIMESTAMP PC 0xEC 0xBF 0x26 0xF6 0xE4 STOP 0x29 0xD7 PUSH17 0xEBBE895AC8CE51007D38939C48CF3ED307 LT SWAP13 0xE5 0x25 DUP1 TIMESTAMP 0xB8 SWAP11 PUSH31 0x1969E498B5039080EA3912E326B5ED2CB2C484F1C8732AAD746945530CBB65 SWAP6 0xE6 DELEGATECALL SUB DUP14 DUP10 0xE1 0xE0 0xC0 0xF9 PUSH25 0x532EC02E5E12BC9115174A6901576CFA7DF9B87F6B6685EAEB 0xB7 0xAB DUP5 0xD9 0xE SUB PUSH16 0x352B9A3F32EDC2D8FAD897F60A7ED0F5 SWAP1 PUSH27 0xA3135577A8BD38C02250CE339B3E500000A8C0BC4DBCB58FAE3E14 0xB8 0xA5 MSTORE DUP13 CODECOPY PUSH31 0xE0565C1D305C4679583C7A2273A4263FD7C0E4C0C3CD1593D70F1645829FDD 0xD2 0x2D EXTCODESIZE 0x28 INVALID PUSH1 0x8E 0xBA PUSH3 0x2B2DD6 PUSH30 0xC8282192DA3762413BA678AB7F0908DFFA0610AC0133C5F7BDFE3469934C PUSH25 0xBCB4177D2C1FC618BBAC6C2EDE6A05C83EE4F9CA0F735C449B BALANCE 0xEB 0xAF PUSH1 0xE1 DUP5 DUP9 EXP PUSH29 0xE6053DBE5C6ABF673B02BC2213ECF7B788D4FAB17371A424493BB49447 DUP6 TLOAD 0xFB COINBASE GASPRICE CALL BALANCE 0xDE MSTORE 0xBD PUSH22 0xA50B706D0602AFC4587FBCBE9DA6DAF807C3EFC632BB DUP16 0xBC DUP11 EXTCODECOPY 0xCA 0xDA 0xF7 EXTCODESIZE DUP3 PUSH22 0x42745FA828BD99E6AE097936294DB584BB7EEFA8DD7B PUSH4 0x144064F7 GT BLOCKHASH COINBASE 0xA8 DUP15 PUSH10 0xD6E9C6053751EF135A8F PUSH6 0x49527E22BFC0 PC EXP MUL 0xA7 0xDD PUSH19 0xE9EB6B6A6E73B3F6EC2690251C32A5E4B55B02 0x2F SWAP13 0xC7 EXTCODEHASH 0xD5 DUP6 TIMESTAMP BLOBBASEFEE INVALID 0xDC 0xD1 SELFDESTRUCT 0xBF PUSH31 0x46D2A8E3A86B52A937A6291ABFF8FFDE1DE3ADD8B76C0A6F372E2B921D601C PUSH0 BALANCE 0x28 0xE5 DUP6 OR MOD 0xEB PUSH1 0xAE PUSH28 0x28152769798BC48F6622FDC54EC7EFBE576BC6B263ADE79359DB0DB9 DUP15 0xE5 PUSH30 0x465D202FC4613D2F1988D409FCE47FB6BF1ADBA6A9E18B97AAE41F82DAD5 PUSH4 0x2FDB9F1C SWAP14 PUSH6 0x765D702A6D24 0xEF 0xE2 MLOAD DUP4 PUSH15 0x629FFC2881D0C218E89CC6467CACEC PUSH28 0x1CF70B0CB3219A1C4F34EF384B4B972C7B045C4B931FD84B41AD6198 CALLDATASIZE 0xB6 0xD3 SIGNEXTEND STOP 0xCD 0x2D PUSH26 0xB8879E27E7000430ADCD96D6F7C67FCF386A473752668E64C09B 0x2F DUP1 LT LOG3 DIV PUSH22 0xCFBF8A76A0346F7DF43A3EBA83F47F139060103130B1 LOG4 DUP5 0xE7 DUP2 CHAINID 0x23 0xD8 SLOAD SGT 0xBE PUSH12 0x6D4CA7746460F0466A5068D5 0x4D 0xC9 CALLDATACOPY DUP15 0xC2 0xE4 PUSH13 0xDA7D08DEB8A254260E2701EDCD PUSH29 0xEDEAAE1C11DE85B2FD1E5DAB42FA36E547682937FF684364921B513F1F JUMPI EXP 0x24 0xF 0xD0 SWAP13 0xBC PUSH16 0xDD1FFB9183668427B376483F723438DE 0xE5 0xCC GAS PUSH15 0xB961A12EADF23A07B9FEFD2E17EE0D PUSH21 0xDB1EF80CAA7745B9C9F7685FEC9B02E5EBB13B2F66 DUP10 MSTORE8 0xCF SWAP2 INVALID INVALID SIGNEXTEND PREVRANDAO 0x1F CREATE PUSH27 0x2F2938F468BC7EFD380BEF43A030E5FDC41A71118EAC608EF4B794 0xEF 0xE0 GASPRICE 0x23 0xDD SUB 0x4F SGT ISZERO PUSH13 0x2F2762E6E8772B11C7DCF8DDF RETURN 0x2B SWAP5 0x2A PUSH5 0x4366C746C LT 0xE3 MOD PUSH0 0x1F PUSH26 0x32E240446C85C3F8EE5AAB85B7727506FB03F113EB05DAC7306C PUSH22 0x8FB6565545232934CFE1A99A5FC63945A4B6D1A652D0 0x2A PUSH14 0x353D3BAFAC324754FE1A00D57E7F MUL 0xD 0xBE LOG1 PUSH19 0x31F87D83307BF940E6D6761E7913C116465BFC RETURN PUSH8 0xAA331571C24CCED6 LOG4 SWAP10 0x2E CODECOPY 0xEA SWAP13 BASEFEE 0x2F 0xC5 PUSH4 0x83625971 NOT GT SGT DUP1 STATICCALL REVERT SWAP16 ADDMOD PUSH25 0x3DD2497D64685AABB25F5ACB60204FD378E0FB0E6DA0DA22B4 MCOPY ISZERO 0x2C 0xD7 0xC4 SMOD BLOCKHASH 0xEE INVALID 0x2D EXTCODEHASH 0xEC SMOD 0xEA BALANCE DUP8 0x24 ADD 0xEC 0xBD 0xB7 PUSH3 0xCACE9E SWAP3 0xE7 0xCB 0xE3 0x4E GT SWAP3 0xD3 SWAP12 SWAP11 PUSH1 0x3B 0xBA AND 0xD 0xA8 0xF 0xDA DIV PUSH10 0xB41C2255AC4D0A46402A 0x28 PREVRANDAO 0x22 PUSH0 REVERT 0x25 CODECOPY 0x2F CHAINID PUSH6 0x8280CE7B17E4 0xE 0xEF 0xB5 0x29 PUSH8 0x3A2B3D8F6E25757E SWAP11 PREVRANDAO MCOPY PREVRANDAO 0xC7 0xA7 EQ SWAP12 0xEC 0xE4 ADD 0xDE PUSH21 0x823933559559239322E9363220D322CEA2DDBA2F6D JUMP LT INVALID DUP9 CODESIZE DUP6 SWAP9 PUSH14 0x15C53CFDDB0F8BCCEDAEE3A4492F 0x2A 0xC1 0xBE SSTORE 0xD6 CREATE 0xB2 CALL 0xE7 0xAF PUSH0 0x4C 0xAF CALL ADD PUSH24 0x904F2BA1A14949B45D15D45E07B4B3C206ED751F86B5F37D PUSH17 0xA24A4D8A7DC389AAF71839769F1F11E180 PUSH4 0xE3BC10C4 SWAP1 0xBC SLOAD PUSH14 0x8B35242A93EC4D6B61CACEE4F1D4 0xB0 XOR STOP 0xF7 0xC3 SGT PUSH31 0xBC9AC731F7B4D6375C01A874F29000C1B3F4727B65C77A2D51051BFCDECE5C PUSH3 0x826292 0xCA LOG2 0xDA PUSH15 0xC16B9974D2EB7FD3C2C20D1863DB12 0xEF EQ BLOCKHASH 0xBE MULMOD 0xC6 SWAP7 0xE6 MOD PUSH32 0xA41AD890EE8388C0290186E494CBC202E7667D19B56353CECE99092B1D93EED7 0xD2 PUSH5 0x56F285906A LOG1 SWAP7 SDIV SWAP15 0xBB 0xBC ISZERO PUSH32 0xBDE72B8ACAB6BE8EFCE28D2FAFE0589F5C826F419B1EC3AC176A42C52360E7B3 0xED 0xF9 0xC 0xD4 0xC7 PUSH29 0x915E47EF06282D48BD742D9E20A5B8DC88ABA0744A9124930CC1CC7D69 0x2D 0xEC 0xC7 CREATE 0xEE DUP11 DUP7 0xD5 MOD DELEGATECALL 0x2F PUSH21 0x816D65E974086055ADE94FF76A6FE5D14BD64A069B DUP10 0xB8 PUSH8 0x989D12C815B57541 CODESIZE PUSH21 0xCB060ADC4FBDE9DA6215B08BD3C72B9F817BD4E227 0xB8 XOR 0xF7 MUL CALLDATALOAD 0x22 MSTORE PUSH6 0xCACA14DCCB26 0x2C NUMBER 0x23 0xD 0xEF LOG4 0x4D PUSH26 0xEFBF96195B8852817B9C2A1A0CEE7B065A720651F4D30A03B234 GASLIMIT 0xD5 DUP9 0xA6 JUMPI 0xEC DUP2 DUP9 SHL CODESIZE 0xA6 0xCA PUSH29 0x96AE7D30A228EDA72F8F278929640191DE8B4C95A163F7B35D9FC5F38D 0xD1 EQ SWAP10 0xE2 RETURN CREATE BASEFEE 0x4F 0xEE 0x4D 0x4E 0x2E PUSH8 0xE80ED738C79C531B 0xB0 CALLVALUE 0xD0 0xE3 0xF7 PUSH17 0x3AE1CD93D0334F8CCE0E6FD7BBEEB9CD1A 0x4B LOG1 PUSH9 0x24F4DF329914BAF49F 0xE4 0xAE 0x2E MLOAD DUP14 DUP6 0xCD DUP9 0xBC 0x2A 0x4D PUSH22 0x11486305611AA901D1333F199A38FC9C772C5B6DDE72 0xD9 0xD9 0xEF SWAP1 0xDB 0xE2 0xA7 SELFDESTRUCT KECCAK256 0xCB SWAP7 DUP6 0xC2 0xB3 0xE 0xF8 0xC MOD PUSH10 0x95DA220811544BD79B86 PUSH30 0x6A45C5F9D5F81246EE7BD867BAE77CE1F1A5FD1347A12AC6258EA35211B6 0xBA BYTE DUP7 DUP4 NOT ISZERO DUP5 RETURNDATASIZE DUP9 DUP10 PUSH15 0x58F458F0D5765917C35E035FED90D0 PUSH3 0x19D345 0xC5 0xEC PUSH30 0x3A0AE95883CEDE928ACB380F8EF8B4B6859EF9652ABCBB767E6E79B2DD22 0xE5 SWAP8 DUP15 0xED RETURNDATACOPY 0xDD PUSH6 0xFC15F583B875 0xD1 0x4E 0x2D 0xC2 CALLCODE LOG0 0xD8 SLOAD EXTCODECOPY 0x29 SWAP2 0xE9 0xE9 0xD1 0x21 0x4B CALLCODE 0xBC DUP1 KECCAK256 0xC1 0xC1 DUP14 DUP7 SHL DUP16 0xB8 DUP3 SWAP11 0xF6 PUSH1 0xA7 0xDF 0xD3 POP ORIGIN SLT JUMP PUSH24 0x5CA613561A0B30E623640FA05D8A5F9540530EC9270D46C5 0xF6 PUSH1 0x76 SWAP1 0xC9 RETURNDATACOPY PUSH15 0x82655D295A4D3659BD1A055DD3F4BB PUSH3 0x6752A2 0xD0 PUSH8 0x59CDBBCD1BC79B83 ADDMOD PUSH7 0x49D106E50FF647 0xB8 0xFB 0x27 SWAP12 DUP15 0xC3 ADD BASEFEE PUSH27 0x755B63B15410D9583977381E2060E794DDE87459217E540739DD85 BYTE 0x21 0xE6 0xD PUSH8 0x1A6DBA94845F4248 PUSH29 0x32EC098A9C4C0C198198431B389BD1A4D6C9F88D6FBB6BEB8C25A7F861 MLOAD 0xDA ADDRESS BASEFEE 0xFB 0x29 0xCE POP PUSH1 0x76 RETURN 0xB7 CALLER SWAP8 ADD 0xF6 0xD 0xDB 0xCD 0xE5 0x29 CALLCODE 0xAD 0xCD 0xEB 0xD2 0xBF MUL SWAP5 0xC BYTE SWAP11 CALLDATACOPY DUP15 DIV DUP9 0xC2 SWAP11 EXP 0xC3 DUP11 OR 0xA9 GT DUP12 0xC5 AND TLOAD 0xEA 0x4C CALLER PUSH2 0xC2B7 0xED 0xC4 DUP6 0xFB SWAP1 0xF7 DUP9 0xD1 0xB4 0xEC CALLCODE BLOBHASH 0xB3 DUP8 ADD 0xCE 0x1E CREATE SELFBALANCE KECCAK256 SUB 0xD9 0xDB 0xA7 SIGNEXTEND 0xCB 0xBC 0x1E SSTORE SWAP10 0xB6 SGT DUP1 STATICCALL 0xE8 0xAA PUSH29 0x48F7DC2C543713FFC9A72A801E1A77F9F37C810CF8A31E0BB5EB4CDB46 CALLCODE 0xFC PUSH0 0xCA SWAP8 SGT GASPRICE 0xD0 GASPRICE 0xB9 0xCF MSTORE8 DUP9 EXTCODESIZE 0x27 EXP ADD 0x26 0xC PUSH29 0x534A0E20CD40E05E747FB3BDC07B3CFC50B3CEAC18F059EF4F65565F44 PUSH19 0x8335FB828DF7CB07583A984136302CD3BAF3B RETURNDATASIZE SWAP16 SWAP2 PUSH24 0xEF97F584B0DAAB7F0493D2577326D35E5C2E4F1092A13399 XOR 0xCB 0xDB 0xFC 0xB5 0xB1 0xDD 0xA8 0x2C BALANCE DUP2 SUB BLOCKHASH SAR BLOBBASEFEE SWAP15 DUP16 0xC3 0x21 DUP2 MSIZE MULMOD 0xDA 0xF6 SIGNEXTEND 0xCB ORIGIN 0xE3 PUSH17 0x20E105D8B9BC3AA31900CD3459046AB97E 0xB2 0x28 PUSH8 0x5846B691268DB848 0xB4 0x2B 0xE0 0xE8 0xD9 PUSH16 0x73D79C16DF5175B29D4C3E0351A24EE1 SUB 0xD2 0xCF 0xE7 0xC2 DUP4 0x1E 0x4E 0xDC 0x4D PUSH28 0xB561C29AAFC6662191BCAE8AEBD4D5113E331B9B537F4FA85989052D EXTCODECOPY CODECOPY 0xA9 CODECOPY SSTORE 0x4F 0x2B SWAP15 PUSH3 0x30E96A PUSH25 0xC24BE4D942154F765E6D4AF53A8C4DB9407A188B721B564DAF SWAP15 0xBF CALLER LOG1 CHAINID 0xBC 0xCE 0xA5 0x2C 0xBB 0xCD 0xCB 0xFB POP PUSH21 0xE921F91F7E5672E5E7C2E59D3453F983DFF90E45F SWAP2 PUSH29 0xD74501A646319FD22C952F3152B077D56558401F0BF595DB464070AB32 SSTORE EXTCODESIZE MULMOD PUSH0 PREVRANDAO 0x21 MSTORE 0x4C KECCAK256 JUMP DUP14 0xF7 0xAC DUP1 GASPRICE RETURNDATASIZE 0x29 SWAP12 RETURNDATASIZE 0xAB JUMP DUP14 SIGNEXTEND PUSH9 0xD795EB7B68B11C333B CODESIZE BYTE 0x28 CODESIZE 0xBD SWAP4 SWAP9 INVALID CALLDATACOPY 0x1F ADDMOD 0xD4 DUP16 0x2D 0xED 0x24 0xE6 0xE MUL PUSH6 0x4F18B33A4CD6 0xEE 0xB8 PUSH12 0x9FAFE856F33753CA1CC6756D 0xC4 0xF8 NUMBER 0xE0 ADDRESS CODECOPY 0xDF 0xDE DUP8 SWAP11 PUSH23 0xB715E0EE169AFA10D37A8062AECE61391764FFC6D4DC6D 0xDC 0xB5 PUSH16 0x35880BB13C705625C616A97B05678348 0xCE SAR MSTORE PUSH18 0x8BB1D8521CFF5A3D2CE5B37F7C190DC47862 0x28 0x26 LOG0 DUP9 0x2F BLOBHASH 0xD8 0xC0 REVERT EXTCODESIZE 0xE1 0x24 0xEF PUSH22 0xA7A107778FF66B5BE2B66C0B64C2084809EDE3070DBC PUSH31 0x5DE51FF90466AE52B47A293B4CFF6F0CB064B6DDE4E00650A68B154129426F 0xAA SWAP11 0x23 PUSH31 0x4BF88EB59B094786CF49A96FDC54CF6C819E1B67E2B0D687070F1BD148D0B2 STATICCALL DELEGATECALL PUSH7 0x59E6DB194BFDD5 0xD0 CALLDATACOPY 0xAE LOG0 PUSH1 0x73 PUSH26 0x52BC30026F8547737D1D861F4C7A0C0E5C99CD91E2869215DBDE PUSH13 0x4FFFE1AD1D8744F257ABA5B503 0xCB STOP BLOBBASEFEE 0xCE PUSH12 0xE69932572926930019040107 0xCA CODESIZE KECCAK256 PUSH31 0xCA80735D5DE083CD596395EE154D83576E1821B8ECB4F1931AD7721CCE29BC OR 0xFC 0x23 PUSH26 0x74322E248ADA7C23F92FE852EBA0F03F71CDFC34E6193561D342 ADDRESS DUP8 0xAA 0xAC PUSH5 0x3A9EDFE25F LOG2 0xD7 RETURN 0x26 EXTCODECOPY EXP 0xDA TSTORE PUSH6 0x53E357275B59 CALLDATALOAD PUSH32 0xC2213E1FAF714A22EEE3D5D3D502838FCDE32E542E73F204BAF6916A3AF968DB TIMESTAMP ADDRESS NOT CREATE2 PC 0xA8 PUSH29 0x104C514BD8F164D03D3DEBA7E81D29D896AAE409CAD919A995CC8717B7 LOG0 PUSH25 0xC623BD3AF80C056DC1716D04353903644E9C312415BD756683 PUSH10 0x7EB1BA4FEA32C710D0F0 SLT SWAP11 0xE7 JUMP SWAP9 0x4B MSTORE PUSH2 0x1993 0x25 GAS MULMOD SLT AND PUSH27 0xC123D1A2C9B10380A309D7F3B067B628E9DA5085D98B90B0CD852D SLOAD 0xCF 0x1E 0x29 PUSH18 0xB4C37D511FBD55CA08E2B56EE7FB91386192 SSTORE PUSH0 OR JUMPI 0xDD 0xE4 PC PUSH1 0x1C 0xE2 DUP8 0xC5 0xE5 0xB6 GT SELFDESTRUCT PUSH0 0xB5 DUP8 MLOAD 0xB3 0xEB DUP4 CALLDATALOAD 0xA8 0xB5 0xCD 0xE2 REVERT 0x28 PUSH20 0x522CEA0E9BF6F5C5560CA0091A58EE20042AC022 CALLDATACOPY 0xBF ADD DUP5 CODESIZE DUP7 0xE4 NUMBER SWAP14 DUP6 SWAP11 PUSH25 0x5362913C0CEAD1E4691F47E5AC7EC132D0C7136A9487FB0C6C CALLCODE SWAP3 0xB0 PUSH31 0x5515EB2AE942D4AAEF2DFC7F29B08F57557514CDEAC066D9EEA594A5C5388E DUP16 LT PUSH5 0xDCF19FE4BE AND 0xD5 PUSH28 0xD410F27F0132545E917CC90595E93C252A720B8D24B70BCFA0DE03A PUSH14 0x3F5D50EF840404810250839299F6 0xB7 SWAP5 0xC6 0xE9 CREATE DIV ORIGIN 0xB6 0xD PUSH29 0xA2DC6D754029CFAC5B964F09AA0ACA49DB30DA75F002BFB2EE498AC70A JUMPDEST 0xF SWAP9 0x24 GAS SHR 0x2E 0xE6 0xDA DUP13 0xD 0xD3 0xC5 SWAP13 MUL SMOD ADDRESS 0x23 SHR 0xD0 MSTORE8 0xA7 PUSH25 0x3A3AB43400F056F622B99507F09E1E16377E2D02C0C39FAAE9 AND 0x4F SHL PUSH15 0xB4908F591B45BC4D4385A161CF46BC SHL 0x28 PUSH20 0x69A5EECDFCFD140B62E0188576C886EECBE7191A PUSH21 0x6798F0FB4BFA0C7182C135EF595EF570294F7AEC7 SGT SWAP7 0xE7 0xB2 DUP11 0xB6 PUSH27 0xCCF1C37DE37EBC942BED502F53651A61FC62A1DCFC29D1CE5E11AA 0x2D 0xD7 0xE1 PUSH6 0x9029917E203C 0xC8 AND 0xAB 0xC5 CALLER 0xDC 0xA9 NUMBER PUSH7 0x4BFE41E3D298AB 0xF6 0x4D 0xC3 0xD SIGNEXTEND 0xD1 0xEC EXTCODECOPY LOG0 ORIGIN 0xB7 0xD2 PUSH28 0x8BF71A2E76CCD0C4A313642B6AAD073167B8B133CE76790A7414FCD2 SWAP13 0x4F BALANCE 0xDF PUSH31 0x37573A174B7C889DD737F94B684A8B25D8972355897802E3D9093C471054EB INVALID OR 0xAB DUP2 0xC9 0xB7 0xC3 0xBA SWAP7 SWAP2 PUSH10 0x3FE99C34802330498B1E 0xD8 REVERT 0x26 MUL 0xA9 0xD7 ADDMOD MSIZE 0x29 ADDRESS SHR MLOAD 0x21 STOP SWAP15 0x4B SWAP2 DUP8 LOG0 PUSH13 0x767EF9ACEAB2202D20926E03C1 0xEF ADD 0xE3 DUP7 0x2F SWAP2 CALLCODE 0xE8 PUSH9 0xC1E148E0F7DC729798 SWAP13 CALLDATALOAD 0x2C 0xD6 0xE5 PUSH9 0x79888E7E21C0948F52 0x29 SMOD SSTORE TIMESTAMP 0x29 0x2F CREATE2 0xD8 DELEGATECALL 0xD6 0xBF MUL 0xB2 PUSH31 0x289F82BC3934EC7BCF5D4CE5D7AA9DBF2F5F11EA16238AA5D188EBA8553B6E LOG4 0xAF 0x29 0xCA CALLDATACOPY KECCAK256 0x1F SHL SWAP13 SWAP12 0xF7 0xBA PREVRANDAO 0xF7 DUP3 PUSH5 0xAADABD0504 MOD DUP13 SWAP13 PUSH17 0x63A776872824E1AB4B34178621279772CA ADDMOD SWAP13 JUMPDEST 0xA6 0xD7 0xD4 0xC0 0xD4 CREATE2 MULMOD PUSH29 0xD8ECCB72C01DC41C17197A0F4216CA4A0D3A476DF762E4B3D4F87C8FF9 0x26 0x2C 0xE6 0xD1 0xE2 0xF8 0xC9 XOR JUMPDEST 0xD8 PUSH1 0xB2 0xB0 0x21 0xB4 0x4D 0xB3 PUSH18 0x3B420599D990195F8FE82DFACA2FC9305BC5 COINBASE LOG0 CHAINID GASLIMIT 0xFB PUSH16 0x733B27D7950A233599CED31AD97E8D32 SWAP8 MULMOD 0x4D 0xBA BLOBBASEFEE 0xBD PUSH16 0x295BE8A9589AC33D6F04A426390F6E6C 0xD7 EXP 0xEC 0x28 SWAP11 PUSH14 0x1EF3264C887280AD42A8103C52BB 0x27 ADDMOD 0xE2 0xA6 SWAP2 PUSH31 0xFB3FD9145BD1729C2C9FA67F01ABA05AB47C56441CDF0816A0B76CABC81CC9 0xF6 0xBA 0xE4 0xDE PUSH4 0x668F12AE PUSH7 0x9284B5AECA54BE PUSH8 0x80354B726E0A7BFF 0x23 DUP13 0xB5 0xCB 0x4C 0x21 PUSH16 0xCF0F507F40D3679C0ACBAEF83DD4B5B0 0xDB 0x2A SWAP15 MSTORE 0xC3 0xA6 DIV DUP16 OR 0xC7 SWAP13 BLOBBASEFEE PUSH27 0xBAFDFF1D3F955B5DA5E0816D44F817B705F484C771F1BAC2942897 EXTCODESIZE ADDRESS DUP8 0x4C SLT CALLDATASIZE OR PUSH27 0xDC709F0A6B2D32745835162F5ED9CE69F36F156031E40B2E26C32A 0xDD 0xC2 0xCE 0xB2 SWAP8 PUSH5 0x8D3FC271A5 BASEFEE 0xB9 0xBF PUSH25 0x8BFF4B2023CAB820C4A4EE8F201BBB92DCD070B78863668016 0xC2 COINBASE PUSH1 0xC2 0xC0 MSTORE8 0xDA 0xDB 0x24 STOP BYTE DELEGATECALL DIV 0x2A 0x1E MLOAD 0x24 PUSH1 0x33 SMOD POP PUSH22 0x5DD11A39D879137103F9972AD0F6D79EA24CC16610E SHR SWAP14 0xD1 SWAP9 0x4C 0xDA DUP8 0x1F DUP10 OR SUB 0xA5 PUSH8 0x6DB0633371ECA0AB 0xAC RETURN 0xD EXTCODEHASH NUMBER SGT 0xFC DUP1 PUSH32 0xBD98D613BEF1B3854B16CBD386E41F6C4A173A1312F68148CBB308289A209C21 EXTCODEHASH 0xA5 SAR 0xBC BALANCE DUP8 0x4F 0xE1 0xEE 0x1E TLOAD DUP1 SELFBALANCE 0xA5 0xC0 0xC0 EQ 0xF7 STOP 0xE 0xA5 0xD3 0xCA CALLER CALLER MOD 0xAD 0xEF JUMPI SSTORE 0xEF SELFDESTRUCT PUSH20 0x5059BC055BED75D71FBB39800B056717D62E7631 TLOAD 0x4D RETURNDATACOPY SDIV XOR MCOPY PUSH31 0xE2ECE00ADEFBA77BD5B1F4D7BB23FDE2D94AD2036E9A94304BC121F6C1845A SGT 0x27 0xD8 SWAP11 PUSH16 0x55BB9CA81EB91E07CD0F43871C3AC1F1 0xE3 PUSH28 0xD2755613ED7B3A3EC11A3EB8FFF749AB22F92446F62F85152339E3E3 PUSH20 0xC4E4AD9B657F5E665676790CA0BF8E005767AEDD TIMESTAMP PUSH10 0xD107D4F11E6B4BC7A2E4 0x21 PUSH29 0x1C3CC2E298E450D010FD622C47E2CD7880E64B2E6B2E6FDF28958CA1AE PUSH6 0x967871544BD1 0xAF 0xD7 SHR MOD 0xB4 0xB3 SWAP4 XOR 0xD5 LOG0 PUSH23 0x91A1266627AD1B40F0CEB66234377758D63F8C56E66C0 0xAF PUSH5 0x4EAD06B4E9 DUP8 0xBD 0xE9 JUMPI CHAINID PUSH31 0x75938F14040E31FE264D2CC1F55A3FCE3CE86A68196D2A06336102C14D0CC8 SWAP3 0xFC DUP8 SAR PUSH16 0x4219B29228092E58A02047D8DEBF48BA EQ TIMESTAMP 0xEA CODESIZE 0xAC 0xEB DUP3 PUSH1 0x5E DUP12 STATICCALL PUSH21 0x60C49AF4960E0528AE6D904BB6C6379FEF10CB1D1B 0xC6 0xE8 PUSH8 0x54ACF978041CE99 0xBE 0xCE 0xFB 0x21 SWAP4 0x22 0xEF LOG1 TLOAD 0x26 LOG1 COINBASE PUSH17 0x452119318CB1073B15B978FD05C40A5001 JUMP 0xE 0xDF 0x21 0xDF BLOBBASEFEE 0xAC 0x2A 0xEE 0xA5 0x2C CALLER SWAP9 PUSH13 0x164976C52DFB73B8524B9E1265 0xC 0xC2 0xE6 PUSH2 0x4EB1 0xEF 0xD1 0xD3 SGT 0x4F PC 0x25 0xCA ADDMOD DUP3 SIGNEXTEND LOG2 LOG3 DUP14 0xCD 0x25 PUSH2 0x640A 0xE9 SWAP4 MCOPY DELEGATECALL PUSH28 0x5DA8A801641A7066F7DBC52FF3651D8489971CF0F77A525CAE847ACD POP JUMP POP 0x21 PUSH24 0xB00CA5B72B3F0FB32E0BB85BB816D389FA12477AA6C86249 SWAP6 STOP 0xC5 AND 0x22 DUP13 0xD9 0xAE PUSH29 0x652C3F61F641B6590B80067116569EAF77C8EC57E85B52EE30CD621213 GASPRICE OR 0xCA GASPRICE 0x4E DUP8 0xBC REVERT PUSH22 0x7598616214D0E2B188F173EE86CCE1A411C0D2FF80E 0x1E 0xAD ORIGIN PUSH5 0x74358DBF41 0x2F DUP15 SLOAD 0xC ADD 0xAA SWAP2 OR EXTCODEHASH PUSH22 0x2E069ECC268A7427E0935DB3ACD27FB7BC097E2B2C58 0xD5 0xA6 0xAC 0xDD 0x1F 0xB4 0xC1 0xE 0xF7 SUB 0xB9 PUSH9 0x7C4C6F9DEDDC9C9D3E CREATE2 0xBA SAR SWAP11 DUP8 MSTORE SWAP14 EXP PUSH20 0x87BC569C6C642913C425FA7538CB83E2A689D5CA 0xEA 0xC5 JUMPDEST ORIGIN TSTORE CALLDATALOAD SWAP8 SLOAD PUSH31 0xF6C8DC122A2A6D000C344EEC023E56786B482A73477D0FD36701F0EDDD0829 DUP15 NUMBER SWAP2 BALANCE PREVRANDAO 0xC3 0xF7 0xB8 PUSH26 0xD09887612EFEC260ABD0D45688E61558F0288CBDDD8B5774E484 PUSH7 0xF164D5E522B544 SGT EQ EQ 0xD6 CALLCODE INVALID BYTE PUSH22 0xDC3F898674BCA43B786B3EEBB0E2AC53EA6336D2D049 PUSH16 0x23399C133EEF87007A5128B3F86D3FF9 0x4B 0xDD BYTE ADD NUMBER 0xB2 DUP14 0x4B PUSH19 0xE7B02B2022147764B03A20A11D5FB29AA2AB37 CALLCODE SWAP2 PUSH30 0xB42EF10170B5F8614BC6E4DECDA4186DFAFBA37A2646970667358221220 NOT 0xA6 0xAE SWAP11 SIGNEXTEND 0x28 0xF9 JUMP 0x27 0xC3 SWAP13 0xDD SWAP11 0x4C SWAP3 MUL SSTORE SWAP4 0xB5 SWAP5 PUSH1 0xA2 0xEE SWAP1 0x4B 0xAF 0xA6 0xBD 0xEB 0x29 MSIZE BALANCE PUSH5 0x736F6C6343 STOP ADDMOD XOR STOP CALLER ISZERO REVERT 0xF NOT 0xBF CREATE2 MSTORE 0x1E 0xDA 0xE5 0xF6 0xD8 SWAP6 DELEGATECALL PUSH20 0xC241CCC3D415EEF6C9485D21914188C1D2446D5 CALLDATACOPY 0xB3 0xDB CALL INVALID 0xBA PUSH21 0xB7657DC394B17E890CC1DB8C77A1DF7DDBF00C956 0xCC 0xE DUP15 SWAP8 SHL SWAP5 0xBC DUP10 GASLIMIT PUSH7 0x5A5A61D013E624 MOD 0xAB 0xDA 0xD7 0xC3 DIV 0x28 BLOBBASEFEE 0xB3 SWAP9 SHL 0xB1 KECCAK256 0xDD CALLCODE 0x21 0x2B 0xC9 0xB3 0xA8 SMOD MCOPY DUP11 SELFDESTRUCT 0xB4 NOT 0x23 EXTCODESIZE 0xAE SGT 0x29 0xC8 0xB5 LOG3 PUSH14 0xD5849D426B61896D79E5ACE3692F 0xAD 0x2A SWAP8 DUP4 0xFC 0x2B LOG4 SWAP1 ADD 0xEA 0xCD GASPRICE CALLER 0xE3 0x4C ADDRESS 0x27 MSTORE8 PUSH4 0x6D3C4635 PUSH23 0x36DAE6C8B2024B19C6002888DCD3E33699C10634A806D2 0xAA 0xE2 0x24 0xC3 0xD7 0xE5 SWAP13 0xEC GAS SWAP12 DUP8 NOT 0xB0 PUSH7 0xD2640C3BC3C927 MSTORE8 CALLVALUE DIV 0xB7 PUSH2 0x8B19 ADDMOD 0x2E 0x24 0xEB 0x2C LOG3 CALLVALUE 0xE7 0xBF SWAP14 0xCE 0xB9 PC 0xBD CALLDATALOAD MLOAD 0xE9 INVALID PUSH32 0x57270E9BCC58594F6192A2B99D2846F622DE39B5937B2A7323CC45E25FCB2093 0xD0 0x1E PUSH30 0x1A66AAFFD026340C02261FD998650C044A8B0C7FD711E04213A1CD2CD351 0x24 0x24 PREVRANDAO 0x4F EXTCODESIZE CALLDATASIZE 0x21 0xDF DUP13 CALLDATASIZE 0xB2 PC RETURN SSTORE BLOBBASEFEE SWAP13 MCOPY 0x2A 0x21 0xA5 CALLER OR OR 0xC8 0xAB LOG3 CHAINID 0xC7 0xAC PUSH4 0xC97616E0 CALLDATASIZE 0xC1 0xA8 DUP16 SWAP9 EXTCODECOPY DUP3 0x22 PUSH25 0x49B01847266A1175919AC332C27799549CE18D36EE0B0CA3B0 BASEFEE EXTCODECOPY DUP15 TIMESTAMP 0xC9 NOT PREVRANDAO 0x24 0x2F 0xC3 PUSH12 0x40CA910518F9D85A25BE8E4A PUSH31 0xF43663AD110CF5E0D819A05A811F7A0C166628530BA6F6D353E8E6A433C064 0xD6 STATICCALL 0xDF MOD 0xC NOT 0xBC 0xE7 JUMP 0xE1 ISZERO DUP5 SAR 0xD9 0x4F DELEGATECALL GASLIMIT COINBASE 0xD5 0xAD PUSH25 0x130187D67F3C560C2A590BD09376570909257A78BF2BDBAEC4 LOG2 SUB SWAP3 0xEB 0xAE 0xF6 PUSH7 0x111A0013E0D145 0xE3 0xB8 MSTORE8 DUP12 CALLCODE SHR PUSH4 0x1B780547 SLOAD 0xFB 0xA6 0xCB 0xE5 RETURNDATASIZE LOG1 0xB0 0xE9 0xC8 0xE6 PUSH10 0x4C94E5C5784962CD7924 AND 0xD2 0xE2 0xA6 SWAP13 PUSH7 0x6D201AFD103F74 TSTORE 0xC8 0xBD MLOAD 0xA5 NUMBER GASPRICE PUSH27 0xC8419F1DEDAAFBCADD19048E9009D4C6241613245CD94A309BFB79 0xAE DUP16 MSTORE SSTORE DUP1 EXTCODEHASH 0xC1 0xFB 0xDB DUP1 0xBB PUSH25 0xAC6D5F68DD031A464A87EBF414FAEBE5560369EC0B8807A88E 0xCF LOG0 MOD 0xF7 0xF9 PUSH26 0x5CAF1BFCFE261555534CF4E78D0C962615261CA9C1F65CD755E0 SIGNEXTEND 0xC0 SGT 0xAB CALL MSTORE8 GASPRICE SLT 0xE8 SHL DUP1 0xB3 0x2F 0xC4 SHL 0xD 0x1F 0xA8 PUSH14 0x2792793DF783C78305175C60E000 0xC5 EXTCODEHASH 0xD9 PUSH15 0xE07CEB78E470A6C64A1B477C553420 SWAP7 0xD8 0xBC 0x28 0xB6 DUP8 0xF CALLDATASIZE 0xFC PUSH9 0x5E6509823ED5943390 GT 0xCB PUSH14 0xDE0E8F8D7CC1CC582E109542C42E PUSH25 0x79D5F2509059905ECE1BD8860E7C820343AA1B30461DF91EAE SWAP6 0x1E 0xEA PUSH9 0x62AE37A2A4392C5801 PUSH20 0x7849ADB507F0A3137699241517A3F1EBBB3A4809 RETURNDATASIZE RETURNDATACOPY MOD PUSH21 0x8B6704617F4CFFEEAB1A9C5B788923F7FE09A49874 SWAP14 0xD9 0xAC SWAP16 ORIGIN MSTORE8 0x2E PUSH0 SWAP2 PUSH32 0xA4593965B59FBD36E7644390BA01391B8379A4A204C1C29FD1D17CDE2A0DCCFC 0x2E PUSH14 0x40DE5187062A63A944A907D0D7BB PUSH15 0xB30533A3454057778ED3AF1B8F8915 SWAP13 PUSH24 0x20C893F3CB7A2A4CC3085DAFDAB413391192963D2D6F8A7 SHL PUSH30 0x241B04A42762B5922F9E96652279D739459C63BA99921D36047868BE9613 SWAP3 0xE4 0x1F SWAP11 DUP9 TSTORE 0xEE 0xB4 0xEA PUSH5 0x5CEDDC1B49 PUSH14 0x41A8B765B09C9FA5DD267644335F POP 0xB7 DUP9 0x27 MULMOD SUB 0xCA 0x28 0xB7 SWAP3 0xA6 SWAP16 MSIZE 0xD7 BLOBHASH SWAP15 0xD7 0xE2 PUSH2 0x840C 0x1E KECCAK256 SWAP6 SHL CREATE SUB PUSH13 0xD34057859EA07C980CF286F5AF SDIV STATICCALL CALLDATALOAD OR RETURNDATASIZE 0xCA 0xBD SWAP5 0xE3 0xC7 0xFB MSIZE SHL PUSH21 0x607D58C397469CF09759E89B561A465001F19B05DC CODESIZE LOG4 SWAP2 0xB2 BASEFEE 0xC9 PUSH31 0xC7920C03DA29E69D805DF6DAE9AD29C6B80ED2C6A0818F6E04BD3AA8E1A17B 0xD PUSH8 0xC6815FEEB8BFE9B3 0xA5 PUSH22 0xBDE437AB71141CB929C4998D91A32BAAE52FC164831F 0xF6 0xBD SLT SELFBALANCE 0x4C 0xD8 0xC9 GT DUP10 0xB6 SWAP16 0x1E DUP13 0xDB PUSH18 0x640C5BE902277C48337D1DB6B1FB81C89E86 DUP10 0xCB LT 0xB7 0xEE PUSH11 0xF8B9FC5975A730F6EB2DD8 CALLDATACOPY LOG4 PUSH16 0x2BA2EE8EA9442A9EEBD87ED57F594F04 0x4C PUSH25 0x60B39595EAE6CE4D0E119BC8B722E52FF60236302B2E6F4A13 SWAP16 ISZERO 0xE6 GASPRICE LOG0 PUSH5 0x1AE765F3E7 SHR ORIGIN 0xFB PUSH22 0x9D25214F618153620B583FBD2ABC2EEF9A26789F3B52 SWAP7 0xE9 SDIV MLOAD DUP8 PUSH27 0x37D362DC95013C611347B3D133ED9045BE2C36F8689A0120C4078D SLT 0xD8 0xCD 0x28 0xC0 MOD 0xBC PUSH2 0xDDA2 0x2F EXP SWAP6 MSIZE 0xEC 0xA7 0xCC PUSH22 0xDB51C369B05E74C952D5A8AE39B06ED01C8698F4D74D PC 0xDC 0xF 0xEE 0x28 KECCAK256 0x26 0xBC GT EXTCODECOPY 0xC2 MLOAD PC SIGNEXTEND 0xEA 0xB7 0xBF 0xBD 0xDF 0x22 MULMOD SDIV PUSH16 0xCE08C4E356B1A06F1BC9441439395673 0x2C DUP14 DUP1 0xC3 0xF6 EXP 0xE0 LOG2 PUSH22 0xB3968C22C40E9054B3AD662671F4326F208E1CE66CEA 0xED 0xEC EXTCODESIZE SGT 0xAC CALLER 0xCF SAR 0xAC 0xC6 RETURNDATACOPY PUSH31 0x68E3E7FDEE08E91A54075CC0758A805A1ABC1B6362A1A276F723F806D4A51D EXTCODESIZE PUSH27 0xB592AC8F39E198CB5EFCCEAF0E48C123F70EAD154FD51F42A3DE0A 0xC2 0xB6 AND 0x21 CREATE BYTE DUP12 ADDMOD SWAP10 DELEGATECALL PUSH14 0x2D9DA1A8D620B88E9828358BC8E9 0xB0 EXTCODECOPY BALANCE BASEFEE 0x1E SMOD SWAP1 SWAP14 DUP7 0xCC DUP4 DUP7 BLOBHASH BLOBBASEFEE LOG0 0xC6 0xB1 REVERT 0xDB PUSH15 0x83911200D2D5BF21309D93CA7E97B5 TSTORE NUMBER 0xC9 CODECOPY PUSH16 0x92716FF1AD99B73DC929C566DE6C6C72 SHL 0xD0 BASEFEE ADDMOD PUSH7 0x6E4182C159D4CF 0xD3 SDIV 0xE1 0xF6 CREATE2 0xCF 0xE4 0xCE SWAP3 NUMBER 0xAB MSTORE8 DUP9 0xC2 0xA5 LOG0 0xAB PUSH21 0xB600E4BD5E28CFB007611BDA022F417D399841A00E SLOAD EXTCODESIZE EQ SMOD PUSH7 0x72113B21E9BDF4 SWAP5 0x2E 0xB3 0xFC SLT DUP2 0xDF DELEGATECALL SWAP5 ADDRESS 0xDB 0xC9 0xD0 PUSH21 0x8814312F5356A1024539516AE19E8B6EB6379421CC DUP4 0x24 RETURNDATASIZE 0xC2 0xB6 BLOCKHASH 0xAB 0xC1 PUSH19 0x8422276BA4AD24CAB39FC7D1EF6CF3D82FE82C SWAP16 DUP10 0xEF 0xAA PUSH28 0x5CFF4D9542E3250C36BF32561E274F8FA928DD3A8D11F4F76C36A4 0xCD 0xEB MCOPY PUSH5 0x20B886F895 NUMBER 0xB5 0x4F DIV SUB MULMOD SAR MLOAD 0xCD DUP9 DUP10 PUSH0 0xBD SSTORE 0xAE 0xA8 PUSH14 0x19DB8B89CFD55255F8030C0AA800 0x2F 0xB1 0x4F 0xB9 0xB4 INVALID 0xDA PUSH20 0x7C210D4289D62A014E4BDBF708AD21B53EF62D96 0x25 0xE7 SWAP12 PUSH17 0xD1EE02EB3F6C25BFAA7B9A4E1566B0FA70 0xC6 0xC0 0xCA SMOD 0x21 SWAP2 DUP10 PUSH25 0x38A36027218C7DC6AF590AB65620D6F31DD4CBDF1EB8605815 GT XOR 0xBB 0xDB DUP1 0xB8 0xD9 PUSH14 0xD80053653AC15A867AFA2931D75 GT PUSH4 0x18A810D5 MLOAD 0x2D DUP8 SHL PUSH18 0xF4654C86ACABDE8C911C48420D5581F37E60 0xB1 GAS PUSH14 0xFE652B9CE46E2DE3414D252B18DF JUMPDEST SHL DUP14 CALLCODE 0xA8 XOR 0x21 0xFB 0xAD 0xA5 0xAB BLOCKHASH 0xEE MOD BLOCKHASH 0xB1 CALLDATACOPY JUMP 0xB2 PUSH11 0x7FCFEB5F81DE884FBB889F EXTCODECOPY 0xCB LOG3 REVERT PUSH5 0xCCE70D6670 CREATE2 LOG2 GASLIMIT DUP3 0xA7 SELFBALANCE 0xE1 0xD1 0xAE 0x1E 0xE DUP14 0xA6 RETURNDATASIZE PUSH30 0x202210D96DD5078FA58ECCD43E361FE26476A17C1DDA8D2D1B630CCD263E 0xCD JUMP PREVRANDAO MSTORE SWAP11 0xFC RETURNDATACOPY 0x29 PUSH20 0xF6961FF3F8712627464F05A8EBB85E8E46559961 0x4C 0xED PUSH28 0xEC41FCDA74EC9F51AE39C392672BC7242AB9A6D1C669A478CEB584E3 0xBC PUSH15 0x1635E3202EC53CBB6F3CC42BBFD765 SWAP7 SMOD 0xC0 0xD 0xD6 RETURNDATACOPY OR SWAP3 0x2E 0x2E SWAP6 TLOAD CODESIZE 0xD4 PUSH20 0x47FD269336D27CB9B9C7A3218C3808507BBC994D NOT MSIZE GASPRICE CALLER POP 0xD5 PUSH1 0x45 SWAP9 MSTORE8 0xC SWAP4 CALLDATASIZE 0x2E 0x28 CALLDATASIZE 0xF9 0xF PUSH30 0xAA675F73B40BC04D67B0625E3D1682034112BE41166846A800DEC3F04DC4 PUSH0 PUSH25 0x78BD2C5493E443F44EFC5C08AF0828E223EE37C2D4DFA133C8 0xDF PUSH21 0x7C3DDD415DA67E911F2F5CB609A58DF64BD0127BFD SLOAD SWAP15 MCOPY DUP14 0xCF 0x4B 0x22 0x29 OR ISZERO CALLCODE 0xAD JUMP PUSH9 0xCD6C711C2A39C3FFEB 0xE9 ORIGIN NUMBER 0xDF BLOCKHASH 0xB0 0xD 0xC2 0xC6 ISZERO SWAP6 0xD6 MUL DELEGATECALL 0xF7 0xB0 GASPRICE 0xF6 0xA9 NOT 0x26 CODECOPY JUMP 0xB5 SWAP5 EXTCODECOPY 0xB3 CREATE2 0xF8 SWAP1 0xBD 0xE7 0xD 0xE7 CALLER PUSH3 0x33871E 0xEC 0xC3 DELEGATECALL 0xD0 0xCF PUSH18 0x749BB70475EE20A3D479719FCB7C7BEA4290 MSIZE 0xF6 0xC1 0xD1 DUP14 0xD5 PUSH31 0x2D94C63811C0F21889BEEECC4D7797F0FA87F0CD40FB84AC72F5537942B5BD PUSH27 0x7573806D926B6E92313C06BA464AC035746E0DC96B3D40DB4020F PUSH19 0xDBBF715306FDD2C03D7F271F2969D465C7E867 PUSH4 0x751E29FA PUSH3 0x2A2715 PUSH10 0x4C534B5E171B2519546A AND AND 0xAC 0xA8 CALLCODE SMOD 0xE8 PUSH22 0xEBF37977F96C1DFA32DDF16D7EADED9047AB15142F19 MSTORE8 0xBC 0xAA 0xD2 0xE1 GASLIMIT 0xCB 0x2A PUSH22 0x9CDD65EB7CF493B281B71B0FAA6010E30A38B5127519 0x2F 0xDB 0x1E RETURN GT CALLDATALOAD SUB 0xA9 0xDB PUSH9 0x8B32A0B79F3A8125D7 SWAP7 PUSH28 0x3962373FB886332A135F7706D774B685F236C190A046EC7FC6147A84 0x26 SMOD SWAP5 0xC5 NUMBER 0x23 0xC 0x4D EXTCODEHASH SWAP1 0xCC MULMOD SAR 0xE PUSH1 0x2C 0xB5 0xB7 PUSH16 0x44713C49CC24CB3E1715BA081787296B SWAP5 0xDB 0xE2 GAS 0xB5 PUSH24 0x42EBF6553DF405159D91BD6A0A9C639B0CC27CC39DAE457F GASLIMIT 0x22 TLOAD 0x4B 0xB5 SLOAD 0x26 BLOBBASEFEE 0xF8 0xE2 0x29 0xA5 0x25 0x24 GT POP ADD 0xB9 0xE8 0xD8 0xB1 CHAINID EXTCODECOPY 0xD8 PUSH11 0x16C3610F87FC2A10F63BD 0xFC 0xC0 0xC STATICCALL SWAP10 CALLDATALOAD GASPRICE 0x4C BYTE MSTORE SLT SSTORE CALLDATACOPY 0xCF PUSH1 0x72 PUSH2 0x5205 0xC3 DUP1 GASLIMIT 0xB8 0xAD BALANCE 0xD1 SSTORE 0xBD 0xD8 0xAC 0xF8 0xC PUSH30 0xC627A7506E642A177C2E83916C6303325ED9513361098830271102AC5DBF 0x28 MCOPY 0x26 GASLIMIT SWAP2 MCOPY 0xED 0xA7 PUSH27 0x56931CE67DD1EDCAAC1B03358EB6B2AD3780BD1CD201B91D4BB2E6 SUB 0xE0 SLT PUSH26 0x351FD126E90BD7B6F903B9E517A0F77A7E4048033CB873B1DA8C CALL SWAP1 ADDMOD 0xE PUSH22 0xCD1DFD6B1CF426585573250EB3432A5E80FC194C307C PC 0xC8 EQ 0xAC CALLDATACOPY 0xBD 0xE8 COINBASE 0x25 0xA5 0xAE CALLCODE 0x22 0xA7 LT INVALID TLOAD POP 0xF8 INVALID PUSH18 0xB1FB44251E5DCC90BD0D64844451329DCB49 0xE2 COINBASE PC SLOAD MOD 0xEF DUP12 0xC 0x27 CODESIZE COINBASE 0xCF PUSH19 0x28666B689B24A7022BC402815F77F71B43C186 0x2F PUSH5 0x853B6A47CA SLT SSTORE 0xC4 GASPRICE 0xF6 SWAP12 0xE4 DUP8 PREVRANDAO 0xC7 MSIZE 0xDE PUSH8 0xF363030B809EA5BE TSTORE 0xE7 SMOD SLOAD TSTORE 0x1F 0x29 0xDB 0xFC 0xD2 PUSH19 0x110B2F7AC7D7B3F94893762FCA13700B74CEC6 SWAP2 0xBC JUMPI 0xD2 AND 0xBA DIV 0xE9 SWAP3 0xBD 0xD 0xC9 SELFBALANCE MOD MSTORE 0xC5 0xB2 0xBA PUSH28 0x972DD68BF8C271556B57AD4521C067A072D75EE09268562CEA9D1E6D 0xB4 0xB3 0xE0 XOR PUSH0 0x2A 0xDD 0xD BLOBHASH 0xD6 0xE AND AND DUP13 0x2F RETURNDATACOPY 0xA9 0x1E 0x2C 0xB0 JUMP PUSH25 0xF2C9D9ABE232B3400A96B6EED42E7041C98BAA152253971225 CALLDATACOPY DUP11 0xC4 0xCD SWAP6 DUP10 0xC8 0xC 0xEA 0x28 0xC0 PUSH12 0x5706782650EF83382C54CCFA 0xBA STATICCALL 0xEC DUP1 SWAP7 0xC5 NOT 0xAB JUMP PUSH17 0xC7D4DEA2535C64DB2B7DFCB5531664DBFA CREATE DELEGATECALL TSTORE PUSH13 0xE2782683F87E6C9E9B7176F085 GT 0xAC AND PUSH4 0x869ADF93 CALLDATACOPY 0xEE CREATE 0x21 0x2A 0xE8 SWAP1 PUSH24 0x61700BDEA4B480F20F788DD08CA4126DCF4EA462E890F302 PUSH4 0x44760E50 0xA7 0x4C CALL GASPRICE SWAP16 TLOAD RETURNDATACOPY 0xAC CALLER LOG3 DUP13 PUSH16 0x9E8D3C2638BEE309A4180AFD6097C527 PUSH7 0xE41377037809E6 SWAP1 0x22 0x2F SWAP11 0xFC 0xA6 0xE1 0xEE CODECOPY 0xBA SWAP6 DUP5 PUSH12 0xBE912379A938F6FFCB493F5C 0xBC MULMOD BLOBBASEFEE 0x2A CALL PUSH26 0xF583A4155DC7F2B191C036DF4330C0EB75E1E70D2487431BB4B5 0x1F 0x2B SHL 0xC2 0x23 SWAP3 GAS REVERT PUSH32 0x4F7CDD038D39183E1364D1665DCB17CFC2E30DA2EDBDA339019A6052E1C5CF66 0xEC CODECOPY PUSH10 0x56467E791A97506BB329 SAR BYTE EQ SWAP14 DUP7 RETURNDATASIZE SWAP13 0xC2 TSTORE PUSH7 0xD1F709B744826 DELEGATECALL 0xCE SUB 0xD2 0xAE 0xE 0xB2 0xA8 PUSH7 0x13BC33B2BBED5E SWAP11 0xC6 NOT DUP16 PUSH31 0x8DF1AFA8B210CEE567471A2B01CFA286F3095713FFE5855C06F17158E33E9E 0xBF 0xDC SHR PUSH26 0x2A88239EA34B3E8A5D1D26599FCF453537FB16A91F9520317A01 0xC7 0xDE SHL 0xB5 0xA7 PUSH9 0xD72509B3A1BB0C0BE5 PC PUSH23 0xC4B91957B7E86412654BF272B7B9C52F2217E9713C7DCC 0x2C 0xEA PUSH17 0x65CB1BF0B68C86A3592A5134384BE8B10 0xDE STOP 0x4C BALANCE 0x23 EXTCODESIZE PUSH25 0x3577694DC613AA1864F9D5017A46CB107BE441F821A85315B7 SWAP16 CODECOPY SWAP7 DUP14 PUSH5 0x7F343A2C6 NOT SWAP9 STOP SDIV CALLCODE PUSH25 0xBAE49A9A15A54132C50388E69F4211CEDDEE99195F07736B50 0x2F 0xAD 0xEE SUB MUL 0xA7 DUP7 0xD7 SWAP13 0x25 LOG2 0xBE 0x29 PUSH31 0xDD39EAEE413DC553146FF7D83BBBB8BC71447B66052EAF36A4DAE40401CFA5 PUSH18 0xB55AD8B5FBCED37E67860085BC6AFC5412D8 MULMOD 0xCE DUP11 AND PUSH14 0x4B67DEBDF8E674BD6074BF67031 0xD3 0xB4 0xC5 PC PUSH5 0x7DC4A3C544 RETURNDATACOPY 0xBA 0x23 ADDMOD PUSH7 0x83232F97FA7F39 SGT 0x23 0xE0 PUSH7 0x175FEB3572AED6 0xC CALLVALUE EXTCODECOPY RETURNDATACOPY EXTCODECOPY GT 0xED ADDRESS SWAP13 STOP SELFDESTRUCT LOG2 SWAP13 0xDD CALLDATACOPY ADDMOD CALL PUSH26 0x1A609F8714B38F03CFEEB1A149ADF524A946A397191B09868694 PC 0xBB DUP11 KECCAK256 0xE9 0xAD RETURNDATASIZE AND 0xDB ISZERO PUSH4 0xE84154A1 PUSH10 0xDB5E81D0117D49148007 PUSH19 0xD4BF624317E32B3617A525EDE8962FDFD05AF9 0xBA MCOPY CALL MULMOD 0xBD 0x2F TSTORE 0xE0 0x25 0x24 GASLIMIT BLOBBASEFEE LOG2 TLOAD PUSH10 0x6B7C6FB0757D0D71A275 LOG1 0x4C STATICCALL LOG4 0xF9 DUP8 0xCF 0x2D 0x25 MSTORE 0xAD 0xD1 RETURNDATASIZE SGT 0xFC PUSH18 0x41C544A0AB457103E4B2D5021FF842CD5977 DUP16 0xB6 0xC7 TSTORE NOT PUSH22 0x11F3158ECAC8FAFD21DB5FA652725BE434580FF92109 MCOPY PUSH15 0xEFDDA8F7648172826E435E08A93109 0xB1 CREATE BLOCKHASH 0xD8 DUP15 0xC1 0xB0 SHR 0xE3 0xE2 0xDF 0xA5 SWAP3 MUL PUSH21 0x6D05612699C335D4031F388561FA2C6B3A4C224DF7 COINBASE BLOCKHASH 0xC5 DUP13 TSTORE 0xD7 CODECOPY EQ MSIZE XOR 0x24 0x27 REVERT 0xF7 0xEC SIGNEXTEND DUP13 GAS PUSH17 0x3E3AE6C19D8DA47804A75D62BA4A1F8CE XOR CALLDATALOAD 0xD7 0xEB PUSH7 0xDCFAD648630A6 SUB PUSH19 0x41A73AF244B1612EB375D852712A10182E1339 0xD1 PUSH23 0x471F24611B2E7AAD1A1FBA1F1EB3193A87A0261E98DBE7 PUSH32 0xB30944EDC6EF5726ACDA2DF51DF9C66F51695783648873BC167BC8199AFDCF98 0xA6 LOG3 SWAP14 0xFC EQ SWAP4 CALLDATASIZE CALLVALUE 0xCC 0x25 STOP 0xBA DUP6 LOG4 0xD7 JUMPI 0xB2 0xBB 0x24 CALLCODE PUSH9 0x6C8FC2B20D23F68ECC JUMPDEST 0xBD DUP9 SWAP14 PUSH17 0xDB8222F9C94EEB2A615FC377BD707E1D29 PUSH30 0xF70F60076D184EA30144439D2A02827CCC4B74D6D5083FF5F9B4474040E1 0xDB SWAP6 0xE7 0xDD BLOBBASEFEE 0xC0 DUP12 0xC4 SWAP16 0xD CREATE2 0xE0 0x4B AND ADD 0xE5 BALANCE ADDMOD PUSH27 0x66E1A9A0300192FF2B9358B371328362EAB85F10B3B256562986B0 0x22 0x2F SWAP1 REVERT 0xE6 0x28 JUMPDEST KECCAK256 BALANCE 0x2B SWAP12 PUSH14 0x2F72C215474B76C58BE1BC8113AE 0xD2 0x1E 0xFC 0x4B INVALID 0xB7 PUSH14 0x432FADD1A143AE551AFC92793B1E EXTCODECOPY PUSH28 0xC0FFF4D51B34C751D6FD4F0B684FD36A5EB31F2E7D59BD0827A4788D 0xF7 GASPRICE 0xD8 0xB0 LOG3 0xDB PUSH14 0xD0366131FAFF0CF443FDBE689B18 GT 0x27 SSTORE 0x24 INVALID 0x4F JUMPDEST 0x26 0xE3 MOD 0xF7 DELEGATECALL BLOCKHASH EXP DUP12 CHAINID PUSH11 0x46F73B1BB30628E8F53AE1 DUP4 OR SWAP11 DUP10 0xEA MULMOD 0xBC 0xAB BYTE 0xBE DUP13 NOT SUB LOG2 SWAP3 0xE8 SAR 0xB1 ADDMOD 0xE9 0xAF 0x23 0xCD SHR PUSH19 0x49087803195EF86AF9D7AEF43F671BBE28D505 0xC9 0x2B MLOAD PUSH8 0xE06202018A4B1C48 0x2D 0xDE PREVRANDAO DUP7 DIV PUSH26 0x3A2B6D734C3A59F599B457794F109890A7F2FCB50131C7E510FA CALL OR 0xDA 0x23 CALLVALUE 0x4B PUSH15 0x50403670B103E8B1B0FEA27F1FB697 PUSH29 0x76473F7A1D148B69A5526768AC7032CE91F0E138973B3E4D30745FDF22 DUP5 PUSH13 0x8FC4704252020B4A141726EF71 EXTCODEHASH MCOPY 0xDA PUSH1 0x5D 0xED DUP2 DUP15 0xE6 SWAP14 LT EQ SWAP1 0xD5 0xA8 0xB6 SMOD SWAP12 SHL 0xC5 ISZERO DUP4 DUP16 BYTE 0xD8 CALLDATALOAD 0xD8 PUSH23 0x23ADEF3B1673CA9735AB72D8FC938E206A524E5820D47A PUSH8 0x5B313CD4B857527F RETURNDATACOPY PUSH14 0xDD2B5646E5FD9F206AAD5BCFAAE6 0xCB MULMOD PC 0xE6 MOD 0x4E PUSH26 0xC61F6D53A00688E7F217A0C8579BA3DAF9D4DF5DEC16F013A124 COINBASE EXTCODEHASH ISZERO 0x23 DUP4 0xC6 0xF7 TLOAD BYTE CODECOPY 0x2E PUSH15 0x1375277F1130C2274D8668773ADDB7 DUP4 KECCAK256 PUSH29 0xF58CF4C0B60F693E2F20B43EAC0691B48A00FADF42143AF8E21B080D41 0xD1 0xE7 SHR DUP11 MUL EQ 0x2D 0xA7 0x26 0x4F 0xBA DUP9 LT 0xC9 0xE1 0xC0 SIGNEXTEND MLOAD 0x2A 0xAB SAR CALLDATALOAD JUMPDEST 0xD7 0xCC 0xAB MSTORE ADDMOD SWAP8 PUSH9 0x376D8A925CF1C3F927 LOG1 ADD 0xC6 SWAP9 PUSH3 0x91EDD6 SHL 0xF9 DUP9 DUP14 PUSH12 0xBC0D0F802BBC4186A811B810 PUSH32 0xCF306A557F0AF626CDD05DF967801D477B1C344754C15F7A30B0BD75BB98985A 0xC 0x2F SELFDESTRUCT SWAP15 0xC8 0xC MOD 0xC MCOPY PUSH2 0xCDFA 0xBE 0x2E 0xB8 XOR DUP16 PUSH17 0xCAC4D7B7CDEED9B964792D7DFB6FC0B228 0xA7 0x27 0xE SLOAD 0x2A PC PUSH11 0x34C5B50461B05614CBF3CE 0x22 DUP13 SGT SDIV 0x22 MLOAD CALLDATACOPY SWAP4 0xEC 0x26 EXTCODEHASH SWAP11 STATICCALL SWAP7 0xE2 EXTCODEHASH 0x4E GAS 0x25 0xCC RETURN ADD PUSH9 0xE9EF4FD1CB902C95CA DUP14 PUSH8 0xA13580DD07994094 0xB2 0x21 PUSH17 0x8F8C7D6797107DFA97FD9047FAE9CF80F4 DUP12 KECCAK256 PUSH9 0x84949B324E4AB03212 RETURN 0x29 DUP13 BASEFEE XOR SWAP9 PUSH23 0x961CFF7A1FCB4F40C410CEB353CB8AB907A0F6B2821DBF DUP3 PUSH23 0x6EC762967BA2394420B8533E0AB744D5DB86E30A3E73A8 SIGNEXTEND 0xF6 0x21 LOG2 0xB5 0xD8 SSTORE JUMPDEST 0xF 0xC4 AND CODESIZE SWAP14 TLOAD CREATE2 ORIGIN PUSH6 0xC9D9B203B72 0xE7 DUP9 PUSH32 0xBC30AC7978146860EA4AA1FF0D96DCA2C65666304CACBB1B84D4AFA11231F3A4 LOG3 0xC6 0x2A STOP 0x29 LOG3 SWAP16 MCOPY LOG3 SAR SWAP1 PUSH27 0x92070494990427E7CA6F8814107581EDE64E20DCE54FFFBC6443CE 0xC3 0xCA SHR 0xB0 SDIV 0x4C MLOAD TIMESTAMP XOR PUSH29 0xD21BCB166B7916737E84151E0282876E43177C3830524E3B6AC2EAB243 LOG0 PUSH8 0xDE3319F8D0B8B420 CALLDATACOPY 0xCD PUSH2 0x979B PUSH7 0x7FB80288588D2B MULMOD PUSH0 0xC 0x4C CALLVALUE BALANCE 0x2D PUSH29 0x75A074BEDA537909CFA104AFC04E3F13C2D80FCFA1AA6E946499406CE5 COINBASE 0xCA DUP5 MSTORE PUSH28 0x75DD29881C09E6A120A42AB93CAE3BB2A7AC65C4952FCAFA2B58F3D3 0xC3 0xB2 SWAP3 0x24 PUSH15 0x292DC1D10EAD442294E0AC633D4E59 0xAC PUSH21 0x82946C67653DFD3B17220D05953F214328D778D62 JUMP ADD SWAP15 ISZERO 0xE RETURNDATASIZE SWAP10 0x2F MLOAD PUSH22 0xDD609D7B7468A978428A5BBF291B77F900D1C682CBA1 0xBF 0x2C DIV RETURN 0xDB SWAP4 0xC0 DUP8 0xD 0xB5 LOG4 CODECOPY 0xE9 SELFDESTRUCT 0xF 0x2A 0xC6 TSTORE NOT 0xED 0xDA BALANCE 0xF6 0xBF PUSH5 0xE9F827516B EXTCODEHASH PUSH9 0xE72E6C4CE5C33D2F1D STOP 0xD4 0xC7 0xC6 SWAP2 0xE5 0xD3 SWAP14 INVALID LOG1 0xC0 0xEB MSIZE 0xD 0xE7 PUSH24 0xE5FE64365545646F01879179E76AED29E2392A6DF0AC85EA PUSH11 0x285E0D3A1112E8593C23C3 0xE3 RETURNDATASIZE CREATE2 LOG2 ADDMOD PUSH10 0x75BBB71F10A74A76F43B 0xCB STOP CALLDATALOAD BASEFEE XOR PUSH1 0xC6 SELFBALANCE DUP16 0x23 INVALID SWAP2 0x4D DELEGATECALL BLOBHASH 0xB5 0xE JUMP 0xC4 SWAP3 0x2C PUSH16 0xEB5C47AD32B1054C98E31DF1659881F8 DUP5 SWAP4 SWAP6 CALLDATASIZE SWAP7 SHL 0xED 0xEF 0xF8 0xCF 0xBB PUSH15 0x12820549855C647DCDF03D05C6A490 0xD5 SLOAD LT SWAP9 0xD6 0xD8 EXTCODESIZE 0xAE PUSH30 0xA0112A822E0ABCECE25020F9C4E3FCFA0D305A923E4FB0D9EF583CB141DE 0xBF 0xEB SWAP4 SHR SWAP1 SWAP15 CALL 0xD4 REVERT 0xF6 0xEA 0xC9 SDIV LOG3 0xB3 PUSH7 0x3E889C49EB5920 0xE7 PUSH10 0xBBFE9F9DFC905554300B 0xB2 0xB4 0x28 TLOAD PUSH11 0x5889B2741F9E528D112BD8 LOG0 MSIZE 0xEA 0xA5 LT 0xCB 0xD9 0xA7 GASLIMIT DUP6 SWAP9 0xD2 PUSH24 0x75BCF6D851A0D359EBB81DEC15608AD6B67162915E05D6AF SHL LOG4 0xB3 0x2E 0xB4 PUSH10 0x3F775FFC0A66485C3E56 OR 0xDD CALLDATACOPY 0xE0 SHL 0xD2 0xE2 PUSH15 0xFA4FB0A842E03142AF573FA9C16623 SLOAD 0x24 MLOAD 0xB3 0xE4 0xE0 0xAF NOT PUSH17 0xCD7E2B0A2B417CAD2430C3018499A10488 INVALID 0xDF SWAP15 MSTORE8 SWAP10 0xCE PUSH13 0xF93819469C802BED6386D7B923 0xD CALLDATASIZE RETURNDATASIZE DUP12 0xAC 0xDD SWAP8 DUP14 ADDMOD 0xDF 0xBC PREVRANDAO CALL 0xC3 0xBB 0xD3 0xB2 0xBC 0x1E 0x2A 0xAB 0xC5 0xC3 PUSH22 0x9DB87F8F895EAB2F83002ED31EACA2531766A09552EB AND PUSH8 0xA9419192CA335B08 0xD9 CALLDATASIZE SWAP4 0xE5 PC BLOBBASEFEE 0xBC 0xF 0xEC 0xCD 0xB5 CALLER GASLIMIT 0xBD 0xAE PUSH20 0x49C42B119570C762F1F5497EAF898E4BA2D378D9 0xD8 0xD2 0xD XOR 0xD0 SAR CODESIZE 0xCB PUSH11 0xC78D93961C1ECBFAADD4B0 0xCF SWAP10 SWAP12 SWAP8 0x2C 0xE4 SWAP1 0xC 0xEE SWAP16 0xAA 0xCD 0xF8 0x29 DUP11 0x1F BALANCE 0xCE STATICCALL SSTORE CREATE2 0xF9 ADDRESS 0xD1 BLOBHASH 0xB6 EXTCODESIZE PUSH27 0x33E385A688AA8A4FF3FF8D88E501DD7466B4751A02607DC91FD27E 0xBB MOD PUSH12 0x51F8DCA8D64DEC062D3F8EA6 LOG3 0xE2 DUP6 SWAP14 SGT SWAP13 OR 0xE9 CALLCODE 0x25 0xBC 0xE5 0xF6 0xC CREATE2 0xC7 0x2F 0xE5 DUP12 MLOAD NOT DUP4 0xC0 PUSH8 0xECAB88071786FEB4 0xF6 0xCF DUP4 0xE1 0xB5 0xAC CALLDATALOAD DUP8 DUP15 NOT SWAP15 0xA7 0xD2 CHAINID PUSH31 0xA66B53853F7BA20A91BB44A4A5F621404375051CBAC31997A3661641E4CE35 0xBE 0xB4 0x4E RETURNDATASIZE STOP REVERT SWAP12 PUSH27 0x3BD47E118FCB21C62281B148DFE4097C147E11227CF6075DBC7987 0xEB 0xCE PC PUSH18 0x1ED50E2B6A94C1478DB414A834345CB2B5C2 SHR 0xB5 0x25 0x2B 0xDF SWAP4 0xE4 0xBC 0x24 0xD6 CODECOPY 0xE1 0xEB 0xD8 SDIV POP STOP 0x1F 0xA9 0xAA 0x1E PUSH30 0x6ABCBA326C2B2FEADE8FD8D9073103523D7B0CE327314D3474AA6B77824A PUSH22 0x862D0CBAA5AF6E1D2CEAD16B9F050F7090CC1ECE4B52 OR LOG0 COINBASE SWAP16 0xE3 MOD PUSH14 0x81EA2E19DC6C5410C770740C1687 POP PUSH7 0x2A4801A2483187 SMOD GASPRICE OR 0xCD DIV DUP10 ADD PUSH6 0xFF19B24180CC DUP15 0xD1 PUSH9 0x70CFE0F2CCD8218324 0xE2 PUSH19 0x58B0E61CF13892A8B7ABB13E0CC19FAFF40BBD 0xD6 DUP1 LOG3 DUP10 DELEGATECALL SWAP2 DUP16 PUSH4 0xD9E20F03 0xCB 0xD3 0xF 0xB8 0x2D PUSH25 0x7479517B4E29B3DA4950B96A023A331E52C721C66F5E2292B 0xB6 0xD9 LT PUSH9 0x4EB13C86F172F66F59 LOG0 SWAP4 0xF8 LOG0 MUL CALLER EXTCODECOPY DUP8 PUSH8 0xBD594CEB63E9C6A2 0xC4 0x1F ORIGIN 0xB4 DUP5 PUSH25 0x58F72BC734DF639C032604AE71FF65AFBBDCF42ACC7EC195F3 LOG3 SWAP13 0x2A 0xF BYTE 0xDF PUSH3 0x30DE39 SWAP6 0xBC 0xE0 0x23 0xCD 0xFC PUSH11 0xF1E85D9121F84DE4A34B9C PUSH32 0xC4FF920C7617FA977E81DAC861E637D8D9E4636487AFA55618F35F7455AF8321 0xF8 0xD6 0xD5 0xD PUSH15 0x9F9221E154AD381A5B58D1C8771BE 0x1F SELFBALANCE RETURN 0xAA 0xE8 0xA9 PUSH23 0x9151CD84C1434FABCB9B0EA204DBFBD3E404128C8252D6 SMOD AND SWAP15 CREATE2 ADDRESS JUMPDEST 0xB1 0x2A MSIZE 0xE4 BLOBBASEFEE 0xC4 0xBE SWAP2 SELFBALANCE SDIV GAS PUSH16 0x200D2547A25E17E027BDA4423048F3C6 0xC5 SWAP6 0xD6 0xF8 BALANCE 0x24 PUSH23 0x7DA34E0E4B96C26F5C940CBD5F2D0CEA7678B80AEED4B0 0xDE PUSH25 0x259C86A2C207DC0F28FCBE22A1252E5D3C1A9B6C59C30E6D1E EXTCODECOPY MCOPY STATICCALL 0xE2 PUSH27 0xCC27E9B7BD23AF3DD7963A0AA8361B4DF2F2430CC761B549AF6206 SWAP12 LOG3 0xE0 STATICCALL PUSH29 0xE6C75C9F6DEFED91E8F3314C4B1ED7A5E0C83C30264E78DCB1ADB0D750 EXTCODEHASH DUP1 POP PUSH31 0xD4BF90271624D70DFCA454D1990A2F75598828D55E9071501CBB4AE790279F SWAP10 PUSH7 0x22466C1C9F131D PUSH7 0x7E8BAF7BDBD5D9 LOG4 SSTORE GT SELFDESTRUCT TIMESTAMP 0xCE SWAP14 TIMESTAMP 0xC8 SWAP14 PUSH23 0x87D469625B18C59B883833298AF76480817907AF2294A7 DIV PUSH5 0x5153C86837 0x2F CALLDATACOPY 0xD1 MOD 0xC5 0xC4 0xBF 0xBA 0x4E 0x2F PUSH20 0x309D53390894A6B2338810DA3F0D103E33717F00 0xCA 0xDD 0xC1 ADDMOD ORIGIN CALLDATALOAD PUSH21 0xDE85C6887720561AD0C9946BC510BD3954AD4D2644 PUSH2 0xFB0D 0x2D 0xEA SUB 0xB8 ISZERO SWAP7 SWAP15 SHL 0x2B 0xBE 0xB9 SWAP6 0xD3 0xF PUSH24 0x4FA49411323D20EA4F4F1652161A104AD60C9B35EF38783A SWAP16 SWAP6 SHL 0xD9 PUSH10 0xE107846AFFC11754708B PUSH10 0x4168AB9922AE691ABDEA GAS 0xC8 CALL 0x2F SWAP1 LOG1 LOG1 SELFBALANCE 0xB5 0xAC PUSH4 0x88F4C3D 0xE3 0x2E DUP2 0xD3 DUP15 PUSH26 0xA93612D9F91286D17DC13DCABF49975E2A37743D997EBC56D11B PUSH18 0xC2E430890EB9FB7C7D3B1411153DB0712935 DUP13 SWAP15 0xBF 0xD8 BLOBHASH 0xD1 LOG1 0x2D 0xE7 SELFDESTRUCT CODECOPY 0xEC GASLIMIT DUP12 PUSH2 0x6A3E PUSH9 0x85BEE7114F7A0A98B9 SWAP7 PUSH9 0x1AFA7F3A7EA25FC6D9 CALLCODE 0xB4 DUP11 0xF7 0xC5 0xD8 0xC8 0xDB 0xD SSTORE DUP10 0x2B 0xB6 PREVRANDAO PUSH2 0x752F SWAP4 0x28 CODESIZE 0xA6 0xC 0xC9 0xAA DUP8 OR DELEGATECALL ADDRESS DUP15 PUSH1 0x74 SWAP10 PUSH12 0x7B71F077A1FD9D8353AF5C08 PUSH11 0xEBED16B70CA94104744857 0x2C SWAP5 PUSH27 0x8308B479F74524A74C384D926E4BE36E8068BC635DF610B06F989D REVERT SAR PREVRANDAO JUMPDEST PUSH13 0x4BBC386C1915D9C6775DF42FD0 BLOCKHASH DUP3 PUSH11 0x8A95DEB11561234BC8DBA2 0xEE BALANCE 0xAD JUMPDEST SAR 0xDD 0xB6 SWAP5 PUSH14 0xBF1F2D9A2F7D71BBB45D94D7F9FF SELFBALANCE 0xAF 0xE9 CALLDATASIZE SUB 0xB2 DUP6 GT 0xD0 SWAP8 XOR EXTCODECOPY 0xCE 0xB1 0x25 0xD 0xD0 0xD 0xD4 POP OR DUP10 0xB2 JUMPDEST 0xB5 SELFBALANCE 0xCF 0xE6 PUSH15 0xED09BEC1871C592D06D2E4ACC30F60 0xE5 0x4C SHL 0xEC SWAP5 TIMESTAMP 0xB8 0xAA PUSH17 0x137C37B798D2DD8DBEEEA514F7907B0803 PUSH26 0x5D11E86A5A9D3B03CBE3094E9468D3FB3C1A20738C08877269A PUSH10 0x147E1F79D21604DCFB2C 0xA7 GAS PREVRANDAO 0xE3 DUP11 0xA8 PUSH29 0xF8F3F56F639C8501D336F2E72A8748669520898E9F4EAB7B0F918E10B9 0xFC CALLDATALOAD LOG0 0x24 DELEGATECALL 0xD0 JUMPI DUP13 0xE CHAINID CHAINID EXTCODECOPY 0xBF CALLDATASIZE MOD MOD STATICCALL SELFBALANCE 0xAD 0xE4 MULMOD 0xB9 SWAP4 PUSH19 0xD699342F4C7E3C807A133EE3BE1C92422CF2F0 0xE5 BLOBHASH 0x21 CALLDATASIZE 0xE8 ISZERO MOD LT COINBASE EQ 0x2A 0xD7 PUSH30 0x8E80C9A778BC04E8A62E550908C55974693603D8670BF9205553BF7F22F3 LOG3 BYTE LOG3 0xF9 RETURN 0xC0 BLOCKHASH DIV DUP14 CALLCODE PUSH24 0x10A8E485049ABFABB71B51CBBD87126E83CF2403459743B0 0xCA DUP3 LOG0 DUP1 EQ ISZERO 0xEA AND SIGNEXTEND 0xAD SWAP14 ORIGIN PUSH9 0x88DB19EA8B86BBCFAC 0xB4 DUP11 0xC3 0xC4 SLT DIV SWAP2 0xB8 SWAP4 SWAP14 SMOD CREATE SMOD 0x4C PREVRANDAO 0x4E 0xE0 0x2F PUSH26 0x917F5DED067D7E0529B0437B71FE6355170E2BCF73774C5976AC 0xFB 0xC9 SWAP12 GT AND CODESIZE 0x4B GT SWAP4 SIGNEXTEND 0xCA PUSH2 0x87DA 0xC5 0xE6 PUSH3 0xBB9250 BASEFEE PUSH32 0x845244615CB6C1B8F74AAD86D9F900CEFF74EE731A9DFFEBC26096A1E6A7726 DUP1 0xF7 0x23 LOG0 PUSH24 0xE52B600CEFBEF77EB273EA0D5D2D7B18099B4832772B56C6 0xE8 0x22 0xDF SMOD SWAP5 0x22 PUSH32 0x9D7399BC220483CAA969A8892901B894DE900A1A20DA29328343CE7CEA1A1679 ADDRESS KECCAK256 ADD SWAP9 SGT KECCAK256 AND DUP15 DUP14 DUP15 SWAP3 OR JUMP CALLCODE 0xEC 0x22 0xD2 0x1F 0xD1 ADDRESS 0xD7 NOT 0xEC 0xEA 0xAE SHL NOT CALLDATALOAD 0x4B 0xAE GT DUP14 GAS 0xF9 TSTORE PUSH5 0x8CF620249C BLOCKHASH TSTORE PUSH24 0xC7743089D9D262E29860CAB3C292DEF4FFE42284C84A0058 XOR MOD AND DUP9 INVALID GASLIMIT SELFDESTRUCT CALLDATACOPY 0xD6 STATICCALL 0x24 0xB4 0xF9 SWAP6 DUP8 0xFC MCOPY SWAP11 SLT ADDMOD 0xB3 0xED DELEGATECALL 0xD0 PUSH1 0xD0 0xC 0xFC 0xF SWAP2 DUP12 PUSH20 0x9604150598B74B981255A70D772A67F23F51C342 SLT SWAP6 DUP12 GASLIMIT LOG0 CALLDATALOAD 0x25 CALLDATACOPY 0xC9 PUSH5 0xC421601B62 PUSH25 0x7E6EB7307B99A9D6EEFD0286F927FB25F22E7E9EAF951E3031 0xE CHAINID MOD 0xC2 0x28 0xE2 CREATE2 0xC3 0xDF RETURNDATACOPY 0xEA MUL GASLIMIT PUSH28 0xB4777AF8546FB61BB1434221D998840F5CAAB9C8ADA0B5A094DD9129 0xEE 0xA5 TIMESTAMP SHR SGT KECCAK256 0xAE PUSH27 0x666B56C960BE0DD4C1EDDC1DD1DEF16E2A0FFC68A449BE9D160B00 0xCA CALLDATALOAD MSIZE SWAP15 PUSH27 0xD7CD1AFDAE000CBC76DEA82AE0EB79A34FA9A3C73BD9F1ECA8731A 0xEA SWAP2 EXTCODECOPY 0xA7 0xD1 CODESIZE SWAP6 DUP11 ORIGIN 0xC0 SWAP13 SHR MSTORE SAR 0xF6 LOG2 0x28 SELFDESTRUCT PUSH9 0x9E68FDC639C1901196 DIV 0xC9 DUP11 XOR GASLIMIT DUP1 PUSH11 0x317AF901568EC8DC475939 ISZERO CALL SHL 0xD5 0xA5 DUP7 0xF SWAP4 POP 0xE CODECOPY CALLDATALOAD ISZERO KECCAK256 0xDA PUSH0 MULMOD MCOPY 0xC6 SSTORE PUSH32 0x54E0D5628FE9CF1A20D52C426C021F0968BCEFD07AC634D7E6E02D45EB6AFA85 0xD2 DUP12 ADDRESS PUSH32 0x5D2E3F2CD6D744FB441C0C5C153DF6045C88BDC5D09DFC813CF8546D7344C70D NOT 0x4F 0xCF 0xD2 SWAP16 SWAP3 DELEGATECALL 0xB6 SWAP7 SHR 0xA6 0xC6 DUP11 0xBB SELFBALANCE TSTORE LOG1 SELFBALANCE MCOPY 0xFC SGT STOP DUP6 TSTORE 0xB5 REVERT PUSH20 0x74A5B92B4F90F49952A05AAF92CA2BDA409F3445 0x27 0xE LOG3 0xA6 0xD1 0x28 0xB4 PUSH11 0x5CD5CB245B5339A66FDF81 0x4F 0x2B DUP4 DELEGATECALL 0xC1 0x23 0xD3 SDIV 0xA7 SHR CODECOPY DUP2 SMOD LOG0 BALANCE SELFBALANCE PUSH19 0xFCD210E0C1D3EA35D99444A378E1213A9E10E6 PUSH23 0x8DAF11FDBA29CB4C24BB0E770EB1D4E5C23D9A51A3CC86 0xC7 0xD4 SHL CALLDATALOAD BALANCE 0x2F 0xC5 0xC9 NUMBER 0xF9 PUSH6 0x5F0E7DA79E6 ISZERO 0xA6 OR SSTORE 0xED GASLIMIT 0x26 DUP10 0x2B TIMESTAMP 0xCE 0x1E DUP1 0xB5 0xB0 0x27 MSTORE8 PUSH28 0xF53F0B536D4BBC0B1EB2F81535A276E50897A2BAF3BBFD981468B91F 0xCC 0xFB 0xEC PUSH13 0xEC8BDC988F00235015D6CE1DB4 MSTORE8 MUL 0xF8 0xE2 DUP7 0xE9 PUSH15 0x26E4F64EF5534AB8A55A9FFE215F89 PUSH14 0x7AE7BFFD1315122998316A3BB389 0xBF LOG1 EQ PUSH14 0x940D7E2718EDB570F12CDCC57377 0xF8 0xCA 0x23 PUSH25 0x23F10E9F89B3F0A2C44497C8A7B705786220397DCE0083335 MUL PUSH27 0x9CE9839F60234A05BD730E143866824A0E9B7672ADAA64B679DFDD DUP7 0xC8 0xE5 0x4F 0xB2 0xDF DUP4 NUMBER DUP13 KECCAK256 0x2D 0x23 0xC1 0xA9 DUP8 0xDB PUSH27 0x304A2D504E5C4573592C119FCDA1CCFE5A07D5643C4A9C0633029B DIV 0xE1 0x4D 0xE5 CALLDATASIZE PUSH24 0xBF90DC7BADDE802E588FDCA2B9081BA20F4712E662C12ADB 0x26 EXTCODEHASH MCOPY 0x4F 0xD8 SWAP4 PUSH17 0x4C5F229914CD8F37BDC3F9409E61750785 MOD DIV CALLCODE CREATE2 SWAP14 CODECOPY 0xF 0xE6 0x21 0xC9 PUSH25 0xCECCC597C37B49B8742654A6D34F71CB32D1555E72C06004D MOD 0xF6 CREATE2 0xB2 ADD SHR AND DUP4 0xC0 SWAP11 MUL 0xF6 EXTCODESIZE CODESIZE SLOAD SWAP15 0xB9 PC GT PUSH0 ORIGIN PUSH16 0xDC2BF0AA81247ACFB1CC8554493F2643 STOP ADDRESS 0xFB DUP4 0xD3 DUP8 0xA9 SWAP1 0xD7 DUP6 RETURN DUP15 DELEGATECALL PUSH7 0x9B2FC53FF8EBC2 MSTORE8 PUSH17 0x9C8648232996F1247FE42D335F9252CF1 CREATE2 PUSH17 0x316AE986B553044B0C81E635F764AB9915 0xE1 SLT SWAP5 SGT DUP7 0xAF PUSH1 0x4C 0xBB SGT DUP15 INVALID DUP14 0xDA BASEFEE STOP PUSH1 0x75 DUP15 0x27 0x4B 0xDF POP 0x2D 0x2B 0xCF SWAP12 MSTORE LT 0xE3 OR SWAP9 0xB0 DUP11 0xDC MOD 0xAD 0xEC BLOBHASH PUSH14 0x6A730820969CFBF60AB07A2A8F7C 0xFC 0xFC CALLCODE MUL 0xD 0x4C 0xAC PUSH1 0xD1 0x27 INVALID STATICCALL INVALID MOD 0xC3 SWAP16 0x25 0xAF OR BASEFEE DUP5 DUP13 CALLDATACOPY 0xD1 0xEA 0xBB 0xD6 0xA8 BLOBBASEFEE SWAP11 PUSH20 0x5AFCE06A5922E8A80AF1BFC7EB5F213DBB816F4A 0xC8 PUSH27 0xA15AEF8541B1ABE3FB4D11D8B0B082989A0FFF41AD9BDB2C1E41CB 0xE3 BASEFEE 0xA7 RETURN 0xD5 0xE2 BLOCKHASH DUP14 NOT 0xB2 PUSH9 0x17183D1F6D3B51F27A SWAP2 MSTORE PUSH21 0xEFD9598FF18A1568510B7BB366F4387EEA8FD2B20F 0xDD SWAP6 0xFB PUSH11 0x612958B5C25262C32AB3EE 0xD7 TLOAD ADDMOD MSTORE SGT CALLDATASIZE 0xBD 0xDF COINBASE SSTORE PUSH12 0x79CEE9B90B0C1CB4D36245C2 GAS PUSH32 0x8B248567FB4248313D2D0893B893B14EAF3AED6820AE987B88DA0CBA5DAD3C5B 0x26 PUSH29 0x9012405514767B01540A25E982AE7E1C98D06B14CC56241AB9B0954344 MULMOD JUMPI 0xBF 0xBE 0xB9 0xC3 DUP5 0xA7 0x4B PUSH6 0x1744FC2B7CA4 0xE1 SWAP11 GASLIMIT SUB 0x1F 0xC8 CODESIZE 0xED 0xB3 DUP1 MSIZE PUSH5 0xD6533A4A55 DUP4 0xAC JUMPI 0xD9 0xA9 0xF6 0xE6 0xDA PUSH6 0x1230A42B5AA8 0x21 PUSH9 0x743E9817923EA3EBD1 0xD3 0xA5 MCOPY CALL 0xBD SWAP2 0xA8 SWAP15 0xAC 0xC5 JUMP PUSH4 0xA0264016 PUSH20 0xE455967762F96F57B413424631198E09E7BB1BB0 PUSH9 0x44068FE44F307A8D59 MOD SAR SWAP13 JUMPDEST 0x1F CALLDATACOPY PUSH27 0xDC54722CCAF3601332EBC07660FEC4D89B5C8213031F0AA8B72E92 0xF8 SWAP12 PUSH12 0xD8472EF679FA5D617805180E PUSH15 0x605423CAC37FC15F281939770A72D EXTCODECOPY SWAP8 PUSH25 0xD5CB3AB0BFE4B296E2ED90ED19619B8B353C1043B40E03B568 LOG0 BLOBHASH LOG4 OR 0x27 PUSH13 0xB455CC5D461DB37B0B4F6B34F1 0xBB TIMESTAMP SWAP11 PUSH23 0x968726205617095E1D39B92D09DAE1C6D2E4114C5439C8 SHL 0xAA 0x28 MSIZE 0x4C 0xC0 0xAB PUSH23 0xE7F32C25C4F780C9E9D6E46A5A0A23D3BEDFE1B14BFF3E 0xEC CALLDATASIZE BLOBHASH 0x2B 0xB9 ORIGIN SWAP16 JUMP 0xDD 0xBF PUSH32 0x5E1F122838E96DCFE98C4613A1149CF273A308C777146D7F4BE2160AAC12980D SWAP8 PUSH7 0x1FAD18CF682B7C MCOPY 0x24 0x2B PUSH21 0xAAA132494D280CA444D5D2A99CD2BD426FF82D443E 0x2B PREVRANDAO 0xB8 PREVRANDAO OR CALLER 0xBD GASLIMIT 0xD 0x29 0xB8 BLOCKHASH GASPRICE CODESIZE NUMBER 0xD4 0xA7 PUSH28 0x6C70539D8965E57AF369D6F32FEAB13450F3FA985AED18142569F4EF ADDMOD 0xC2 LOG1 SWAP5 PUSH30 0xCB6E99B5AC52CDD5876C50F02BD6AFD62FC810A755110F47BD52A43C690F PUSH6 0x8374E9F7C2BC TIMESTAMP DUP6 0xC6 COINBASE 0xC7 GT PUSH11 0x4CCD2C94F684CBEB7F2A17 LOG2 SWAP16 AND 0xB6 CHAINID 0xEB 0xE9 0x4C 0x4B 0x2E 0x2C 0x4B 0xC3 PUSH22 0xCD7B002111DD55C4D212E9360CEC88C18810416D05EE 0x2E 0xED CALLVALUE AND GAS POP 0xF6 PUSH5 0x8EB3E10F77 0x24 PUSH32 0x711398A14FC77BD5711FC0FA046641EE77BF1C3C58B848252DA5A88038A20AB2 0x2B SMOD 0x23 0xC3 PUSH30 0xE4753F40A110B404C68B3D094B4CC491C55531F7BA1BBAE0B554816F0C8B 0xC3 MULMOD SWAP1 PUSH2 0xC830 SWAP10 0xF6 INVALID 0xE CALLDATASIZE PUSH2 0xA824 CREATE2 0xE4 BLOCKHASH 0xEA DELEGATECALL CODECOPY CODECOPY TLOAD LT SELFBALANCE PUSH22 0x4EC3E22F44A0F81D73A4DAE283CBDF1A0F7226BCC9AE 0xD3 BASEFEE JUMPI 0x29 PUSH13 0xE6DD82B82F1D086AC24D3B9E51 0xEC EXTCODECOPY PUSH23 0x7A89E0E0D10FDEE6A4513D6EC8F9E2D416C8B87B0C1DEA 0xF6 PUSH8 0x2EF14B11F42F975 BLOBBASEFEE 0xE6 DUP9 0xC2 KECCAK256 ISZERO 0x1E PUSH31 0x27C0331111BF9346DB0F4A36D000AC49D03C561A45E23383A0B61D2717CF33 0x1E 0xDB NUMBER LOG2 0x27 0xBE 0x4C 0xC3 0xAE 0x2D 0xD0 SWAP10 SWAP15 SMOD MSIZE GASPRICE SWAP6 0xE6 0x2C 0xB1 PUSH17 0xD4E11787CA9032A411B76E488A5EB5703A PUSH4 0xE3C43341 0xCD GT GT COINBASE 0xC3 CALLDATALOAD RETURNDATASIZE PUSH13 0x634422E63A8EE3A948E62AAA17 0xBE MSTORE8 NOT LOG2 0xC4 0xB8 ISZERO SWAP8 0xC8 PUSH27 0x78DD744742127D8F4C942E30A6884A7C40C05A1CEB38F341D5107F BALANCE ADDRESS DUP16 CODECOPY DUP6 0xD7 0x27 SMOD 0xEE 0x4C 0xC4 POP 0xAE 0xB7 SWAP12 BALANCE 0x22 0xD1 DUP11 0xB3 0xA8 GT 0xCA ORIGIN 0x26 0xDB 0xF8 SWAP9 PUSH12 0xE11183F7BD4BCFC17DB4B68F 0xE9 0xA9 0x2C 0xC4 SWAP3 0x1F 0xE1 PUSH27 0xA0352F5778718601A871C9A11AC0EAC37ADF26C0E380D9E4D4D4C1 PREVRANDAO SHL 0xCD MSTORE NUMBER DUP4 ORIGIN RETURN 0xEC SHL 0xCE 0x2C SAR 0xBD 0xA7 0xCE DUP9 TIMESTAMP PC 0xEC 0xBF 0x26 0xF6 0xE4 STOP 0x29 0xD7 PUSH17 0xEBBE895AC8CE51007D38939C48CF3ED307 LT SWAP13 0xE5 0x25 DUP1 TIMESTAMP 0xB8 SWAP11 PUSH31 0x1969E498B5039080EA3912E326B5ED2CB2C484F1C8732AAD746945530CBB65 SWAP6 0xE6 DELEGATECALL SUB DUP14 DUP10 0xE1 0xE0 0xC0 0xF9 PUSH25 0x532EC02E5E12BC9115174A6901576CFA7DF9B87F6B6685EAEB 0xB7 0xAB DUP5 0xD9 0xE SUB PUSH16 0x352B9A3F32EDC2D8FAD897F60A7ED0F5 SWAP1 PUSH27 0xA3135577A8BD38C02250CE339B3E500000A8C0BC4DBCB58FAE3E14 0xB8 0xA5 MSTORE DUP13 CODECOPY PUSH31 0xE0565C1D305C4679583C7A2273A4263FD7C0E4C0C3CD1593D70F1645829FDD 0xD2 0x2D EXTCODESIZE 0x28 INVALID PUSH1 0x8E 0xBA PUSH3 0x2B2DD6 PUSH30 0xC8282192DA3762413BA678AB7F0908DFFA0610AC0133C5F7BDFE3469934C PUSH25 0xBCB4177D2C1FC618BBAC6C2EDE6A05C83EE4F9CA0F735C449B BALANCE 0xEB 0xAF PUSH1 0xE1 DUP5 DUP9 EXP PUSH29 0xE6053DBE5C6ABF673B02BC2213ECF7B788D4FAB17371A424493BB49447 DUP6 TLOAD 0xFB COINBASE GASPRICE CALL BALANCE 0xDE MSTORE 0xBD PUSH22 0xA50B706D0602AFC4587FBCBE9DA6DAF807C3EFC632BB DUP16 0xBC DUP11 EXTCODECOPY 0xCA 0xDA 0xF7 EXTCODESIZE DUP3 PUSH22 0x42745FA828BD99E6AE097936294DB584BB7EEFA8DD7B PUSH4 0x144064F7 GT BLOCKHASH COINBASE 0xA8 DUP15 PUSH10 0xD6E9C6053751EF135A8F PUSH6 0x49527E22BFC0 PC EXP MUL 0xA7 0xDD PUSH19 0xE9EB6B6A6E73B3F6EC2690251C32A5E4B55B02 0x2F SWAP13 0xC7 EXTCODEHASH 0xD5 DUP6 TIMESTAMP BLOBBASEFEE INVALID 0xDC 0xD1 SELFDESTRUCT 0xBF PUSH31 0x46D2A8E3A86B52A937A6291ABFF8FFDE1DE3ADD8B76C0A6F372E2B921D601C PUSH0 BALANCE 0x28 0xE5 DUP6 OR MOD 0xEB PUSH1 0xAE PUSH28 0x28152769798BC48F6622FDC54EC7EFBE576BC6B263ADE79359DB0DB9 DUP15 0xE5 PUSH30 0x465D202FC4613D2F1988D409FCE47FB6BF1ADBA6A9E18B97AAE41F82DAD5 PUSH4 0x2FDB9F1C SWAP14 PUSH6 0x765D702A6D24 0xEF 0xE2 MLOAD DUP4 PUSH15 0x629FFC2881D0C218E89CC6467CACEC PUSH28 0x1CF70B0CB3219A1C4F34EF384B4B972C7B045C4B931FD84B41AD6198 CALLDATASIZE 0xB6 0xD3 SIGNEXTEND STOP 0xCD 0x2D PUSH26 0xB8879E27E7000430ADCD96D6F7C67FCF386A473752668E64C09B 0x2F DUP1 LT LOG3 DIV PUSH22 0xCFBF8A76A0346F7DF43A3EBA83F47F139060103130B1 LOG4 DUP5 0xE7 DUP2 CHAINID 0x23 0xD8 SLOAD SGT 0xBE PUSH12 0x6D4CA7746460F0466A5068D5 0x4D 0xC9 CALLDATACOPY DUP15 0xC2 0xE4 PUSH13 0xDA7D08DEB8A254260E2701EDCD PUSH29 0xEDEAAE1C11DE85B2FD1E5DAB42FA36E547682937FF684364921B513F1F JUMPI EXP 0x24 0xF 0xD0 SWAP13 0xBC PUSH16 0xDD1FFB9183668427B376483F723438DE 0xE5 0xCC GAS PUSH15 0xB961A12EADF23A07B9FEFD2E17EE0D PUSH21 0xDB1EF80CAA7745B9C9F7685FEC9B02E5EBB13B2F66 DUP10 MSTORE8 0xCF SWAP2 INVALID INVALID SIGNEXTEND PREVRANDAO 0x1F CREATE PUSH27 0x2F2938F468BC7EFD380BEF43A030E5FDC41A71118EAC608EF4B794 0xEF 0xE0 GASPRICE 0x23 0xDD SUB 0x4F SGT ISZERO PUSH13 0x2F2762E6E8772B11C7DCF8DDF RETURN 0x2B SWAP5 0x2A PUSH5 0x4366C746C LT 0xE3 MOD PUSH0 0x1F PUSH26 0x32E240446C85C3F8EE5AAB85B7727506FB03F113EB05DAC7306C PUSH22 0x8FB6565545232934CFE1A99A5FC63945A4B6D1A652D0 0x2A PUSH14 0x353D3BAFAC324754FE1A00D57E7F MUL 0xD 0xBE LOG1 PUSH19 0x31F87D83307BF940E6D6761E7913C116465BFC RETURN PUSH8 0xAA331571C24CCED6 LOG4 SWAP10 0x2E CODECOPY 0xEA SWAP13 BASEFEE 0x2F 0xC5 PUSH4 0x83625971 NOT GT SGT DUP1 STATICCALL REVERT SWAP16 ADDMOD PUSH25 0x3DD2497D64685AABB25F5ACB60204FD378E0FB0E6DA0DA22B4 MCOPY ISZERO 0x2C 0xD7 0xC4 SMOD BLOCKHASH 0xEE INVALID 0x2D EXTCODEHASH 0xEC SMOD 0xEA BALANCE DUP8 0x24 ADD 0xEC 0xBD 0xB7 PUSH3 0xCACE9E SWAP3 0xE7 0xCB 0xE3 0x4E GT SWAP3 0xD3 SWAP12 SWAP11 PUSH1 0x3B 0xBA AND 0xD 0xA8 0xF 0xDA DIV PUSH10 0xB41C2255AC4D0A46402A 0x28 PREVRANDAO 0x22 PUSH0 REVERT 0x25 CODECOPY 0x2F CHAINID PUSH6 0x8280CE7B17E4 0xE 0xEF 0xB5 0x29 PUSH8 0x3A2B3D8F6E25757E SWAP11 PREVRANDAO MCOPY PREVRANDAO 0xC7 0xA7 EQ SWAP12 0xEC 0xE4 ADD 0xDE PUSH21 0x823933559559239322E9363220D322CEA2DDBA2F6D JUMP LT INVALID DUP9 CODESIZE DUP6 SWAP9 PUSH14 0x15C53CFDDB0F8BCCEDAEE3A4492F 0x2A 0xC1 0xBE SSTORE 0xD6 CREATE 0xB2 CALL 0xE7 0xAF PUSH0 0x4C 0xAF CALL ADD PUSH24 0x904F2BA1A14949B45D15D45E07B4B3C206ED751F86B5F37D PUSH17 0xA24A4D8A7DC389AAF71839769F1F11E180 PUSH4 0xE3BC10C4 SWAP1 0xBC SLOAD PUSH14 0x8B35242A93EC4D6B61CACEE4F1D4 0xB0 XOR STOP 0xF7 0xC3 SGT PUSH31 0xBC9AC731F7B4D6375C01A874F29000C1B3F4727B65C77A2D51051BFCDECE5C PUSH3 0x826292 0xCA LOG2 0xDA PUSH15 0xC16B9974D2EB7FD3C2C20D1863DB12 0xEF EQ BLOCKHASH 0xBE MULMOD 0xC6 SWAP7 0xE6 MOD PUSH32 0xA41AD890EE8388C0290186E494CBC202E7667D19B56353CECE99092B1D93EED7 0xD2 PUSH5 0x56F285906A LOG1 SWAP7 SDIV SWAP15 0xBB 0xBC ISZERO PUSH32 0xBDE72B8ACAB6BE8EFCE28D2FAFE0589F5C826F419B1EC3AC176A42C52360E7B3 0xED 0xF9 0xC 0xD4 0xC7 PUSH29 0x915E47EF06282D48BD742D9E20A5B8DC88ABA0744A9124930CC1CC7D69 0x2D 0xEC 0xC7 CREATE 0xEE DUP11 DUP7 0xD5 MOD DELEGATECALL 0x2F PUSH21 0x816D65E974086055ADE94FF76A6FE5D14BD64A069B DUP10 0xB8 PUSH8 0x989D12C815B57541 CODESIZE PUSH21 0xCB060ADC4FBDE9DA6215B08BD3C72B9F817BD4E227 0xB8 XOR 0xF7 MUL CALLDATALOAD 0x22 MSTORE PUSH6 0xCACA14DCCB26 0x2C NUMBER 0x23 0xD 0xEF LOG4 0x4D PUSH26 0xEFBF96195B8852817B9C2A1A0CEE7B065A720651F4D30A03B234 GASLIMIT 0xD5 DUP9 0xA6 JUMPI 0xEC DUP2 DUP9 SHL CODESIZE 0xA6 0xCA PUSH29 0x96AE7D30A228EDA72F8F278929640191DE8B4C95A163F7B35D9FC5F38D 0xD1 EQ SWAP10 0xE2 RETURN CREATE BASEFEE 0x4F 0xEE 0x4D 0x4E 0x2E PUSH8 0xE80ED738C79C531B 0xB0 CALLVALUE 0xD0 0xE3 0xF7 PUSH17 0x3AE1CD93D0334F8CCE0E6FD7BBEEB9CD1A 0x4B LOG1 PUSH9 0x24F4DF329914BAF49F 0xE4 0xAE 0x2E MLOAD DUP14 DUP6 0xCD DUP9 0xBC 0x2A 0x4D PUSH22 0x11486305611AA901D1333F199A38FC9C772C5B6DDE72 0xD9 0xD9 0xEF SWAP1 0xDB 0xE2 0xA7 SELFDESTRUCT KECCAK256 0xCB SWAP7 DUP6 0xC2 0xB3 0xE 0xF8 0xC MOD PUSH10 0x95DA220811544BD79B86 PUSH30 0x6A45C5F9D5F81246EE7BD867BAE77CE1F1A5FD1347A12AC6258EA35211B6 0xBA BYTE DUP7 DUP4 NOT ISZERO DUP5 RETURNDATASIZE DUP9 DUP10 PUSH15 0x58F458F0D5765917C35E035FED90D0 PUSH3 0x19D345 0xC5 0xEC PUSH30 0x3A0AE95883CEDE928ACB380F8EF8B4B6859EF9652ABCBB767E6E79B2DD22 0xE5 SWAP8 DUP15 0xED RETURNDATACOPY 0xDD PUSH6 0xFC15F583B875 0xD1 0x4E 0x2D 0xC2 CALLCODE LOG0 0xD8 SLOAD EXTCODECOPY 0x29 SWAP2 0xE9 0xE9 0xD1 0x21 0x4B CALLCODE 0xBC DUP1 KECCAK256 0xC1 0xC1 DUP14 DUP7 SHL DUP16 0xB8 DUP3 SWAP11 0xF6 PUSH1 0xA7 0xDF 0xD3 POP ORIGIN SLT JUMP PUSH24 0x5CA613561A0B30E623640FA05D8A5F9540530EC9270D46C5 0xF6 PUSH1 0x76 SWAP1 0xC9 RETURNDATACOPY PUSH15 0x82655D295A4D3659BD1A055DD3F4BB PUSH3 0x6752A2 0xD0 PUSH8 0x59CDBBCD1BC79B83 ADDMOD PUSH7 0x49D106E50FF647 0xB8 0xFB 0x27 SWAP12 DUP15 0xC3 ADD BASEFEE PUSH27 0x755B63B15410D9583977381E2060E794DDE87459217E540739DD85 BYTE 0x21 0xE6 0xD PUSH8 0x1A6DBA94845F4248 PUSH29 0x32EC098A9C4C0C198198431B389BD1A4D6C9F88D6FBB6BEB8C25A7F861 MLOAD 0xDA ADDRESS BASEFEE 0xFB 0x29 0xCE POP PUSH1 0x76 RETURN 0xB7 CALLER SWAP8 ADD 0xF6 0xD 0xDB 0xCD 0xE5 0x29 CALLCODE 0xAD 0xCD 0xEB 0xD2 0xBF MUL SWAP5 0xC BYTE SWAP11 CALLDATACOPY DUP15 DIV DUP9 0xC2 SWAP11 EXP 0xC3 DUP11 OR 0xA9 GT DUP12 0xC5 AND TLOAD 0xEA 0x4C CALLER PUSH2 0xC2B7 0xED 0xC4 DUP6 0xFB SWAP1 0xF7 DUP9 0xD1 0xB4 0xEC CALLCODE BLOBHASH 0xB3 DUP8 ADD 0xCE 0x1E CREATE SELFBALANCE KECCAK256 SUB 0xD9 0xDB 0xA7 SIGNEXTEND 0xCB 0xBC 0x1E SSTORE SWAP10 0xB6 SGT DUP1 STATICCALL 0xE8 0xAA PUSH29 0x48F7DC2C543713FFC9A72A801E1A77F9F37C810CF8A31E0BB5EB4CDB46 CALLCODE 0xFC PUSH0 0xCA SWAP8 SGT GASPRICE 0xD0 GASPRICE 0xB9 0xCF MSTORE8 DUP9 EXTCODESIZE 0x27 EXP ADD 0x26 0xC PUSH29 0x534A0E20CD40E05E747FB3BDC07B3CFC50B3CEAC18F059EF4F65565F44 PUSH19 0x8335FB828DF7CB07583A984136302CD3BAF3B RETURNDATASIZE SWAP16 SWAP2 PUSH24 0xEF97F584B0DAAB7F0493D2577326D35E5C2E4F1092A13399 XOR 0xCB 0xDB 0xFC 0xB5 0xB1 0xDD 0xA8 0x2C BALANCE DUP2 SUB BLOCKHASH SAR BLOBBASEFEE SWAP15 DUP16 0xC3 0x21 DUP2 MSIZE MULMOD 0xDA 0xF6 SIGNEXTEND 0xCB ORIGIN 0xE3 PUSH17 0x20E105D8B9BC3AA31900CD3459046AB97E 0xB2 0x28 PUSH8 0x5846B691268DB848 0xB4 0x2B 0xE0 0xE8 0xD9 PUSH16 0x73D79C16DF5175B29D4C3E0351A24EE1 SUB 0xD2 0xCF 0xE7 0xC2 DUP4 0x1E 0x4E 0xDC 0x4D PUSH28 0xB561C29AAFC6662191BCAE8AEBD4D5113E331B9B537F4FA85989052D EXTCODECOPY CODECOPY 0xA9 CODECOPY SSTORE 0x4F 0x2B SWAP15 PUSH3 0x30E96A PUSH25 0xC24BE4D942154F765E6D4AF53A8C4DB9407A188B721B564DAF SWAP15 0xBF CALLER LOG1 CHAINID 0xBC 0xCE 0xA5 0x2C 0xBB 0xCD 0xCB 0xFB POP PUSH21 0xE921F91F7E5672E5E7C2E59D3453F983DFF90E45F SWAP2 PUSH29 0xD74501A646319FD22C952F3152B077D56558401F0BF595DB464070AB32 SSTORE EXTCODESIZE MULMOD PUSH0 PREVRANDAO 0x21 MSTORE 0x4C KECCAK256 JUMP DUP14 0xF7 0xAC DUP1 GASPRICE RETURNDATASIZE 0x29 SWAP12 RETURNDATASIZE 0xAB JUMP DUP14 SIGNEXTEND PUSH9 0xD795EB7B68B11C333B CODESIZE BYTE 0x28 CODESIZE 0xBD SWAP4 SWAP9 INVALID CALLDATACOPY 0x1F ADDMOD 0xD4 DUP16 0x2D 0xED 0x24 0xE6 0xE MUL PUSH6 0x4F18B33A4CD6 0xEE 0xB8 PUSH12 0x9FAFE856F33753CA1CC6756D 0xC4 0xF8 NUMBER 0xE0 ADDRESS CODECOPY 0xDF 0xDE DUP8 SWAP11 PUSH23 0xB715E0EE169AFA10D37A8062AECE61391764FFC6D4DC6D 0xDC 0xB5 PUSH16 0x35880BB13C705625C616A97B05678348 0xCE SAR MSTORE PUSH18 0x8BB1D8521CFF5A3D2CE5B37F7C190DC47862 0x28 0x26 LOG0 DUP9 0x2F BLOBHASH 0xD8 0xC0 REVERT EXTCODESIZE 0xE1 0x24 0xEF PUSH22 0xA7A107778FF66B5BE2B66C0B64C2084809EDE3070DBC PUSH31 0x5DE51FF90466AE52B47A293B4CFF6F0CB064B6DDE4E00650A68B154129426F 0xAA SWAP11 0x23 PUSH31 0x4BF88EB59B094786CF49A96FDC54CF6C819E1B67E2B0D687070F1BD148D0B2 STATICCALL DELEGATECALL PUSH7 0x59E6DB194BFDD5 0xD0 CALLDATACOPY 0xAE LOG0 PUSH1 0x73 PUSH26 0x52BC30026F8547737D1D861F4C7A0C0E5C99CD91E2869215DBDE PUSH13 0x4FFFE1AD1D8744F257ABA5B503 0xCB STOP BLOBBASEFEE 0xCE PUSH12 0xE69932572926930019040107 0xCA CODESIZE KECCAK256 PUSH31 0xCA80735D5DE083CD596395EE154D83576E1821B8ECB4F1931AD7721CCE29BC OR 0xFC 0x23 PUSH26 0x74322E248ADA7C23F92FE852EBA0F03F71CDFC34E6193561D342 ADDRESS DUP8 0xAA 0xAC PUSH5 0x3A9EDFE25F LOG2 0xD7 RETURN 0x26 EXTCODECOPY EXP 0xDA TSTORE PUSH6 0x53E357275B59 CALLDATALOAD PUSH32 0xC2213E1FAF714A22EEE3D5D3D502838FCDE32E542E73F204BAF6916A3AF968DB TIMESTAMP ADDRESS NOT CREATE2 PC 0xA8 PUSH29 0x104C514BD8F164D03D3DEBA7E81D29D896AAE409CAD919A995CC8717B7 LOG0 PUSH25 0xC623BD3AF80C056DC1716D04353903644E9C312415BD756683 PUSH10 0x7EB1BA4FEA32C710D0F0 SLT SWAP11 0xE7 JUMP SWAP9 0x4B MSTORE PUSH2 0x1993 0x25 GAS MULMOD SLT AND PUSH27 0xC123D1A2C9B10380A309D7F3B067B628E9DA5085D98B90B0CD852D SLOAD 0xCF 0x1E 0x29 PUSH18 0xB4C37D511FBD55CA08E2B56EE7FB91386192 SSTORE PUSH0 OR JUMPI 0xDD 0xE4 PC PUSH1 0x1C 0xE2 DUP8 0xC5 0xE5 0xB6 GT SELFDESTRUCT PUSH0 0xB5 DUP8 MLOAD 0xB3 0xEB DUP4 CALLDATALOAD 0xA8 0xB5 0xCD 0xE2 REVERT 0x28 PUSH20 0x522CEA0E9BF6F5C5560CA0091A58EE20042AC022 CALLDATACOPY 0xBF ADD DUP5 CODESIZE DUP7 0xE4 NUMBER SWAP14 DUP6 SWAP11 PUSH25 0x5362913C0CEAD1E4691F47E5AC7EC132D0C7136A9487FB0C6C CALLCODE SWAP3 0xB0 PUSH31 0x5515EB2AE942D4AAEF2DFC7F29B08F57557514CDEAC066D9EEA594A5C5388E DUP16 LT PUSH5 0xDCF19FE4BE AND 0xD5 PUSH28 0xD410F27F0132545E917CC90595E93C252A720B8D24B70BCFA0DE03A PUSH14 0x3F5D50EF840404810250839299F6 0xB7 SWAP5 0xC6 0xE9 CREATE DIV ORIGIN 0xB6 0xD PUSH29 0xA2DC6D754029CFAC5B964F09AA0ACA49DB30DA75F002BFB2EE498AC70A JUMPDEST 0xF SWAP9 0x24 GAS SHR 0x2E 0xE6 0xDA DUP13 0xD 0xD3 0xC5 SWAP13 MUL SMOD ADDRESS 0x23 SHR 0xD0 MSTORE8 0xA7 PUSH25 0x3A3AB43400F056F622B99507F09E1E16377E2D02C0C39FAAE9 AND 0x4F SHL PUSH15 0xB4908F591B45BC4D4385A161CF46BC SHL 0x28 PUSH20 0x69A5EECDFCFD140B62E0188576C886EECBE7191A PUSH21 0x6798F0FB4BFA0C7182C135EF595EF570294F7AEC7 SGT SWAP7 0xE7 0xB2 DUP11 0xB6 PUSH27 0xCCF1C37DE37EBC942BED502F53651A61FC62A1DCFC29D1CE5E11AA 0x2D 0xD7 0xE1 PUSH6 0x9029917E203C 0xC8 AND 0xAB 0xC5 CALLER 0xDC 0xA9 NUMBER PUSH7 0x4BFE41E3D298AB 0xF6 0x4D 0xC3 0xD SIGNEXTEND 0xD1 0xEC EXTCODECOPY LOG0 ORIGIN 0xB7 0xD2 PUSH28 0x8BF71A2E76CCD0C4A313642B6AAD073167B8B133CE76790A7414FCD2 SWAP13 0x4F BALANCE 0xDF PUSH31 0x37573A174B7C889DD737F94B684A8B25D8972355897802E3D9093C471054EB INVALID OR 0xAB DUP2 0xC9 0xB7 0xC3 0xBA SWAP7 SWAP2 PUSH10 0x3FE99C34802330498B1E 0xD8 REVERT 0x26 MUL 0xA9 0xD7 ADDMOD MSIZE 0x29 ADDRESS SHR MLOAD 0x21 STOP SWAP15 0x4B SWAP2 DUP8 LOG0 PUSH13 0x767EF9ACEAB2202D20926E03C1 0xEF ADD 0xE3 DUP7 0x2F SWAP2 CALLCODE 0xE8 PUSH9 0xC1E148E0F7DC729798 SWAP13 CALLDATALOAD 0x2C 0xD6 0xE5 PUSH9 0x79888E7E21C0948F52 0x29 SMOD SSTORE TIMESTAMP 0x29 0x2F CREATE2 0xD8 DELEGATECALL 0xD6 0xBF MUL 0xB2 PUSH31 0x289F82BC3934EC7BCF5D4CE5D7AA9DBF2F5F11EA16238AA5D188EBA8553B6E LOG4 0xAF 0x29 0xCA CALLDATACOPY KECCAK256 0x1F SHL SWAP13 SWAP12 0xF7 0xBA PREVRANDAO 0xF7 DUP3 PUSH5 0xAADABD0504 MOD DUP13 SWAP13 PUSH17 0x63A776872824E1AB4B34178621279772CA ADDMOD SWAP13 JUMPDEST 0xA6 0xD7 0xD4 0xC0 0xD4 CREATE2 MULMOD PUSH29 0xD8ECCB72C01DC41C17197A0F4216CA4A0D3A476DF762E4B3D4F87C8FF9 0x26 0x2C 0xE6 0xD1 0xE2 0xF8 0xC9 XOR JUMPDEST 0xD8 PUSH1 0xB2 0xB0 0x21 0xB4 0x4D 0xB3 PUSH18 0x3B420599D990195F8FE82DFACA2FC9305BC5 COINBASE LOG0 CHAINID GASLIMIT 0xFB PUSH16 0x733B27D7950A233599CED31AD97E8D32 SWAP8 MULMOD 0x4D 0xBA BLOBBASEFEE 0xBD PUSH16 0x295BE8A9589AC33D6F04A426390F6E6C 0xD7 EXP 0xEC 0x28 SWAP11 PUSH14 0x1EF3264C887280AD42A8103C52BB 0x27 ADDMOD 0xE2 0xA6 SWAP2 PUSH31 0xFB3FD9145BD1729C2C9FA67F01ABA05AB47C56441CDF0816A0B76CABC81CC9 0xF6 0xBA 0xE4 0xDE PUSH4 0x668F12AE PUSH7 0x9284B5AECA54BE PUSH8 0x80354B726E0A7BFF 0x23 DUP13 0xB5 0xCB 0x4C 0x21 PUSH16 0xCF0F507F40D3679C0ACBAEF83DD4B5B0 0xDB 0x2A SWAP15 MSTORE 0xC3 0xA6 DIV DUP16 OR 0xC7 SWAP13 BLOBBASEFEE PUSH27 0xBAFDFF1D3F955B5DA5E0816D44F817B705F484C771F1BAC2942897 EXTCODESIZE ADDRESS DUP8 0x4C SLT CALLDATASIZE OR PUSH27 0xDC709F0A6B2D32745835162F5ED9CE69F36F156031E40B2E26C32A 0xDD 0xC2 0xCE 0xB2 SWAP8 PUSH5 0x8D3FC271A5 BASEFEE 0xB9 0xBF PUSH25 0x8BFF4B2023CAB820C4A4EE8F201BBB92DCD070B78863668016 0xC2 COINBASE PUSH1 0xC2 0xC0 MSTORE8 0xDA 0xDB 0x24 STOP BYTE DELEGATECALL DIV 0x2A 0x1E MLOAD 0x24 PUSH1 0x33 SMOD POP PUSH22 0x5DD11A39D879137103F9972AD0F6D79EA24CC16610E SHR SWAP14 0xD1 SWAP9 0x4C 0xDA DUP8 0x1F DUP10 OR SUB 0xA5 PUSH8 0x6DB0633371ECA0AB 0xAC RETURN 0xD EXTCODEHASH NUMBER SGT 0xFC DUP1 PUSH32 0xBD98D613BEF1B3854B16CBD386E41F6C4A173A1312F68148CBB308289A209C21 EXTCODEHASH 0xA5 SAR 0xBC BALANCE DUP8 0x4F 0xE1 0xEE 0x1E TLOAD DUP1 SELFBALANCE 0xA5 0xC0 0xC0 EQ 0xF7 STOP 0xE 0xA5 0xD3 0xCA CALLER CALLER MOD 0xAD 0xEF JUMPI SSTORE 0xEF SELFDESTRUCT PUSH20 0x5059BC055BED75D71FBB39800B056717D62E7631 TLOAD 0x4D RETURNDATACOPY SDIV XOR MCOPY PUSH31 0xE2ECE00ADEFBA77BD5B1F4D7BB23FDE2D94AD2036E9A94304BC121F6C1845A SGT 0x27 0xD8 SWAP11 PUSH16 0x55BB9CA81EB91E07CD0F43871C3AC1F1 0xE3 PUSH28 0xD2755613ED7B3A3EC11A3EB8FFF749AB22F92446F62F85152339E3E3 PUSH20 0xC4E4AD9B657F5E665676790CA0BF8E005767AEDD TIMESTAMP PUSH10 0xD107D4F11E6B4BC7A2E4 0x21 PUSH29 0x1C3CC2E298E450D010FD622C47E2CD7880E64B2E6B2E6FDF28958CA1AE PUSH6 0x967871544BD1 0xAF 0xD7 SHR MOD 0xB4 0xB3 SWAP4 XOR 0xD5 LOG0 PUSH23 0x91A1266627AD1B40F0CEB66234377758D63F8C56E66C0 0xAF PUSH5 0x4EAD06B4E9 DUP8 0xBD 0xE9 JUMPI CHAINID PUSH31 0x75938F14040E31FE264D2CC1F55A3FCE3CE86A68196D2A06336102C14D0CC8 SWAP3 0xFC DUP8 SAR PUSH16 0x4219B29228092E58A02047D8DEBF48BA EQ TIMESTAMP 0xEA CODESIZE 0xAC 0xEB DUP3 PUSH1 0x5E DUP12 STATICCALL PUSH21 0x60C49AF4960E0528AE6D904BB6C6379FEF10CB1D1B 0xC6 0xE8 PUSH8 0x54ACF978041CE99 0xBE 0xCE 0xFB 0x21 SWAP4 0x22 0xEF LOG1 TLOAD 0x26 LOG1 COINBASE PUSH17 0x452119318CB1073B15B978FD05C40A5001 JUMP 0xE 0xDF 0x21 0xDF BLOBBASEFEE 0xAC 0x2A 0xEE 0xA5 0x2C CALLER SWAP9 PUSH13 0x164976C52DFB73B8524B9E1265 0xC 0xC2 0xE6 PUSH2 0x4EB1 0xEF 0xD1 0xD3 SGT 0x4F PC 0x25 0xCA ADDMOD DUP3 SIGNEXTEND LOG2 LOG3 DUP14 0xCD 0x25 PUSH2 0x640A 0xE9 SWAP4 MCOPY DELEGATECALL PUSH28 0x5DA8A801641A7066F7DBC52FF3651D8489971CF0F77A525CAE847ACD POP JUMP POP 0x21 PUSH24 0xB00CA5B72B3F0FB32E0BB85BB816D389FA12477AA6C86249 SWAP6 STOP 0xC5 AND 0x22 DUP13 0xD9 0xAE PUSH29 0x652C3F61F641B6590B80067116569EAF77C8EC57E85B52EE30CD621213 GASPRICE OR 0xCA GASPRICE 0x4E DUP8 0xBC REVERT PUSH22 0x7598616214D0E2B188F173EE86CCE1A411C0D2FF80E 0x1E 0xAD ORIGIN PUSH5 0x74358DBF41 0x2F DUP15 SLOAD 0xC ADD 0xAA SWAP2 OR EXTCODEHASH PUSH22 0x2E069ECC268A7427E0935DB3ACD27FB7BC097E2B2C58 0xD5 0xA6 0xAC 0xDD 0x1F 0xB4 0xC1 0xE 0xF7 SUB 0xB9 PUSH9 0x7C4C6F9DEDDC9C9D3E CREATE2 0xBA SAR SWAP11 DUP8 MSTORE SWAP14 EXP PUSH20 0x87BC569C6C642913C425FA7538CB83E2A689D5CA 0xEA 0xC5 JUMPDEST ORIGIN TSTORE CALLDATALOAD SWAP8 SLOAD PUSH31 0xF6C8DC122A2A6D000C344EEC023E56786B482A73477D0FD36701F0EDDD0829 DUP15 NUMBER SWAP2 BALANCE PREVRANDAO 0xC3 0xF7 0xB8 PUSH26 0xD09887612EFEC260ABD0D45688E61558F0288CBDDD8B5774E484 PUSH7 0xF164D5E522B544 SGT EQ EQ 0xD6 CALLCODE INVALID BYTE PUSH22 0xDC3F898674BCA43B786B3EEBB0E2AC53EA6336D2D049 PUSH16 0x23399C133EEF87007A5128B3F86D3FF9 0x4B 0xDD BYTE ADD NUMBER 0xB2 DUP14 0x4B PUSH19 0xE7B02B2022147764B03A20A11D5FB29AA2AB37 CALLCODE SWAP2 PUSH30 0xB42EF10170B5F8614BC6E4DECDA4186DFAFBA3700000000000000000000 "
        },
        "methodIdentifiers": {
          "verifyProof(uint256[2],uint256[2][2],uint256[2],uint256[4],uint256)": "a23f0199"
        }
      }
    }
  }
}