{
  "contracts/ProposalRegistry.sol": {
    "ProposalRegistry": {
      "abi": [
        {
          "inputs": [
            {
              "internalType": "address",
              "name": "_oracleSigner",
              "type": "address"
            }
          ],
          "stateMutability": "nonpayable",
          "type": "constructor"
        },
        {
          "inputs": [],
          "name": "ECDSAInvalidSignature",
          "type": "error"
        },
        {
          "inputs": [
            {
              "internalType": "uint256",
              "name": "length",
              "type": "uint256"
            }
          ],
          "name": "ECDSAInvalidSignatureLength",
          "type": "error"
        },
        {
          "inputs": [
            {
              "internalType": "bytes32",
              "name": "s",
              "type": "bytes32"
            }
          ],
          "name": "ECDSAInvalidSignatureS",
          "type": "error"
        },
        {
          "anonymous": false,
          "inputs": [
            {
              "indexed": true,
              "internalType": "uint256",
              "name": "id",
              "type": "uint256"
            },
            {
              "indexed": true,
              "internalType": "address",
              "name": "creator",
              "type": "address"
            },
            {
              "indexed": false,
              "internalType": "string",
              "name": "title",
              "type": "string"
            }
          ],
          "name": "ProposalCreated",
          "type": "event"
        },
        {
          "anonymous": false,
          "inputs": [
            {
              "indexed": true,
              "internalType": "uint256",
              "name": "id",
              "type": "uint256"
            },
            {
              "indexed": false,
              "internalType": "uint256",
              "name": "yesVotes",
              "type": "uint256"
            },
            {
              "indexed": false,
              "internalType": "uint256",
              "name": "noVotes",
              "type": "uint256"
            }
          ],
          "name": "VotesUpdated",
          "type": "event"
        },
        {
          "inputs": [
            {
              "internalType": "string",
              "name": "_title",
              "type": "string"
            },
            {
              "internalType": "string",
              "name": "_description",
              "type": "string"
            },
            {
              "internalType": "bytes",
              "name": "_serverTicket",
              "type": "bytes"
            }
          ],
          "name": "createProposal",
          "outputs": [],
          "stateMutability": "nonpayable",
          "type": "function"
        },
        {
          "inputs": [],
          "name": "oracleSigner",
          "outputs": [
            {
              "internalType": "address",
              "name": "",
              "type": "address"
            }
          ],
          "stateMutability": "view",
          "type": "function"
        },
        {
          "inputs": [],
          "name": "proposalCount",
          "outputs": [
            {
              "internalType": "uint256",
              "name": "",
              "type": "uint256"
            }
          ],
          "stateMutability": "view",
          "type": "function"
        },
        {
          "inputs": [
            {
              "internalType": "uint256",
              "name": "",
              "type": "uint256"
            }
          ],
          "name": "proposals",
          "outputs": [
            {
              "internalType": "uint256",
              "name": "id",
              "type": "uint256"
            },
            {
              "internalType": "address",
              "name": "creator",
              "type": "address"
            },
            {
              "internalType": "string",
              "name": "title",
              "type": "string"
            },
            {
              "internalType": "string",
              "name": "description",
              "type": "string"
            },
            {
              "internalType": "uint256",
              "name": "yesVotes",
              "type": "uint256"
            },
            {
              "internalType": "uint256",
              "name": "noVotes",
              "type": "uint256"
            },
            {
              "internalType": "bool",
              "name": "isActive",
              "type": "bool"
            }
          ],
          "stateMutability": "view",
          "type": "function"
        },
        {
          "inputs": [
            {
              "internalType": "uint256",
              "name": "proposalId",
              "type": "uint256"
            },
            {
              "internalType": "bool",
              "name": "support",
              "type": "bool"
            }
          ],
          "name": "recordVote",
          "outputs": [],
          "stateMutability": "nonpayable",
          "type": "function"
        },
        {
          "inputs": [
            {
              "internalType": "address",
              "name": "_votingContract",
              "type": "address"
            }
          ],
          "name": "setVotingContract",
          "outputs": [],
          "stateMutability": "nonpayable",
          "type": "function"
        },
        {
          "inputs": [],
          "name": "votingContract",
          "outputs": [
            {
              "internalType": "address",
              "name": "",
              "type": "address"
            }
          ],
          "stateMutability": "view",
          "type": "function"
        }
      ],
      "evm": {
        "bytecode": {
          "linkReferences": {},
          "object": "60806040523480156200001157600080fd5b5060405162001a4e38038062001a4e8339818101604052810190620000379190620000e8565b806000806101000a81548173ffffffffffffffffffffffffffffffffffffffff021916908373ffffffffffffffffffffffffffffffffffffffff160217905550506200011a565b600080fd5b600073ffffffffffffffffffffffffffffffffffffffff82169050919050565b6000620000b08262000083565b9050919050565b620000c281620000a3565b8114620000ce57600080fd5b50565b600081519050620000e281620000b7565b92915050565b6000602082840312156200010157620001006200007e565b5b60006200011184828501620000d1565b91505092915050565b611924806200012a6000396000f3fe608060405234801561001057600080fd5b506004361061007d5760003560e01c8063a069c1ac1161005b578063a069c1ac146100f2578063b66bfb5f1461010e578063c1fc006a1461012a578063da35c664146101485761007d565b8063013cf08b146100825780631709a61b146100b85780639d874ea5146100d6575b600080fd5b61009c60048036038101906100979190610ca9565b610166565b6040516100af9796959493929190610dd1565b60405180910390f35b6100c06102e5565b6040516100cd9190610e4e565b60405180910390f35b6100f060048036038101906100eb9190610e95565b610309565b005b61010c60048036038101906101079190610f01565b61051b565b005b61012860048036038101906101239190610fe9565b6105f0565b005b610132610927565b60405161013f9190610e4e565b60405180910390f35b61015061094d565b60405161015d919061109d565b60405180910390f35b60036020528060005260406000206000915090508060000154908060010160009054906101000a900473ffffffffffffffffffffffffffffffffffffffff16908060020180546101b5906110e7565b80601f01602080910402602001604051908101604052809291908181526020018280546101e1906110e7565b801561022e5780601f106102035761010080835404028352916020019161022e565b820191906000526020600020905b81548152906001019060200180831161021157829003601f168201915b505050505090806003018054610243906110e7565b80601f016020809104026020016040519081016040528092919081815260200182805461026f906110e7565b80156102bc5780601f10610291576101008083540402835291602001916102bc565b820191906000526020600020905b81548152906001019060200180831161029f57829003601f168201915b5050505050908060040154908060050154908060060160009054906101000a900460ff16905087565b60008054906101000a900473ffffffffffffffffffffffffffffffffffffffff1681565b600160009054906101000a900473ffffffffffffffffffffffffffffffffffffffff1673ffffffffffffffffffffffffffffffffffffffff163373ffffffffffffffffffffffffffffffffffffffff1614610399576040517f08c379a00000000000000000000000000000000000000000000000000000000081526004016103909061118a565b60405180910390fd5b6000821180156103ab57506002548211155b6103ea576040517f08c379a00000000000000000000000000000000000000000000000000000000081526004016103e1906111f6565b60405180910390fd5b6003600083815260200190815260200160002060060160009054906101000a900460ff1661044d576040517f08c379a000000000000000000000000000000000000000000000000000000000815260040161044490611288565b60405180910390fd5b80156104845760036000838152602001908152602001600020600401600081548092919061047a906112d7565b91905055506104b1565b6003600083815260200190815260200160002060050160008154809291906104ab906112d7565b91905055505b817f94eff6226f791f641bce7066ca6594846bb7a516ac27dbcecd23cb4fd3a5b8916003600085815260200190815260200160002060040154600360008681526020019081526020016000206005015460405161050f92919061131f565b60405180910390a25050565b600073ffffffffffffffffffffffffffffffffffffffff16600160009054906101000a900473ffffffffffffffffffffffffffffffffffffffff1673ffffffffffffffffffffffffffffffffffffffff16146105ac576040517f08c379a00000000000000000000000000000000000000000000000000000000081526004016105a3906113ba565b60405180910390fd5b80600160006101000a81548173ffffffffffffffffffffffffffffffffffffffff021916908373ffffffffffffffffffffffffffffffffffffffff16021790555050565b6000338787878760405160200161060b959493929190611461565b604051602081830303815290604052805190602001209050600061062e82610953565b905060006106808286868080601f016020809104026020016040519081016040528093929190818152602001838380828437600081840152601f19601f82011690508083019250505050505050610989565b905060008054906101000a900473ffffffffffffffffffffffffffffffffffffffff1673ffffffffffffffffffffffffffffffffffffffff168173ffffffffffffffffffffffffffffffffffffffff1614610710576040517f08c379a00000000000000000000000000000000000000000000000000000000081526004016107079061150c565b60405180910390fd5b60026000815480929190610723906112d7565b91905055506040518060e0016040528060025481526020013373ffffffffffffffffffffffffffffffffffffffff1681526020018a8a8080601f016020809104026020016040519081016040528093929190818152602001838380828437600081840152601f19601f82011690508083019250505050505050815260200188888080601f016020809104026020016040519081016040528093929190818152602001838380828437600081840152601f19601f8201169050808301925050505050505081526020016000815260200160008152602001600115158152506003600060025481526020019081526020016000206000820151816000015560208201518160010160006101000a81548173ffffffffffffffffffffffffffffffffffffffff021916908373ffffffffffffffffffffffffffffffffffffffff160217905550604082015181600201908161087b9190611707565b5060608201518160030190816108919190611707565b506080820151816004015560a0820151816005015560c08201518160060160006101000a81548160ff0219169083151502179055509050503373ffffffffffffffffffffffffffffffffffffffff166002547f7585f467599d0f008985f231af99293be388626ac16ca59505c2f8f88969cd638b8b604051610914929190611806565b60405180910390a3505050505050505050565b600160009054906101000a900473ffffffffffffffffffffffffffffffffffffffff1681565b60025481565b60007f19457468657265756d205369676e6564204d6573736167653a0a33320000000060005281601c52603c6000209050919050565b60008060008061099986866109b5565b9250925092506109a98282610a11565b82935050505092915050565b600080600060418451036109fa5760008060006020870151925060408701519150606087015160001a90506109ec88828585610b75565b955095509550505050610a0a565b60006002855160001b9250925092505b9250925092565b60006003811115610a2557610a2461182a565b5b826003811115610a3857610a3761182a565b5b0315610b715760016003811115610a5257610a5161182a565b5b826003811115610a6557610a6461182a565b5b03610a9c576040517ff645eedf00000000000000000000000000000000000000000000000000000000815260040160405180910390fd5b60026003811115610ab057610aaf61182a565b5b826003811115610ac357610ac261182a565b5b03610b08578060001c6040517ffce698f7000000000000000000000000000000000000000000000000000000008152600401610aff919061109d565b60405180910390fd5b600380811115610b1b57610b1a61182a565b5b826003811115610b2e57610b2d61182a565b5b03610b7057806040517fd78bce0c000000000000000000000000000000000000000000000000000000008152600401610b679190611872565b60405180910390fd5b5b5050565b60008060007f7fffffffffffffffffffffffffffffff5d576e7357a4501ddfe92f46681b20a08460001c1115610bb5576000600385925092509250610c5f565b600060018888888860405160008152602001604052604051610bda94939291906118a9565b6020604051602081039080840390855afa158015610bfc573d6000803e3d6000fd5b505050602060405103519050600073ffffffffffffffffffffffffffffffffffffffff168173ffffffffffffffffffffffffffffffffffffffff1603610c5057600060016000801b93509350935050610c5f565b8060008060001b935093509350505b9450945094915050565b600080fd5b600080fd5b6000819050919050565b610c8681610c73565b8114610c9157600080fd5b50565b600081359050610ca381610c7d565b92915050565b600060208284031215610cbf57610cbe610c69565b5b6000610ccd84828501610c94565b91505092915050565b610cdf81610c73565b82525050565b600073ffffffffffffffffffffffffffffffffffffffff82169050919050565b6000610d1082610ce5565b9050919050565b610d2081610d05565b82525050565b600081519050919050565b600082825260208201905092915050565b60005b83811015610d60578082015181840152602081019050610d45565b60008484015250505050565b6000601f19601f8301169050919050565b6000610d8882610d26565b610d928185610d31565b9350610da2818560208601610d42565b610dab81610d6c565b840191505092915050565b60008115159050919050565b610dcb81610db6565b82525050565b600060e082019050610de6600083018a610cd6565b610df36020830189610d17565b8181036040830152610e058188610d7d565b90508181036060830152610e198187610d7d565b9050610e286080830186610cd6565b610e3560a0830185610cd6565b610e4260c0830184610dc2565b98975050505050505050565b6000602082019050610e636000830184610d17565b92915050565b610e7281610db6565b8114610e7d57600080fd5b50565b600081359050610e8f81610e69565b92915050565b60008060408385031215610eac57610eab610c69565b5b6000610eba85828601610c94565b9250506020610ecb85828601610e80565b9150509250929050565b610ede81610d05565b8114610ee957600080fd5b50565b600081359050610efb81610ed5565b92915050565b600060208284031215610f1757610f16610c69565b5b6000610f2584828501610eec565b91505092915050565b600080fd5b600080fd5b600080fd5b60008083601f840112610f5357610f52610f2e565b5b8235905067ffffffffffffffff811115610f7057610f6f610f33565b5b602083019150836001820283011115610f8c57610f8b610f38565b5b9250929050565b60008083601f840112610fa957610fa8610f2e565b5b8235905067ffffffffffffffff811115610fc657610fc5610f33565b5b602083019150836001820283011115610fe257610fe1610f38565b5b9250929050565b6000806000806000806060878903121561100657611005610c69565b5b600087013567ffffffffffffffff81111561102457611023610c6e565b5b61103089828a01610f3d565b9650965050602087013567ffffffffffffffff81111561105357611052610c6e565b5b61105f89828a01610f3d565b9450945050604087013567ffffffffffffffff81111561108257611081610c6e565b5b61108e89828a01610f93565b92509250509295509295509295565b60006020820190506110b26000830184610cd6565b92915050565b7f4e487b7100000000000000000000000000000000000000000000000000000000600052602260045260246000fd5b600060028204905060018216806110ff57607f821691505b602082108103611112576111116110b8565b5b50919050565b7f556e617574686f72697a65643a204f6e6c7920746865205a4b20566f74696e6760008201527f20636f6e74726163742063616e2075706461746520766f746573000000000000602082015250565b6000611174603a83610d31565b915061117f82611118565b604082019050919050565b600060208201905081810360008301526111a381611167565b9050919050565b7f50726f706f73616c20646f6573206e6f74206578697374000000000000000000600082015250565b60006111e0601783610d31565b91506111eb826111aa565b602082019050919050565b6000602082019050818103600083015261120f816111d3565b9050919050565b7f566f74696e6720697320636c6f73656420666f7220746869732070726f706f7360008201527f616c000000000000000000000000000000000000000000000000000000000000602082015250565b6000611272602283610d31565b915061127d82611216565b604082019050919050565b600060208201905081810360008301526112a181611265565b9050919050565b7f4e487b7100000000000000000000000000000000000000000000000000000000600052601160045260246000fd5b60006112e282610c73565b91507fffffffffffffffffffffffffffffffffffffffffffffffffffffffffffffffff8203611314576113136112a8565b5b600182019050919050565b60006040820190506113346000830185610cd6565b6113416020830184610cd6565b9392505050565b7f566f74696e6720636f6e747261637420616c726561647920736574207065726d60008201527f616e656e746c7900000000000000000000000000000000000000000000000000602082015250565b60006113a4602783610d31565b91506113af82611348565b604082019050919050565b600060208201905081810360008301526113d381611397565b9050919050565b60008160601b9050919050565b60006113f2826113da565b9050919050565b6000611404826113e7565b9050919050565b61141c61141782610d05565b6113f9565b82525050565b600081905092915050565b82818337600083830152505050565b60006114488385611422565b935061145583858461142d565b82840190509392505050565b600061146d828861140b565b60148201915061147e82868861143c565b915061148b82848661143c565b91508190509695505050505050565b7f496e76616c6964206f7220666f7267656420617574686f72697a6174696f6e2060008201527f7469636b65740000000000000000000000000000000000000000000000000000602082015250565b60006114f6602683610d31565b91506115018261149a565b604082019050919050565b60006020820190508181036000830152611525816114e9565b9050919050565b7f4e487b7100000000000000000000000000000000000000000000000000000000600052604160045260246000fd5b60008190508160005260206000209050919050565b60006020601f8301049050919050565b600082821b905092915050565b6000600883026115bd7fffffffffffffffffffffffffffffffffffffffffffffffffffffffffffffffff82611580565b6115c78683611580565b95508019841693508086168417925050509392505050565b6000819050919050565b60006116046115ff6115fa84610c73565b6115df565b610c73565b9050919050565b6000819050919050565b61161e836115e9565b61163261162a8261160b565b84845461158d565b825550505050565b600090565b61164761163a565b611652818484611615565b505050565b5b818110156116765761166b60008261163f565b600181019050611658565b5050565b601f8211156116bb5761168c8161155b565b61169584611570565b810160208510156116a4578190505b6116b86116b085611570565b830182611657565b50505b505050565b600082821c905092915050565b60006116de600019846008026116c0565b1980831691505092915050565b60006116f783836116cd565b9150826002028217905092915050565b61171082610d26565b67ffffffffffffffff8111156117295761172861152c565b5b61173382546110e7565b61173e82828561167a565b600060209050601f831160018114611771576000841561175f578287015190505b61176985826116eb565b8655506117d1565b601f19841661177f8661155b565b60005b828110156117a757848901518255600182019150602085019450602081019050611782565b868310156117c457848901516117c0601f8916826116cd565b8355505b6001600288020188555050505b505050505050565b60006117e58385610d31565b93506117f283858461142d565b6117fb83610d6c565b840190509392505050565b600060208201905081810360008301526118218184866117d9565b90509392505050565b7f4e487b7100000000000000000000000000000000000000000000000000000000600052602160045260246000fd5b6000819050919050565b61186c81611859565b82525050565b60006020820190506118876000830184611863565b92915050565b600060ff82169050919050565b6118a38161188d565b82525050565b60006080820190506118be6000830187611863565b6118cb602083018661189a565b6118d86040830185611863565b6118e56060830184611863565b9594505050505056fea26469706673582212206235323210e485f00d7e03bc8e680fb2bea656afb9dade4557fc76aa1e77947164736f6c63430008180033",
          "opcodes": "PUSH1 0x80 PUSH1 0x40 MSTORE CALLVALUE DUP1 ISZERO PUSH3 0x11 JUMPI PUSH1 0x0 DUP1 REVERT JUMPDEST POP PUSH1 0x40 MLOAD PUSH3 0x1A4E CODESIZE SUB DUP1 PUSH3 0x1A4E DUP4 CODECOPY DUP2 DUP2 ADD PUSH1 0x40 MSTORE DUP2 ADD SWAP1 PUSH3 0x37 SWAP2 SWAP1 PUSH3 0xE8 JUMP JUMPDEST DUP1 PUSH1 0x0 DUP1 PUSH2 0x100 EXP DUP2 SLOAD DUP2 PUSH20 0xFFFFFFFFFFFFFFFFFFFFFFFFFFFFFFFFFFFFFFFF MUL NOT AND SWAP1 DUP4 PUSH20 0xFFFFFFFFFFFFFFFFFFFFFFFFFFFFFFFFFFFFFFFF AND MUL OR SWAP1 SSTORE POP POP PUSH3 0x11A JUMP JUMPDEST PUSH1 0x0 DUP1 REVERT JUMPDEST PUSH1 0x0 PUSH20 0xFFFFFFFFFFFFFFFFFFFFFFFFFFFFFFFFFFFFFFFF DUP3 AND SWAP1 POP SWAP2 SWAP1 POP JUMP JUMPDEST PUSH1 0x0 PUSH3 0xB0 DUP3 PUSH3 0x83 JUMP JUMPDEST SWAP1 POP SWAP2 SWAP1 POP JUMP JUMPDEST PUSH3 0xC2 DUP2 PUSH3 0xA3 JUMP JUMPDEST DUP2 EQ PUSH3 0xCE JUMPI PUSH1 0x0 DUP1 REVERT JUMPDEST POP JUMP JUMPDEST PUSH1 0x0 DUP2 MLOAD SWAP1 POP PUSH3 0xE2 DUP2 PUSH3 0xB7 JUMP JUMPDEST SWAP3 SWAP2 POP POP JUMP JUMPDEST PUSH1 0x0 PUSH1 0x20 DUP3 DUP5 SUB SLT ISZERO PUSH3 0x101 JUMPI PUSH3 0x100 PUSH3 0x7E JUMP JUMPDEST JUMPDEST PUSH1 0x0 PUSH3 0x111 DUP5 DUP3 DUP6 ADD PUSH3 0xD1 JUMP JUMPDEST SWAP2 POP POP SWAP3 SWAP2 POP POP JUMP JUMPDEST PUSH2 0x1924 DUP1 PUSH3 0x12A PUSH1 0x0 CODECOPY PUSH1 0x0 RETURN INVALID PUSH1 0x80 PUSH1 0x40 MSTORE CALLVALUE DUP1 ISZERO PUSH2 0x10 JUMPI PUSH1 0x0 DUP1 REVERT JUMPDEST POP PUSH1 0x4 CALLDATASIZE LT PUSH2 0x7D JUMPI PUSH1 0x0 CALLDATALOAD PUSH1 0xE0 SHR DUP1 PUSH4 0xA069C1AC GT PUSH2 0x5B JUMPI DUP1 PUSH4 0xA069C1AC EQ PUSH2 0xF2 JUMPI DUP1 PUSH4 0xB66BFB5F EQ PUSH2 0x10E JUMPI DUP1 PUSH4 0xC1FC006A EQ PUSH2 0x12A JUMPI DUP1 PUSH4 0xDA35C664 EQ PUSH2 0x148 JUMPI PUSH2 0x7D JUMP JUMPDEST DUP1 PUSH4 0x13CF08B EQ PUSH2 0x82 JUMPI DUP1 PUSH4 0x1709A61B EQ PUSH2 0xB8 JUMPI DUP1 PUSH4 0x9D874EA5 EQ PUSH2 0xD6 JUMPI JUMPDEST PUSH1 0x0 DUP1 REVERT JUMPDEST PUSH2 0x9C PUSH1 0x4 DUP1 CALLDATASIZE SUB DUP2 ADD SWAP1 PUSH2 0x97 SWAP2 SWAP1 PUSH2 0xCA9 JUMP JUMPDEST PUSH2 0x166 JUMP JUMPDEST PUSH1 0x40 MLOAD PUSH2 0xAF SWAP8 SWAP7 SWAP6 SWAP5 SWAP4 SWAP3 SWAP2 SWAP1 PUSH2 0xDD1 JUMP JUMPDEST PUSH1 0x40 MLOAD DUP1 SWAP2 SUB SWAP1 RETURN JUMPDEST PUSH2 0xC0 PUSH2 0x2E5 JUMP JUMPDEST PUSH1 0x40 MLOAD PUSH2 0xCD SWAP2 SWAP1 PUSH2 0xE4E JUMP JUMPDEST PUSH1 0x40 MLOAD DUP1 SWAP2 SUB SWAP1 RETURN JUMPDEST PUSH2 0xF0 PUSH1 0x4 DUP1 CALLDATASIZE SUB DUP2 ADD SWAP1 PUSH2 0xEB SWAP2 SWAP1 PUSH2 0xE95 JUMP JUMPDEST PUSH2 0x309 JUMP JUMPDEST STOP JUMPDEST PUSH2 0x10C PUSH1 0x4 DUP1 CALLDATASIZE SUB DUP2 ADD SWAP1 PUSH2 0x107 SWAP2 SWAP1 PUSH2 0xF01 JUMP JUMPDEST PUSH2 0x51B JUMP JUMPDEST STOP JUMPDEST PUSH2 0x128 PUSH1 0x4 DUP1 CALLDATASIZE SUB DUP2 ADD SWAP1 PUSH2 0x123 SWAP2 SWAP1 PUSH2 0xFE9 JUMP JUMPDEST PUSH2 0x5F0 JUMP JUMPDEST STOP JUMPDEST PUSH2 0x132 PUSH2 0x927 JUMP JUMPDEST PUSH1 0x40 MLOAD PUSH2 0x13F SWAP2 SWAP1 PUSH2 0xE4E JUMP JUMPDEST PUSH1 0x40 MLOAD DUP1 SWAP2 SUB SWAP1 RETURN JUMPDEST PUSH2 0x150 PUSH2 0x94D JUMP JUMPDEST PUSH1 0x40 MLOAD PUSH2 0x15D SWAP2 SWAP1 PUSH2 0x109D JUMP JUMPDEST PUSH1 0x40 MLOAD DUP1 SWAP2 SUB SWAP1 RETURN JUMPDEST PUSH1 0x3 PUSH1 0x20 MSTORE DUP1 PUSH1 0x0 MSTORE PUSH1 0x40 PUSH1 0x0 KECCAK256 PUSH1 0x0 SWAP2 POP SWAP1 POP DUP1 PUSH1 0x0 ADD SLOAD SWAP1 DUP1 PUSH1 0x1 ADD PUSH1 0x0 SWAP1 SLOAD SWAP1 PUSH2 0x100 EXP SWAP1 DIV PUSH20 0xFFFFFFFFFFFFFFFFFFFFFFFFFFFFFFFFFFFFFFFF AND SWAP1 DUP1 PUSH1 0x2 ADD DUP1 SLOAD PUSH2 0x1B5 SWAP1 PUSH2 0x10E7 JUMP JUMPDEST DUP1 PUSH1 0x1F ADD PUSH1 0x20 DUP1 SWAP2 DIV MUL PUSH1 0x20 ADD PUSH1 0x40 MLOAD SWAP1 DUP2 ADD PUSH1 0x40 MSTORE DUP1 SWAP3 SWAP2 SWAP1 DUP2 DUP2 MSTORE PUSH1 0x20 ADD DUP3 DUP1 SLOAD PUSH2 0x1E1 SWAP1 PUSH2 0x10E7 JUMP JUMPDEST DUP1 ISZERO PUSH2 0x22E JUMPI DUP1 PUSH1 0x1F LT PUSH2 0x203 JUMPI PUSH2 0x100 DUP1 DUP4 SLOAD DIV MUL DUP4 MSTORE SWAP2 PUSH1 0x20 ADD SWAP2 PUSH2 0x22E JUMP JUMPDEST DUP3 ADD SWAP2 SWAP1 PUSH1 0x0 MSTORE PUSH1 0x20 PUSH1 0x0 KECCAK256 SWAP1 JUMPDEST DUP2 SLOAD DUP2 MSTORE SWAP1 PUSH1 0x1 ADD SWAP1 PUSH1 0x20 ADD DUP1 DUP4 GT PUSH2 0x211 JUMPI DUP3 SWAP1 SUB PUSH1 0x1F AND DUP3 ADD SWAP2 JUMPDEST POP POP POP POP POP SWAP1 DUP1 PUSH1 0x3 ADD DUP1 SLOAD PUSH2 0x243 SWAP1 PUSH2 0x10E7 JUMP JUMPDEST DUP1 PUSH1 0x1F ADD PUSH1 0x20 DUP1 SWAP2 DIV MUL PUSH1 0x20 ADD PUSH1 0x40 MLOAD SWAP1 DUP2 ADD PUSH1 0x40 MSTORE DUP1 SWAP3 SWAP2 SWAP1 DUP2 DUP2 MSTORE PUSH1 0x20 ADD DUP3 DUP1 SLOAD PUSH2 0x26F SWAP1 PUSH2 0x10E7 JUMP JUMPDEST DUP1 ISZERO PUSH2 0x2BC JUMPI DUP1 PUSH1 0x1F LT PUSH2 0x291 JUMPI PUSH2 0x100 DUP1 DUP4 SLOAD DIV MUL DUP4 MSTORE SWAP2 PUSH1 0x20 ADD SWAP2 PUSH2 0x2BC JUMP JUMPDEST DUP3 ADD SWAP2 SWAP1 PUSH1 0x0 MSTORE PUSH1 0x20 PUSH1 0x0 KECCAK256 SWAP1 JUMPDEST DUP2 SLOAD DUP2 MSTORE SWAP1 PUSH1 0x1 ADD SWAP1 PUSH1 0x20 ADD DUP1 DUP4 GT PUSH2 0x29F JUMPI DUP3 SWAP1 SUB PUSH1 0x1F AND DUP3 ADD SWAP2 JUMPDEST POP POP POP POP POP SWAP1 DUP1 PUSH1 0x4 ADD SLOAD SWAP1 DUP1 PUSH1 0x5 ADD SLOAD SWAP1 DUP1 PUSH1 0x6 ADD PUSH1 0x0 SWAP1 SLOAD SWAP1 PUSH2 0x100 EXP SWAP1 DIV PUSH1 0xFF AND SWAP1 POP DUP8 JUMP JUMPDEST PUSH1 0x0 DUP1 SLOAD SWAP1 PUSH2 0x100 EXP SWAP1 DIV PUSH20 0xFFFFFFFFFFFFFFFFFFFFFFFFFFFFFFFFFFFFFFFF AND DUP2 JUMP JUMPDEST PUSH1 0x1 PUSH1 0x0 SWAP1 SLOAD SWAP1 PUSH2 0x100 EXP SWAP1 DIV PUSH20 0xFFFFFFFFFFFFFFFFFFFFFFFFFFFFFFFFFFFFFFFF AND PUSH20 0xFFFFFFFFFFFFFFFFFFFFFFFFFFFFFFFFFFFFFFFF AND CALLER PUSH20 0xFFFFFFFFFFFFFFFFFFFFFFFFFFFFFFFFFFFFFFFF AND EQ PUSH2 0x399 JUMPI PUSH1 0x40 MLOAD PUSH32 0x8C379A000000000000000000000000000000000000000000000000000000000 DUP2 MSTORE PUSH1 0x4 ADD PUSH2 0x390 SWAP1 PUSH2 0x118A JUMP JUMPDEST PUSH1 0x40 MLOAD DUP1 SWAP2 SUB SWAP1 REVERT JUMPDEST PUSH1 0x0 DUP3 GT DUP1 ISZERO PUSH2 0x3AB JUMPI POP PUSH1 0x2 SLOAD DUP3 GT ISZERO JUMPDEST PUSH2 0x3EA JUMPI PUSH1 0x40 MLOAD PUSH32 0x8C379A000000000000000000000000000000000000000000000000000000000 DUP2 MSTORE PUSH1 0x4 ADD PUSH2 0x3E1 SWAP1 PUSH2 0x11F6 JUMP JUMPDEST PUSH1 0x40 MLOAD DUP1 SWAP2 SUB SWAP1 REVERT JUMPDEST PUSH1 0x3 PUSH1 0x0 DUP4 DUP2 MSTORE PUSH1 0x20 ADD SWAP1 DUP2 MSTORE PUSH1 0x20 ADD PUSH1 0x0 KECCAK256 PUSH1 0x6 ADD PUSH1 0x0 SWAP1 SLOAD SWAP1 PUSH2 0x100 EXP SWAP1 DIV PUSH1 0xFF AND PUSH2 0x44D JUMPI PUSH1 0x40 MLOAD PUSH32 0x8C379A000000000000000000000000000000000000000000000000000000000 DUP2 MSTORE PUSH1 0x4 ADD PUSH2 0x444 SWAP1 PUSH2 0x1288 JUMP JUMPDEST PUSH1 0x40 MLOAD DUP1 SWAP2 SUB SWAP1 REVERT JUMPDEST DUP1 ISZERO PUSH2 0x484 JUMPI PUSH1 0x3 PUSH1 0x0 DUP4 DUP2 MSTORE PUSH1 0x20 ADD SWAP1 DUP2 MSTORE PUSH1 0x20 ADD PUSH1 0x0 KECCAK256 PUSH1 0x4 ADD PUSH1 0x0 DUP2 SLOAD DUP1 SWAP3 SWAP2 SWAP1 PUSH2 0x47A SWAP1 PUSH2 0x12D7 JUMP JUMPDEST SWAP2 SWAP1 POP SSTORE POP PUSH2 0x4B1 JUMP JUMPDEST PUSH1 0x3 PUSH1 0x0 DUP4 DUP2 MSTORE PUSH1 0x20 ADD SWAP1 DUP2 MSTORE PUSH1 0x20 ADD PUSH1 0x0 KECCAK256 PUSH1 0x5 ADD PUSH1 0x0 DUP2 SLOAD DUP1 SWAP3 SWAP2 SWAP1 PUSH2 0x4AB SWAP1 PUSH2 0x12D7 JUMP JUMPDEST SWAP2 SWAP1 POP SSTORE POP JUMPDEST DUP2 PUSH32 0x94EFF6226F791F641BCE7066CA6594846BB7A516AC27DBCECD23CB4FD3A5B891 PUSH1 0x3 PUSH1 0x0 DUP6 DUP2 MSTORE PUSH1 0x20 ADD SWAP1 DUP2 MSTORE PUSH1 0x20 ADD PUSH1 0x0 KECCAK256 PUSH1 0x4 ADD SLOAD PUSH1 0x3 PUSH1 0x0 DUP7 DUP2 MSTORE PUSH1 0x20 ADD SWAP1 DUP2 MSTORE PUSH1 0x20 ADD PUSH1 0x0 KECCAK256 PUSH1 0x5 ADD SLOAD PUSH1 0x40 MLOAD PUSH2 0x50F SWAP3 SWAP2 SWAP1 PUSH2 0x131F JUMP JUMPDEST PUSH1 0x40 MLOAD DUP1 SWAP2 SUB SWAP1 LOG2 POP POP JUMP JUMPDEST PUSH1 0x0 PUSH20 0xFFFFFFFFFFFFFFFFFFFFFFFFFFFFFFFFFFFFFFFF AND PUSH1 0x1 PUSH1 0x0 SWAP1 SLOAD SWAP1 PUSH2 0x100 EXP SWAP1 DIV PUSH20 0xFFFFFFFFFFFFFFFFFFFFFFFFFFFFFFFFFFFFFFFF AND PUSH20 0xFFFFFFFFFFFFFFFFFFFFFFFFFFFFFFFFFFFFFFFF AND EQ PUSH2 0x5AC JUMPI PUSH1 0x40 MLOAD PUSH32 0x8C379A000000000000000000000000000000000000000000000000000000000 DUP2 MSTORE PUSH1 0x4 ADD PUSH2 0x5A3 SWAP1 PUSH2 0x13BA JUMP JUMPDEST PUSH1 0x40 MLOAD DUP1 SWAP2 SUB SWAP1 REVERT JUMPDEST DUP1 PUSH1 0x1 PUSH1 0x0 PUSH2 0x100 EXP DUP2 SLOAD DUP2 PUSH20 0xFFFFFFFFFFFFFFFFFFFFFFFFFFFFFFFFFFFFFFFF MUL NOT AND SWAP1 DUP4 PUSH20 0xFFFFFFFFFFFFFFFFFFFFFFFFFFFFFFFFFFFFFFFF AND MUL OR SWAP1 SSTORE POP POP JUMP JUMPDEST PUSH1 0x0 CALLER DUP8 DUP8 DUP8 DUP8 PUSH1 0x40 MLOAD PUSH1 0x20 ADD PUSH2 0x60B SWAP6 SWAP5 SWAP4 SWAP3 SWAP2 SWAP1 PUSH2 0x1461 JUMP JUMPDEST PUSH1 0x40 MLOAD PUSH1 0x20 DUP2 DUP4 SUB SUB DUP2 MSTORE SWAP1 PUSH1 0x40 MSTORE DUP1 MLOAD SWAP1 PUSH1 0x20 ADD KECCAK256 SWAP1 POP PUSH1 0x0 PUSH2 0x62E DUP3 PUSH2 0x953 JUMP JUMPDEST SWAP1 POP PUSH1 0x0 PUSH2 0x680 DUP3 DUP7 DUP7 DUP1 DUP1 PUSH1 0x1F ADD PUSH1 0x20 DUP1 SWAP2 DIV MUL PUSH1 0x20 ADD PUSH1 0x40 MLOAD SWAP1 DUP2 ADD PUSH1 0x40 MSTORE DUP1 SWAP4 SWAP3 SWAP2 SWAP1 DUP2 DUP2 MSTORE PUSH1 0x20 ADD DUP4 DUP4 DUP1 DUP3 DUP5 CALLDATACOPY PUSH1 0x0 DUP2 DUP5 ADD MSTORE PUSH1 0x1F NOT PUSH1 0x1F DUP3 ADD AND SWAP1 POP DUP1 DUP4 ADD SWAP3 POP POP POP POP POP POP POP PUSH2 0x989 JUMP JUMPDEST SWAP1 POP PUSH1 0x0 DUP1 SLOAD SWAP1 PUSH2 0x100 EXP SWAP1 DIV PUSH20 0xFFFFFFFFFFFFFFFFFFFFFFFFFFFFFFFFFFFFFFFF AND PUSH20 0xFFFFFFFFFFFFFFFFFFFFFFFFFFFFFFFFFFFFFFFF AND DUP2 PUSH20 0xFFFFFFFFFFFFFFFFFFFFFFFFFFFFFFFFFFFFFFFF AND EQ PUSH2 0x710 JUMPI PUSH1 0x40 MLOAD PUSH32 0x8C379A000000000000000000000000000000000000000000000000000000000 DUP2 MSTORE PUSH1 0x4 ADD PUSH2 0x707 SWAP1 PUSH2 0x150C JUMP JUMPDEST PUSH1 0x40 MLOAD DUP1 SWAP2 SUB SWAP1 REVERT JUMPDEST PUSH1 0x2 PUSH1 0x0 DUP2 SLOAD DUP1 SWAP3 SWAP2 SWAP1 PUSH2 0x723 SWAP1 PUSH2 0x12D7 JUMP JUMPDEST SWAP2 SWAP1 POP SSTORE POP PUSH1 0x40 MLOAD DUP1 PUSH1 0xE0 ADD PUSH1 0x40 MSTORE DUP1 PUSH1 0x2 SLOAD DUP2 MSTORE PUSH1 0x20 ADD CALLER PUSH20 0xFFFFFFFFFFFFFFFFFFFFFFFFFFFFFFFFFFFFFFFF AND DUP2 MSTORE PUSH1 0x20 ADD DUP11 DUP11 DUP1 DUP1 PUSH1 0x1F ADD PUSH1 0x20 DUP1 SWAP2 DIV MUL PUSH1 0x20 ADD PUSH1 0x40 MLOAD SWAP1 DUP2 ADD PUSH1 0x40 MSTORE DUP1 SWAP4 SWAP3 SWAP2 SWAP1 DUP2 DUP2 MSTORE PUSH1 0x20 ADD DUP4 DUP4 DUP1 DUP3 DUP5 CALLDATACOPY PUSH1 0x0 DUP2 DUP5 ADD MSTORE PUSH1 0x1F NOT PUSH1 0x1F DUP3 ADD AND SWAP1 POP DUP1 DUP4 ADD SWAP3 POP POP POP POP POP POP POP DUP2 MSTORE PUSH1 0x20 ADD DUP9 DUP9 DUP1 DUP1 PUSH1 0x1F ADD PUSH1 0x20 DUP1 SWAP2 DIV MUL PUSH1 0x20 ADD PUSH1 0x40 MLOAD SWAP1 DUP2 ADD PUSH1 0x40 MSTORE DUP1 SWAP4 SWAP3 SWAP2 SWAP1 DUP2 DUP2 MSTORE PUSH1 0x20 ADD DUP4 DUP4 DUP1 DUP3 DUP5 CALLDATACOPY PUSH1 0x0 DUP2 DUP5 ADD MSTORE PUSH1 0x1F NOT PUSH1 0x1F DUP3 ADD AND SWAP1 POP DUP1 DUP4 ADD SWAP3 POP POP POP POP POP POP POP DUP2 MSTORE PUSH1 0x20 ADD PUSH1 0x0 DUP2 MSTORE PUSH1 0x20 ADD PUSH1 0x0 DUP2 MSTORE PUSH1 0x20 ADD PUSH1 0x1 ISZERO ISZERO DUP2 MSTORE POP PUSH1 0x3 PUSH1 0x0 PUSH1 0x2 SLOAD DUP2 MSTORE PUSH1 0x20 ADD SWAP1 DUP2 MSTORE PUSH1 0x20 ADD PUSH1 0x0 KECCAK256 PUSH1 0x0 DUP3 ADD MLOAD DUP2 PUSH1 0x0 ADD SSTORE PUSH1 0x20 DUP3 ADD MLOAD DUP2 PUSH1 0x1 ADD PUSH1 0x0 PUSH2 0x100 EXP DUP2 SLOAD DUP2 PUSH20 0xFFFFFFFFFFFFFFFFFFFFFFFFFFFFFFFFFFFFFFFF MUL NOT AND SWAP1 DUP4 PUSH20 0xFFFFFFFFFFFFFFFFFFFFFFFFFFFFFFFFFFFFFFFF AND MUL OR SWAP1 SSTORE POP PUSH1 0x40 DUP3 ADD MLOAD DUP2 PUSH1 0x2 ADD SWAP1 DUP2 PUSH2 0x87B SWAP2 SWAP1 PUSH2 0x1707 JUMP JUMPDEST POP PUSH1 0x60 DUP3 ADD MLOAD DUP2 PUSH1 0x3 ADD SWAP1 DUP2 PUSH2 0x891 SWAP2 SWAP1 PUSH2 0x1707 JUMP JUMPDEST POP PUSH1 0x80 DUP3 ADD MLOAD DUP2 PUSH1 0x4 ADD SSTORE PUSH1 0xA0 DUP3 ADD MLOAD DUP2 PUSH1 0x5 ADD SSTORE PUSH1 0xC0 DUP3 ADD MLOAD DUP2 PUSH1 0x6 ADD PUSH1 0x0 PUSH2 0x100 EXP DUP2 SLOAD DUP2 PUSH1 0xFF MUL NOT AND SWAP1 DUP4 ISZERO ISZERO MUL OR SWAP1 SSTORE POP SWAP1 POP POP CALLER PUSH20 0xFFFFFFFFFFFFFFFFFFFFFFFFFFFFFFFFFFFFFFFF AND PUSH1 0x2 SLOAD PUSH32 0x7585F467599D0F008985F231AF99293BE388626AC16CA59505C2F8F88969CD63 DUP12 DUP12 PUSH1 0x40 MLOAD PUSH2 0x914 SWAP3 SWAP2 SWAP1 PUSH2 0x1806 JUMP JUMPDEST PUSH1 0x40 MLOAD DUP1 SWAP2 SUB SWAP1 LOG3 POP POP POP POP POP POP POP POP POP JUMP JUMPDEST PUSH1 0x1 PUSH1 0x0 SWAP1 SLOAD SWAP1 PUSH2 0x100 EXP SWAP1 DIV PUSH20 0xFFFFFFFFFFFFFFFFFFFFFFFFFFFFFFFFFFFFFFFF AND DUP2 JUMP JUMPDEST PUSH1 0x2 SLOAD DUP2 JUMP JUMPDEST PUSH1 0x0 PUSH32 0x19457468657265756D205369676E6564204D6573736167653A0A333200000000 PUSH1 0x0 MSTORE DUP2 PUSH1 0x1C MSTORE PUSH1 0x3C PUSH1 0x0 KECCAK256 SWAP1 POP SWAP2 SWAP1 POP JUMP JUMPDEST PUSH1 0x0 DUP1 PUSH1 0x0 DUP1 PUSH2 0x999 DUP7 DUP7 PUSH2 0x9B5 JUMP JUMPDEST SWAP3 POP SWAP3 POP SWAP3 POP PUSH2 0x9A9 DUP3 DUP3 PUSH2 0xA11 JUMP JUMPDEST DUP3 SWAP4 POP POP POP POP SWAP3 SWAP2 POP POP JUMP JUMPDEST PUSH1 0x0 DUP1 PUSH1 0x0 PUSH1 0x41 DUP5 MLOAD SUB PUSH2 0x9FA JUMPI PUSH1 0x0 DUP1 PUSH1 0x0 PUSH1 0x20 DUP8 ADD MLOAD SWAP3 POP PUSH1 0x40 DUP8 ADD MLOAD SWAP2 POP PUSH1 0x60 DUP8 ADD MLOAD PUSH1 0x0 BYTE SWAP1 POP PUSH2 0x9EC DUP9 DUP3 DUP6 DUP6 PUSH2 0xB75 JUMP JUMPDEST SWAP6 POP SWAP6 POP SWAP6 POP POP POP POP PUSH2 0xA0A JUMP JUMPDEST PUSH1 0x0 PUSH1 0x2 DUP6 MLOAD PUSH1 0x0 SHL SWAP3 POP SWAP3 POP SWAP3 POP JUMPDEST SWAP3 POP SWAP3 POP SWAP3 JUMP JUMPDEST PUSH1 0x0 PUSH1 0x3 DUP2 GT ISZERO PUSH2 0xA25 JUMPI PUSH2 0xA24 PUSH2 0x182A JUMP JUMPDEST JUMPDEST DUP3 PUSH1 0x3 DUP2 GT ISZERO PUSH2 0xA38 JUMPI PUSH2 0xA37 PUSH2 0x182A JUMP JUMPDEST JUMPDEST SUB ISZERO PUSH2 0xB71 JUMPI PUSH1 0x1 PUSH1 0x3 DUP2 GT ISZERO PUSH2 0xA52 JUMPI PUSH2 0xA51 PUSH2 0x182A JUMP JUMPDEST JUMPDEST DUP3 PUSH1 0x3 DUP2 GT ISZERO PUSH2 0xA65 JUMPI PUSH2 0xA64 PUSH2 0x182A JUMP JUMPDEST JUMPDEST SUB PUSH2 0xA9C JUMPI PUSH1 0x40 MLOAD PUSH32 0xF645EEDF00000000000000000000000000000000000000000000000000000000 DUP2 MSTORE PUSH1 0x4 ADD PUSH1 0x40 MLOAD DUP1 SWAP2 SUB SWAP1 REVERT JUMPDEST PUSH1 0x2 PUSH1 0x3 DUP2 GT ISZERO PUSH2 0xAB0 JUMPI PUSH2 0xAAF PUSH2 0x182A JUMP JUMPDEST JUMPDEST DUP3 PUSH1 0x3 DUP2 GT ISZERO PUSH2 0xAC3 JUMPI PUSH2 0xAC2 PUSH2 0x182A JUMP JUMPDEST JUMPDEST SUB PUSH2 0xB08 JUMPI DUP1 PUSH1 0x0 SHR PUSH1 0x40 MLOAD PUSH32 0xFCE698F700000000000000000000000000000000000000000000000000000000 DUP2 MSTORE PUSH1 0x4 ADD PUSH2 0xAFF SWAP2 SWAP1 PUSH2 0x109D JUMP JUMPDEST PUSH1 0x40 MLOAD DUP1 SWAP2 SUB SWAP1 REVERT JUMPDEST PUSH1 0x3 DUP1 DUP2 GT ISZERO PUSH2 0xB1B JUMPI PUSH2 0xB1A PUSH2 0x182A JUMP JUMPDEST JUMPDEST DUP3 PUSH1 0x3 DUP2 GT ISZERO PUSH2 0xB2E JUMPI PUSH2 0xB2D PUSH2 0x182A JUMP JUMPDEST JUMPDEST SUB PUSH2 0xB70 JUMPI DUP1 PUSH1 0x40 MLOAD PUSH32 0xD78BCE0C00000000000000000000000000000000000000000000000000000000 DUP2 MSTORE PUSH1 0x4 ADD PUSH2 0xB67 SWAP2 SWAP1 PUSH2 0x1872 JUMP JUMPDEST PUSH1 0x40 MLOAD DUP1 SWAP2 SUB SWAP1 REVERT JUMPDEST JUMPDEST POP POP JUMP JUMPDEST PUSH1 0x0 DUP1 PUSH1 0x0 PUSH32 0x7FFFFFFFFFFFFFFFFFFFFFFFFFFFFFFF5D576E7357A4501DDFE92F46681B20A0 DUP5 PUSH1 0x0 SHR GT ISZERO PUSH2 0xBB5 JUMPI PUSH1 0x0 PUSH1 0x3 DUP6 SWAP3 POP SWAP3 POP SWAP3 POP PUSH2 0xC5F JUMP JUMPDEST PUSH1 0x0 PUSH1 0x1 DUP9 DUP9 DUP9 DUP9 PUSH1 0x40 MLOAD PUSH1 0x0 DUP2 MSTORE PUSH1 0x20 ADD PUSH1 0x40 MSTORE PUSH1 0x40 MLOAD PUSH2 0xBDA SWAP5 SWAP4 SWAP3 SWAP2 SWAP1 PUSH2 0x18A9 JUMP JUMPDEST PUSH1 0x20 PUSH1 0x40 MLOAD PUSH1 0x20 DUP2 SUB SWAP1 DUP1 DUP5 SUB SWAP1 DUP6 GAS STATICCALL ISZERO DUP1 ISZERO PUSH2 0xBFC JUMPI RETURNDATASIZE PUSH1 0x0 DUP1 RETURNDATACOPY RETURNDATASIZE PUSH1 0x0 REVERT JUMPDEST POP POP POP PUSH1 0x20 PUSH1 0x40 MLOAD SUB MLOAD SWAP1 POP PUSH1 0x0 PUSH20 0xFFFFFFFFFFFFFFFFFFFFFFFFFFFFFFFFFFFFFFFF AND DUP2 PUSH20 0xFFFFFFFFFFFFFFFFFFFFFFFFFFFFFFFFFFFFFFFF AND SUB PUSH2 0xC50 JUMPI PUSH1 0x0 PUSH1 0x1 PUSH1 0x0 DUP1 SHL SWAP4 POP SWAP4 POP SWAP4 POP POP PUSH2 0xC5F JUMP JUMPDEST DUP1 PUSH1 0x0 DUP1 PUSH1 0x0 SHL SWAP4 POP SWAP4 POP SWAP4 POP POP JUMPDEST SWAP5 POP SWAP5 POP SWAP5 SWAP2 POP POP JUMP JUMPDEST PUSH1 0x0 DUP1 REVERT JUMPDEST PUSH1 0x0 DUP1 REVERT JUMPDEST PUSH1 0x0 DUP2 SWAP1 POP SWAP2 SWAP1 POP JUMP JUMPDEST PUSH2 0xC86 DUP2 PUSH2 0xC73 JUMP JUMPDEST DUP2 EQ PUSH2 0xC91 JUMPI PUSH1 0x0 DUP1 REVERT JUMPDEST POP JUMP JUMPDEST PUSH1 0x0 DUP2 CALLDATALOAD SWAP1 POP PUSH2 0xCA3 DUP2 PUSH2 0xC7D JUMP JUMPDEST SWAP3 SWAP2 POP POP JUMP JUMPDEST PUSH1 0x0 PUSH1 0x20 DUP3 DUP5 SUB SLT ISZERO PUSH2 0xCBF JUMPI PUSH2 0xCBE PUSH2 0xC69 JUMP JUMPDEST JUMPDEST PUSH1 0x0 PUSH2 0xCCD DUP5 DUP3 DUP6 ADD PUSH2 0xC94 JUMP JUMPDEST SWAP2 POP POP SWAP3 SWAP2 POP POP JUMP JUMPDEST PUSH2 0xCDF DUP2 PUSH2 0xC73 JUMP JUMPDEST DUP3 MSTORE POP POP JUMP JUMPDEST PUSH1 0x0 PUSH20 0xFFFFFFFFFFFFFFFFFFFFFFFFFFFFFFFFFFFFFFFF DUP3 AND SWAP1 POP SWAP2 SWAP1 POP JUMP JUMPDEST PUSH1 0x0 PUSH2 0xD10 DUP3 PUSH2 0xCE5 JUMP JUMPDEST SWAP1 POP SWAP2 SWAP1 POP JUMP JUMPDEST PUSH2 0xD20 DUP2 PUSH2 0xD05 JUMP JUMPDEST DUP3 MSTORE POP POP JUMP JUMPDEST PUSH1 0x0 DUP2 MLOAD SWAP1 POP SWAP2 SWAP1 POP JUMP JUMPDEST PUSH1 0x0 DUP3 DUP3 MSTORE PUSH1 0x20 DUP3 ADD SWAP1 POP SWAP3 SWAP2 POP POP JUMP JUMPDEST PUSH1 0x0 JUMPDEST DUP4 DUP2 LT ISZERO PUSH2 0xD60 JUMPI DUP1 DUP3 ADD MLOAD DUP2 DUP5 ADD MSTORE PUSH1 0x20 DUP2 ADD SWAP1 POP PUSH2 0xD45 JUMP JUMPDEST PUSH1 0x0 DUP5 DUP5 ADD MSTORE POP POP POP POP JUMP JUMPDEST PUSH1 0x0 PUSH1 0x1F NOT PUSH1 0x1F DUP4 ADD AND SWAP1 POP SWAP2 SWAP1 POP JUMP JUMPDEST PUSH1 0x0 PUSH2 0xD88 DUP3 PUSH2 0xD26 JUMP JUMPDEST PUSH2 0xD92 DUP2 DUP6 PUSH2 0xD31 JUMP JUMPDEST SWAP4 POP PUSH2 0xDA2 DUP2 DUP6 PUSH1 0x20 DUP7 ADD PUSH2 0xD42 JUMP JUMPDEST PUSH2 0xDAB DUP2 PUSH2 0xD6C JUMP JUMPDEST DUP5 ADD SWAP2 POP POP SWAP3 SWAP2 POP POP JUMP JUMPDEST PUSH1 0x0 DUP2 ISZERO ISZERO SWAP1 POP SWAP2 SWAP1 POP JUMP JUMPDEST PUSH2 0xDCB DUP2 PUSH2 0xDB6 JUMP JUMPDEST DUP3 MSTORE POP POP JUMP JUMPDEST PUSH1 0x0 PUSH1 0xE0 DUP3 ADD SWAP1 POP PUSH2 0xDE6 PUSH1 0x0 DUP4 ADD DUP11 PUSH2 0xCD6 JUMP JUMPDEST PUSH2 0xDF3 PUSH1 0x20 DUP4 ADD DUP10 PUSH2 0xD17 JUMP JUMPDEST DUP2 DUP2 SUB PUSH1 0x40 DUP4 ADD MSTORE PUSH2 0xE05 DUP2 DUP9 PUSH2 0xD7D JUMP JUMPDEST SWAP1 POP DUP2 DUP2 SUB PUSH1 0x60 DUP4 ADD MSTORE PUSH2 0xE19 DUP2 DUP8 PUSH2 0xD7D JUMP JUMPDEST SWAP1 POP PUSH2 0xE28 PUSH1 0x80 DUP4 ADD DUP7 PUSH2 0xCD6 JUMP JUMPDEST PUSH2 0xE35 PUSH1 0xA0 DUP4 ADD DUP6 PUSH2 0xCD6 JUMP JUMPDEST PUSH2 0xE42 PUSH1 0xC0 DUP4 ADD DUP5 PUSH2 0xDC2 JUMP JUMPDEST SWAP9 SWAP8 POP POP POP POP POP POP POP POP JUMP JUMPDEST PUSH1 0x0 PUSH1 0x20 DUP3 ADD SWAP1 POP PUSH2 0xE63 PUSH1 0x0 DUP4 ADD DUP5 PUSH2 0xD17 JUMP JUMPDEST SWAP3 SWAP2 POP POP JUMP JUMPDEST PUSH2 0xE72 DUP2 PUSH2 0xDB6 JUMP JUMPDEST DUP2 EQ PUSH2 0xE7D JUMPI PUSH1 0x0 DUP1 REVERT JUMPDEST POP JUMP JUMPDEST PUSH1 0x0 DUP2 CALLDATALOAD SWAP1 POP PUSH2 0xE8F DUP2 PUSH2 0xE69 JUMP JUMPDEST SWAP3 SWAP2 POP POP JUMP JUMPDEST PUSH1 0x0 DUP1 PUSH1 0x40 DUP4 DUP6 SUB SLT ISZERO PUSH2 0xEAC JUMPI PUSH2 0xEAB PUSH2 0xC69 JUMP JUMPDEST JUMPDEST PUSH1 0x0 PUSH2 0xEBA DUP6 DUP3 DUP7 ADD PUSH2 0xC94 JUMP JUMPDEST SWAP3 POP POP PUSH1 0x20 PUSH2 0xECB DUP6 DUP3 DUP7 ADD PUSH2 0xE80 JUMP JUMPDEST SWAP2 POP POP SWAP3 POP SWAP3 SWAP1 POP JUMP JUMPDEST PUSH2 0xEDE DUP2 PUSH2 0xD05 JUMP JUMPDEST DUP2 EQ PUSH2 0xEE9 JUMPI PUSH1 0x0 DUP1 REVERT JUMPDEST POP JUMP JUMPDEST PUSH1 0x0 DUP2 CALLDATALOAD SWAP1 POP PUSH2 0xEFB DUP2 PUSH2 0xED5 JUMP JUMPDEST SWAP3 SWAP2 POP POP JUMP JUMPDEST PUSH1 0x0 PUSH1 0x20 DUP3 DUP5 SUB SLT ISZERO PUSH2 0xF17 JUMPI PUSH2 0xF16 PUSH2 0xC69 JUMP JUMPDEST JUMPDEST PUSH1 0x0 PUSH2 0xF25 DUP5 DUP3 DUP6 ADD PUSH2 0xEEC JUMP JUMPDEST SWAP2 POP POP SWAP3 SWAP2 POP POP JUMP JUMPDEST PUSH1 0x0 DUP1 REVERT JUMPDEST PUSH1 0x0 DUP1 REVERT JUMPDEST PUSH1 0x0 DUP1 REVERT JUMPDEST PUSH1 0x0 DUP1 DUP4 PUSH1 0x1F DUP5 ADD SLT PUSH2 0xF53 JUMPI PUSH2 0xF52 PUSH2 0xF2E JUMP JUMPDEST JUMPDEST DUP3 CALLDATALOAD SWAP1 POP PUSH8 0xFFFFFFFFFFFFFFFF DUP2 GT ISZERO PUSH2 0xF70 JUMPI PUSH2 0xF6F PUSH2 0xF33 JUMP JUMPDEST JUMPDEST PUSH1 0x20 DUP4 ADD SWAP2 POP DUP4 PUSH1 0x1 DUP3 MUL DUP4 ADD GT ISZERO PUSH2 0xF8C JUMPI PUSH2 0xF8B PUSH2 0xF38 JUMP JUMPDEST JUMPDEST SWAP3 POP SWAP3 SWAP1 POP JUMP JUMPDEST PUSH1 0x0 DUP1 DUP4 PUSH1 0x1F DUP5 ADD SLT PUSH2 0xFA9 JUMPI PUSH2 0xFA8 PUSH2 0xF2E JUMP JUMPDEST JUMPDEST DUP3 CALLDATALOAD SWAP1 POP PUSH8 0xFFFFFFFFFFFFFFFF DUP2 GT ISZERO PUSH2 0xFC6 JUMPI PUSH2 0xFC5 PUSH2 0xF33 JUMP JUMPDEST JUMPDEST PUSH1 0x20 DUP4 ADD SWAP2 POP DUP4 PUSH1 0x1 DUP3 MUL DUP4 ADD GT ISZERO PUSH2 0xFE2 JUMPI PUSH2 0xFE1 PUSH2 0xF38 JUMP JUMPDEST JUMPDEST SWAP3 POP SWAP3 SWAP1 POP JUMP JUMPDEST PUSH1 0x0 DUP1 PUSH1 0x0 DUP1 PUSH1 0x0 DUP1 PUSH1 0x60 DUP8 DUP10 SUB SLT ISZERO PUSH2 0x1006 JUMPI PUSH2 0x1005 PUSH2 0xC69 JUMP JUMPDEST JUMPDEST PUSH1 0x0 DUP8 ADD CALLDATALOAD PUSH8 0xFFFFFFFFFFFFFFFF DUP2 GT ISZERO PUSH2 0x1024 JUMPI PUSH2 0x1023 PUSH2 0xC6E JUMP JUMPDEST JUMPDEST PUSH2 0x1030 DUP10 DUP3 DUP11 ADD PUSH2 0xF3D JUMP JUMPDEST SWAP7 POP SWAP7 POP POP PUSH1 0x20 DUP8 ADD CALLDATALOAD PUSH8 0xFFFFFFFFFFFFFFFF DUP2 GT ISZERO PUSH2 0x1053 JUMPI PUSH2 0x1052 PUSH2 0xC6E JUMP JUMPDEST JUMPDEST PUSH2 0x105F DUP10 DUP3 DUP11 ADD PUSH2 0xF3D JUMP JUMPDEST SWAP5 POP SWAP5 POP POP PUSH1 0x40 DUP8 ADD CALLDATALOAD PUSH8 0xFFFFFFFFFFFFFFFF DUP2 GT ISZERO PUSH2 0x1082 JUMPI PUSH2 0x1081 PUSH2 0xC6E JUMP JUMPDEST JUMPDEST PUSH2 0x108E DUP10 DUP3 DUP11 ADD PUSH2 0xF93 JUMP JUMPDEST SWAP3 POP SWAP3 POP POP SWAP3 SWAP6 POP SWAP3 SWAP6 POP SWAP3 SWAP6 JUMP JUMPDEST PUSH1 0x0 PUSH1 0x20 DUP3 ADD SWAP1 POP PUSH2 0x10B2 PUSH1 0x0 DUP4 ADD DUP5 PUSH2 0xCD6 JUMP JUMPDEST SWAP3 SWAP2 POP POP JUMP JUMPDEST PUSH32 0x4E487B7100000000000000000000000000000000000000000000000000000000 PUSH1 0x0 MSTORE PUSH1 0x22 PUSH1 0x4 MSTORE PUSH1 0x24 PUSH1 0x0 REVERT JUMPDEST PUSH1 0x0 PUSH1 0x2 DUP3 DIV SWAP1 POP PUSH1 0x1 DUP3 AND DUP1 PUSH2 0x10FF JUMPI PUSH1 0x7F DUP3 AND SWAP2 POP JUMPDEST PUSH1 0x20 DUP3 LT DUP2 SUB PUSH2 0x1112 JUMPI PUSH2 0x1111 PUSH2 0x10B8 JUMP JUMPDEST JUMPDEST POP SWAP2 SWAP1 POP JUMP JUMPDEST PUSH32 0x556E617574686F72697A65643A204F6E6C7920746865205A4B20566F74696E67 PUSH1 0x0 DUP3 ADD MSTORE PUSH32 0x20636F6E74726163742063616E2075706461746520766F746573000000000000 PUSH1 0x20 DUP3 ADD MSTORE POP JUMP JUMPDEST PUSH1 0x0 PUSH2 0x1174 PUSH1 0x3A DUP4 PUSH2 0xD31 JUMP JUMPDEST SWAP2 POP PUSH2 0x117F DUP3 PUSH2 0x1118 JUMP JUMPDEST PUSH1 0x40 DUP3 ADD SWAP1 POP SWAP2 SWAP1 POP JUMP JUMPDEST PUSH1 0x0 PUSH1 0x20 DUP3 ADD SWAP1 POP DUP2 DUP2 SUB PUSH1 0x0 DUP4 ADD MSTORE PUSH2 0x11A3 DUP2 PUSH2 0x1167 JUMP JUMPDEST SWAP1 POP SWAP2 SWAP1 POP JUMP JUMPDEST PUSH32 0x50726F706F73616C20646F6573206E6F74206578697374000000000000000000 PUSH1 0x0 DUP3 ADD MSTORE POP JUMP JUMPDEST PUSH1 0x0 PUSH2 0x11E0 PUSH1 0x17 DUP4 PUSH2 0xD31 JUMP JUMPDEST SWAP2 POP PUSH2 0x11EB DUP3 PUSH2 0x11AA JUMP JUMPDEST PUSH1 0x20 DUP3 ADD SWAP1 POP SWAP2 SWAP1 POP JUMP JUMPDEST PUSH1 0x0 PUSH1 0x20 DUP3 ADD SWAP1 POP DUP2 DUP2 SUB PUSH1 0x0 DUP4 ADD MSTORE PUSH2 0x120F DUP2 PUSH2 0x11D3 JUMP JUMPDEST SWAP1 POP SWAP2 SWAP1 POP JUMP JUMPDEST PUSH32 0x566F74696E6720697320636C6F73656420666F7220746869732070726F706F73 PUSH1 0x0 DUP3 ADD MSTORE PUSH32 0x616C000000000000000000000000000000000000000000000000000000000000 PUSH1 0x20 DUP3 ADD MSTORE POP JUMP JUMPDEST PUSH1 0x0 PUSH2 0x1272 PUSH1 0x22 DUP4 PUSH2 0xD31 JUMP JUMPDEST SWAP2 POP PUSH2 0x127D DUP3 PUSH2 0x1216 JUMP JUMPDEST PUSH1 0x40 DUP3 ADD SWAP1 POP SWAP2 SWAP1 POP JUMP JUMPDEST PUSH1 0x0 PUSH1 0x20 DUP3 ADD SWAP1 POP DUP2 DUP2 SUB PUSH1 0x0 DUP4 ADD MSTORE PUSH2 0x12A1 DUP2 PUSH2 0x1265 JUMP JUMPDEST SWAP1 POP SWAP2 SWAP1 POP JUMP JUMPDEST PUSH32 0x4E487B7100000000000000000000000000000000000000000000000000000000 PUSH1 0x0 MSTORE PUSH1 0x11 PUSH1 0x4 MSTORE PUSH1 0x24 PUSH1 0x0 REVERT JUMPDEST PUSH1 0x0 PUSH2 0x12E2 DUP3 PUSH2 0xC73 JUMP JUMPDEST SWAP2 POP PUSH32 0xFFFFFFFFFFFFFFFFFFFFFFFFFFFFFFFFFFFFFFFFFFFFFFFFFFFFFFFFFFFFFFFF DUP3 SUB PUSH2 0x1314 JUMPI PUSH2 0x1313 PUSH2 0x12A8 JUMP JUMPDEST JUMPDEST PUSH1 0x1 DUP3 ADD SWAP1 POP SWAP2 SWAP1 POP JUMP JUMPDEST PUSH1 0x0 PUSH1 0x40 DUP3 ADD SWAP1 POP PUSH2 0x1334 PUSH1 0x0 DUP4 ADD DUP6 PUSH2 0xCD6 JUMP JUMPDEST PUSH2 0x1341 PUSH1 0x20 DUP4 ADD DUP5 PUSH2 0xCD6 JUMP JUMPDEST SWAP4 SWAP3 POP POP POP JUMP JUMPDEST PUSH32 0x566F74696E6720636F6E747261637420616C726561647920736574207065726D PUSH1 0x0 DUP3 ADD MSTORE PUSH32 0x616E656E746C7900000000000000000000000000000000000000000000000000 PUSH1 0x20 DUP3 ADD MSTORE POP JUMP JUMPDEST PUSH1 0x0 PUSH2 0x13A4 PUSH1 0x27 DUP4 PUSH2 0xD31 JUMP JUMPDEST SWAP2 POP PUSH2 0x13AF DUP3 PUSH2 0x1348 JUMP JUMPDEST PUSH1 0x40 DUP3 ADD SWAP1 POP SWAP2 SWAP1 POP JUMP JUMPDEST PUSH1 0x0 PUSH1 0x20 DUP3 ADD SWAP1 POP DUP2 DUP2 SUB PUSH1 0x0 DUP4 ADD MSTORE PUSH2 0x13D3 DUP2 PUSH2 0x1397 JUMP JUMPDEST SWAP1 POP SWAP2 SWAP1 POP JUMP JUMPDEST PUSH1 0x0 DUP2 PUSH1 0x60 SHL SWAP1 POP SWAP2 SWAP1 POP JUMP JUMPDEST PUSH1 0x0 PUSH2 0x13F2 DUP3 PUSH2 0x13DA JUMP JUMPDEST SWAP1 POP SWAP2 SWAP1 POP JUMP JUMPDEST PUSH1 0x0 PUSH2 0x1404 DUP3 PUSH2 0x13E7 JUMP JUMPDEST SWAP1 POP SWAP2 SWAP1 POP JUMP JUMPDEST PUSH2 0x141C PUSH2 0x1417 DUP3 PUSH2 0xD05 JUMP JUMPDEST PUSH2 0x13F9 JUMP JUMPDEST DUP3 MSTORE POP POP JUMP JUMPDEST PUSH1 0x0 DUP2 SWAP1 POP SWAP3 SWAP2 POP POP JUMP JUMPDEST DUP3 DUP2 DUP4 CALLDATACOPY PUSH1 0x0 DUP4 DUP4 ADD MSTORE POP POP POP JUMP JUMPDEST PUSH1 0x0 PUSH2 0x1448 DUP4 DUP6 PUSH2 0x1422 JUMP JUMPDEST SWAP4 POP PUSH2 0x1455 DUP4 DUP6 DUP5 PUSH2 0x142D JUMP JUMPDEST DUP3 DUP5 ADD SWAP1 POP SWAP4 SWAP3 POP POP POP JUMP JUMPDEST PUSH1 0x0 PUSH2 0x146D DUP3 DUP9 PUSH2 0x140B JUMP JUMPDEST PUSH1 0x14 DUP3 ADD SWAP2 POP PUSH2 0x147E DUP3 DUP7 DUP9 PUSH2 0x143C JUMP JUMPDEST SWAP2 POP PUSH2 0x148B DUP3 DUP5 DUP7 PUSH2 0x143C JUMP JUMPDEST SWAP2 POP DUP2 SWAP1 POP SWAP7 SWAP6 POP POP POP POP POP POP JUMP JUMPDEST PUSH32 0x496E76616C6964206F7220666F7267656420617574686F72697A6174696F6E20 PUSH1 0x0 DUP3 ADD MSTORE PUSH32 0x7469636B65740000000000000000000000000000000000000000000000000000 PUSH1 0x20 DUP3 ADD MSTORE POP JUMP JUMPDEST PUSH1 0x0 PUSH2 0x14F6 PUSH1 0x26 DUP4 PUSH2 0xD31 JUMP JUMPDEST SWAP2 POP PUSH2 0x1501 DUP3 PUSH2 0x149A JUMP JUMPDEST PUSH1 0x40 DUP3 ADD SWAP1 POP SWAP2 SWAP1 POP JUMP JUMPDEST PUSH1 0x0 PUSH1 0x20 DUP3 ADD SWAP1 POP DUP2 DUP2 SUB PUSH1 0x0 DUP4 ADD MSTORE PUSH2 0x1525 DUP2 PUSH2 0x14E9 JUMP JUMPDEST SWAP1 POP SWAP2 SWAP1 POP JUMP JUMPDEST PUSH32 0x4E487B7100000000000000000000000000000000000000000000000000000000 PUSH1 0x0 MSTORE PUSH1 0x41 PUSH1 0x4 MSTORE PUSH1 0x24 PUSH1 0x0 REVERT JUMPDEST PUSH1 0x0 DUP2 SWAP1 POP DUP2 PUSH1 0x0 MSTORE PUSH1 0x20 PUSH1 0x0 KECCAK256 SWAP1 POP SWAP2 SWAP1 POP JUMP JUMPDEST PUSH1 0x0 PUSH1 0x20 PUSH1 0x1F DUP4 ADD DIV SWAP1 POP SWAP2 SWAP1 POP JUMP JUMPDEST PUSH1 0x0 DUP3 DUP3 SHL SWAP1 POP SWAP3 SWAP2 POP POP JUMP JUMPDEST PUSH1 0x0 PUSH1 0x8 DUP4 MUL PUSH2 0x15BD PUSH32 0xFFFFFFFFFFFFFFFFFFFFFFFFFFFFFFFFFFFFFFFFFFFFFFFFFFFFFFFFFFFFFFFF DUP3 PUSH2 0x1580 JUMP JUMPDEST PUSH2 0x15C7 DUP7 DUP4 PUSH2 0x1580 JUMP JUMPDEST SWAP6 POP DUP1 NOT DUP5 AND SWAP4 POP DUP1 DUP7 AND DUP5 OR SWAP3 POP POP POP SWAP4 SWAP3 POP POP POP JUMP JUMPDEST PUSH1 0x0 DUP2 SWAP1 POP SWAP2 SWAP1 POP JUMP JUMPDEST PUSH1 0x0 PUSH2 0x1604 PUSH2 0x15FF PUSH2 0x15FA DUP5 PUSH2 0xC73 JUMP JUMPDEST PUSH2 0x15DF JUMP JUMPDEST PUSH2 0xC73 JUMP JUMPDEST SWAP1 POP SWAP2 SWAP1 POP JUMP JUMPDEST PUSH1 0x0 DUP2 SWAP1 POP SWAP2 SWAP1 POP JUMP JUMPDEST PUSH2 0x161E DUP4 PUSH2 0x15E9 JUMP JUMPDEST PUSH2 0x1632 PUSH2 0x162A DUP3 PUSH2 0x160B JUMP JUMPDEST DUP5 DUP5 SLOAD PUSH2 0x158D JUMP JUMPDEST DUP3 SSTORE POP POP POP POP JUMP JUMPDEST PUSH1 0x0 SWAP1 JUMP JUMPDEST PUSH2 0x1647 PUSH2 0x163A JUMP JUMPDEST PUSH2 0x1652 DUP2 DUP5 DUP5 PUSH2 0x1615 JUMP JUMPDEST POP POP POP JUMP JUMPDEST JUMPDEST DUP2 DUP2 LT ISZERO PUSH2 0x1676 JUMPI PUSH2 0x166B PUSH1 0x0 DUP3 PUSH2 0x163F JUMP JUMPDEST PUSH1 0x1 DUP2 ADD SWAP1 POP PUSH2 0x1658 JUMP JUMPDEST POP POP JUMP JUMPDEST PUSH1 0x1F DUP3 GT ISZERO PUSH2 0x16BB JUMPI PUSH2 0x168C DUP2 PUSH2 0x155B JUMP JUMPDEST PUSH2 0x1695 DUP5 PUSH2 0x1570 JUMP JUMPDEST DUP2 ADD PUSH1 0x20 DUP6 LT ISZERO PUSH2 0x16A4 JUMPI DUP2 SWAP1 POP JUMPDEST PUSH2 0x16B8 PUSH2 0x16B0 DUP6 PUSH2 0x1570 JUMP JUMPDEST DUP4 ADD DUP3 PUSH2 0x1657 JUMP JUMPDEST POP POP JUMPDEST POP POP POP JUMP JUMPDEST PUSH1 0x0 DUP3 DUP3 SHR SWAP1 POP SWAP3 SWAP2 POP POP JUMP JUMPDEST PUSH1 0x0 PUSH2 0x16DE PUSH1 0x0 NOT DUP5 PUSH1 0x8 MUL PUSH2 0x16C0 JUMP JUMPDEST NOT DUP1 DUP4 AND SWAP2 POP POP SWAP3 SWAP2 POP POP JUMP JUMPDEST PUSH1 0x0 PUSH2 0x16F7 DUP4 DUP4 PUSH2 0x16CD JUMP JUMPDEST SWAP2 POP DUP3 PUSH1 0x2 MUL DUP3 OR SWAP1 POP SWAP3 SWAP2 POP POP JUMP JUMPDEST PUSH2 0x1710 DUP3 PUSH2 0xD26 JUMP JUMPDEST PUSH8 0xFFFFFFFFFFFFFFFF DUP2 GT ISZERO PUSH2 0x1729 JUMPI PUSH2 0x1728 PUSH2 0x152C JUMP JUMPDEST JUMPDEST PUSH2 0x1733 DUP3 SLOAD PUSH2 0x10E7 JUMP JUMPDEST PUSH2 0x173E DUP3 DUP3 DUP6 PUSH2 0x167A JUMP JUMPDEST PUSH1 0x0 PUSH1 0x20 SWAP1 POP PUSH1 0x1F DUP4 GT PUSH1 0x1 DUP2 EQ PUSH2 0x1771 JUMPI PUSH1 0x0 DUP5 ISZERO PUSH2 0x175F JUMPI DUP3 DUP8 ADD MLOAD SWAP1 POP JUMPDEST PUSH2 0x1769 DUP6 DUP3 PUSH2 0x16EB JUMP JUMPDEST DUP7 SSTORE POP PUSH2 0x17D1 JUMP JUMPDEST PUSH1 0x1F NOT DUP5 AND PUSH2 0x177F DUP7 PUSH2 0x155B JUMP JUMPDEST PUSH1 0x0 JUMPDEST DUP3 DUP2 LT ISZERO PUSH2 0x17A7 JUMPI DUP5 DUP10 ADD MLOAD DUP3 SSTORE PUSH1 0x1 DUP3 ADD SWAP2 POP PUSH1 0x20 DUP6 ADD SWAP5 POP PUSH1 0x20 DUP2 ADD SWAP1 POP PUSH2 0x1782 JUMP JUMPDEST DUP7 DUP4 LT ISZERO PUSH2 0x17C4 JUMPI DUP5 DUP10 ADD MLOAD PUSH2 0x17C0 PUSH1 0x1F DUP10 AND DUP3 PUSH2 0x16CD JUMP JUMPDEST DUP4 SSTORE POP JUMPDEST PUSH1 0x1 PUSH1 0x2 DUP9 MUL ADD DUP9 SSTORE POP POP POP JUMPDEST POP POP POP POP POP POP JUMP JUMPDEST PUSH1 0x0 PUSH2 0x17E5 DUP4 DUP6 PUSH2 0xD31 JUMP JUMPDEST SWAP4 POP PUSH2 0x17F2 DUP4 DUP6 DUP5 PUSH2 0x142D JUMP JUMPDEST PUSH2 0x17FB DUP4 PUSH2 0xD6C JUMP JUMPDEST DUP5 ADD SWAP1 POP SWAP4 SWAP3 POP POP POP JUMP JUMPDEST PUSH1 0x0 PUSH1 0x20 DUP3 ADD SWAP1 POP DUP2 DUP2 SUB PUSH1 0x0 DUP4 ADD MSTORE PUSH2 0x1821 DUP2 DUP5 DUP7 PUSH2 0x17D9 JUMP JUMPDEST SWAP1 POP SWAP4 SWAP3 POP POP POP JUMP JUMPDEST PUSH32 0x4E487B7100000000000000000000000000000000000000000000000000000000 PUSH1 0x0 MSTORE PUSH1 0x21 PUSH1 0x4 MSTORE PUSH1 0x24 PUSH1 0x0 REVERT JUMPDEST PUSH1 0x0 DUP2 SWAP1 POP SWAP2 SWAP1 POP JUMP JUMPDEST PUSH2 0x186C DUP2 PUSH2 0x1859 JUMP JUMPDEST DUP3 MSTORE POP POP JUMP JUMPDEST PUSH1 0x0 PUSH1 0x20 DUP3 ADD SWAP1 POP PUSH2 0x1887 PUSH1 0x0 DUP4 ADD DUP5 PUSH2 0x1863 JUMP JUMPDEST SWAP3 SWAP2 POP POP JUMP JUMPDEST PUSH1 0x0 PUSH1 0xFF DUP3 AND SWAP1 POP SWAP2 SWAP1 POP JUMP JUMPDEST PUSH2 0x18A3 DUP2 PUSH2 0x188D JUMP JUMPDEST DUP3 MSTORE POP POP JUMP JUMPDEST PUSH1 0x0 PUSH1 0x80 DUP3 ADD SWAP1 POP PUSH2 0x18BE PUSH1 0x0 DUP4 ADD DUP8 PUSH2 0x1863 JUMP JUMPDEST PUSH2 0x18CB PUSH1 0x20 DUP4 ADD DUP7 PUSH2 0x189A JUMP JUMPDEST PUSH2 0x18D8 PUSH1 0x40 DUP4 ADD DUP6 PUSH2 0x1863 JUMP JUMPDEST PUSH2 0x18E5 PUSH1 0x60 DUP4 ADD DUP5 PUSH2 0x1863 JUMP JUMPDEST SWAP6 SWAP5 POP POP POP POP POP JUMP INVALID LOG2 PUSH5 0x6970667358 0x22 SLT KECCAK256 PUSH3 0x353232 LT 0xE4 DUP6 CREATE 0xD PUSH31 0x3BC8E680FB2BEA656AFB9DADE4557FC76AA1E77947164736F6C6343000818 STOP CALLER "
        },
        "methodIdentifiers": {
          "createProposal(string,string,bytes)": "b66bfb5f",
          "oracleSigner()": "1709a61b",
          "proposalCount()": "da35c664",
          "proposals(uint256)": "013cf08b",
          "recordVote(uint256,bool)": "9d874ea5",
          "setVotingContract(address)": "a069c1ac",
          "votingContract()": "c1fc006a"
        }
      }
    }
  }
}