{
  "_format": "hh-sol-artifact-1",
  "contractName": "ProposalRegistry",
  "sourceName": "contracts/ProposalRegistry.sol",
  "abi": [
    {
      "inputs": [
        {
          "internalType": "address",
          "name": "_oracleSigner",
          "type": "address"
        }
      ],
      "stateMutability": "nonpayable",
      "type": "constructor"
    },
    {
      "inputs": [],
      "name": "ECDSAInvalidSignature",
      "type": "error"
    },
    {
      "inputs": [
        {
          "internalType": "uint256",
          "name": "length",
          "type": "uint256"
        }
      ],
      "name": "ECDSAInvalidSignatureLength",
      "type": "error"
    },
    {
      "inputs": [
        {
          "internalType": "bytes32",
          "name": "s",
          "type": "bytes32"
        }
      ],
      "name": "ECDSAInvalidSignatureS",
      "type": "error"
    },
    {
      "anonymous": false,
      "inputs": [
        {
          "indexed": true,
          "internalType": "uint256",
          "name": "id",
          "type": "uint256"
        },
        {
          "indexed": false,
          "internalType": "bytes",
          "name": "encryptedVote",
          "type": "bytes"
        }
      ],
      "name": "EncryptedVoteRecorded",
      "type": "event"
    },
    {
      "anonymous": false,
      "inputs": [
        {
          "indexed": true,
          "internalType": "uint256",
          "name": "id",
          "type": "uint256"
        },
        {
          "indexed": true,
          "internalType": "address",
          "name": "creator",
          "type": "address"
        },
        {
          "indexed": false,
          "internalType": "bytes32",
          "name": "contentHash",
          "type": "bytes32"
        },
        {
          "indexed": false,
          "internalType": "uint256",
          "name": "endTime",
          "type": "uint256"
        }
      ],
      "name": "ProposalCreated",
      "type": "event"
    },
    {
      "anonymous": false,
      "inputs": [
        {
          "indexed": true,
          "internalType": "uint256",
          "name": "id",
          "type": "uint256"
        },
        {
          "indexed": false,
          "internalType": "uint256",
          "name": "yesVotes",
          "type": "uint256"
        },
        {
          "indexed": false,
          "internalType": "uint256",
          "name": "noVotes",
          "type": "uint256"
        },
        {
          "indexed": false,
          "internalType": "uint256",
          "name": "abstainVotes",
          "type": "uint256"
        },
        {
          "indexed": false,
          "internalType": "bool",
          "name": "quorumMet",
          "type": "bool"
        }
      ],
      "name": "TallyFinalized",
      "type": "event"
    },
    {
      "inputs": [
        {
          "internalType": "bytes32",
          "name": "_contentHash",
          "type": "bytes32"
        },
        {
          "internalType": "bytes",
          "name": "_serverTicket",
          "type": "bytes"
        }
      ],
      "name": "createProposal",
      "outputs": [],
      "stateMutability": "nonpayable",
      "type": "function"
    },
    {
      "inputs": [
        {
          "internalType": "uint256",
          "name": "proposalId",
          "type": "uint256"
        },
        {
          "internalType": "uint256",
          "name": "_yesVotes",
          "type": "uint256"
        },
        {
          "internalType": "uint256",
          "name": "_noVotes",
          "type": "uint256"
        },
        {
          "internalType": "uint256",
          "name": "_abstainVotes",
          "type": "uint256"
        },
        {
          "internalType": "uint256",
          "name": "_totalEligibleVoters",
          "type": "uint256"
        },
        {
          "internalType": "bytes32",
          "name": "_finalBallotsHash",
          "type": "bytes32"
        }
      ],
      "name": "finalizeTally",
      "outputs": [],
      "stateMutability": "nonpayable",
      "type": "function"
    },
    {
      "inputs": [
        {
          "internalType": "uint256",
          "name": "proposalId",
          "type": "uint256"
        }
      ],
      "name": "isProposalActive",
      "outputs": [
        {
          "internalType": "bool",
          "name": "",
          "type": "bool"
        }
      ],
      "stateMutability": "view",
      "type": "function"
    },
    {
      "inputs": [],
      "name": "oracleSigner",
      "outputs": [
        {
          "internalType": "address",
          "name": "",
          "type": "address"
        }
      ],
      "stateMutability": "view",
      "type": "function"
    },
    {
      "inputs": [],
      "name": "proposalCount",
      "outputs": [
        {
          "internalType": "uint256",
          "name": "",
          "type": "uint256"
        }
      ],
      "stateMutability": "view",
      "type": "function"
    },
    {
      "inputs": [
        {
          "internalType": "uint256",
          "name": "",
          "type": "uint256"
        }
      ],
      "name": "proposals",
      "outputs": [
        {
          "internalType": "uint256",
          "name": "id",
          "type": "uint256"
        },
        {
          "internalType": "address",
          "name": "creator",
          "type": "address"
        },
        {
          "internalType": "bytes32",
          "name": "contentHash",
          "type": "bytes32"
        },
        {
          "internalType": "uint256",
          "name": "yesVotes",
          "type": "uint256"
        },
        {
          "internalType": "uint256",
          "name": "noVotes",
          "type": "uint256"
        },
        {
          "internalType": "uint256",
          "name": "abstainVotes",
          "type": "uint256"
        },
        {
          "internalType": "uint256",
          "name": "endTime",
          "type": "uint256"
        },
        {
          "internalType": "bool",
          "name": "isTallied",
          "type": "bool"
        },
        {
          "internalType": "bytes32",
          "name": "ballotsHash",
          "type": "bytes32"
        }
      ],
      "stateMutability": "view",
      "type": "function"
    },
    {
      "inputs": [
        {
          "internalType": "uint256",
          "name": "proposalId",
          "type": "uint256"
        },
        {
          "internalType": "bytes",
          "name": "encryptedVote",
          "type": "bytes"
        }
      ],
      "name": "recordEncryptedVote",
      "outputs": [],
      "stateMutability": "nonpayable",
      "type": "function"
    },
    {
      "inputs": [
        {
          "internalType": "address",
          "name": "_votingContract",
          "type": "address"
        }
      ],
      "name": "setVotingContract",
      "outputs": [],
      "stateMutability": "nonpayable",
      "type": "function"
    },
    {
      "inputs": [
        {
          "internalType": "bytes32",
          "name": "",
          "type": "bytes32"
        }
      ],
      "name": "usedTickets",
      "outputs": [
        {
          "internalType": "bool",
          "name": "",
          "type": "bool"
        }
      ],
      "stateMutability": "view",
      "type": "function"
    },
    {
      "inputs": [],
      "name": "votingContract",
      "outputs": [
        {
          "internalType": "address",
          "name": "",
          "type": "address"
        }
      ],
      "stateMutability": "view",
      "type": "function"
    }
  ],
  "bytecode": "0x60806040523480156200001157600080fd5b5060405162001e0538038062001e058339818101604052810190620000379190620000e8565b806000806101000a81548173ffffffffffffffffffffffffffffffffffffffff021916908373ffffffffffffffffffffffffffffffffffffffff160217905550506200011a565b600080fd5b600073ffffffffffffffffffffffffffffffffffffffff82169050919050565b6000620000b08262000083565b9050919050565b620000c281620000a3565b8114620000ce57600080fd5b50565b600081519050620000e281620000b7565b92915050565b6000602082840312156200010157620001006200007e565b5b60006200011184828501620000d1565b91505092915050565b611cdb806200012a6000396000f3fe608060405234801561001057600080fd5b506004361061009e5760003560e01c8063c1fc006a11610066578063c1fc006a14610175578063cb7f3e9c14610193578063d4e81aed146101af578063da35c664146101cb578063fa9c5410146101e95761009e565b8063013cf08b146100a3578063164b3d2f146100db5780631709a61b1461010b57806359a515ba14610129578063a069c1ac14610159575b600080fd5b6100bd60048036038101906100b8919061101a565b610205565b6040516100d2999897969594939291906110cb565b60405180910390f35b6100f560048036038101906100f0919061101a565b610280565b6040516101029190611158565b60405180910390f35b6101136102e2565b6040516101209190611173565b60405180910390f35b610143600480360381019061013e91906111ba565b610306565b6040516101509190611158565b60405180910390f35b610173600480360381019061016e9190611213565b610326565b005b61017d610489565b60405161018a9190611173565b60405180910390f35b6101ad60048036038101906101a891906112a5565b6104af565b005b6101c960048036038101906101c49190611305565b610804565b005b6101d3610ab4565b6040516101e09190611392565b60405180910390f35b61020360048036038101906101fe91906113ad565b610aba565b005b60036020528060005260406000206000915090508060000154908060010160009054906101000a900473ffffffffffffffffffffffffffffffffffffffff16908060020154908060030154908060040154908060050154908060060154908060070160009054906101000a900460ff16908060080154905089565b600080821480610291575060025482115b1561029f57600090506102dd565b6000600360008481526020019081526020016000209050806006015442111580156102d957508060070160009054906101000a900460ff16155b9150505b919050565b60008054906101000a900473ffffffffffffffffffffffffffffffffffffffff1681565b60046020528060005260406000206000915054906101000a900460ff1681565b60008054906101000a900473ffffffffffffffffffffffffffffffffffffffff1673ffffffffffffffffffffffffffffffffffffffff163373ffffffffffffffffffffffffffffffffffffffff16146103b4576040517f08c379a00000000000000000000000000000000000000000000000000000000081526004016103ab9061146a565b60405180910390fd5b600073ffffffffffffffffffffffffffffffffffffffff16600160009054906101000a900473ffffffffffffffffffffffffffffffffffffffff1673ffffffffffffffffffffffffffffffffffffffff1614610445576040517f08c379a000000000000000000000000000000000000000000000000000000000815260040161043c906114d6565b60405180910390fd5b80600160006101000a81548173ffffffffffffffffffffffffffffffffffffffff021916908373ffffffffffffffffffffffffffffffffffffffff16021790555050565b600160009054906101000a900473ffffffffffffffffffffffffffffffffffffffff1681565b600033846040516020016104c492919061155f565b6040516020818303038152906040528051906020012090506004600082815260200190815260200160002060009054906101000a900460ff161561053d576040517f08c379a0000000000000000000000000000000000000000000000000000000008152600401610534906115d7565b60405180910390fd5b60016004600083815260200190815260200160002060006101000a81548160ff021916908315150217905550600061057482610cc4565b905060006105c68286868080601f016020809104026020016040519081016040528093929190818152602001838380828437600081840152601f19601f82011690508083019250505050505050610cfa565b905060008054906101000a900473ffffffffffffffffffffffffffffffffffffffff1673ffffffffffffffffffffffffffffffffffffffff168173ffffffffffffffffffffffffffffffffffffffff1614610656576040517f08c379a000000000000000000000000000000000000000000000000000000000815260040161064d90611643565b60405180910390fd5b6002600081548092919061066990611692565b919050555060006203f4804261067f91906116da565b905060405180610120016040528060025481526020013373ffffffffffffffffffffffffffffffffffffffff1681526020018881526020016000815260200160008152602001600081526020018281526020016000151581526020016000801b8152506003600060025481526020019081526020016000206000820151816000015560208201518160010160006101000a81548173ffffffffffffffffffffffffffffffffffffffff021916908373ffffffffffffffffffffffffffffffffffffffff16021790555060408201518160020155606082015181600301556080820151816004015560a0820151816005015560c0820151816006015560e08201518160070160006101000a81548160ff02191690831515021790555061010082015181600801559050503373ffffffffffffffffffffffffffffffffffffffff166002547f67b4ee269a35a1922c63a7b4c97535005e1e6a6309edf12f4c6b43822bd7de6989846040516107f392919061170e565b60405180910390a350505050505050565b60008054906101000a900473ffffffffffffffffffffffffffffffffffffffff1673ffffffffffffffffffffffffffffffffffffffff163373ffffffffffffffffffffffffffffffffffffffff1614610892576040517f08c379a00000000000000000000000000000000000000000000000000000000081526004016108899061146a565b60405180910390fd5b6000861180156108a457506002548611155b6108e3576040517f08c379a00000000000000000000000000000000000000000000000000000000081526004016108da90611783565b60405180910390fd5b6000600360008881526020019081526020016000209050600084868861090991906116da565b61091391906116da565b905081600601544211806109275750838110155b610966576040517f08c379a000000000000000000000000000000000000000000000000000000000815260040161095d906117ef565b60405180910390fd5b8160070160009054906101000a900460ff16156109b8576040517f08c379a00000000000000000000000000000000000000000000000000000000081526004016109af9061185b565b60405180910390fd5b828260080154146109fe576040517f08c379a00000000000000000000000000000000000000000000000000000000081526004016109f5906118c7565b60405180910390fd5b60018260070160006101000a81548160ff021916908315150217905550868260030181905550858260040181905550848260050181905550600080851115610a6b57600085606484610a5091906118e7565b610a5a9190611958565b905060468110610a6957600191505b505b887f465e364d1e33da9250d32c96f62f7582418eceee3c7163acdfed39ae98dd532f89898985604051610aa19493929190611989565b60405180910390a2505050505050505050565b60025481565b600160009054906101000a900473ffffffffffffffffffffffffffffffffffffffff1673ffffffffffffffffffffffffffffffffffffffff163373ffffffffffffffffffffffffffffffffffffffff1614610b4a576040517f08c379a0000000000000000000000000000000000000000000000000000000008152600401610b4190611a40565b60405180910390fd5b600083118015610b5c57506002548311155b610b9b576040517f08c379a0000000000000000000000000000000000000000000000000000000008152600401610b9290611783565b60405180910390fd5b60006003600085815260200190815260200160002090508060060154421115610bf9576040517f08c379a0000000000000000000000000000000000000000000000000000000008152600401610bf090611aac565b60405180910390fd5b8060070160009054906101000a900460ff1615610c4b576040517f08c379a0000000000000000000000000000000000000000000000000000000008152600401610c4290611b18565b60405180910390fd5b8060080154838386604051602001610c669493929190611b96565b604051602081830303815290604052805190602001208160080181905550837f95f50897dd2eeaeaf8e90b30b8ab8ced44d18167d37d8c4a400cf15ea2f204c58484604051610cb6929190611bd6565b60405180910390a250505050565b60007f19457468657265756d205369676e6564204d6573736167653a0a33320000000060005281601c52603c6000209050919050565b600080600080610d0a8686610d26565b925092509250610d1a8282610d82565b82935050505092915050565b60008060006041845103610d6b5760008060006020870151925060408701519150606087015160001a9050610d5d88828585610ee6565b955095509550505050610d7b565b60006002855160001b9250925092505b9250925092565b60006003811115610d9657610d95611bfa565b5b826003811115610da957610da8611bfa565b5b0315610ee25760016003811115610dc357610dc2611bfa565b5b826003811115610dd657610dd5611bfa565b5b03610e0d576040517ff645eedf00000000000000000000000000000000000000000000000000000000815260040160405180910390fd5b60026003811115610e2157610e20611bfa565b5b826003811115610e3457610e33611bfa565b5b03610e79578060001c6040517ffce698f7000000000000000000000000000000000000000000000000000000008152600401610e709190611392565b60405180910390fd5b600380811115610e8c57610e8b611bfa565b5b826003811115610e9f57610e9e611bfa565b5b03610ee157806040517fd78bce0c000000000000000000000000000000000000000000000000000000008152600401610ed89190611c29565b60405180910390fd5b5b5050565b60008060007f7fffffffffffffffffffffffffffffff5d576e7357a4501ddfe92f46681b20a08460001c1115610f26576000600385925092509250610fd0565b600060018888888860405160008152602001604052604051610f4b9493929190611c60565b6020604051602081039080840390855afa158015610f6d573d6000803e3d6000fd5b505050602060405103519050600073ffffffffffffffffffffffffffffffffffffffff168173ffffffffffffffffffffffffffffffffffffffff1603610fc157600060016000801b93509350935050610fd0565b8060008060001b935093509350505b9450945094915050565b600080fd5b600080fd5b6000819050919050565b610ff781610fe4565b811461100257600080fd5b50565b60008135905061101481610fee565b92915050565b6000602082840312156110305761102f610fda565b5b600061103e84828501611005565b91505092915050565b61105081610fe4565b82525050565b600073ffffffffffffffffffffffffffffffffffffffff82169050919050565b600061108182611056565b9050919050565b61109181611076565b82525050565b6000819050919050565b6110aa81611097565b82525050565b60008115159050919050565b6110c5816110b0565b82525050565b6000610120820190506110e1600083018c611047565b6110ee602083018b611088565b6110fb604083018a6110a1565b6111086060830189611047565b6111156080830188611047565b61112260a0830187611047565b61112f60c0830186611047565b61113c60e08301856110bc565b61114a6101008301846110a1565b9a9950505050505050505050565b600060208201905061116d60008301846110bc565b92915050565b60006020820190506111886000830184611088565b92915050565b61119781611097565b81146111a257600080fd5b50565b6000813590506111b48161118e565b92915050565b6000602082840312156111d0576111cf610fda565b5b60006111de848285016111a5565b91505092915050565b6111f081611076565b81146111fb57600080fd5b50565b60008135905061120d816111e7565b92915050565b60006020828403121561122957611228610fda565b5b6000611237848285016111fe565b91505092915050565b600080fd5b600080fd5b600080fd5b60008083601f84011261126557611264611240565b5b8235905067ffffffffffffffff81111561128257611281611245565b5b60208301915083600182028301111561129e5761129d61124a565b5b9250929050565b6000806000604084860312156112be576112bd610fda565b5b60006112cc868287016111a5565b935050602084013567ffffffffffffffff8111156112ed576112ec610fdf565b5b6112f98682870161124f565b92509250509250925092565b60008060008060008060c0878903121561132257611321610fda565b5b600061133089828a01611005565b965050602061134189828a01611005565b955050604061135289828a01611005565b945050606061136389828a01611005565b935050608061137489828a01611005565b92505060a061138589828a016111a5565b9150509295509295509295565b60006020820190506113a76000830184611047565b92915050565b6000806000604084860312156113c6576113c5610fda565b5b60006113d486828701611005565b935050602084013567ffffffffffffffff8111156113f5576113f4610fdf565b5b6114018682870161124f565b92509250509250925092565b600082825260208201905092915050565b7f4f6e6c79206f7261636c65000000000000000000000000000000000000000000600082015250565b6000611454600b8361140d565b915061145f8261141e565b602082019050919050565b6000602082019050818103600083015261148381611447565b9050919050565b7f416c726561647920736574000000000000000000000000000000000000000000600082015250565b60006114c0600b8361140d565b91506114cb8261148a565b602082019050919050565b600060208201905081810360008301526114ef816114b3565b9050919050565b60008160601b9050919050565b600061150e826114f6565b9050919050565b600061152082611503565b9050919050565b61153861153382611076565b611515565b82525050565b6000819050919050565b61155961155482611097565b61153e565b82525050565b600061156b8285611527565b60148201915061157b8284611548565b6020820191508190509392505050565b7f5469636b657420616c7265616479207573656400000000000000000000000000600082015250565b60006115c160138361140d565b91506115cc8261158b565b602082019050919050565b600060208201905081810360008301526115f0816115b4565b9050919050565b7f496e76616c6964207469636b6574000000000000000000000000000000000000600082015250565b600061162d600e8361140d565b9150611638826115f7565b602082019050919050565b6000602082019050818103600083015261165c81611620565b9050919050565b7f4e487b7100000000000000000000000000000000000000000000000000000000600052601160045260246000fd5b600061169d82610fe4565b91507fffffffffffffffffffffffffffffffffffffffffffffffffffffffffffffffff82036116cf576116ce611663565b5b600182019050919050565b60006116e582610fe4565b91506116f083610fe4565b925082820190508082111561170857611707611663565b5b92915050565b600060408201905061172360008301856110a1565b6117306020830184611047565b9392505050565b7f496e76616c69642070726f706f73616c00000000000000000000000000000000600082015250565b600061176d60108361140d565b915061177882611737565b602082019050919050565b6000602082019050818103600083015261179c81611760565b9050919050565b7f566f74696e67207374696c6c2061637469766500000000000000000000000000600082015250565b60006117d960138361140d565b91506117e4826117a3565b602082019050919050565b60006020820190508181036000830152611808816117cc565b9050919050565b7f416c72656164792066696e616c697a6564000000000000000000000000000000600082015250565b600061184560118361140d565b91506118508261180f565b602082019050919050565b6000602082019050818103600083015261187481611838565b9050919050565b7f42616c6c6f742068617368206d69736d61746368000000000000000000000000600082015250565b60006118b160148361140d565b91506118bc8261187b565b602082019050919050565b600060208201905081810360008301526118e0816118a4565b9050919050565b60006118f282610fe4565b91506118fd83610fe4565b925082820261190b81610fe4565b9150828204841483151761192257611921611663565b5b5092915050565b7f4e487b7100000000000000000000000000000000000000000000000000000000600052601260045260246000fd5b600061196382610fe4565b915061196e83610fe4565b92508261197e5761197d611929565b5b828204905092915050565b600060808201905061199e6000830187611047565b6119ab6020830186611047565b6119b86040830185611047565b6119c560608301846110bc565b95945050505050565b7f556e617574686f72697a65643a204f6e6c7920766f74696e6720636f6e74726160008201527f6374000000000000000000000000000000000000000000000000000000000000602082015250565b6000611a2a60228361140d565b9150611a35826119ce565b604082019050919050565b60006020820190508181036000830152611a5981611a1d565b9050919050565b7f566f74696e6720656e6465640000000000000000000000000000000000000000600082015250565b6000611a96600c8361140d565b9150611aa182611a60565b602082019050919050565b60006020820190508181036000830152611ac581611a89565b9050919050565b7f416c72656164792074616c6c6965640000000000000000000000000000000000600082015250565b6000611b02600f8361140d565b9150611b0d82611acc565b602082019050919050565b60006020820190508181036000830152611b3181611af5565b9050919050565b600082825260208201905092915050565b82818337600083830152505050565b6000601f19601f8301169050919050565b6000611b758385611b38565b9350611b82838584611b49565b611b8b83611b58565b840190509392505050565b6000606082019050611bab60008301876110a1565b8181036020830152611bbe818587611b69565b9050611bcd6040830184611047565b95945050505050565b60006020820190508181036000830152611bf1818486611b69565b90509392505050565b7f4e487b7100000000000000000000000000000000000000000000000000000000600052602160045260246000fd5b6000602082019050611c3e60008301846110a1565b92915050565b600060ff82169050919050565b611c5a81611c44565b82525050565b6000608082019050611c7560008301876110a1565b611c826020830186611c51565b611c8f60408301856110a1565b611c9c60608301846110a1565b9594505050505056fea2646970667358221220236409dab27db39a42d81f2fa0aaa55d6517d74c18ee7d5a3be147bd9e83ae6c64736f6c63430008180033",
  "linkReferences": {},
  "deployedLinkReferences": {}
}