{
  "_format": "hh-sol-artifact-1",
  "contractName": "ZKVoting",
  "sourceName": "contracts/ZKVoting.sol",
  "abi": [
    {
      "inputs": [
        {
          "internalType": "address[]",
          "name": "initialManagers",
          "type": "address[]"
        }
      ],
      "stateMutability": "nonpayable",
      "type": "constructor"
    },
    {
      "inputs": [],
      "name": "ECDSAInvalidSignature",
      "type": "error"
    },
    {
      "inputs": [
        {
          "internalType": "uint256",
          "name": "length",
          "type": "uint256"
        }
      ],
      "name": "ECDSAInvalidSignatureLength",
      "type": "error"
    },
    {
      "inputs": [
        {
          "internalType": "bytes32",
          "name": "s",
          "type": "bytes32"
        }
      ],
      "name": "ECDSAInvalidSignatureS",
      "type": "error"
    },
    {
      "anonymous": false,
      "inputs": [
        {
          "indexed": true,
          "internalType": "address",
          "name": "manager",
          "type": "address"
        }
      ],
      "name": "ManagerAdded",
      "type": "event"
    },
    {
      "anonymous": false,
      "inputs": [
        {
          "indexed": true,
          "internalType": "address",
          "name": "manager",
          "type": "address"
        }
      ],
      "name": "ManagerRemoved",
      "type": "event"
    },
    {
      "anonymous": false,
      "inputs": [
        {
          "indexed": false,
          "internalType": "uint256",
          "name": "newRoot",
          "type": "uint256"
        }
      ],
      "name": "RootUpdated",
      "type": "event"
    },
    {
      "inputs": [],
      "name": "DOMAIN_SEPARATOR",
      "outputs": [
        {
          "internalType": "bytes32",
          "name": "",
          "type": "bytes32"
        }
      ],
      "stateMutability": "view",
      "type": "function"
    },
    {
      "inputs": [
        {
          "internalType": "address",
          "name": "newManager",
          "type": "address"
        },
        {
          "internalType": "uint256",
          "name": "deadline",
          "type": "uint256"
        },
        {
          "internalType": "bytes[]",
          "name": "signatures",
          "type": "bytes[]"
        }
      ],
      "name": "addManager",
      "outputs": [],
      "stateMutability": "nonpayable",
      "type": "function"
    },
    {
      "inputs": [],
      "name": "currentMerkleRoot",
      "outputs": [
        {
          "internalType": "uint256",
          "name": "",
          "type": "uint256"
        }
      ],
      "stateMutability": "view",
      "type": "function"
    },
    {
      "inputs": [
        {
          "internalType": "address",
          "name": "",
          "type": "address"
        }
      ],
      "name": "isManager",
      "outputs": [
        {
          "internalType": "bool",
          "name": "",
          "type": "bool"
        }
      ],
      "stateMutability": "view",
      "type": "function"
    },
    {
      "inputs": [],
      "name": "nonce",
      "outputs": [
        {
          "internalType": "uint256",
          "name": "",
          "type": "uint256"
        }
      ],
      "stateMutability": "view",
      "type": "function"
    },
    {
      "inputs": [
        {
          "internalType": "address",
          "name": "manager",
          "type": "address"
        },
        {
          "internalType": "uint256",
          "name": "deadline",
          "type": "uint256"
        },
        {
          "internalType": "bytes[]",
          "name": "signatures",
          "type": "bytes[]"
        }
      ],
      "name": "removeManager",
      "outputs": [],
      "stateMutability": "nonpayable",
      "type": "function"
    },
    {
      "inputs": [],
      "name": "threshold",
      "outputs": [
        {
          "internalType": "uint256",
          "name": "",
          "type": "uint256"
        }
      ],
      "stateMutability": "view",
      "type": "function"
    },
    {
      "inputs": [],
      "name": "totalManagers",
      "outputs": [
        {
          "internalType": "uint256",
          "name": "",
          "type": "uint256"
        }
      ],
      "stateMutability": "view",
      "type": "function"
    },
    {
      "inputs": [
        {
          "internalType": "uint256",
          "name": "newRoot",
          "type": "uint256"
        },
        {
          "internalType": "uint256",
          "name": "deadline",
          "type": "uint256"
        },
        {
          "internalType": "bytes[]",
          "name": "signatures",
          "type": "bytes[]"
        }
      ],
      "name": "updateMerkleRoot",
      "outputs": [],
      "stateMutability": "nonpayable",
      "type": "function"
    }
  ],
  "bytecode": "0x60806040523480156200001157600080fd5b506040516200207f3803806200207f833981810160405281019062000037919062000549565b60008151116200007e576040517f08c379a00000000000000000000000000000000000000000000000000000000081526004016200007590620005fb565b60405180910390fd5b60005b81518110156200028557600073ffffffffffffffffffffffffffffffffffffffff16828281518110620000b957620000b86200061d565b5b602002602001015173ffffffffffffffffffffffffffffffffffffffff16036200011a576040517f08c379a000000000000000000000000000000000000000000000000000000000815260040162000111906200069c565b60405180910390fd5b6000808383815181106200013357620001326200061d565b5b602002602001015173ffffffffffffffffffffffffffffffffffffffff1673ffffffffffffffffffffffffffffffffffffffff16815260200190815260200160002060009054906101000a900460ff1662000277576001600080848481518110620001a357620001a26200061d565b5b602002602001015173ffffffffffffffffffffffffffffffffffffffff1673ffffffffffffffffffffffffffffffffffffffff16815260200190815260200160002060006101000a81548160ff021916908315150217905550600160008154809291906200021190620006f7565b91905055508181815181106200022c576200022b6200061d565b5b602002602001015173ffffffffffffffffffffffffffffffffffffffff167f3b4a40cccf2058c593542587329dd385be4f0b588db5471fbd9598e56dd7093a60405160405180910390a25b808060010191505062000081565b50620002966200033460201b60201c565b7f8b73c3c69bb8fe3d512ecc4cf759cc79239f7b179b0ffacaa9a75d522b39400f7faaab75c96478eb6fef6006795f2e150dffa890c6f0b1fdbce429eda26dc140977fc89efdaa54c0f20c7adf612882df0950f5a951637e0307cdcb4c672f298b8bc646306040516020016200031195949392919062000781565b604051602081830303815290604052805190602001206005819055505062000880565b600160026001546200034791906200080d565b62000353919062000845565b600281905550565b6000604051905090565b600080fd5b600080fd5b600080fd5b6000601f19601f8301169050919050565b7f4e487b7100000000000000000000000000000000000000000000000000000000600052604160045260246000fd5b620003bf8262000374565b810181811067ffffffffffffffff82111715620003e157620003e062000385565b5b80604052505050565b6000620003f66200035b565b9050620004048282620003b4565b919050565b600067ffffffffffffffff82111562000427576200042662000385565b5b602082029050602081019050919050565b600080fd5b600073ffffffffffffffffffffffffffffffffffffffff82169050919050565b60006200046a826200043d565b9050919050565b6200047c816200045d565b81146200048857600080fd5b50565b6000815190506200049c8162000471565b92915050565b6000620004b9620004b38462000409565b620003ea565b90508083825260208201905060208402830185811115620004df57620004de62000438565b5b835b818110156200050c5780620004f788826200048b565b845260208401935050602081019050620004e1565b5050509392505050565b600082601f8301126200052e576200052d6200036f565b5b815162000540848260208601620004a2565b91505092915050565b60006020828403121562000562576200056162000365565b5b600082015167ffffffffffffffff8111156200058357620005826200036a565b5b620005918482850162000516565b91505092915050565b600082825260208201905092915050565b7f4174206c65617374206f6e65206d616e61676572207265717569726564000000600082015250565b6000620005e3601d836200059a565b9150620005f082620005ab565b602082019050919050565b600060208201905081810360008301526200061681620005d4565b9050919050565b7f4e487b7100000000000000000000000000000000000000000000000000000000600052603260045260246000fd5b7f496e76616c6964206d616e616765722061646472657373000000000000000000600082015250565b6000620006846017836200059a565b915062000691826200064c565b602082019050919050565b60006020820190508181036000830152620006b78162000675565b9050919050565b7f4e487b7100000000000000000000000000000000000000000000000000000000600052601160045260246000fd5b6000819050919050565b60006200070482620006ed565b91507fffffffffffffffffffffffffffffffffffffffffffffffffffffffffffffffff8203620007395762000738620006be565b5b600182019050919050565b6000819050919050565b620007598162000744565b82525050565b6200076a81620006ed565b82525050565b6200077b816200045d565b82525050565b600060a0820190506200079860008301886200074e565b620007a760208301876200074e565b620007b660408301866200074e565b620007c560608301856200075f565b620007d4608083018462000770565b9695505050505050565b7f4e487b7100000000000000000000000000000000000000000000000000000000600052601260045260246000fd5b60006200081a82620006ed565b91506200082783620006ed565b9250826200083a5762000839620007de565b5b828204905092915050565b60006200085282620006ed565b91506200085f83620006ed565b92508282019050808211156200087a5762000879620006be565b5b92915050565b6117ef80620008906000396000f3fe608060405234801561001057600080fd5b50600436106100935760003560e01c80639ea97190116100665780639ea971901461010c5780639f59800b1461012a578063affed0e014610146578063d5eb7cf414610164578063f3ae24151461018257610093565b80633644e515146100985780633771127e146100b657806342cde4e8146100d257806375b4f4fa146100f0575b600080fd5b6100a06101b2565b6040516100ad9190610d73565b60405180910390f35b6100d060048036038101906100cb9190610e91565b6101b8565b005b6100da6103bf565b6040516100e79190610f14565b60405180910390f35b61010a60048036038101906101059190610f2f565b6103c5565b005b6101146104c5565b6040516101219190610f14565b60405180910390f35b610144600480360381019061013f9190610e91565b6104cb565b005b61014e6106fe565b60405161015b9190610f14565b60405180910390f35b61016c610704565b6040516101799190610f14565b60405180910390f35b61019c60048036038101906101979190610fa3565b61070a565b6040516101a99190610feb565b60405180910390f35b60055481565b6000808573ffffffffffffffffffffffffffffffffffffffff1673ffffffffffffffffffffffffffffffffffffffff16815260200190815260200160002060009054906101000a900460ff16610243576040517f08c379a000000000000000000000000000000000000000000000000000000000815260040161023a90611063565b60405180910390fd5b6001805411610287576040517f08c379a000000000000000000000000000000000000000000000000000000000815260040161027e906110cf565b60405180910390fd5b60007fe713590bef0519313f61007eb43d5ce00f59fbd55d2659aedde1d8abcb8b7c9385600454866040516020016102c294939291906110fe565b6040516020818303038152906040528051906020012090506102e68185858561072a565b60008060008773ffffffffffffffffffffffffffffffffffffffff1673ffffffffffffffffffffffffffffffffffffffff16815260200190815260200160002060006101000a81548160ff0219169083151502179055506001600081548092919061035090611172565b919050555061035d610a16565b600460008154809291906103709061119b565b91905055508473ffffffffffffffffffffffffffffffffffffffff167fef69f7d97228658c92417be1b16b19058315de71fecb435d07b7d23728b6bd3160405160405180910390a25050505050565b60025481565b6003548403610409576040517f08c379a00000000000000000000000000000000000000000000000000000000081526004016104009061122f565b60405180910390fd5b60007f4fa5b4aaafd3cc2cec824e7de0e8a8c07799976a1864ef417f1785e186f744b08560045486604051602001610444949392919061124f565b6040516020818303038152906040528051906020012090506104688185858561072a565b84600381905550600460008154809291906104829061119b565b91905055507fb0644cedd466048fffec12002a45bb9b94385438367a9762bb7f6f025b3c19fc856040516104b69190610f14565b60405180910390a15050505050565b60035481565b600073ffffffffffffffffffffffffffffffffffffffff168473ffffffffffffffffffffffffffffffffffffffff160361053a576040517f08c379a0000000000000000000000000000000000000000000000000000000008152600401610531906112e0565b60405180910390fd5b6000808573ffffffffffffffffffffffffffffffffffffffff1673ffffffffffffffffffffffffffffffffffffffff16815260200190815260200160002060009054906101000a900460ff16156105c6576040517f08c379a00000000000000000000000000000000000000000000000000000000081526004016105bd9061134c565b60405180910390fd5b60007fad2df307b3603ef70ef1df0b8a182a29fd0c0856a6b17eb105a9d367fc84f341856004548660405160200161060194939291906110fe565b6040516020818303038152906040528051906020012090506106258185858561072a565b60016000808773ffffffffffffffffffffffffffffffffffffffff1673ffffffffffffffffffffffffffffffffffffffff16815260200190815260200160002060006101000a81548160ff0219169083151502179055506001600081548092919061068f9061119b565b919050555061069c610a16565b600460008154809291906106af9061119b565b91905055508473ffffffffffffffffffffffffffffffffffffffff167f3b4a40cccf2058c593542587329dd385be4f0b588db5471fbd9598e56dd7093a60405160405180910390a25050505050565b60045481565b60015481565b60006020528060005260406000206000915054906101000a900460ff1681565b8242111561076d576040517f08c379a0000000000000000000000000000000000000000000000000000000008152600401610764906113b8565b60405180910390fd5b6002548282905010156107b5576040517f08c379a00000000000000000000000000000000000000000000000000000000081526004016107ac90611424565b60405180910390fd5b6001548282905011156107fd576040517f08c379a00000000000000000000000000000000000000000000000000000000081526004016107f490611490565b60405180910390fd5b600061080b60055486610a39565b90506000805b84849050811015610a0d576041858583818110610831576108306114b0565b5b905060200281019061084391906114ee565b905014610885576040517f08c379a000000000000000000000000000000000000000000000000000000000815260040161087c9061159d565b60405180910390fd5b600061090186868481811061089d5761089c6114b0565b5b90506020028101906108af91906114ee565b8080601f016020809104026020016040519081016040528093929190818152602001838380828437600081840152601f19601f8201169050808301925050505050505085610a7a90919063ffffffff16565b90506000808273ffffffffffffffffffffffffffffffffffffffff1673ffffffffffffffffffffffffffffffffffffffff16815260200190815260200160002060009054906101000a900460ff1661098e576040517f08c379a000000000000000000000000000000000000000000000000000000000815260040161098590611609565b60405180910390fd5b8273ffffffffffffffffffffffffffffffffffffffff168173ffffffffffffffffffffffffffffffffffffffff16116109fc576040517f08c379a00000000000000000000000000000000000000000000000000000000081526004016109f390611675565b60405180910390fd5b809250508080600101915050610811565b50505050505050565b60016002600154610a2791906116c4565b610a3191906116f5565b600281905550565b60006040517f190100000000000000000000000000000000000000000000000000000000000081528360028201528260228201526042812091505092915050565b600080600080610a8a8686610aa6565b925092509250610a9a8282610b02565b82935050505092915050565b60008060006041845103610aeb5760008060006020870151925060408701519150606087015160001a9050610add88828585610c66565b955095509550505050610afb565b60006002855160001b9250925092505b9250925092565b60006003811115610b1657610b15611729565b5b826003811115610b2957610b28611729565b5b0315610c625760016003811115610b4357610b42611729565b5b826003811115610b5657610b55611729565b5b03610b8d576040517ff645eedf00000000000000000000000000000000000000000000000000000000815260040160405180910390fd5b60026003811115610ba157610ba0611729565b5b826003811115610bb457610bb3611729565b5b03610bf9578060001c6040517ffce698f7000000000000000000000000000000000000000000000000000000008152600401610bf09190610f14565b60405180910390fd5b600380811115610c0c57610c0b611729565b5b826003811115610c1f57610c1e611729565b5b03610c6157806040517fd78bce0c000000000000000000000000000000000000000000000000000000008152600401610c589190610d73565b60405180910390fd5b5b5050565b60008060007f7fffffffffffffffffffffffffffffff5d576e7357a4501ddfe92f46681b20a08460001c1115610ca6576000600385925092509250610d50565b600060018888888860405160008152602001604052604051610ccb9493929190611774565b6020604051602081039080840390855afa158015610ced573d6000803e3d6000fd5b505050602060405103519050600073ffffffffffffffffffffffffffffffffffffffff168173ffffffffffffffffffffffffffffffffffffffff1603610d4157600060016000801b93509350935050610d50565b8060008060001b935093509350505b9450945094915050565b6000819050919050565b610d6d81610d5a565b82525050565b6000602082019050610d886000830184610d64565b92915050565b600080fd5b600080fd5b600073ffffffffffffffffffffffffffffffffffffffff82169050919050565b6000610dc382610d98565b9050919050565b610dd381610db8565b8114610dde57600080fd5b50565b600081359050610df081610dca565b92915050565b6000819050919050565b610e0981610df6565b8114610e1457600080fd5b50565b600081359050610e2681610e00565b92915050565b600080fd5b600080fd5b600080fd5b60008083601f840112610e5157610e50610e2c565b5b8235905067ffffffffffffffff811115610e6e57610e6d610e31565b5b602083019150836020820283011115610e8a57610e89610e36565b5b9250929050565b60008060008060608587031215610eab57610eaa610d8e565b5b6000610eb987828801610de1565b9450506020610eca87828801610e17565b935050604085013567ffffffffffffffff811115610eeb57610eea610d93565b5b610ef787828801610e3b565b925092505092959194509250565b610f0e81610df6565b82525050565b6000602082019050610f296000830184610f05565b92915050565b60008060008060608587031215610f4957610f48610d8e565b5b6000610f5787828801610e17565b9450506020610f6887828801610e17565b935050604085013567ffffffffffffffff811115610f8957610f88610d93565b5b610f9587828801610e3b565b925092505092959194509250565b600060208284031215610fb957610fb8610d8e565b5b6000610fc784828501610de1565b91505092915050565b60008115159050919050565b610fe581610fd0565b82525050565b60006020820190506110006000830184610fdc565b92915050565b600082825260208201905092915050565b7f4e6f742061206d616e6167657200000000000000000000000000000000000000600082015250565b600061104d600d83611006565b915061105882611017565b602082019050919050565b6000602082019050818103600083015261107c81611040565b9050919050565b7f43616e6e6f742072656d6f7665206c617374206d616e61676572000000000000600082015250565b60006110b9601a83611006565b91506110c482611083565b602082019050919050565b600060208201905081810360008301526110e8816110ac565b9050919050565b6110f881610db8565b82525050565b60006080820190506111136000830187610d64565b61112060208301866110ef565b61112d6040830185610f05565b61113a6060830184610f05565b95945050505050565b7f4e487b7100000000000000000000000000000000000000000000000000000000600052601160045260246000fd5b600061117d82610df6565b9150600082036111905761118f611143565b5b600182039050919050565b60006111a682610df6565b91507fffffffffffffffffffffffffffffffffffffffffffffffffffffffffffffffff82036111d8576111d7611143565b5b600182019050919050565b7f526f6f7420756e6368616e676564000000000000000000000000000000000000600082015250565b6000611219600e83611006565b9150611224826111e3565b602082019050919050565b600060208201905081810360008301526112488161120c565b9050919050565b60006080820190506112646000830187610d64565b6112716020830186610f05565b61127e6040830185610f05565b61128b6060830184610f05565b95945050505050565b7f43616e6e6f7420616464207a65726f2061646472657373000000000000000000600082015250565b60006112ca601783611006565b91506112d582611294565b602082019050919050565b600060208201905081810360008301526112f9816112bd565b9050919050565b7f416c7265616479206d616e616765720000000000000000000000000000000000600082015250565b6000611336600f83611006565b915061134182611300565b602082019050919050565b6000602082019050818103600083015261136581611329565b9050919050565b7f5369676e61747572652065787069726564000000000000000000000000000000600082015250565b60006113a2601183611006565b91506113ad8261136c565b602082019050919050565b600060208201905081810360008301526113d181611395565b9050919050565b7f496e73756666696369656e74207369676e617475726573000000000000000000600082015250565b600061140e601783611006565b9150611419826113d8565b602082019050919050565b6000602082019050818103600083015261143d81611401565b9050919050565b7f546f6f206d616e79207369676e61747572657300000000000000000000000000600082015250565b600061147a601383611006565b915061148582611444565b602082019050919050565b600060208201905081810360008301526114a98161146d565b9050919050565b7f4e487b7100000000000000000000000000000000000000000000000000000000600052603260045260246000fd5b600080fd5b600080fd5b600080fd5b6000808335600160200384360303811261150b5761150a6114df565b5b80840192508235915067ffffffffffffffff82111561152d5761152c6114e4565b5b602083019250600182023603831315611549576115486114e9565b5b509250929050565b7f496e76616c6964207369676e6174757265000000000000000000000000000000600082015250565b6000611587601183611006565b915061159282611551565b602082019050919050565b600060208201905081810360008301526115b68161157a565b9050919050565b7f556e617574686f72697a6564207369676e657200000000000000000000000000600082015250565b60006115f3601383611006565b91506115fe826115bd565b602082019050919050565b60006020820190508181036000830152611622816115e6565b9050919050565b7f4475706c6963617465206f7220756e736f72746564207369676e617475726573600082015250565b600061165f602083611006565b915061166a82611629565b602082019050919050565b6000602082019050818103600083015261168e81611652565b9050919050565b7f4e487b7100000000000000000000000000000000000000000000000000000000600052601260045260246000fd5b60006116cf82610df6565b91506116da83610df6565b9250826116ea576116e9611695565b5b828204905092915050565b600061170082610df6565b915061170b83610df6565b925082820190508082111561172357611722611143565b5b92915050565b7f4e487b7100000000000000000000000000000000000000000000000000000000600052602160045260246000fd5b600060ff82169050919050565b61176e81611758565b82525050565b60006080820190506117896000830187610d64565b6117966020830186611765565b6117a36040830185610d64565b6117b06060830184610d64565b9594505050505056fea264697066735822122032f13cc28ffa7d6137afcb757583b2df7168017d6eaa9b8bdc82911b76099c0864736f6c63430008180033",
  "linkReferences": {},
  "deployedLinkReferences": {}
}