{
  "_format": "hh-sol-artifact-1",
  "contractName": "AnonymousVoter",
  "sourceName": "contracts/AnonymousVoter.sol",
  "abi": [
    {
      "inputs": [
        {
          "internalType": "address",
          "name": "_verifier",
          "type": "address"
        },
        {
          "internalType": "address",
          "name": "_treeManager",
          "type": "address"
        },
        {
          "internalType": "address",
          "name": "_proposalRegistry",
          "type": "address"
        }
      ],
      "stateMutability": "nonpayable",
      "type": "constructor"
    },
    {
      "anonymous": false,
      "inputs": [
        {
          "indexed": true,
          "internalType": "uint256",
          "name": "proposalId",
          "type": "uint256"
        },
        {
          "indexed": false,
          "internalType": "bool",
          "name": "support",
          "type": "bool"
        }
      ],
      "name": "VoteCast",
      "type": "event"
    },
    {
      "inputs": [
        {
          "internalType": "bool",
          "name": "support",
          "type": "bool"
        },
        {
          "internalType": "uint256",
          "name": "proposalId",
          "type": "uint256"
        },
        {
          "internalType": "uint256",
          "name": "nullifierHash",
          "type": "uint256"
        },
        {
          "internalType": "uint256[8]",
          "name": "proof",
          "type": "uint256[8]"
        },
        {
          "internalType": "uint256",
          "name": "merkleTreeDepth",
          "type": "uint256"
        }
      ],
      "name": "castVote",
      "outputs": [],
      "stateMutability": "nonpayable",
      "type": "function"
    },
    {
      "inputs": [
        {
          "internalType": "uint256",
          "name": "",
          "type": "uint256"
        }
      ],
      "name": "nullifierHashes",
      "outputs": [
        {
          "internalType": "bool",
          "name": "",
          "type": "bool"
        }
      ],
      "stateMutability": "view",
      "type": "function"
    },
    {
      "inputs": [],
      "name": "proposalRegistry",
      "outputs": [
        {
          "internalType": "contract IProposalRegistry",
          "name": "",
          "type": "address"
        }
      ],
      "stateMutability": "view",
      "type": "function"
    },
    {
      "inputs": [],
      "name": "treeManager",
      "outputs": [
        {
          "internalType": "contract ITreeManager",
          "name": "",
          "type": "address"
        }
      ],
      "stateMutability": "view",
      "type": "function"
    },
    {
      "inputs": [],
      "name": "verifier",
      "outputs": [
        {
          "internalType": "contract ISemaphoreVerifier",
          "name": "",
          "type": "address"
        }
      ],
      "stateMutability": "view",
      "type": "function"
    }
  ],
  "bytecode": "0x60806040523480156200001157600080fd5b50604051620010403803806200104083398181016040528101906200003791906200016c565b826000806101000a81548173ffffffffffffffffffffffffffffffffffffffff021916908373ffffffffffffffffffffffffffffffffffffffff16021790555081600160006101000a81548173ffffffffffffffffffffffffffffffffffffffff021916908373ffffffffffffffffffffffffffffffffffffffff16021790555080600260006101000a81548173ffffffffffffffffffffffffffffffffffffffff021916908373ffffffffffffffffffffffffffffffffffffffff160217905550505050620001c8565b600080fd5b600073ffffffffffffffffffffffffffffffffffffffff82169050919050565b6000620001348262000107565b9050919050565b620001468162000127565b81146200015257600080fd5b50565b60008151905062000166816200013b565b92915050565b60008060006060848603121562000188576200018762000102565b5b6000620001988682870162000155565b9350506020620001ab8682870162000155565b9250506040620001be8682870162000155565b9150509250925092565b610e6880620001d86000396000f3fe608060405234801561001057600080fd5b50600436106100575760003560e01c80631f79a1e91461005c5780632b7ac3f31461008c578063a7d6e9ce146100aa578063bc61e1bc146100c8578063c3d7be91146100e6575b600080fd5b610076600480360381019061007191906106a2565b610102565b60405161008391906106ea565b60405180910390f35b610094610122565b6040516100a19190610784565b60405180910390f35b6100b2610146565b6040516100bf91906107c0565b60405180910390f35b6100d061016c565b6040516100dd91906107fc565b60405180910390f35b61010060048036038101906100fb919061086a565b610192565b005b60036020528060005260406000206000915054906101000a900460ff1681565b60008054906101000a900473ffffffffffffffffffffffffffffffffffffffff1681565b600260009054906101000a900473ffffffffffffffffffffffffffffffffffffffff1681565b600160009054906101000a900473ffffffffffffffffffffffffffffffffffffffff1681565b6003600084815260200190815260200160002060009054906101000a900460ff16156101f3576040517f08c379a00000000000000000000000000000000000000000000000000000000081526004016101ea90610990565b60405180910390fd5b6000600160009054906101000a900473ffffffffffffffffffffffffffffffffffffffff1673ffffffffffffffffffffffffffffffffffffffff16639ea971906040518163ffffffff1660e01b8152600401602060405180830381865afa158015610262573d6000803e3d6000fd5b505050506040513d601f19601f8201168201806040525081019061028691906109c5565b9050600081116102cb576040517f08c379a00000000000000000000000000000000000000000000000000000000081526004016102c290610a3e565b60405180910390fd5b6000866102d95760006102dc565b60015b60ff1690506000869050600060405180604001604052808760006008811061030757610306610a5e565b5b602002013581526020018760016008811061032557610324610a5e565b5b602002013581525090506000604051806040016040528060405180604001604052808a60026008811061035b5761035a610a5e565b5b602002013581526020018a60036008811061037957610378610a5e565b5b6020020135815250815260200160405180604001604052808a6004600881106103a5576103a4610a5e565b5b602002013581526020018a6005600881106103c3576103c2610a5e565b5b6020020135815250815250905060006040518060400160405280896006600881106103f1576103f0610a5e565b5b602002013581526020018960076008811061040f5761040e610a5e565b5b60200201358152509050600060405180608001604052808881526020018b815260200161043b88610630565b815260200161044987610630565b815250905060008054906101000a900473ffffffffffffffffffffffffffffffffffffffff1673ffffffffffffffffffffffffffffffffffffffff1663a23f0199858585858d6040518663ffffffff1660e01b81526004016104af959493929190610cc9565b602060405180830381865afa1580156104cc573d6000803e3d6000fd5b505050506040513d601f19601f820116820180604052508101906104f09190610d34565b61052f576040517f08c379a000000000000000000000000000000000000000000000000000000000815260040161052690610dad565b60405180910390fd5b6001600360008c815260200190815260200160002060006101000a81548160ff021916908315150217905550600260009054906101000a900473ffffffffffffffffffffffffffffffffffffffff1673ffffffffffffffffffffffffffffffffffffffff16639d874ea58c8e6040518363ffffffff1660e01b81526004016105b8929190610dcd565b600060405180830381600087803b1580156105d257600080fd5b505af11580156105e6573d6000803e3d6000fd5b505050508a7fa569f04ac50c7dc602af46da32d6b4bb55adafc0bc482968f959264ea5edde968d60405161061a91906106ea565b60405180910390a2505050505050505050505050565b60006008826040516020016106459190610e17565b6040516020818303038152906040528051906020012060001c901c9050919050565b600080fd5b6000819050919050565b61067f8161066c565b811461068a57600080fd5b50565b60008135905061069c81610676565b92915050565b6000602082840312156106b8576106b7610667565b5b60006106c68482850161068d565b91505092915050565b60008115159050919050565b6106e4816106cf565b82525050565b60006020820190506106ff60008301846106db565b92915050565b600073ffffffffffffffffffffffffffffffffffffffff82169050919050565b6000819050919050565b600061074a61074561074084610705565b610725565b610705565b9050919050565b600061075c8261072f565b9050919050565b600061076e82610751565b9050919050565b61077e81610763565b82525050565b60006020820190506107996000830184610775565b92915050565b60006107aa82610751565b9050919050565b6107ba8161079f565b82525050565b60006020820190506107d560008301846107b1565b92915050565b60006107e682610751565b9050919050565b6107f6816107db565b82525050565b600060208201905061081160008301846107ed565b92915050565b610820816106cf565b811461082b57600080fd5b50565b60008135905061083d81610817565b92915050565b600080fd5b60008190508260206008028201111561086457610863610843565b5b92915050565b6000806000806000610180868803121561088757610886610667565b5b60006108958882890161082e565b95505060206108a68882890161068d565b94505060406108b78882890161068d565b93505060606108c888828901610848565b9250506101606108da8882890161068d565b9150509295509295909350565b600082825260208201905092915050565b7f5a65726f2d4b6e6f776c656467652050726f6f6620757365643a20596f75206860008201527f61766520616c726561647920766f746564206f6e20746869732070726f706f7360208201527f616c2e0000000000000000000000000000000000000000000000000000000000604082015250565b600061097a6043836108e7565b9150610985826108f8565b606082019050919050565b600060208201905081810360008301526109a98161096d565b9050919050565b6000815190506109bf81610676565b92915050565b6000602082840312156109db576109da610667565b5b60006109e9848285016109b0565b91505092915050565b7f4d65726b6c65207472656520697320656d707479000000000000000000000000600082015250565b6000610a286014836108e7565b9150610a33826109f2565b602082019050919050565b60006020820190508181036000830152610a5781610a1b565b9050919050565b7f4e487b7100000000000000000000000000000000000000000000000000000000600052603260045260246000fd5b600060029050919050565b600081905092915050565b6000819050919050565b610ab68161066c565b82525050565b6000610ac88383610aad565b60208301905092915050565b6000602082019050919050565b610aea81610a8d565b610af48184610a98565b9250610aff82610aa3565b8060005b83811015610b30578151610b178782610abc565b9650610b2283610ad4565b925050600181019050610b03565b505050505050565b600060029050919050565b600081905092915050565b6000819050919050565b600081905092915050565b610b6c81610a8d565b610b768184610b58565b9250610b8182610aa3565b8060005b83811015610bb2578151610b998782610abc565b9650610ba483610ad4565b925050600181019050610b85565b505050505050565b6000610bc68383610b63565b60408301905092915050565b6000602082019050919050565b610be881610b38565b610bf28184610b43565b9250610bfd82610b4e565b8060005b83811015610c2e578151610c158782610bba565b9650610c2083610bd2565b925050600181019050610c01565b505050505050565b600060049050919050565b600081905092915050565b6000819050919050565b6000602082019050919050565b610c6c81610c36565b610c768184610c41565b9250610c8182610c4c565b8060005b83811015610cb2578151610c998782610abc565b9650610ca483610c56565b925050600181019050610c85565b505050505050565b610cc38161066c565b82525050565b60006101a082019050610cdf6000830188610ae1565b610cec6040830187610bdf565b610cf960c0830186610ae1565b610d07610100830185610c63565b610d15610180830184610cba565b9695505050505050565b600081519050610d2e81610817565b92915050565b600060208284031215610d4a57610d49610667565b5b6000610d5884828501610d1f565b91505092915050565b7f496e76616c6964205a65726f2d4b6e6f776c656467652050726f6f6600000000600082015250565b6000610d97601c836108e7565b9150610da282610d61565b602082019050919050565b60006020820190508181036000830152610dc681610d8a565b9050919050565b6000604082019050610de26000830185610cba565b610def60208301846106db565b9392505050565b6000819050919050565b610e11610e0c8261066c565b610df6565b82525050565b6000610e238284610e00565b6020820191508190509291505056fea26469706673582212200ce9812785e921bd8da4c9e79c094e66c5f2ecdc288c5a6db6c779ed863e27d964736f6c63430008180033",
  "linkReferences": {},
  "deployedLinkReferences": {}
}