{
  "_format": "hh-sol-artifact-1",
  "contractName": "AnonymousVoter",
  "sourceName": "contracts/AnonymousVoter.sol",
  "abi": [
    {
      "inputs": [
        {
          "internalType": "address",
          "name": "_verifier",
          "type": "address"
        },
        {
          "internalType": "address",
          "name": "_treeManager",
          "type": "address"
        },
        {
          "internalType": "address",
          "name": "_proposalRegistry",
          "type": "address"
        }
      ],
      "stateMutability": "nonpayable",
      "type": "constructor"
    },
    {
      "anonymous": false,
      "inputs": [
        {
          "indexed": true,
          "internalType": "uint256",
          "name": "proposalId",
          "type": "uint256"
        },
        {
          "indexed": false,
          "internalType": "uint256",
          "name": "nullifierHash",
          "type": "uint256"
        }
      ],
      "name": "VoteRelayed",
      "type": "event"
    },
    {
      "inputs": [
        {
          "internalType": "uint256",
          "name": "proposalId",
          "type": "uint256"
        },
        {
          "internalType": "uint256",
          "name": "nullifierHash",
          "type": "uint256"
        },
        {
          "internalType": "bytes",
          "name": "encryptedVote",
          "type": "bytes"
        },
        {
          "internalType": "uint256[8]",
          "name": "proof",
          "type": "uint256[8]"
        },
        {
          "internalType": "uint256",
          "name": "merkleTreeDepth",
          "type": "uint256"
        }
      ],
      "name": "castVote",
      "outputs": [],
      "stateMutability": "nonpayable",
      "type": "function"
    },
    {
      "inputs": [
        {
          "internalType": "uint256",
          "name": "",
          "type": "uint256"
        },
        {
          "internalType": "uint256",
          "name": "",
          "type": "uint256"
        }
      ],
      "name": "nullifierHashes",
      "outputs": [
        {
          "internalType": "bool",
          "name": "",
          "type": "bool"
        }
      ],
      "stateMutability": "view",
      "type": "function"
    },
    {
      "inputs": [],
      "name": "proposalRegistry",
      "outputs": [
        {
          "internalType": "contract IProposalRegistry",
          "name": "",
          "type": "address"
        }
      ],
      "stateMutability": "view",
      "type": "function"
    },
    {
      "inputs": [],
      "name": "treeManager",
      "outputs": [
        {
          "internalType": "contract ITreeManager",
          "name": "",
          "type": "address"
        }
      ],
      "stateMutability": "view",
      "type": "function"
    },
    {
      "inputs": [],
      "name": "verifier",
      "outputs": [
        {
          "internalType": "contract ISemaphoreVerifier",
          "name": "",
          "type": "address"
        }
      ],
      "stateMutability": "view",
      "type": "function"
    }
  ],
  "bytecode": "0x60806040523480156200001157600080fd5b50604051620011fe380380620011fe83398181016040528101906200003791906200016c565b826000806101000a81548173ffffffffffffffffffffffffffffffffffffffff021916908373ffffffffffffffffffffffffffffffffffffffff16021790555081600160006101000a81548173ffffffffffffffffffffffffffffffffffffffff021916908373ffffffffffffffffffffffffffffffffffffffff16021790555080600260006101000a81548173ffffffffffffffffffffffffffffffffffffffff021916908373ffffffffffffffffffffffffffffffffffffffff160217905550505050620001c8565b600080fd5b600073ffffffffffffffffffffffffffffffffffffffff82169050919050565b6000620001348262000107565b9050919050565b620001468162000127565b81146200015257600080fd5b50565b60008151905062000166816200013b565b92915050565b60008060006060848603121562000188576200018762000102565b5b6000620001988682870162000155565b9350506020620001ab8682870162000155565b9250506040620001be8682870162000155565b9150509250925092565b61102680620001d86000396000f3fe608060405234801561001057600080fd5b50600436106100575760003560e01c80632b7ac3f31461005c5780636f9e73331461007a578063a7d6e9ce146100aa578063bc61e1bc146100c8578063d66b83c0146100e6575b600080fd5b610064610102565b60405161007191906107a3565b60405180910390f35b610094600480360381019061008f91906107fe565b610126565b6040516100a19190610859565b60405180910390f35b6100b2610155565b6040516100bf9190610895565b60405180910390f35b6100d061017b565b6040516100dd91906108d1565b60405180910390f35b61010060048036038101906100fb9190610973565b6101a1565b005b60008054906101000a900473ffffffffffffffffffffffffffffffffffffffff1681565b60036020528160005260406000206020528060005260406000206000915091509054906101000a900460ff1681565b600260009054906101000a900473ffffffffffffffffffffffffffffffffffffffff1681565b600160009054906101000a900473ffffffffffffffffffffffffffffffffffffffff1681565b600260009054906101000a900473ffffffffffffffffffffffffffffffffffffffff1673ffffffffffffffffffffffffffffffffffffffff1663164b3d2f876040518263ffffffff1660e01b81526004016101fc9190610a1e565b602060405180830381865afa158015610219573d6000803e3d6000fd5b505050506040513d601f19601f8201168201806040525081019061023d9190610a65565b61027c576040517f08c379a000000000000000000000000000000000000000000000000000000000815260040161027390610aef565b60405180910390fd5b60036000878152602001908152602001600020600086815260200190815260200160002060009054906101000a900460ff16156102ee576040517f08c379a00000000000000000000000000000000000000000000000000000000081526004016102e590610b5b565b60405180910390fd5b6000600160009054906101000a900473ffffffffffffffffffffffffffffffffffffffff1673ffffffffffffffffffffffffffffffffffffffff16639ea971906040518163ffffffff1660e01b8152600401602060405180830381865afa15801561035d573d6000803e3d6000fd5b505050506040513d601f19601f820116820180604052508101906103819190610b90565b905060008585604051610395929190610bfc565b604051809103902060001c9050600060405180608001604052808481526020018981526020016103c4846106ed565b81526020016103d28b6106ed565b815250905060008054906101000a900473ffffffffffffffffffffffffffffffffffffffff1673ffffffffffffffffffffffffffffffffffffffff1663a23f019960405180604001604052808860006008811061043257610431610c15565b5b60200201358152602001886001600881106104505761044f610c15565b5b6020020135815250604051806040016040528060405180604001604052808b60026008811061048257610481610c15565b5b602002013581526020018b6003600881106104a05761049f610c15565b5b6020020135815250815260200160405180604001604052808b6004600881106104cc576104cb610c15565b5b602002013581526020018b6005600881106104ea576104e9610c15565b5b602002013581525081525060405180604001604052808a60066008811061051457610513610c15565b5b602002013581526020018a60076008811061053257610531610c15565b5b602002013581525085896040518663ffffffff1660e01b815260040161055c959493929190610e71565b602060405180830381865afa158015610579573d6000803e3d6000fd5b505050506040513d601f19601f8201168201806040525081019061059d9190610a65565b6105dc576040517f08c379a00000000000000000000000000000000000000000000000000000000081526004016105d390610f13565b60405180910390fd5b6001600360008b815260200190815260200160002060008a815260200190815260200160002060006101000a81548160ff021916908315150217905550600260009054906101000a900473ffffffffffffffffffffffffffffffffffffffff1673ffffffffffffffffffffffffffffffffffffffff1663fa9c54108a89896040518463ffffffff1660e01b815260040161067893929190610f82565b600060405180830381600087803b15801561069257600080fd5b505af11580156106a6573d6000803e3d6000fd5b50505050887fb3ae0c0baee0279b3d01099e4f9e7a234e8bc23c38638e535ce560818a619c8a896040516106da9190610a1e565b60405180910390a2505050505050505050565b60006008826040516020016107029190610fd5565b6040516020818303038152906040528051906020012060001c901c9050919050565b600073ffffffffffffffffffffffffffffffffffffffff82169050919050565b6000819050919050565b600061076961076461075f84610724565b610744565b610724565b9050919050565b600061077b8261074e565b9050919050565b600061078d82610770565b9050919050565b61079d81610782565b82525050565b60006020820190506107b86000830184610794565b92915050565b600080fd5b600080fd5b6000819050919050565b6107db816107c8565b81146107e657600080fd5b50565b6000813590506107f8816107d2565b92915050565b60008060408385031215610815576108146107be565b5b6000610823858286016107e9565b9250506020610834858286016107e9565b9150509250929050565b60008115159050919050565b6108538161083e565b82525050565b600060208201905061086e600083018461084a565b92915050565b600061087f82610770565b9050919050565b61088f81610874565b82525050565b60006020820190506108aa6000830184610886565b92915050565b60006108bb82610770565b9050919050565b6108cb816108b0565b82525050565b60006020820190506108e660008301846108c2565b92915050565b600080fd5b600080fd5b600080fd5b60008083601f840112610911576109106108ec565b5b8235905067ffffffffffffffff81111561092e5761092d6108f1565b5b60208301915083600182028301111561094a576109496108f6565b5b9250929050565b60008190508260206008028201111561096d5761096c6108f6565b5b92915050565b6000806000806000806101808789031215610991576109906107be565b5b600061099f89828a016107e9565b96505060206109b089828a016107e9565b955050604087013567ffffffffffffffff8111156109d1576109d06107c3565b5b6109dd89828a016108fb565b945094505060606109f089828a01610951565b925050610160610a0289828a016107e9565b9150509295509295509295565b610a18816107c8565b82525050565b6000602082019050610a336000830184610a0f565b92915050565b610a428161083e565b8114610a4d57600080fd5b50565b600081519050610a5f81610a39565b92915050565b600060208284031215610a7b57610a7a6107be565b5b6000610a8984828501610a50565b91505092915050565b600082825260208201905092915050565b7f496e76616c6964206f7220696e6163746976652070726f706f73616c00000000600082015250565b6000610ad9601c83610a92565b9150610ae482610aa3565b602082019050919050565b60006020820190508181036000830152610b0881610acc565b9050919050565b7f50726f6f6620616c726561647920757365640000000000000000000000000000600082015250565b6000610b45601283610a92565b9150610b5082610b0f565b602082019050919050565b60006020820190508181036000830152610b7481610b38565b9050919050565b600081519050610b8a816107d2565b92915050565b600060208284031215610ba657610ba56107be565b5b6000610bb484828501610b7b565b91505092915050565b600081905092915050565b82818337600083830152505050565b6000610be38385610bbd565b9350610bf0838584610bc8565b82840190509392505050565b6000610c09828486610bd7565b91508190509392505050565b7f4e487b7100000000000000000000000000000000000000000000000000000000600052603260045260246000fd5b600060029050919050565b600081905092915050565b6000819050919050565b610c6d816107c8565b82525050565b6000610c7f8383610c64565b60208301905092915050565b6000602082019050919050565b610ca181610c44565b610cab8184610c4f565b9250610cb682610c5a565b8060005b83811015610ce7578151610cce8782610c73565b9650610cd983610c8b565b925050600181019050610cba565b505050505050565b600060029050919050565b600081905092915050565b6000819050919050565b600081905092915050565b610d2381610c44565b610d2d8184610d0f565b9250610d3882610c5a565b8060005b83811015610d69578151610d508782610c73565b9650610d5b83610c8b565b925050600181019050610d3c565b505050505050565b6000610d7d8383610d1a565b60408301905092915050565b6000602082019050919050565b610d9f81610cef565b610da98184610cfa565b9250610db482610d05565b8060005b83811015610de5578151610dcc8782610d71565b9650610dd783610d89565b925050600181019050610db8565b505050505050565b600060049050919050565b600081905092915050565b6000819050919050565b6000602082019050919050565b610e2381610ded565b610e2d8184610df8565b9250610e3882610e03565b8060005b83811015610e69578151610e508782610c73565b9650610e5b83610e0d565b925050600181019050610e3c565b505050505050565b60006101a082019050610e876000830188610c98565b610e946040830187610d96565b610ea160c0830186610c98565b610eaf610100830185610e1a565b610ebd610180830184610a0f565b9695505050505050565b7f496e76616c6964205a4b2050726f6f6600000000000000000000000000000000600082015250565b6000610efd601083610a92565b9150610f0882610ec7565b602082019050919050565b60006020820190508181036000830152610f2c81610ef0565b9050919050565b600082825260208201905092915050565b6000601f19601f8301169050919050565b6000610f618385610f33565b9350610f6e838584610bc8565b610f7783610f44565b840190509392505050565b6000604082019050610f976000830186610a0f565b8181036020830152610faa818486610f55565b9050949350505050565b6000819050919050565b610fcf610fca826107c8565b610fb4565b82525050565b6000610fe18284610fbe565b6020820191508190509291505056fea264697066735822122018e305cac9952201d20f2fc38be19a2092089d7736f3e2a00e1d753b07048dab64736f6c63430008180033",
  "linkReferences": {},
  "deployedLinkReferences": {}
}