{
  "_format": "hh-sol-artifact-1",
  "contractName": "AnonymousVoter",
  "sourceName": "contracts/AnonymousVoter.sol",
  "abi": [
    {
      "inputs": [
        {
          "internalType": "address",
          "name": "_verifier",
          "type": "address"
        },
        {
          "internalType": "address",
          "name": "_treeManager",
          "type": "address"
        },
        {
          "internalType": "address",
          "name": "_proposalRegistry",
          "type": "address"
        }
      ],
      "stateMutability": "nonpayable",
      "type": "constructor"
    },
    {
      "anonymous": false,
      "inputs": [
        {
          "indexed": true,
          "internalType": "uint256",
          "name": "proposalId",
          "type": "uint256"
        },
        {
          "indexed": false,
          "internalType": "bool",
          "name": "support",
          "type": "bool"
        }
      ],
      "name": "VoteCast",
      "type": "event"
    },
    {
      "inputs": [
        {
          "internalType": "bool",
          "name": "support",
          "type": "bool"
        },
        {
          "internalType": "uint256",
          "name": "proposalId",
          "type": "uint256"
        },
        {
          "internalType": "uint256",
          "name": "nullifierHash",
          "type": "uint256"
        },
        {
          "internalType": "uint256[8]",
          "name": "proof",
          "type": "uint256[8]"
        },
        {
          "internalType": "uint256",
          "name": "merkleTreeDepth",
          "type": "uint256"
        }
      ],
      "name": "castVote",
      "outputs": [],
      "stateMutability": "nonpayable",
      "type": "function"
    },
    {
      "inputs": [
        {
          "internalType": "uint256",
          "name": "",
          "type": "uint256"
        }
      ],
      "name": "nullifierHashes",
      "outputs": [
        {
          "internalType": "bool",
          "name": "",
          "type": "bool"
        }
      ],
      "stateMutability": "view",
      "type": "function"
    },
    {
      "inputs": [],
      "name": "proposalRegistry",
      "outputs": [
        {
          "internalType": "contract IProposalRegistry",
          "name": "",
          "type": "address"
        }
      ],
      "stateMutability": "view",
      "type": "function"
    },
    {
      "inputs": [],
      "name": "treeManager",
      "outputs": [
        {
          "internalType": "contract ITreeManager",
          "name": "",
          "type": "address"
        }
      ],
      "stateMutability": "view",
      "type": "function"
    },
    {
      "inputs": [],
      "name": "verifier",
      "outputs": [
        {
          "internalType": "contract ISemaphoreVerifier",
          "name": "",
          "type": "address"
        }
      ],
      "stateMutability": "view",
      "type": "function"
    }
  ],
  "bytecode": "0x60806040523480156200001157600080fd5b5060405162000eef38038062000eef83398181016040528101906200003791906200016c565b826000806101000a81548173ffffffffffffffffffffffffffffffffffffffff021916908373ffffffffffffffffffffffffffffffffffffffff16021790555081600160006101000a81548173ffffffffffffffffffffffffffffffffffffffff021916908373ffffffffffffffffffffffffffffffffffffffff16021790555080600260006101000a81548173ffffffffffffffffffffffffffffffffffffffff021916908373ffffffffffffffffffffffffffffffffffffffff160217905550505050620001c8565b600080fd5b600073ffffffffffffffffffffffffffffffffffffffff82169050919050565b6000620001348262000107565b9050919050565b620001468162000127565b81146200015257600080fd5b50565b60008151905062000166816200013b565b92915050565b60008060006060848603121562000188576200018762000102565b5b6000620001988682870162000155565b9350506020620001ab8682870162000155565b9250506040620001be8682870162000155565b9150509250925092565b610d1780620001d86000396000f3fe608060405234801561001057600080fd5b50600436106100575760003560e01c80631f79a1e91461005c5780632b7ac3f31461008c578063a7d6e9ce146100aa578063bc61e1bc146100c8578063c3d7be91146100e6575b600080fd5b61007660048036038101906100719190610609565b610102565b6040516100839190610651565b60405180910390f35b610094610122565b6040516100a191906106eb565b60405180910390f35b6100b2610146565b6040516100bf9190610727565b60405180910390f35b6100d061016c565b6040516100dd9190610763565b60405180910390f35b61010060048036038101906100fb91906107d1565b610192565b005b60036020528060005260406000206000915054906101000a900460ff1681565b60008054906101000a900473ffffffffffffffffffffffffffffffffffffffff1681565b600260009054906101000a900473ffffffffffffffffffffffffffffffffffffffff1681565b600160009054906101000a900473ffffffffffffffffffffffffffffffffffffffff1681565b6003600084815260200190815260200160002060009054906101000a900460ff16156101f3576040517f08c379a00000000000000000000000000000000000000000000000000000000081526004016101ea906108ab565b60405180910390fd5b6000600160009054906101000a900473ffffffffffffffffffffffffffffffffffffffff1673ffffffffffffffffffffffffffffffffffffffff16639ea971906040518163ffffffff1660e01b8152600401602060405180830381865afa158015610262573d6000803e3d6000fd5b505050506040513d601f19601f8201168201806040525081019061028691906108e0565b9050600060405180608001604052808381526020018681526020016102bb896102b05760006102b3565b60015b60ff16610597565b81526020016102c988610597565b815250905060008054906101000a900473ffffffffffffffffffffffffffffffffffffffff1673ffffffffffffffffffffffffffffffffffffffff1663a23f01996040518060400160405280876000600881106103295761032861090d565b5b60200201358152602001876001600881106103475761034661090d565b5b6020020135815250604051806040016040528060405180604001604052808a6002600881106103795761037861090d565b5b602002013581526020018a6003600881106103975761039661090d565b5b6020020135815250815260200160405180604001604052808a6004600881106103c3576103c261090d565b5b602002013581526020018a6005600881106103e1576103e061090d565b5b602002013581525081525060405180604001604052808960066008811061040b5761040a61090d565b5b60200201358152602001896007600881106104295761042861090d565b5b602002013581525085886040518663ffffffff1660e01b8152600401610453959493929190610b78565b602060405180830381865afa158015610470573d6000803e3d6000fd5b505050506040513d601f19601f820116820180604052508101906104949190610be3565b6104d3576040517f08c379a00000000000000000000000000000000000000000000000000000000081526004016104ca90610c5c565b60405180910390fd5b60016003600087815260200190815260200160002060006101000a81548160ff021916908315150217905550600260009054906101000a900473ffffffffffffffffffffffffffffffffffffffff1673ffffffffffffffffffffffffffffffffffffffff16639d874ea587896040518363ffffffff1660e01b815260040161055c929190610c7c565b600060405180830381600087803b15801561057657600080fd5b505af115801561058a573d6000803e3d6000fd5b5050505050505050505050565b60006008826040516020016105ac9190610cc6565b6040516020818303038152906040528051906020012060001c901c9050919050565b600080fd5b6000819050919050565b6105e6816105d3565b81146105f157600080fd5b50565b600081359050610603816105dd565b92915050565b60006020828403121561061f5761061e6105ce565b5b600061062d848285016105f4565b91505092915050565b60008115159050919050565b61064b81610636565b82525050565b60006020820190506106666000830184610642565b92915050565b600073ffffffffffffffffffffffffffffffffffffffff82169050919050565b6000819050919050565b60006106b16106ac6106a78461066c565b61068c565b61066c565b9050919050565b60006106c382610696565b9050919050565b60006106d5826106b8565b9050919050565b6106e5816106ca565b82525050565b600060208201905061070060008301846106dc565b92915050565b6000610711826106b8565b9050919050565b61072181610706565b82525050565b600060208201905061073c6000830184610718565b92915050565b600061074d826106b8565b9050919050565b61075d81610742565b82525050565b60006020820190506107786000830184610754565b92915050565b61078781610636565b811461079257600080fd5b50565b6000813590506107a48161077e565b92915050565b600080fd5b6000819050826020600802820111156107cb576107ca6107aa565b5b92915050565b600080600080600061018086880312156107ee576107ed6105ce565b5b60006107fc88828901610795565b955050602061080d888289016105f4565b945050604061081e888289016105f4565b935050606061082f888289016107af565b925050610160610841888289016105f4565b9150509295509295909350565b600082825260208201905092915050565b7f50726f6f6620616c726561647920757365640000000000000000000000000000600082015250565b600061089560128361084e565b91506108a08261085f565b602082019050919050565b600060208201905081810360008301526108c481610888565b9050919050565b6000815190506108da816105dd565b92915050565b6000602082840312156108f6576108f56105ce565b5b6000610904848285016108cb565b91505092915050565b7f4e487b7100000000000000000000000000000000000000000000000000000000600052603260045260246000fd5b600060029050919050565b600081905092915050565b6000819050919050565b610965816105d3565b82525050565b6000610977838361095c565b60208301905092915050565b6000602082019050919050565b6109998161093c565b6109a38184610947565b92506109ae82610952565b8060005b838110156109df5781516109c6878261096b565b96506109d183610983565b9250506001810190506109b2565b505050505050565b600060029050919050565b600081905092915050565b6000819050919050565b600081905092915050565b610a1b8161093c565b610a258184610a07565b9250610a3082610952565b8060005b83811015610a61578151610a48878261096b565b9650610a5383610983565b925050600181019050610a34565b505050505050565b6000610a758383610a12565b60408301905092915050565b6000602082019050919050565b610a97816109e7565b610aa181846109f2565b9250610aac826109fd565b8060005b83811015610add578151610ac48782610a69565b9650610acf83610a81565b925050600181019050610ab0565b505050505050565b600060049050919050565b600081905092915050565b6000819050919050565b6000602082019050919050565b610b1b81610ae5565b610b258184610af0565b9250610b3082610afb565b8060005b83811015610b61578151610b48878261096b565b9650610b5383610b05565b925050600181019050610b34565b505050505050565b610b72816105d3565b82525050565b60006101a082019050610b8e6000830188610990565b610b9b6040830187610a8e565b610ba860c0830186610990565b610bb6610100830185610b12565b610bc4610180830184610b69565b9695505050505050565b600081519050610bdd8161077e565b92915050565b600060208284031215610bf957610bf86105ce565b5b6000610c0784828501610bce565b91505092915050565b7f496e76616c6964205a4b2050726f6f6600000000000000000000000000000000600082015250565b6000610c4660108361084e565b9150610c5182610c10565b602082019050919050565b60006020820190508181036000830152610c7581610c39565b9050919050565b6000604082019050610c916000830185610b69565b610c9e6020830184610642565b9392505050565b6000819050919050565b610cc0610cbb826105d3565b610ca5565b82525050565b6000610cd28284610caf565b6020820191508190509291505056fea26469706673582212203d8de12627bdf437c644d97a4cfc72ba04347a0cb60599a817c4fc3ba301b3b864736f6c63430008180033",
  "linkReferences": {},
  "deployedLinkReferences": {}
}