{
  "_format": "hh-sol-artifact-1",
  "contractName": "ProposalRegistry",
  "sourceName": "contracts/ProposalRegistry.sol",
  "abi": [
    {
      "inputs": [
        {
          "internalType": "address",
          "name": "_oracleSigner",
          "type": "address"
        }
      ],
      "stateMutability": "nonpayable",
      "type": "constructor"
    },
    {
      "inputs": [],
      "name": "ECDSAInvalidSignature",
      "type": "error"
    },
    {
      "inputs": [
        {
          "internalType": "uint256",
          "name": "length",
          "type": "uint256"
        }
      ],
      "name": "ECDSAInvalidSignatureLength",
      "type": "error"
    },
    {
      "inputs": [
        {
          "internalType": "bytes32",
          "name": "s",
          "type": "bytes32"
        }
      ],
      "name": "ECDSAInvalidSignatureS",
      "type": "error"
    },
    {
      "anonymous": false,
      "inputs": [
        {
          "indexed": true,
          "internalType": "uint256",
          "name": "id",
          "type": "uint256"
        },
        {
          "indexed": true,
          "internalType": "address",
          "name": "creator",
          "type": "address"
        },
        {
          "indexed": false,
          "internalType": "string",
          "name": "title",
          "type": "string"
        }
      ],
      "name": "ProposalCreated",
      "type": "event"
    },
    {
      "anonymous": false,
      "inputs": [
        {
          "indexed": true,
          "internalType": "uint256",
          "name": "id",
          "type": "uint256"
        },
        {
          "indexed": false,
          "internalType": "uint256",
          "name": "yesVotes",
          "type": "uint256"
        },
        {
          "indexed": false,
          "internalType": "uint256",
          "name": "noVotes",
          "type": "uint256"
        }
      ],
      "name": "VotesUpdated",
      "type": "event"
    },
    {
      "inputs": [
        {
          "internalType": "string",
          "name": "_title",
          "type": "string"
        },
        {
          "internalType": "string",
          "name": "_description",
          "type": "string"
        },
        {
          "internalType": "bytes",
          "name": "_serverTicket",
          "type": "bytes"
        }
      ],
      "name": "createProposal",
      "outputs": [],
      "stateMutability": "nonpayable",
      "type": "function"
    },
    {
      "inputs": [],
      "name": "oracleSigner",
      "outputs": [
        {
          "internalType": "address",
          "name": "",
          "type": "address"
        }
      ],
      "stateMutability": "view",
      "type": "function"
    },
    {
      "inputs": [],
      "name": "proposalCount",
      "outputs": [
        {
          "internalType": "uint256",
          "name": "",
          "type": "uint256"
        }
      ],
      "stateMutability": "view",
      "type": "function"
    },
    {
      "inputs": [
        {
          "internalType": "uint256",
          "name": "",
          "type": "uint256"
        }
      ],
      "name": "proposals",
      "outputs": [
        {
          "internalType": "uint256",
          "name": "id",
          "type": "uint256"
        },
        {
          "internalType": "address",
          "name": "creator",
          "type": "address"
        },
        {
          "internalType": "string",
          "name": "title",
          "type": "string"
        },
        {
          "internalType": "string",
          "name": "description",
          "type": "string"
        },
        {
          "internalType": "uint256",
          "name": "yesVotes",
          "type": "uint256"
        },
        {
          "internalType": "uint256",
          "name": "noVotes",
          "type": "uint256"
        },
        {
          "internalType": "bool",
          "name": "isActive",
          "type": "bool"
        }
      ],
      "stateMutability": "view",
      "type": "function"
    },
    {
      "inputs": [
        {
          "internalType": "uint256",
          "name": "proposalId",
          "type": "uint256"
        },
        {
          "internalType": "bool",
          "name": "support",
          "type": "bool"
        }
      ],
      "name": "recordVote",
      "outputs": [],
      "stateMutability": "nonpayable",
      "type": "function"
    },
    {
      "inputs": [
        {
          "internalType": "address",
          "name": "_votingContract",
          "type": "address"
        }
      ],
      "name": "setVotingContract",
      "outputs": [],
      "stateMutability": "nonpayable",
      "type": "function"
    },
    {
      "inputs": [],
      "name": "votingContract",
      "outputs": [
        {
          "internalType": "address",
          "name": "",
          "type": "address"
        }
      ],
      "stateMutability": "view",
      "type": "function"
    }
  ],
  "bytecode": "0x60806040523480156200001157600080fd5b5060405162001a4e38038062001a4e8339818101604052810190620000379190620000e8565b806000806101000a81548173ffffffffffffffffffffffffffffffffffffffff021916908373ffffffffffffffffffffffffffffffffffffffff160217905550506200011a565b600080fd5b600073ffffffffffffffffffffffffffffffffffffffff82169050919050565b6000620000b08262000083565b9050919050565b620000c281620000a3565b8114620000ce57600080fd5b50565b600081519050620000e281620000b7565b92915050565b6000602082840312156200010157620001006200007e565b5b60006200011184828501620000d1565b91505092915050565b611924806200012a6000396000f3fe608060405234801561001057600080fd5b506004361061007d5760003560e01c8063a069c1ac1161005b578063a069c1ac146100f2578063b66bfb5f1461010e578063c1fc006a1461012a578063da35c664146101485761007d565b8063013cf08b146100825780631709a61b146100b85780639d874ea5146100d6575b600080fd5b61009c60048036038101906100979190610ca9565b610166565b6040516100af9796959493929190610dd1565b60405180910390f35b6100c06102e5565b6040516100cd9190610e4e565b60405180910390f35b6100f060048036038101906100eb9190610e95565b610309565b005b61010c60048036038101906101079190610f01565b61051b565b005b61012860048036038101906101239190610fe9565b6105f0565b005b610132610927565b60405161013f9190610e4e565b60405180910390f35b61015061094d565b60405161015d919061109d565b60405180910390f35b60036020528060005260406000206000915090508060000154908060010160009054906101000a900473ffffffffffffffffffffffffffffffffffffffff16908060020180546101b5906110e7565b80601f01602080910402602001604051908101604052809291908181526020018280546101e1906110e7565b801561022e5780601f106102035761010080835404028352916020019161022e565b820191906000526020600020905b81548152906001019060200180831161021157829003601f168201915b505050505090806003018054610243906110e7565b80601f016020809104026020016040519081016040528092919081815260200182805461026f906110e7565b80156102bc5780601f10610291576101008083540402835291602001916102bc565b820191906000526020600020905b81548152906001019060200180831161029f57829003601f168201915b5050505050908060040154908060050154908060060160009054906101000a900460ff16905087565b60008054906101000a900473ffffffffffffffffffffffffffffffffffffffff1681565b600160009054906101000a900473ffffffffffffffffffffffffffffffffffffffff1673ffffffffffffffffffffffffffffffffffffffff163373ffffffffffffffffffffffffffffffffffffffff1614610399576040517f08c379a00000000000000000000000000000000000000000000000000000000081526004016103909061118a565b60405180910390fd5b6000821180156103ab57506002548211155b6103ea576040517f08c379a00000000000000000000000000000000000000000000000000000000081526004016103e1906111f6565b60405180910390fd5b6003600083815260200190815260200160002060060160009054906101000a900460ff1661044d576040517f08c379a000000000000000000000000000000000000000000000000000000000815260040161044490611288565b60405180910390fd5b80156104845760036000838152602001908152602001600020600401600081548092919061047a906112d7565b91905055506104b1565b6003600083815260200190815260200160002060050160008154809291906104ab906112d7565b91905055505b817f94eff6226f791f641bce7066ca6594846bb7a516ac27dbcecd23cb4fd3a5b8916003600085815260200190815260200160002060040154600360008681526020019081526020016000206005015460405161050f92919061131f565b60405180910390a25050565b600073ffffffffffffffffffffffffffffffffffffffff16600160009054906101000a900473ffffffffffffffffffffffffffffffffffffffff1673ffffffffffffffffffffffffffffffffffffffff16146105ac576040517f08c379a00000000000000000000000000000000000000000000000000000000081526004016105a3906113ba565b60405180910390fd5b80600160006101000a81548173ffffffffffffffffffffffffffffffffffffffff021916908373ffffffffffffffffffffffffffffffffffffffff16021790555050565b6000338787878760405160200161060b959493929190611461565b604051602081830303815290604052805190602001209050600061062e82610953565b905060006106808286868080601f016020809104026020016040519081016040528093929190818152602001838380828437600081840152601f19601f82011690508083019250505050505050610989565b905060008054906101000a900473ffffffffffffffffffffffffffffffffffffffff1673ffffffffffffffffffffffffffffffffffffffff168173ffffffffffffffffffffffffffffffffffffffff1614610710576040517f08c379a00000000000000000000000000000000000000000000000000000000081526004016107079061150c565b60405180910390fd5b60026000815480929190610723906112d7565b91905055506040518060e0016040528060025481526020013373ffffffffffffffffffffffffffffffffffffffff1681526020018a8a8080601f016020809104026020016040519081016040528093929190818152602001838380828437600081840152601f19601f82011690508083019250505050505050815260200188888080601f016020809104026020016040519081016040528093929190818152602001838380828437600081840152601f19601f8201169050808301925050505050505081526020016000815260200160008152602001600115158152506003600060025481526020019081526020016000206000820151816000015560208201518160010160006101000a81548173ffffffffffffffffffffffffffffffffffffffff021916908373ffffffffffffffffffffffffffffffffffffffff160217905550604082015181600201908161087b9190611707565b5060608201518160030190816108919190611707565b506080820151816004015560a0820151816005015560c08201518160060160006101000a81548160ff0219169083151502179055509050503373ffffffffffffffffffffffffffffffffffffffff166002547f7585f467599d0f008985f231af99293be388626ac16ca59505c2f8f88969cd638b8b604051610914929190611806565b60405180910390a3505050505050505050565b600160009054906101000a900473ffffffffffffffffffffffffffffffffffffffff1681565b60025481565b60007f19457468657265756d205369676e6564204d6573736167653a0a33320000000060005281601c52603c6000209050919050565b60008060008061099986866109b5565b9250925092506109a98282610a11565b82935050505092915050565b600080600060418451036109fa5760008060006020870151925060408701519150606087015160001a90506109ec88828585610b75565b955095509550505050610a0a565b60006002855160001b9250925092505b9250925092565b60006003811115610a2557610a2461182a565b5b826003811115610a3857610a3761182a565b5b0315610b715760016003811115610a5257610a5161182a565b5b826003811115610a6557610a6461182a565b5b03610a9c576040517ff645eedf00000000000000000000000000000000000000000000000000000000815260040160405180910390fd5b60026003811115610ab057610aaf61182a565b5b826003811115610ac357610ac261182a565b5b03610b08578060001c6040517ffce698f7000000000000000000000000000000000000000000000000000000008152600401610aff919061109d565b60405180910390fd5b600380811115610b1b57610b1a61182a565b5b826003811115610b2e57610b2d61182a565b5b03610b7057806040517fd78bce0c000000000000000000000000000000000000000000000000000000008152600401610b679190611872565b60405180910390fd5b5b5050565b60008060007f7fffffffffffffffffffffffffffffff5d576e7357a4501ddfe92f46681b20a08460001c1115610bb5576000600385925092509250610c5f565b600060018888888860405160008152602001604052604051610bda94939291906118a9565b6020604051602081039080840390855afa158015610bfc573d6000803e3d6000fd5b505050602060405103519050600073ffffffffffffffffffffffffffffffffffffffff168173ffffffffffffffffffffffffffffffffffffffff1603610c5057600060016000801b93509350935050610c5f565b8060008060001b935093509350505b9450945094915050565b600080fd5b600080fd5b6000819050919050565b610c8681610c73565b8114610c9157600080fd5b50565b600081359050610ca381610c7d565b92915050565b600060208284031215610cbf57610cbe610c69565b5b6000610ccd84828501610c94565b91505092915050565b610cdf81610c73565b82525050565b600073ffffffffffffffffffffffffffffffffffffffff82169050919050565b6000610d1082610ce5565b9050919050565b610d2081610d05565b82525050565b600081519050919050565b600082825260208201905092915050565b60005b83811015610d60578082015181840152602081019050610d45565b60008484015250505050565b6000601f19601f8301169050919050565b6000610d8882610d26565b610d928185610d31565b9350610da2818560208601610d42565b610dab81610d6c565b840191505092915050565b60008115159050919050565b610dcb81610db6565b82525050565b600060e082019050610de6600083018a610cd6565b610df36020830189610d17565b8181036040830152610e058188610d7d565b90508181036060830152610e198187610d7d565b9050610e286080830186610cd6565b610e3560a0830185610cd6565b610e4260c0830184610dc2565b98975050505050505050565b6000602082019050610e636000830184610d17565b92915050565b610e7281610db6565b8114610e7d57600080fd5b50565b600081359050610e8f81610e69565b92915050565b60008060408385031215610eac57610eab610c69565b5b6000610eba85828601610c94565b9250506020610ecb85828601610e80565b9150509250929050565b610ede81610d05565b8114610ee957600080fd5b50565b600081359050610efb81610ed5565b92915050565b600060208284031215610f1757610f16610c69565b5b6000610f2584828501610eec565b91505092915050565b600080fd5b600080fd5b600080fd5b60008083601f840112610f5357610f52610f2e565b5b8235905067ffffffffffffffff811115610f7057610f6f610f33565b5b602083019150836001820283011115610f8c57610f8b610f38565b5b9250929050565b60008083601f840112610fa957610fa8610f2e565b5b8235905067ffffffffffffffff811115610fc657610fc5610f33565b5b602083019150836001820283011115610fe257610fe1610f38565b5b9250929050565b6000806000806000806060878903121561100657611005610c69565b5b600087013567ffffffffffffffff81111561102457611023610c6e565b5b61103089828a01610f3d565b9650965050602087013567ffffffffffffffff81111561105357611052610c6e565b5b61105f89828a01610f3d565b9450945050604087013567ffffffffffffffff81111561108257611081610c6e565b5b61108e89828a01610f93565b92509250509295509295509295565b60006020820190506110b26000830184610cd6565b92915050565b7f4e487b7100000000000000000000000000000000000000000000000000000000600052602260045260246000fd5b600060028204905060018216806110ff57607f821691505b602082108103611112576111116110b8565b5b50919050565b7f556e617574686f72697a65643a204f6e6c7920746865205a4b20566f74696e6760008201527f20636f6e74726163742063616e2075706461746520766f746573000000000000602082015250565b6000611174603a83610d31565b915061117f82611118565b604082019050919050565b600060208201905081810360008301526111a381611167565b9050919050565b7f50726f706f73616c20646f6573206e6f74206578697374000000000000000000600082015250565b60006111e0601783610d31565b91506111eb826111aa565b602082019050919050565b6000602082019050818103600083015261120f816111d3565b9050919050565b7f566f74696e6720697320636c6f73656420666f7220746869732070726f706f7360008201527f616c000000000000000000000000000000000000000000000000000000000000602082015250565b6000611272602283610d31565b915061127d82611216565b604082019050919050565b600060208201905081810360008301526112a181611265565b9050919050565b7f4e487b7100000000000000000000000000000000000000000000000000000000600052601160045260246000fd5b60006112e282610c73565b91507fffffffffffffffffffffffffffffffffffffffffffffffffffffffffffffffff8203611314576113136112a8565b5b600182019050919050565b60006040820190506113346000830185610cd6565b6113416020830184610cd6565b9392505050565b7f566f74696e6720636f6e747261637420616c726561647920736574207065726d60008201527f616e656e746c7900000000000000000000000000000000000000000000000000602082015250565b60006113a4602783610d31565b91506113af82611348565b604082019050919050565b600060208201905081810360008301526113d381611397565b9050919050565b60008160601b9050919050565b60006113f2826113da565b9050919050565b6000611404826113e7565b9050919050565b61141c61141782610d05565b6113f9565b82525050565b600081905092915050565b82818337600083830152505050565b60006114488385611422565b935061145583858461142d565b82840190509392505050565b600061146d828861140b565b60148201915061147e82868861143c565b915061148b82848661143c565b91508190509695505050505050565b7f496e76616c6964206f7220666f7267656420617574686f72697a6174696f6e2060008201527f7469636b65740000000000000000000000000000000000000000000000000000602082015250565b60006114f6602683610d31565b91506115018261149a565b604082019050919050565b60006020820190508181036000830152611525816114e9565b9050919050565b7f4e487b7100000000000000000000000000000000000000000000000000000000600052604160045260246000fd5b60008190508160005260206000209050919050565b60006020601f8301049050919050565b600082821b905092915050565b6000600883026115bd7fffffffffffffffffffffffffffffffffffffffffffffffffffffffffffffffff82611580565b6115c78683611580565b95508019841693508086168417925050509392505050565b6000819050919050565b60006116046115ff6115fa84610c73565b6115df565b610c73565b9050919050565b6000819050919050565b61161e836115e9565b61163261162a8261160b565b84845461158d565b825550505050565b600090565b61164761163a565b611652818484611615565b505050565b5b818110156116765761166b60008261163f565b600181019050611658565b5050565b601f8211156116bb5761168c8161155b565b61169584611570565b810160208510156116a4578190505b6116b86116b085611570565b830182611657565b50505b505050565b600082821c905092915050565b60006116de600019846008026116c0565b1980831691505092915050565b60006116f783836116cd565b9150826002028217905092915050565b61171082610d26565b67ffffffffffffffff8111156117295761172861152c565b5b61173382546110e7565b61173e82828561167a565b600060209050601f831160018114611771576000841561175f578287015190505b61176985826116eb565b8655506117d1565b601f19841661177f8661155b565b60005b828110156117a757848901518255600182019150602085019450602081019050611782565b868310156117c457848901516117c0601f8916826116cd565b8355505b6001600288020188555050505b505050505050565b60006117e58385610d31565b93506117f283858461142d565b6117fb83610d6c565b840190509392505050565b600060208201905081810360008301526118218184866117d9565b90509392505050565b7f4e487b7100000000000000000000000000000000000000000000000000000000600052602160045260246000fd5b6000819050919050565b61186c81611859565b82525050565b60006020820190506118876000830184611863565b92915050565b600060ff82169050919050565b6118a38161188d565b82525050565b60006080820190506118be6000830187611863565b6118cb602083018661189a565b6118d86040830185611863565b6118e56060830184611863565b9594505050505056fea2646970667358221220d29b3724e9cd521768678cf72d4a97311417a82d18f0c9aea7deac0b98f1210664736f6c63430008180033",
  "linkReferences": {},
  "deployedLinkReferences": {}
}