{
  "_format": "hh-sol-artifact-1",
  "contractName": "ZKVoting",
  "sourceName": "contracts/ZKVoting.sol",
  "abi": [
    {
      "inputs": [],
      "stateMutability": "nonpayable",
      "type": "constructor"
    },
    {
      "anonymous": false,
      "inputs": [
        {
          "indexed": true,
          "internalType": "address",
          "name": "manager",
          "type": "address"
        }
      ],
      "name": "ManagerAdded",
      "type": "event"
    },
    {
      "anonymous": false,
      "inputs": [
        {
          "indexed": true,
          "internalType": "address",
          "name": "manager",
          "type": "address"
        }
      ],
      "name": "ManagerRemoved",
      "type": "event"
    },
    {
      "anonymous": false,
      "inputs": [
        {
          "indexed": false,
          "internalType": "uint256",
          "name": "oldRoot",
          "type": "uint256"
        },
        {
          "indexed": false,
          "internalType": "uint256",
          "name": "newRoot",
          "type": "uint256"
        }
      ],
      "name": "MerkleRootUpdated",
      "type": "event"
    },
    {
      "inputs": [
        {
          "internalType": "address",
          "name": "newManager",
          "type": "address"
        }
      ],
      "name": "addManager",
      "outputs": [],
      "stateMutability": "nonpayable",
      "type": "function"
    },
    {
      "inputs": [],
      "name": "currentMerkleRoot",
      "outputs": [
        {
          "internalType": "uint256",
          "name": "",
          "type": "uint256"
        }
      ],
      "stateMutability": "view",
      "type": "function"
    },
    {
      "inputs": [
        {
          "internalType": "address",
          "name": "",
          "type": "address"
        }
      ],
      "name": "isManager",
      "outputs": [
        {
          "internalType": "bool",
          "name": "",
          "type": "bool"
        }
      ],
      "stateMutability": "view",
      "type": "function"
    },
    {
      "inputs": [
        {
          "internalType": "address",
          "name": "manager",
          "type": "address"
        }
      ],
      "name": "removeManager",
      "outputs": [],
      "stateMutability": "nonpayable",
      "type": "function"
    },
    {
      "inputs": [
        {
          "internalType": "uint256",
          "name": "newRoot",
          "type": "uint256"
        }
      ],
      "name": "updateMerkleRoot",
      "outputs": [],
      "stateMutability": "nonpayable",
      "type": "function"
    }
  ],
  "bytecode": "0x608060405234801561001057600080fd5b5060016000803373ffffffffffffffffffffffffffffffffffffffff1673ffffffffffffffffffffffffffffffffffffffff16815260200190815260200160002060006101000a81548160ff0219169083151502179055503373ffffffffffffffffffffffffffffffffffffffff167f3b4a40cccf2058c593542587329dd385be4f0b588db5471fbd9598e56dd7093a60405160405180910390a261084b806100ba6000396000f3fe608060405234801561001057600080fd5b50600436106100575760003560e01c80632d06177a1461005c5780636ca5161b146100785780639ea9719014610094578063ac18de43146100b2578063f3ae2415146100ce575b600080fd5b610076600480360381019061007191906105a7565b6100fe565b005b610092600480360381019061008d919061060a565b6102b2565b005b61009c610388565b6040516100a99190610646565b60405180910390f35b6100cc60048036038101906100c791906105a7565b61038e565b005b6100e860048036038101906100e391906105a7565b610524565b6040516100f5919061067c565b60405180910390f35b6000803373ffffffffffffffffffffffffffffffffffffffff1673ffffffffffffffffffffffffffffffffffffffff16815260200190815260200160002060009054906101000a900460ff16610189576040517f08c379a0000000000000000000000000000000000000000000000000000000008152600401610180906106f4565b60405180910390fd5b6000808273ffffffffffffffffffffffffffffffffffffffff1673ffffffffffffffffffffffffffffffffffffffff16815260200190815260200160002060009054906101000a900460ff1615610215576040517f08c379a000000000000000000000000000000000000000000000000000000000815260040161020c90610760565b60405180910390fd5b60016000808373ffffffffffffffffffffffffffffffffffffffff1673ffffffffffffffffffffffffffffffffffffffff16815260200190815260200160002060006101000a81548160ff0219169083151502179055508073ffffffffffffffffffffffffffffffffffffffff167f3b4a40cccf2058c593542587329dd385be4f0b588db5471fbd9598e56dd7093a60405160405180910390a250565b6000803373ffffffffffffffffffffffffffffffffffffffff1673ffffffffffffffffffffffffffffffffffffffff16815260200190815260200160002060009054906101000a900460ff1661033d576040517f08c379a0000000000000000000000000000000000000000000000000000000008152600401610334906106f4565b60405180910390fd5b60006001549050816001819055507f3d5a9dc566f67ff4ad358cf0250c6418e6ca5f0539ed838073f957250bf5b60e818360405161037c929190610780565b60405180910390a15050565b60015481565b6000803373ffffffffffffffffffffffffffffffffffffffff1673ffffffffffffffffffffffffffffffffffffffff16815260200190815260200160002060009054906101000a900460ff16610419576040517f08c379a0000000000000000000000000000000000000000000000000000000008152600401610410906106f4565b60405180910390fd5b3373ffffffffffffffffffffffffffffffffffffffff168173ffffffffffffffffffffffffffffffffffffffff1603610487576040517f08c379a000000000000000000000000000000000000000000000000000000000815260040161047e906107f5565b60405180910390fd5b60008060008373ffffffffffffffffffffffffffffffffffffffff1673ffffffffffffffffffffffffffffffffffffffff16815260200190815260200160002060006101000a81548160ff0219169083151502179055508073ffffffffffffffffffffffffffffffffffffffff167fef69f7d97228658c92417be1b16b19058315de71fecb435d07b7d23728b6bd3160405160405180910390a250565b60006020528060005260406000206000915054906101000a900460ff1681565b600080fd5b600073ffffffffffffffffffffffffffffffffffffffff82169050919050565b600061057482610549565b9050919050565b61058481610569565b811461058f57600080fd5b50565b6000813590506105a18161057b565b92915050565b6000602082840312156105bd576105bc610544565b5b60006105cb84828501610592565b91505092915050565b6000819050919050565b6105e7816105d4565b81146105f257600080fd5b50565b600081359050610604816105de565b92915050565b6000602082840312156106205761061f610544565b5b600061062e848285016105f5565b91505092915050565b610640816105d4565b82525050565b600060208201905061065b6000830184610637565b92915050565b60008115159050919050565b61067681610661565b82525050565b6000602082019050610691600083018461066d565b92915050565b600082825260208201905092915050565b7f4e6f7420616e20617574686f72697a6564206d616e6167657200000000000000600082015250565b60006106de601983610697565b91506106e9826106a8565b602082019050919050565b6000602082019050818103600083015261070d816106d1565b9050919050565b7f416c72656164792061206d616e61676572000000000000000000000000000000600082015250565b600061074a601183610697565b915061075582610714565b602082019050919050565b600060208201905081810360008301526107798161073d565b9050919050565b60006040820190506107956000830185610637565b6107a26020830184610637565b9392505050565b7f43616e6e6f742072656d6f766520796f757273656c6600000000000000000000600082015250565b60006107df601683610697565b91506107ea826107a9565b602082019050919050565b6000602082019050818103600083015261080e816107d2565b905091905056fea2646970667358221220fc52c06a31bcf331dad71f179ffb36849bdba2c61211bdab2f0fca5a69c4237e64736f6c63430008180033",
  "linkReferences": {},
  "deployedLinkReferences": {}
}