{
  "_format": "hh-sol-artifact-1",
  "contractName": "ZKVoting",
  "sourceName": "contracts/ZKVoting.sol",
  "abi": [
    {
      "inputs": [],
      "stateMutability": "nonpayable",
      "type": "constructor"
    },
    {
      "inputs": [],
      "name": "ECDSAInvalidSignature",
      "type": "error"
    },
    {
      "inputs": [
        {
          "internalType": "uint256",
          "name": "length",
          "type": "uint256"
        }
      ],
      "name": "ECDSAInvalidSignatureLength",
      "type": "error"
    },
    {
      "inputs": [
        {
          "internalType": "bytes32",
          "name": "s",
          "type": "bytes32"
        }
      ],
      "name": "ECDSAInvalidSignatureS",
      "type": "error"
    },
    {
      "inputs": [],
      "name": "InvalidShortString",
      "type": "error"
    },
    {
      "inputs": [
        {
          "internalType": "string",
          "name": "str",
          "type": "string"
        }
      ],
      "name": "StringTooLong",
      "type": "error"
    },
    {
      "anonymous": false,
      "inputs": [],
      "name": "EIP712DomainChanged",
      "type": "event"
    },
    {
      "anonymous": false,
      "inputs": [
        {
          "indexed": true,
          "internalType": "address",
          "name": "manager",
          "type": "address"
        }
      ],
      "name": "ManagerAdded",
      "type": "event"
    },
    {
      "anonymous": false,
      "inputs": [
        {
          "indexed": true,
          "internalType": "address",
          "name": "manager",
          "type": "address"
        }
      ],
      "name": "ManagerRemoved",
      "type": "event"
    },
    {
      "anonymous": false,
      "inputs": [
        {
          "indexed": false,
          "internalType": "uint256",
          "name": "oldRoot",
          "type": "uint256"
        },
        {
          "indexed": false,
          "internalType": "uint256",
          "name": "newRoot",
          "type": "uint256"
        }
      ],
      "name": "MerkleRootUpdated",
      "type": "event"
    },
    {
      "inputs": [],
      "name": "ADD_MANAGER_TYPEHASH",
      "outputs": [
        {
          "internalType": "bytes32",
          "name": "",
          "type": "bytes32"
        }
      ],
      "stateMutability": "view",
      "type": "function"
    },
    {
      "inputs": [],
      "name": "REMOVE_MANAGER_TYPEHASH",
      "outputs": [
        {
          "internalType": "bytes32",
          "name": "",
          "type": "bytes32"
        }
      ],
      "stateMutability": "view",
      "type": "function"
    },
    {
      "inputs": [],
      "name": "UPDATE_ROOT_TYPEHASH",
      "outputs": [
        {
          "internalType": "bytes32",
          "name": "",
          "type": "bytes32"
        }
      ],
      "stateMutability": "view",
      "type": "function"
    },
    {
      "inputs": [
        {
          "internalType": "address",
          "name": "newManager",
          "type": "address"
        },
        {
          "internalType": "uint256",
          "name": "deadline",
          "type": "uint256"
        },
        {
          "internalType": "bytes[]",
          "name": "signatures",
          "type": "bytes[]"
        }
      ],
      "name": "addManager",
      "outputs": [],
      "stateMutability": "nonpayable",
      "type": "function"
    },
    {
      "inputs": [],
      "name": "currentMerkleRoot",
      "outputs": [
        {
          "internalType": "uint256",
          "name": "",
          "type": "uint256"
        }
      ],
      "stateMutability": "view",
      "type": "function"
    },
    {
      "inputs": [],
      "name": "eip712Domain",
      "outputs": [
        {
          "internalType": "bytes1",
          "name": "fields",
          "type": "bytes1"
        },
        {
          "internalType": "string",
          "name": "name",
          "type": "string"
        },
        {
          "internalType": "string",
          "name": "version",
          "type": "string"
        },
        {
          "internalType": "uint256",
          "name": "chainId",
          "type": "uint256"
        },
        {
          "internalType": "address",
          "name": "verifyingContract",
          "type": "address"
        },
        {
          "internalType": "bytes32",
          "name": "salt",
          "type": "bytes32"
        },
        {
          "internalType": "uint256[]",
          "name": "extensions",
          "type": "uint256[]"
        }
      ],
      "stateMutability": "view",
      "type": "function"
    },
    {
      "inputs": [
        {
          "internalType": "address",
          "name": "",
          "type": "address"
        }
      ],
      "name": "isManager",
      "outputs": [
        {
          "internalType": "bool",
          "name": "",
          "type": "bool"
        }
      ],
      "stateMutability": "view",
      "type": "function"
    },
    {
      "inputs": [],
      "name": "nonce",
      "outputs": [
        {
          "internalType": "uint256",
          "name": "",
          "type": "uint256"
        }
      ],
      "stateMutability": "view",
      "type": "function"
    },
    {
      "inputs": [
        {
          "internalType": "address",
          "name": "manager",
          "type": "address"
        },
        {
          "internalType": "uint256",
          "name": "deadline",
          "type": "uint256"
        },
        {
          "internalType": "bytes[]",
          "name": "signatures",
          "type": "bytes[]"
        }
      ],
      "name": "removeManager",
      "outputs": [],
      "stateMutability": "nonpayable",
      "type": "function"
    },
    {
      "inputs": [],
      "name": "totalManagers",
      "outputs": [
        {
          "internalType": "uint256",
          "name": "",
          "type": "uint256"
        }
      ],
      "stateMutability": "view",
      "type": "function"
    },
    {
      "inputs": [
        {
          "internalType": "uint256",
          "name": "newRoot",
          "type": "uint256"
        },
        {
          "internalType": "uint256",
          "name": "deadline",
          "type": "uint256"
        },
        {
          "internalType": "bytes[]",
          "name": "signatures",
          "type": "bytes[]"
        }
      ],
      "name": "updateMerkleRoot",
      "outputs": [],
      "stateMutability": "nonpayable",
      "type": "function"
    }
  ],
  "bytecode": "0x6101606040523480156200001257600080fd5b506040518060400160405280600881526020017f5a4b566f74696e670000000000000000000000000000000000000000000000008152506040518060400160405280600181526020017f310000000000000000000000000000000000000000000000000000000000000081525062000095600083620001d860201b90919060201c565b6101208181525050620000b3600182620001d860201b90919060201c565b6101408181525050818051906020012060e08181525050808051906020012061010081815250504660a08181525050620000f26200023060201b60201c565b608081815250503073ffffffffffffffffffffffffffffffffffffffff1660c08173ffffffffffffffffffffffffffffffffffffffff168152505050506001600260003373ffffffffffffffffffffffffffffffffffffffff1673ffffffffffffffffffffffffffffffffffffffff16815260200190815260200160002060006101000a81548160ff02191690831515021790555060016003819055503373ffffffffffffffffffffffffffffffffffffffff167f3b4a40cccf2058c593542587329dd385be4f0b588db5471fbd9598e56dd7093a60405160405180910390a262000888565b6000602083511015620001fe57620001f6836200028d60201b60201c565b90506200022a565b826200021083620002fa60201b60201c565b60000190816200022191906200057e565b5060ff60001b90505b92915050565b60007f8b73c3c69bb8fe3d512ecc4cf759cc79239f7b179b0ffacaa9a75d522b39400f60e05161010051463060405160200162000272959493929190620006d6565b60405160208183030381529060405280519060200120905090565b600080829050601f81511115620002dd57826040517f305a27a9000000000000000000000000000000000000000000000000000000008152600401620002d49190620007c2565b60405180910390fd5b805181620002eb9062000818565b60001c1760001b915050919050565b6000819050919050565b600081519050919050565b7f4e487b7100000000000000000000000000000000000000000000000000000000600052604160045260246000fd5b7f4e487b7100000000000000000000000000000000000000000000000000000000600052602260045260246000fd5b600060028204905060018216806200038657607f821691505b6020821081036200039c576200039b6200033e565b5b50919050565b60008190508160005260206000209050919050565b60006020601f8301049050919050565b600082821b905092915050565b600060088302620004067fffffffffffffffffffffffffffffffffffffffffffffffffffffffffffffffff82620003c7565b620004128683620003c7565b95508019841693508086168417925050509392505050565b6000819050919050565b6000819050919050565b60006200045f6200045962000453846200042a565b62000434565b6200042a565b9050919050565b6000819050919050565b6200047b836200043e565b620004936200048a8262000466565b848454620003d4565b825550505050565b600090565b620004aa6200049b565b620004b781848462000470565b505050565b5b81811015620004df57620004d3600082620004a0565b600181019050620004bd565b5050565b601f8211156200052e57620004f881620003a2565b6200050384620003b7565b8101602085101562000513578190505b6200052b6200052285620003b7565b830182620004bc565b50505b505050565b600082821c905092915050565b6000620005536000198460080262000533565b1980831691505092915050565b60006200056e838362000540565b9150826002028217905092915050565b620005898262000304565b67ffffffffffffffff811115620005a557620005a46200030f565b5b620005b182546200036d565b620005be828285620004e3565b600060209050601f831160018114620005f65760008415620005e1578287015190505b620005ed858262000560565b8655506200065d565b601f1984166200060686620003a2565b60005b82811015620006305784890151825560018201915060208501945060208101905062000609565b868310156200065057848901516200064c601f89168262000540565b8355505b6001600288020188555050505b505050505050565b6000819050919050565b6200067a8162000665565b82525050565b6200068b816200042a565b82525050565b600073ffffffffffffffffffffffffffffffffffffffff82169050919050565b6000620006be8262000691565b9050919050565b620006d081620006b1565b82525050565b600060a082019050620006ed60008301886200066f565b620006fc60208301876200066f565b6200070b60408301866200066f565b6200071a606083018562000680565b620007296080830184620006c5565b9695505050505050565b600082825260208201905092915050565b60005b838110156200076457808201518184015260208101905062000747565b60008484015250505050565b6000601f19601f8301169050919050565b60006200078e8262000304565b6200079a818562000733565b9350620007ac81856020860162000744565b620007b78162000770565b840191505092915050565b60006020820190508181036000830152620007de818462000781565b905092915050565b600081519050919050565b6000819050602082019050919050565b60006200080f825162000665565b80915050919050565b60006200082582620007e6565b826200083184620007f1565b90506200083e8162000801565b9250602082101562000881576200087c7fffffffffffffffffffffffffffffffffffffffffffffffffffffffffffffffff83602003600802620003c7565b831692505b5050919050565b60805160a05160c05160e051610100516101205161014051611e88620008e36000396000610cb001526000610c7501526000610efc01526000610edb01526000610ce601526000610d3c01526000610d650152611e886000f3fe608060405234801561001057600080fd5b50600436106100a95760003560e01c80639ea97190116100715780639ea97190146101465780639f59800b14610164578063affed0e014610180578063c828cbff1461019e578063d5eb7cf4146101bc578063f3ae2415146101da576100a9565b80630324e33a146100ae57806316996aec146100cc5780633771127e146100ea57806375b4f4fa1461010657806384b0196e14610122575b600080fd5b6100b661020a565b6040516100c391906112dd565b60405180910390f35b6100d461022e565b6040516100e191906112dd565b60405180910390f35b61010460048036038101906100ff91906113fb565b610252565b005b610120600480360381019061011b919061146f565b610530565b005b61012a6106d2565b60405161013d979695949392919061168a565b60405180910390f35b61014e61077c565b60405161015b919061170e565b60405180910390f35b61017e600480360381019061017991906113fb565b610782565b005b610188610a1c565b604051610195919061170e565b60405180910390f35b6101a6610a22565b6040516101b391906112dd565b60405180910390f35b6101c4610a46565b6040516101d1919061170e565b60405180910390f35b6101f460048036038101906101ef9190611729565b610a4c565b6040516102019190611771565b60405180910390f35b7fe713590bef0519313f61007eb43d5ce00f59fbd55d2659aedde1d8abcb8b7c9381565b7f4fa5b4aaafd3cc2cec824e7de0e8a8c07799976a1864ef417f1785e186f744b081565b600260003373ffffffffffffffffffffffffffffffffffffffff1673ffffffffffffffffffffffffffffffffffffffff16815260200190815260200160002060009054906101000a900460ff166102de576040517f08c379a00000000000000000000000000000000000000000000000000000000081526004016102d5906117d8565b60405180910390fd5b600260008573ffffffffffffffffffffffffffffffffffffffff1673ffffffffffffffffffffffffffffffffffffffff16815260200190815260200160002060009054906101000a900460ff1661036a576040517f08c379a000000000000000000000000000000000000000000000000000000000815260040161036190611844565b60405180910390fd5b6001600354116103af576040517f08c379a00000000000000000000000000000000000000000000000000000000081526004016103a6906118b0565b60405180910390fd5b824211156103f2576040517f08c379a00000000000000000000000000000000000000000000000000000000081526004016103e99061191c565b60405180910390fd5b60007fe713590bef0519313f61007eb43d5ce00f59fbd55d2659aedde1d8abcb8b7c93856005548660405160200161042d949392919061193c565b604051602081830303815290604052805190602001209050600061045082610a6c565b905061045d818585610a86565b6000600260008873ffffffffffffffffffffffffffffffffffffffff1673ffffffffffffffffffffffffffffffffffffffff16815260200190815260200160002060006101000a81548160ff021916908315150217905550600360008154809291906104c8906119b0565b9190505550600560008154809291906104e0906119d9565b91905055508573ffffffffffffffffffffffffffffffffffffffff167fef69f7d97228658c92417be1b16b19058315de71fecb435d07b7d23728b6bd3160405160405180910390a2505050505050565b600260003373ffffffffffffffffffffffffffffffffffffffff1673ffffffffffffffffffffffffffffffffffffffff16815260200190815260200160002060009054906101000a900460ff166105bc576040517f08c379a00000000000000000000000000000000000000000000000000000000081526004016105b3906117d8565b60405180910390fd5b824211156105ff576040517f08c379a00000000000000000000000000000000000000000000000000000000081526004016105f69061191c565b60405180910390fd5b60007f4fa5b4aaafd3cc2cec824e7de0e8a8c07799976a1864ef417f1785e186f744b0856005548660405160200161063a9493929190611a21565b604051602081830303815290604052805190602001209050600061065d82610a6c565b905061066a818585610a86565b60006004549050866004819055506005600081548092919061068b906119d9565b91905055507f3d5a9dc566f67ff4ad358cf0250c6418e6ca5f0539ed838073f957250bf5b60e81886040516106c1929190611a66565b60405180910390a150505050505050565b6000606080600080600060606106e6610c6c565b6106ee610ca7565b46306000801b600067ffffffffffffffff81111561070f5761070e611a8f565b5b60405190808252806020026020018201604052801561073d5781602001602082028036833780820191505090505b507f0f00000000000000000000000000000000000000000000000000000000000000959493929190965096509650965096509650965090919293949596565b60045481565b600260003373ffffffffffffffffffffffffffffffffffffffff1673ffffffffffffffffffffffffffffffffffffffff16815260200190815260200160002060009054906101000a900460ff1661080e576040517f08c379a0000000000000000000000000000000000000000000000000000000008152600401610805906117d8565b60405180910390fd5b600260008573ffffffffffffffffffffffffffffffffffffffff1673ffffffffffffffffffffffffffffffffffffffff16815260200190815260200160002060009054906101000a900460ff161561089b576040517f08c379a000000000000000000000000000000000000000000000000000000000815260040161089290611b0a565b60405180910390fd5b824211156108de576040517f08c379a00000000000000000000000000000000000000000000000000000000081526004016108d59061191c565b60405180910390fd5b60007fad2df307b3603ef70ef1df0b8a182a29fd0c0856a6b17eb105a9d367fc84f3418560055486604051602001610919949392919061193c565b604051602081830303815290604052805190602001209050600061093c82610a6c565b9050610949818585610a86565b6001600260008873ffffffffffffffffffffffffffffffffffffffff1673ffffffffffffffffffffffffffffffffffffffff16815260200190815260200160002060006101000a81548160ff021916908315150217905550600360008154809291906109b4906119d9565b9190505550600560008154809291906109cc906119d9565b91905055508573ffffffffffffffffffffffffffffffffffffffff167f3b4a40cccf2058c593542587329dd385be4f0b588db5471fbd9598e56dd7093a60405160405180910390a2505050505050565b60055481565b7fad2df307b3603ef70ef1df0b8a182a29fd0c0856a6b17eb105a9d367fc84f34181565b60035481565b60026020528060005260406000206000915054906101000a900460ff1681565b6000610a7f610a79610ce2565b83610d99565b9050919050565b6003548282905014610acd576040517f08c379a0000000000000000000000000000000000000000000000000000000008152600401610ac490611b76565b60405180910390fd5b6000805b83839050811015610c65576000610b58858584818110610af457610af3611b96565b5b9050602002810190610b069190611bd4565b8080601f016020809104026020016040519081016040528093929190818152602001838380828437600081840152601f19601f8201169050808301925050505050505087610dda90919063ffffffff16565b9050600260008273ffffffffffffffffffffffffffffffffffffffff1673ffffffffffffffffffffffffffffffffffffffff16815260200190815260200160002060009054906101000a900460ff16610be6576040517f08c379a0000000000000000000000000000000000000000000000000000000008152600401610bdd90611c83565b60405180910390fd5b8273ffffffffffffffffffffffffffffffffffffffff168173ffffffffffffffffffffffffffffffffffffffff1611610c54576040517f08c379a0000000000000000000000000000000000000000000000000000000008152600401610c4b90611cef565b60405180910390fd5b809250508080600101915050610ad1565b5050505050565b6060610ca260007f0000000000000000000000000000000000000000000000000000000000000000610e0690919063ffffffff16565b905090565b6060610cdd60017f0000000000000000000000000000000000000000000000000000000000000000610e0690919063ffffffff16565b905090565b60007f000000000000000000000000000000000000000000000000000000000000000073ffffffffffffffffffffffffffffffffffffffff163073ffffffffffffffffffffffffffffffffffffffff16148015610d5e57507f000000000000000000000000000000000000000000000000000000000000000046145b15610d8b577f00000000000000000000000000000000000000000000000000000000000000009050610d96565b610d93610eb6565b90505b90565b60006040517f190100000000000000000000000000000000000000000000000000000000000081528360028201528260228201526042812091505092915050565b600080600080610dea8686610f4c565b925092509250610dfa8282610fa8565b82935050505092915050565b606060ff60001b8314610e2357610e1c8361110c565b9050610eb0565b818054610e2f90611d3e565b80601f0160208091040260200160405190810160405280929190818152602001828054610e5b90611d3e565b8015610ea85780601f10610e7d57610100808354040283529160200191610ea8565b820191906000526020600020905b815481529060010190602001808311610e8b57829003601f168201915b505050505090505b92915050565b60007f8b73c3c69bb8fe3d512ecc4cf759cc79239f7b179b0ffacaa9a75d522b39400f7f00000000000000000000000000000000000000000000000000000000000000007f00000000000000000000000000000000000000000000000000000000000000004630604051602001610f31959493929190611d6f565b60405160208183030381529060405280519060200120905090565b60008060006041845103610f915760008060006020870151925060408701519150606087015160001a9050610f8388828585611180565b955095509550505050610fa1565b60006002855160001b9250925092505b9250925092565b60006003811115610fbc57610fbb611dc2565b5b826003811115610fcf57610fce611dc2565b5b03156111085760016003811115610fe957610fe8611dc2565b5b826003811115610ffc57610ffb611dc2565b5b03611033576040517ff645eedf00000000000000000000000000000000000000000000000000000000815260040160405180910390fd5b6002600381111561104757611046611dc2565b5b82600381111561105a57611059611dc2565b5b0361109f578060001c6040517ffce698f7000000000000000000000000000000000000000000000000000000008152600401611096919061170e565b60405180910390fd5b6003808111156110b2576110b1611dc2565b5b8260038111156110c5576110c4611dc2565b5b0361110757806040517fd78bce0c0000000000000000000000000000000000000000000000000000000081526004016110fe91906112dd565b60405180910390fd5b5b5050565b6060600061111983611274565b90506000602067ffffffffffffffff81111561113857611137611a8f565b5b6040519080825280601f01601f19166020018201604052801561116a5781602001600182028036833780820191505090505b5090508181528360208201528092505050919050565b60008060007f7fffffffffffffffffffffffffffffff5d576e7357a4501ddfe92f46681b20a08460001c11156111c057600060038592509250925061126a565b6000600188888888604051600081526020016040526040516111e59493929190611e0d565b6020604051602081039080840390855afa158015611207573d6000803e3d6000fd5b505050602060405103519050600073ffffffffffffffffffffffffffffffffffffffff168173ffffffffffffffffffffffffffffffffffffffff160361125b57600060016000801b9350935093505061126a565b8060008060001b935093509350505b9450945094915050565b60008060ff8360001c169050601f8111156112bb576040517fb3512b0c00000000000000000000000000000000000000000000000000000000815260040160405180910390fd5b80915050919050565b6000819050919050565b6112d7816112c4565b82525050565b60006020820190506112f260008301846112ce565b92915050565b600080fd5b600080fd5b600073ffffffffffffffffffffffffffffffffffffffff82169050919050565b600061132d82611302565b9050919050565b61133d81611322565b811461134857600080fd5b50565b60008135905061135a81611334565b92915050565b6000819050919050565b61137381611360565b811461137e57600080fd5b50565b6000813590506113908161136a565b92915050565b600080fd5b600080fd5b600080fd5b60008083601f8401126113bb576113ba611396565b5b8235905067ffffffffffffffff8111156113d8576113d761139b565b5b6020830191508360208202830111156113f4576113f36113a0565b5b9250929050565b60008060008060608587031215611415576114146112f8565b5b60006114238782880161134b565b945050602061143487828801611381565b935050604085013567ffffffffffffffff811115611455576114546112fd565b5b611461878288016113a5565b925092505092959194509250565b60008060008060608587031215611489576114886112f8565b5b600061149787828801611381565b94505060206114a887828801611381565b935050604085013567ffffffffffffffff8111156114c9576114c86112fd565b5b6114d5878288016113a5565b925092505092959194509250565b60007fff0000000000000000000000000000000000000000000000000000000000000082169050919050565b611518816114e3565b82525050565b600081519050919050565b600082825260208201905092915050565b60005b8381101561155857808201518184015260208101905061153d565b60008484015250505050565b6000601f19601f8301169050919050565b60006115808261151e565b61158a8185611529565b935061159a81856020860161153a565b6115a381611564565b840191505092915050565b6115b781611360565b82525050565b6115c681611322565b82525050565b600081519050919050565b600082825260208201905092915050565b6000819050602082019050919050565b61160181611360565b82525050565b600061161383836115f8565b60208301905092915050565b6000602082019050919050565b6000611637826115cc565b61164181856115d7565b935061164c836115e8565b8060005b8381101561167d5781516116648882611607565b975061166f8361161f565b925050600181019050611650565b5085935050505092915050565b600060e08201905061169f600083018a61150f565b81810360208301526116b18189611575565b905081810360408301526116c58188611575565b90506116d460608301876115ae565b6116e160808301866115bd565b6116ee60a08301856112ce565b81810360c0830152611700818461162c565b905098975050505050505050565b600060208201905061172360008301846115ae565b92915050565b60006020828403121561173f5761173e6112f8565b5b600061174d8482850161134b565b91505092915050565b60008115159050919050565b61176b81611756565b82525050565b60006020820190506117866000830184611762565b92915050565b7f4e6f7420616e20617574686f72697a6564206d616e6167657200000000000000600082015250565b60006117c2601983611529565b91506117cd8261178c565b602082019050919050565b600060208201905081810360008301526117f1816117b5565b9050919050565b7f4e6f742061206d616e6167657200000000000000000000000000000000000000600082015250565b600061182e600d83611529565b9150611839826117f8565b602082019050919050565b6000602082019050818103600083015261185d81611821565b9050919050565b7f43616e6e6f742072656d6f7665206c617374206d616e61676572000000000000600082015250565b600061189a601a83611529565b91506118a582611864565b602082019050919050565b600060208201905081810360008301526118c98161188d565b9050919050565b7f5369676e61747572652065787069726564000000000000000000000000000000600082015250565b6000611906601183611529565b9150611911826118d0565b602082019050919050565b60006020820190508181036000830152611935816118f9565b9050919050565b600060808201905061195160008301876112ce565b61195e60208301866115bd565b61196b60408301856115ae565b61197860608301846115ae565b95945050505050565b7f4e487b7100000000000000000000000000000000000000000000000000000000600052601160045260246000fd5b60006119bb82611360565b9150600082036119ce576119cd611981565b5b600182039050919050565b60006119e482611360565b91507fffffffffffffffffffffffffffffffffffffffffffffffffffffffffffffffff8203611a1657611a15611981565b5b600182019050919050565b6000608082019050611a3660008301876112ce565b611a4360208301866115ae565b611a5060408301856115ae565b611a5d60608301846115ae565b95945050505050565b6000604082019050611a7b60008301856115ae565b611a8860208301846115ae565b9392505050565b7f4e487b7100000000000000000000000000000000000000000000000000000000600052604160045260246000fd5b7f416c7265616479206d616e616765720000000000000000000000000000000000600082015250565b6000611af4600f83611529565b9150611aff82611abe565b602082019050919050565b60006020820190508181036000830152611b2381611ae7565b9050919050565b7f416c6c206d616e6167657273206d75737420617070726f766500000000000000600082015250565b6000611b60601983611529565b9150611b6b82611b2a565b602082019050919050565b60006020820190508181036000830152611b8f81611b53565b9050919050565b7f4e487b7100000000000000000000000000000000000000000000000000000000600052603260045260246000fd5b600080fd5b600080fd5b600080fd5b60008083356001602003843603038112611bf157611bf0611bc5565b5b80840192508235915067ffffffffffffffff821115611c1357611c12611bca565b5b602083019250600182023603831315611c2f57611c2e611bcf565b5b509250929050565b7f556e617574686f72697a6564207369676e657200000000000000000000000000600082015250565b6000611c6d601383611529565b9150611c7882611c37565b602082019050919050565b60006020820190508181036000830152611c9c81611c60565b9050919050565b7f5369676e617475726573206e6f7420756e697175652f736f7274656400000000600082015250565b6000611cd9601c83611529565b9150611ce482611ca3565b602082019050919050565b60006020820190508181036000830152611d0881611ccc565b9050919050565b7f4e487b7100000000000000000000000000000000000000000000000000000000600052602260045260246000fd5b60006002820490506001821680611d5657607f821691505b602082108103611d6957611d68611d0f565b5b50919050565b600060a082019050611d8460008301886112ce565b611d9160208301876112ce565b611d9e60408301866112ce565b611dab60608301856115ae565b611db860808301846115bd565b9695505050505050565b7f4e487b7100000000000000000000000000000000000000000000000000000000600052602160045260246000fd5b600060ff82169050919050565b611e0781611df1565b82525050565b6000608082019050611e2260008301876112ce565b611e2f6020830186611dfe565b611e3c60408301856112ce565b611e4960608301846112ce565b9594505050505056fea264697066735822122002c9ab9467a36a2e5a3e0f61761850714c3696a5f1e3c2e133effaf4f935f23564736f6c63430008180033",
  "linkReferences": {},
  "deployedLinkReferences": {}
}